{
	"exercises/twitter.sol": {
		"Twitter": {
			"abi": [
				{
					"inputs": [],
					"stateMutability": "nonpayable",
					"type": "constructor"
				},
				{
					"inputs": [],
					"name": "MAX_TWEET_LENGTH",
					"outputs": [
						{
							"internalType": "uint256",
							"name": "",
							"type": "uint256"
						}
					],
					"stateMutability": "view",
					"type": "function"
				},
				{
					"inputs": [
						{
							"internalType": "uint256",
							"name": "newLength",
							"type": "uint256"
						}
					],
					"name": "changeTweetLength",
					"outputs": [],
					"stateMutability": "nonpayable",
					"type": "function"
				},
				{
					"inputs": [
						{
							"internalType": "string",
							"name": "_tweet",
							"type": "string"
						}
					],
					"name": "createTweet",
					"outputs": [],
					"stateMutability": "nonpayable",
					"type": "function"
				},
				{
					"inputs": [],
					"name": "getAllTweets",
					"outputs": [
						{
							"components": [
								{
									"internalType": "uint256",
									"name": "id",
									"type": "uint256"
								},
								{
									"internalType": "address",
									"name": "author",
									"type": "address"
								},
								{
									"internalType": "string",
									"name": "content",
									"type": "string"
								},
								{
									"internalType": "uint256",
									"name": "timestamp",
									"type": "uint256"
								},
								{
									"internalType": "uint256",
									"name": "likes",
									"type": "uint256"
								}
							],
							"internalType": "struct Twitter.Tweet[]",
							"name": "",
							"type": "tuple[]"
						}
					],
					"stateMutability": "view",
					"type": "function"
				},
				{
					"inputs": [
						{
							"internalType": "uint256",
							"name": "i",
							"type": "uint256"
						}
					],
					"name": "getTweet",
					"outputs": [
						{
							"components": [
								{
									"internalType": "uint256",
									"name": "id",
									"type": "uint256"
								},
								{
									"internalType": "address",
									"name": "author",
									"type": "address"
								},
								{
									"internalType": "string",
									"name": "content",
									"type": "string"
								},
								{
									"internalType": "uint256",
									"name": "timestamp",
									"type": "uint256"
								},
								{
									"internalType": "uint256",
									"name": "likes",
									"type": "uint256"
								}
							],
							"internalType": "struct Twitter.Tweet",
							"name": "",
							"type": "tuple"
						}
					],
					"stateMutability": "view",
					"type": "function"
				},
				{
					"inputs": [
						{
							"internalType": "uint256",
							"name": "id",
							"type": "uint256"
						},
						{
							"internalType": "address",
							"name": "author",
							"type": "address"
						}
					],
					"name": "likeTweet",
					"outputs": [],
					"stateMutability": "nonpayable",
					"type": "function"
				},
				{
					"inputs": [],
					"name": "owner",
					"outputs": [
						{
							"internalType": "address",
							"name": "",
							"type": "address"
						}
					],
					"stateMutability": "view",
					"type": "function"
				},
				{
					"inputs": [
						{
							"internalType": "address",
							"name": "",
							"type": "address"
						},
						{
							"internalType": "uint256",
							"name": "",
							"type": "uint256"
						}
					],
					"name": "tweets",
					"outputs": [
						{
							"internalType": "uint256",
							"name": "id",
							"type": "uint256"
						},
						{
							"internalType": "address",
							"name": "author",
							"type": "address"
						},
						{
							"internalType": "string",
							"name": "content",
							"type": "string"
						},
						{
							"internalType": "uint256",
							"name": "timestamp",
							"type": "uint256"
						},
						{
							"internalType": "uint256",
							"name": "likes",
							"type": "uint256"
						}
					],
					"stateMutability": "view",
					"type": "function"
				},
				{
					"inputs": [
						{
							"internalType": "uint256",
							"name": "id",
							"type": "uint256"
						},
						{
							"internalType": "address",
							"name": "author",
							"type": "address"
						}
					],
					"name": "unLikeTweet",
					"outputs": [],
					"stateMutability": "nonpayable",
					"type": "function"
				}
			],
			"devdoc": {
				"kind": "dev",
				"methods": {},
				"version": 1
			},
			"evm": {
				"assembly": "    /* \"exercises/twitter.sol\":57:1706  contract Twitter{... */\n  mstore(0x40, 0x80)\n    /* \"exercises/twitter.sol\":278:281  280 */\n  0x0118\n    /* \"exercises/twitter.sol\":247:281  uint public MAX_TWEET_LENGTH = 280 */\n  0x01\n  sstore\n    /* \"exercises/twitter.sol\":341:390  constructor() {... */\n  callvalue\n  dup1\n  iszero\n  tag_1\n  jumpi\n  0x00\n  dup1\n  revert\ntag_1:\n  pop\n    /* \"exercises/twitter.sol\":373:383  msg.sender */\n  caller\n    /* \"exercises/twitter.sol\":365:370  owner */\n  0x00\n  dup1\n    /* \"exercises/twitter.sol\":365:383  owner = msg.sender */\n  0x0100\n  exp\n  dup2\n  sload\n  dup2\n  0xffffffffffffffffffffffffffffffffffffffff\n  mul\n  not\n  and\n  swap1\n  dup4\n  0xffffffffffffffffffffffffffffffffffffffff\n  and\n  mul\n  or\n  swap1\n  sstore\n  pop\n    /* \"exercises/twitter.sol\":57:1706  contract Twitter{... */\n  dataSize(sub_0)\n  dup1\n  dataOffset(sub_0)\n  0x00\n  codecopy\n  0x00\n  return\nstop\n\nsub_0: assembly {\n        /* \"exercises/twitter.sol\":57:1706  contract Twitter{... */\n      mstore(0x40, 0x80)\n      callvalue\n      dup1\n      iszero\n      tag_1\n      jumpi\n      0x00\n      dup1\n      revert\n    tag_1:\n      pop\n      jumpi(tag_2, lt(calldatasize, 0x04))\n      shr(0xe0, calldataload(0x00))\n      dup1\n      0x7c9cd2bc\n      gt\n      tag_12\n      jumpi\n      dup1\n      0x7c9cd2bc\n      eq\n      tag_7\n      jumpi\n      dup1\n      0x888a7880\n      eq\n      tag_8\n      jumpi\n      dup1\n      0x8da5cb5b\n      eq\n      tag_9\n      jumpi\n      dup1\n      0xc3ad5ecb\n      eq\n      tag_10\n      jumpi\n      dup1\n      0xd04ddaa0\n      eq\n      tag_11\n      jumpi\n      jump(tag_2)\n    tag_12:\n      dup1\n      0x05a1b4a9\n      eq\n      tag_3\n      jumpi\n      dup1\n      0x3fcd2d06\n      eq\n      tag_4\n      jumpi\n      dup1\n      0x53256135\n      eq\n      tag_5\n      jumpi\n      dup1\n      0x6eb10797\n      eq\n      tag_6\n      jumpi\n    tag_2:\n      0x00\n      dup1\n      revert\n        /* \"exercises/twitter.sol\":292:334  mapping (address => Tweet[]) public tweets */\n    tag_3:\n      tag_13\n      0x04\n      dup1\n      calldatasize\n      sub\n      dup2\n      add\n      swap1\n      tag_14\n      swap2\n      swap1\n      tag_15\n      jump\t// in\n    tag_14:\n      tag_16\n      jump\t// in\n    tag_13:\n      mload(0x40)\n      tag_17\n      swap6\n      swap5\n      swap4\n      swap3\n      swap2\n      swap1\n      tag_18\n      jump\t// in\n    tag_17:\n      mload(0x40)\n      dup1\n      swap2\n      sub\n      swap1\n      return\n        /* \"exercises/twitter.sol\":1518:1704  function unLikeTweet(uint id,address author) external tweetExists(id,author) {... */\n    tag_4:\n      tag_19\n      0x04\n      dup1\n      calldatasize\n      sub\n      dup2\n      add\n      swap1\n      tag_20\n      swap2\n      swap1\n      tag_21\n      jump\t// in\n    tag_20:\n      tag_22\n      jump\t// in\n    tag_19:\n      stop\n        /* \"exercises/twitter.sol\":1064:1166  function getAllTweets() view public returns (Tweet[] memory){... */\n    tag_5:\n      tag_23\n      tag_24\n      jump\t// in\n    tag_23:\n      mload(0x40)\n      tag_25\n      swap2\n      swap1\n      tag_26\n      jump\t// in\n    tag_25:\n      mload(0x40)\n      dup1\n      swap2\n      sub\n      swap1\n      return\n        /* \"exercises/twitter.sol\":247:281  uint public MAX_TWEET_LENGTH = 280 */\n    tag_6:\n      tag_27\n      tag_28\n      jump\t// in\n    tag_27:\n      mload(0x40)\n      tag_29\n      swap2\n      swap1\n      tag_30\n      jump\t// in\n    tag_29:\n      mload(0x40)\n      dup1\n      swap2\n      sub\n      swap1\n      return\n        /* \"exercises/twitter.sol\":658:1058  function createTweet(string memory _tweet) public {... */\n    tag_7:\n      tag_31\n      0x04\n      dup1\n      calldatasize\n      sub\n      dup2\n      add\n      swap1\n      tag_32\n      swap2\n      swap1\n      tag_33\n      jump\t// in\n    tag_32:\n      tag_34\n      jump\t// in\n    tag_31:\n      stop\n        /* \"exercises/twitter.sol\":1283:1388  function changeTweetLength(uint newLength) public onlyOwner {... */\n    tag_8:\n      tag_35\n      0x04\n      dup1\n      calldatasize\n      sub\n      dup2\n      add\n      swap1\n      tag_36\n      swap2\n      swap1\n      tag_37\n      jump\t// in\n    tag_36:\n      tag_38\n      jump\t// in\n    tag_35:\n      stop\n        /* \"exercises/twitter.sol\":80:100  address public owner */\n    tag_9:\n      tag_39\n      tag_40\n      jump\t// in\n    tag_39:\n      mload(0x40)\n      tag_41\n      swap2\n      swap1\n      tag_42\n      jump\t// in\n    tag_41:\n      mload(0x40)\n      dup1\n      swap2\n      sub\n      swap1\n      return\n        /* \"exercises/twitter.sol\":1172:1277  function getTweet(uint i) view public returns (Tweet memory){... */\n    tag_10:\n      tag_43\n      0x04\n      dup1\n      calldatasize\n      sub\n      dup2\n      add\n      swap1\n      tag_44\n      swap2\n      swap1\n      tag_37\n      jump\t// in\n    tag_44:\n      tag_45\n      jump\t// in\n    tag_43:\n      mload(0x40)\n      tag_46\n      swap2\n      swap1\n      tag_47\n      jump\t// in\n    tag_46:\n      mload(0x40)\n      dup1\n      swap2\n      sub\n      swap1\n      return\n        /* \"exercises/twitter.sol\":1394:1512  function likeTweet(uint id,address author) external tweetExists(id,author) {... */\n    tag_11:\n      tag_48\n      0x04\n      dup1\n      calldatasize\n      sub\n      dup2\n      add\n      swap1\n      tag_49\n      swap2\n      swap1\n      tag_21\n      jump\t// in\n    tag_49:\n      tag_50\n      jump\t// in\n    tag_48:\n      stop\n        /* \"exercises/twitter.sol\":292:334  mapping (address => Tweet[]) public tweets */\n    tag_16:\n      mstore(0x20, 0x02)\n      dup2\n      0x00\n      mstore\n      keccak256(0x00, 0x40)\n      dup2\n      dup2\n      sload\n      dup2\n      lt\n      tag_51\n      jumpi\n      0x00\n      dup1\n      revert\n    tag_51:\n      swap1\n      0x00\n      mstore\n      keccak256(0x00, 0x20)\n      swap1\n      0x05\n      mul\n      add\n      0x00\n      swap2\n      pop\n      swap2\n      pop\n      pop\n      dup1\n      0x00\n      add\n      sload\n      swap1\n      dup1\n      0x01\n      add\n      0x00\n      swap1\n      sload\n      swap1\n      0x0100\n      exp\n      swap1\n      div\n      0xffffffffffffffffffffffffffffffffffffffff\n      and\n      swap1\n      dup1\n      0x02\n      add\n      dup1\n      sload\n      tag_53\n      swap1\n      tag_54\n      jump\t// in\n    tag_53:\n      dup1\n      0x1f\n      add\n      0x20\n      dup1\n      swap2\n      div\n      mul\n      0x20\n      add\n      mload(0x40)\n      swap1\n      dup2\n      add\n      0x40\n      mstore\n      dup1\n      swap3\n      swap2\n      swap1\n      dup2\n      dup2\n      mstore\n      0x20\n      add\n      dup3\n      dup1\n      sload\n      tag_55\n      swap1\n      tag_54\n      jump\t// in\n    tag_55:\n      dup1\n      iszero\n      tag_56\n      jumpi\n      dup1\n      0x1f\n      lt\n      tag_57\n      jumpi\n      0x0100\n      dup1\n      dup4\n      sload\n      div\n      mul\n      dup4\n      mstore\n      swap2\n      0x20\n      add\n      swap2\n      jump(tag_56)\n    tag_57:\n      dup3\n      add\n      swap2\n      swap1\n      0x00\n      mstore\n      keccak256(0x00, 0x20)\n      swap1\n    tag_58:\n      dup2\n      sload\n      dup2\n      mstore\n      swap1\n      0x01\n      add\n      swap1\n      0x20\n      add\n      dup1\n      dup4\n      gt\n      tag_58\n      jumpi\n      dup3\n      swap1\n      sub\n      0x1f\n      and\n      dup3\n      add\n      swap2\n    tag_56:\n      pop\n      pop\n      pop\n      pop\n      pop\n      swap1\n      dup1\n      0x03\n      add\n      sload\n      swap1\n      dup1\n      0x04\n      add\n      sload\n      swap1\n      pop\n      dup6\n      jump\t// out\n        /* \"exercises/twitter.sol\":1518:1704  function unLikeTweet(uint id,address author) external tweetExists(id,author) {... */\n    tag_22:\n        /* \"exercises/twitter.sol\":1584:1586  id */\n      dup2\n        /* \"exercises/twitter.sol\":1587:1593  author */\n      dup2\n        /* \"exercises/twitter.sol\":609:611  id */\n      dup2\n        /* \"exercises/twitter.sol\":587:593  tweets */\n      0x02\n        /* \"exercises/twitter.sol\":587:601  tweets[author] */\n      0x00\n        /* \"exercises/twitter.sol\":594:600  author */\n      dup4\n        /* \"exercises/twitter.sol\":587:601  tweets[author] */\n      0xffffffffffffffffffffffffffffffffffffffff\n      and\n      0xffffffffffffffffffffffffffffffffffffffff\n      and\n      dup2\n      mstore\n      0x20\n      add\n      swap1\n      dup2\n      mstore\n      0x20\n      add\n      0x00\n      keccak256\n        /* \"exercises/twitter.sol\":587:608  tweets[author].length */\n      dup1\n      sload\n      swap1\n      pop\n        /* \"exercises/twitter.sol\":587:611  tweets[author].length>id */\n      gt\n        /* \"exercises/twitter.sol\":579:634  require(tweets[author].length>id,\"Tweet does'nt exist\") */\n      tag_60\n      jumpi\n      mload(0x40)\n      0x08c379a000000000000000000000000000000000000000000000000000000000\n      dup2\n      mstore\n      0x04\n      add\n      tag_61\n      swap1\n      tag_62\n      jump\t// in\n    tag_61:\n      mload(0x40)\n      dup1\n      swap2\n      sub\n      swap1\n      revert\n    tag_60:\n        /* \"exercises/twitter.sol\":1638:1639  0 */\n      0x00\n        /* \"exercises/twitter.sol\":1613:1619  tweets */\n      0x02\n        /* \"exercises/twitter.sol\":1613:1627  tweets[author] */\n      0x00\n        /* \"exercises/twitter.sol\":1620:1626  author */\n      dup6\n        /* \"exercises/twitter.sol\":1613:1627  tweets[author] */\n      0xffffffffffffffffffffffffffffffffffffffff\n      and\n      0xffffffffffffffffffffffffffffffffffffffff\n      and\n      dup2\n      mstore\n      0x20\n      add\n      swap1\n      dup2\n      mstore\n      0x20\n      add\n      0x00\n      keccak256\n        /* \"exercises/twitter.sol\":1628:1630  id */\n      dup6\n        /* \"exercises/twitter.sol\":1613:1631  tweets[author][id] */\n      dup2\n      sload\n      dup2\n      lt\n      tag_64\n      jumpi\n      mstore(0x00, 0x4e487b7100000000000000000000000000000000000000000000000000000000)\n      mstore(0x04, 0x32)\n      revert(0x00, 0x24)\n    tag_64:\n      swap1\n      0x00\n      mstore\n      keccak256(0x00, 0x20)\n      swap1\n      0x05\n      mul\n      add\n        /* \"exercises/twitter.sol\":1613:1637  tweets[author][id].likes */\n      0x04\n      add\n      sload\n        /* \"exercises/twitter.sol\":1613:1639  tweets[author][id].likes>0 */\n      gt\n        /* \"exercises/twitter.sol\":1605:1661  require(tweets[author][id].likes>0,\"Tweet has no likes\") */\n      tag_66\n      jumpi\n      mload(0x40)\n      0x08c379a000000000000000000000000000000000000000000000000000000000\n      dup2\n      mstore\n      0x04\n      add\n      tag_67\n      swap1\n      tag_68\n      jump\t// in\n    tag_67:\n      mload(0x40)\n      dup1\n      swap2\n      sub\n      swap1\n      revert\n    tag_66:\n        /* \"exercises/twitter.sol\":1671:1677  tweets */\n      0x02\n        /* \"exercises/twitter.sol\":1671:1685  tweets[author] */\n      0x00\n        /* \"exercises/twitter.sol\":1678:1684  author */\n      dup5\n        /* \"exercises/twitter.sol\":1671:1685  tweets[author] */\n      0xffffffffffffffffffffffffffffffffffffffff\n      and\n      0xffffffffffffffffffffffffffffffffffffffff\n      and\n      dup2\n      mstore\n      0x20\n      add\n      swap1\n      dup2\n      mstore\n      0x20\n      add\n      0x00\n      keccak256\n        /* \"exercises/twitter.sol\":1686:1688  id */\n      dup5\n        /* \"exercises/twitter.sol\":1671:1689  tweets[author][id] */\n      dup2\n      sload\n      dup2\n      lt\n      tag_69\n      jumpi\n      mstore(0x00, 0x4e487b7100000000000000000000000000000000000000000000000000000000)\n      mstore(0x04, 0x32)\n      revert(0x00, 0x24)\n    tag_69:\n      swap1\n      0x00\n      mstore\n      keccak256(0x00, 0x20)\n      swap1\n      0x05\n      mul\n      add\n        /* \"exercises/twitter.sol\":1671:1695  tweets[author][id].likes */\n      0x04\n      add\n      0x00\n        /* \"exercises/twitter.sol\":1671:1697  tweets[author][id].likes-- */\n      dup2\n      sload\n      dup1\n      swap3\n      swap2\n      swap1\n      tag_71\n      swap1\n      tag_72\n      jump\t// in\n    tag_71:\n      swap2\n      swap1\n      pop\n      sstore\n      pop\n        /* \"exercises/twitter.sol\":1518:1704  function unLikeTweet(uint id,address author) external tweetExists(id,author) {... */\n      pop\n      pop\n      pop\n      pop\n      jump\t// out\n        /* \"exercises/twitter.sol\":1064:1166  function getAllTweets() view public returns (Tweet[] memory){... */\n    tag_24:\n        /* \"exercises/twitter.sol\":1109:1123  Tweet[] memory */\n      0x60\n        /* \"exercises/twitter.sol\":1141:1147  tweets */\n      0x02\n        /* \"exercises/twitter.sol\":1141:1159  tweets[msg.sender] */\n      0x00\n        /* \"exercises/twitter.sol\":1148:1158  msg.sender */\n      caller\n        /* \"exercises/twitter.sol\":1141:1159  tweets[msg.sender] */\n      0xffffffffffffffffffffffffffffffffffffffff\n      and\n      0xffffffffffffffffffffffffffffffffffffffff\n      and\n      dup2\n      mstore\n      0x20\n      add\n      swap1\n      dup2\n      mstore\n      0x20\n      add\n      0x00\n      keccak256\n        /* \"exercises/twitter.sol\":1134:1159  return tweets[msg.sender] */\n      dup1\n      sload\n      dup1\n      0x20\n      mul\n      0x20\n      add\n      mload(0x40)\n      swap1\n      dup2\n      add\n      0x40\n      mstore\n      dup1\n      swap3\n      swap2\n      swap1\n      dup2\n      dup2\n      mstore\n      0x20\n      add\n      0x00\n      swap1\n    tag_74:\n      dup3\n      dup3\n      lt\n      iszero\n      tag_75\n      jumpi\n      dup4\n      dup3\n      swap1\n      0x00\n      mstore\n      keccak256(0x00, 0x20)\n      swap1\n      0x05\n      mul\n      add\n      mload(0x40)\n      dup1\n      0xa0\n      add\n      0x40\n      mstore\n      swap1\n      dup2\n      0x00\n      dup3\n      add\n      sload\n      dup2\n      mstore\n      0x20\n      add\n      0x01\n      dup3\n      add\n      0x00\n      swap1\n      sload\n      swap1\n      0x0100\n      exp\n      swap1\n      div\n      0xffffffffffffffffffffffffffffffffffffffff\n      and\n      0xffffffffffffffffffffffffffffffffffffffff\n      and\n      0xffffffffffffffffffffffffffffffffffffffff\n      and\n      dup2\n      mstore\n      0x20\n      add\n      0x02\n      dup3\n      add\n      dup1\n      sload\n      tag_77\n      swap1\n      tag_54\n      jump\t// in\n    tag_77:\n      dup1\n      0x1f\n      add\n      0x20\n      dup1\n      swap2\n      div\n      mul\n      0x20\n      add\n      mload(0x40)\n      swap1\n      dup2\n      add\n      0x40\n      mstore\n      dup1\n      swap3\n      swap2\n      swap1\n      dup2\n      dup2\n      mstore\n      0x20\n      add\n      dup3\n      dup1\n      sload\n      tag_78\n      swap1\n      tag_54\n      jump\t// in\n    tag_78:\n      dup1\n      iszero\n      tag_79\n      jumpi\n      dup1\n      0x1f\n      lt\n      tag_80\n      jumpi\n      0x0100\n      dup1\n      dup4\n      sload\n      div\n      mul\n      dup4\n      mstore\n      swap2\n      0x20\n      add\n      swap2\n      jump(tag_79)\n    tag_80:\n      dup3\n      add\n      swap2\n      swap1\n      0x00\n      mstore\n      keccak256(0x00, 0x20)\n      swap1\n    tag_81:\n      dup2\n      sload\n      dup2\n      mstore\n      swap1\n      0x01\n      add\n      swap1\n      0x20\n      add\n      dup1\n      dup4\n      gt\n      tag_81\n      jumpi\n      dup3\n      swap1\n      sub\n      0x1f\n      and\n      dup3\n      add\n      swap2\n    tag_79:\n      pop\n      pop\n      pop\n      pop\n      pop\n      dup2\n      mstore\n      0x20\n      add\n      0x03\n      dup3\n      add\n      sload\n      dup2\n      mstore\n      0x20\n      add\n      0x04\n      dup3\n      add\n      sload\n      dup2\n      mstore\n      pop\n      pop\n      dup2\n      mstore\n      0x20\n      add\n      swap1\n      0x01\n      add\n      swap1\n      jump(tag_74)\n    tag_75:\n      pop\n      pop\n      pop\n      pop\n      swap1\n      pop\n        /* \"exercises/twitter.sol\":1064:1166  function getAllTweets() view public returns (Tweet[] memory){... */\n      swap1\n      jump\t// out\n        /* \"exercises/twitter.sol\":247:281  uint public MAX_TWEET_LENGTH = 280 */\n    tag_28:\n      sload(0x01)\n      dup2\n      jump\t// out\n        /* \"exercises/twitter.sol\":658:1058  function createTweet(string memory _tweet) public {... */\n    tag_34:\n        /* \"exercises/twitter.sol\":751:767  MAX_TWEET_LENGTH */\n      sload(0x01)\n        /* \"exercises/twitter.sol\":733:739  _tweet */\n      dup2\n        /* \"exercises/twitter.sol\":727:747  bytes(_tweet).length */\n      mload\n        /* \"exercises/twitter.sol\":727:767  bytes(_tweet).length <= MAX_TWEET_LENGTH */\n      gt\n      iszero\n        /* \"exercises/twitter.sol\":719:789  require(bytes(_tweet).length <= MAX_TWEET_LENGTH, \"Tweet is too long\") */\n      tag_83\n      jumpi\n      mload(0x40)\n      0x08c379a000000000000000000000000000000000000000000000000000000000\n      dup2\n      mstore\n      0x04\n      add\n      tag_84\n      swap1\n      tag_85\n      jump\t// in\n    tag_84:\n      mload(0x40)\n      dup1\n      swap2\n      sub\n      swap1\n      revert\n    tag_83:\n        /* \"exercises/twitter.sol\":800:821  Tweet memory newTweet */\n      0x00\n        /* \"exercises/twitter.sol\":824:1007  Tweet({... */\n      mload(0x40)\n      dup1\n      0xa0\n      add\n      0x40\n      mstore\n      dup1\n        /* \"exercises/twitter.sol\":848:854  tweets */\n      0x02\n        /* \"exercises/twitter.sol\":848:866  tweets[msg.sender] */\n      0x00\n        /* \"exercises/twitter.sol\":855:865  msg.sender */\n      caller\n        /* \"exercises/twitter.sol\":848:866  tweets[msg.sender] */\n      0xffffffffffffffffffffffffffffffffffffffff\n      and\n      0xffffffffffffffffffffffffffffffffffffffff\n      and\n      dup2\n      mstore\n      0x20\n      add\n      swap1\n      dup2\n      mstore\n      0x20\n      add\n      0x00\n      keccak256\n        /* \"exercises/twitter.sol\":848:873  tweets[msg.sender].length */\n      dup1\n      sload\n      swap1\n      pop\n        /* \"exercises/twitter.sol\":824:1007  Tweet({... */\n      dup2\n      mstore\n      0x20\n      add\n        /* \"exercises/twitter.sol\":895:905  msg.sender */\n      caller\n        /* \"exercises/twitter.sol\":824:1007  Tweet({... */\n      0xffffffffffffffffffffffffffffffffffffffff\n      and\n      dup2\n      mstore\n      0x20\n      add\n        /* \"exercises/twitter.sol\":928:934  _tweet */\n      dup4\n        /* \"exercises/twitter.sol\":824:1007  Tweet({... */\n      dup2\n      mstore\n      0x20\n      add\n        /* \"exercises/twitter.sol\":959:974  block.timestamp */\n      timestamp\n        /* \"exercises/twitter.sol\":824:1007  Tweet({... */\n      dup2\n      mstore\n      0x20\n      add\n        /* \"exercises/twitter.sol\":995:996  0 */\n      0x00\n        /* \"exercises/twitter.sol\":824:1007  Tweet({... */\n      dup2\n      mstore\n      pop\n        /* \"exercises/twitter.sol\":800:1007  Tweet memory newTweet = Tweet({... */\n      swap1\n      pop\n        /* \"exercises/twitter.sol\":1018:1024  tweets */\n      0x02\n        /* \"exercises/twitter.sol\":1018:1036  tweets[msg.sender] */\n      0x00\n        /* \"exercises/twitter.sol\":1025:1035  msg.sender */\n      caller\n        /* \"exercises/twitter.sol\":1018:1036  tweets[msg.sender] */\n      0xffffffffffffffffffffffffffffffffffffffff\n      and\n      0xffffffffffffffffffffffffffffffffffffffff\n      and\n      dup2\n      mstore\n      0x20\n      add\n      swap1\n      dup2\n      mstore\n      0x20\n      add\n      0x00\n      keccak256\n        /* \"exercises/twitter.sol\":1042:1050  newTweet */\n      dup2\n        /* \"exercises/twitter.sol\":1018:1051  tweets[msg.sender].push(newTweet) */\n      swap1\n      dup1\n      0x01\n      dup2\n      sload\n      add\n      dup1\n      dup3\n      sstore\n      dup1\n      swap2\n      pop\n      pop\n      0x01\n      swap1\n      sub\n      swap1\n      0x00\n      mstore\n      keccak256(0x00, 0x20)\n      swap1\n      0x05\n      mul\n      add\n      0x00\n      swap1\n      swap2\n      swap1\n      swap2\n      swap1\n      swap2\n      pop\n      0x00\n      dup3\n      add\n      mload\n      dup2\n      0x00\n      add\n      sstore\n      0x20\n      dup3\n      add\n      mload\n      dup2\n      0x01\n      add\n      exp(0x0100, 0x00)\n      dup2\n      sload\n      dup2\n      0xffffffffffffffffffffffffffffffffffffffff\n      mul\n      not\n      and\n      swap1\n      dup4\n      0xffffffffffffffffffffffffffffffffffffffff\n      and\n      mul\n      or\n      swap1\n      sstore\n      pop\n      0x40\n      dup3\n      add\n      mload\n      dup2\n      0x02\n      add\n      swap1\n      dup1\n      mload\n      swap1\n      0x20\n      add\n      swap1\n      tag_87\n      swap3\n      swap2\n      swap1\n      tag_88\n      jump\t// in\n    tag_87:\n      pop\n      0x60\n      dup3\n      add\n      mload\n      dup2\n      0x03\n      add\n      sstore\n      0x80\n      dup3\n      add\n      mload\n      dup2\n      0x04\n      add\n      sstore\n      pop\n      pop\n        /* \"exercises/twitter.sol\":658:1058  function createTweet(string memory _tweet) public {... */\n      pop\n      pop\n      jump\t// out\n        /* \"exercises/twitter.sol\":1283:1388  function changeTweetLength(uint newLength) public onlyOwner {... */\n    tag_38:\n        /* \"exercises/twitter.sol\":447:452  owner */\n      0x00\n      dup1\n      sload\n      swap1\n      0x0100\n      exp\n      swap1\n      div\n      0xffffffffffffffffffffffffffffffffffffffff\n      and\n        /* \"exercises/twitter.sol\":435:452  msg.sender==owner */\n      0xffffffffffffffffffffffffffffffffffffffff\n      and\n        /* \"exercises/twitter.sol\":435:445  msg.sender */\n      caller\n        /* \"exercises/twitter.sol\":435:452  msg.sender==owner */\n      0xffffffffffffffffffffffffffffffffffffffff\n      and\n      eq\n        /* \"exercises/twitter.sol\":427:500  require(msg.sender==owner,\"You are not owner to change max tweet length\") */\n      tag_90\n      jumpi\n      mload(0x40)\n      0x08c379a000000000000000000000000000000000000000000000000000000000\n      dup2\n      mstore\n      0x04\n      add\n      tag_91\n      swap1\n      tag_92\n      jump\t// in\n    tag_91:\n      mload(0x40)\n      dup1\n      swap2\n      sub\n      swap1\n      revert\n    tag_90:\n        /* \"exercises/twitter.sol\":1372:1381  newLength */\n      dup1\n        /* \"exercises/twitter.sol\":1353:1369  MAX_TWEET_LENGTH */\n      0x01\n        /* \"exercises/twitter.sol\":1353:1381  MAX_TWEET_LENGTH = newLength */\n      dup2\n      swap1\n      sstore\n      pop\n        /* \"exercises/twitter.sol\":1283:1388  function changeTweetLength(uint newLength) public onlyOwner {... */\n      pop\n      jump\t// out\n        /* \"exercises/twitter.sol\":80:100  address public owner */\n    tag_40:\n      0x00\n      dup1\n      sload\n      swap1\n      0x0100\n      exp\n      swap1\n      div\n      0xffffffffffffffffffffffffffffffffffffffff\n      and\n      dup2\n      jump\t// out\n        /* \"exercises/twitter.sol\":1172:1277  function getTweet(uint i) view public returns (Tweet memory){... */\n    tag_45:\n        /* \"exercises/twitter.sol\":1219:1231  Tweet memory */\n      tag_94\n      tag_95\n      jump\t// in\n    tag_94:\n        /* \"exercises/twitter.sol\":1249:1255  tweets */\n      0x02\n        /* \"exercises/twitter.sol\":1249:1267  tweets[msg.sender] */\n      0x00\n        /* \"exercises/twitter.sol\":1256:1266  msg.sender */\n      caller\n        /* \"exercises/twitter.sol\":1249:1267  tweets[msg.sender] */\n      0xffffffffffffffffffffffffffffffffffffffff\n      and\n      0xffffffffffffffffffffffffffffffffffffffff\n      and\n      dup2\n      mstore\n      0x20\n      add\n      swap1\n      dup2\n      mstore\n      0x20\n      add\n      0x00\n      keccak256\n        /* \"exercises/twitter.sol\":1268:1269  i */\n      dup3\n        /* \"exercises/twitter.sol\":1249:1270  tweets[msg.sender][i] */\n      dup2\n      sload\n      dup2\n      lt\n      tag_97\n      jumpi\n      mstore(0x00, 0x4e487b7100000000000000000000000000000000000000000000000000000000)\n      mstore(0x04, 0x32)\n      revert(0x00, 0x24)\n    tag_97:\n      swap1\n      0x00\n      mstore\n      keccak256(0x00, 0x20)\n      swap1\n      0x05\n      mul\n      add\n        /* \"exercises/twitter.sol\":1242:1270  return tweets[msg.sender][i] */\n      mload(0x40)\n      dup1\n      0xa0\n      add\n      0x40\n      mstore\n      swap1\n      dup2\n      0x00\n      dup3\n      add\n      sload\n      dup2\n      mstore\n      0x20\n      add\n      0x01\n      dup3\n      add\n      0x00\n      swap1\n      sload\n      swap1\n      0x0100\n      exp\n      swap1\n      div\n      0xffffffffffffffffffffffffffffffffffffffff\n      and\n      0xffffffffffffffffffffffffffffffffffffffff\n      and\n      0xffffffffffffffffffffffffffffffffffffffff\n      and\n      dup2\n      mstore\n      0x20\n      add\n      0x02\n      dup3\n      add\n      dup1\n      sload\n      tag_99\n      swap1\n      tag_54\n      jump\t// in\n    tag_99:\n      dup1\n      0x1f\n      add\n      0x20\n      dup1\n      swap2\n      div\n      mul\n      0x20\n      add\n      mload(0x40)\n      swap1\n      dup2\n      add\n      0x40\n      mstore\n      dup1\n      swap3\n      swap2\n      swap1\n      dup2\n      dup2\n      mstore\n      0x20\n      add\n      dup3\n      dup1\n      sload\n      tag_100\n      swap1\n      tag_54\n      jump\t// in\n    tag_100:\n      dup1\n      iszero\n      tag_101\n      jumpi\n      dup1\n      0x1f\n      lt\n      tag_102\n      jumpi\n      0x0100\n      dup1\n      dup4\n      sload\n      div\n      mul\n      dup4\n      mstore\n      swap2\n      0x20\n      add\n      swap2\n      jump(tag_101)\n    tag_102:\n      dup3\n      add\n      swap2\n      swap1\n      0x00\n      mstore\n      keccak256(0x00, 0x20)\n      swap1\n    tag_103:\n      dup2\n      sload\n      dup2\n      mstore\n      swap1\n      0x01\n      add\n      swap1\n      0x20\n      add\n      dup1\n      dup4\n      gt\n      tag_103\n      jumpi\n      dup3\n      swap1\n      sub\n      0x1f\n      and\n      dup3\n      add\n      swap2\n    tag_101:\n      pop\n      pop\n      pop\n      pop\n      pop\n      dup2\n      mstore\n      0x20\n      add\n      0x03\n      dup3\n      add\n      sload\n      dup2\n      mstore\n      0x20\n      add\n      0x04\n      dup3\n      add\n      sload\n      dup2\n      mstore\n      pop\n      pop\n      swap1\n      pop\n        /* \"exercises/twitter.sol\":1172:1277  function getTweet(uint i) view public returns (Tweet memory){... */\n      swap2\n      swap1\n      pop\n      jump\t// out\n        /* \"exercises/twitter.sol\":1394:1512  function likeTweet(uint id,address author) external tweetExists(id,author) {... */\n    tag_50:\n        /* \"exercises/twitter.sol\":1458:1460  id */\n      dup2\n        /* \"exercises/twitter.sol\":1461:1467  author */\n      dup2\n        /* \"exercises/twitter.sol\":609:611  id */\n      dup2\n        /* \"exercises/twitter.sol\":587:593  tweets */\n      0x02\n        /* \"exercises/twitter.sol\":587:601  tweets[author] */\n      0x00\n        /* \"exercises/twitter.sol\":594:600  author */\n      dup4\n        /* \"exercises/twitter.sol\":587:601  tweets[author] */\n      0xffffffffffffffffffffffffffffffffffffffff\n      and\n      0xffffffffffffffffffffffffffffffffffffffff\n      and\n      dup2\n      mstore\n      0x20\n      add\n      swap1\n      dup2\n      mstore\n      0x20\n      add\n      0x00\n      keccak256\n        /* \"exercises/twitter.sol\":587:608  tweets[author].length */\n      dup1\n      sload\n      swap1\n      pop\n        /* \"exercises/twitter.sol\":587:611  tweets[author].length>id */\n      gt\n        /* \"exercises/twitter.sol\":579:634  require(tweets[author].length>id,\"Tweet does'nt exist\") */\n      tag_105\n      jumpi\n      mload(0x40)\n      0x08c379a000000000000000000000000000000000000000000000000000000000\n      dup2\n      mstore\n      0x04\n      add\n      tag_106\n      swap1\n      tag_62\n      jump\t// in\n    tag_106:\n      mload(0x40)\n      dup1\n      swap2\n      sub\n      swap1\n      revert\n    tag_105:\n        /* \"exercises/twitter.sol\":1479:1485  tweets */\n      0x02\n        /* \"exercises/twitter.sol\":1479:1493  tweets[author] */\n      0x00\n        /* \"exercises/twitter.sol\":1486:1492  author */\n      dup5\n        /* \"exercises/twitter.sol\":1479:1493  tweets[author] */\n      0xffffffffffffffffffffffffffffffffffffffff\n      and\n      0xffffffffffffffffffffffffffffffffffffffff\n      and\n      dup2\n      mstore\n      0x20\n      add\n      swap1\n      dup2\n      mstore\n      0x20\n      add\n      0x00\n      keccak256\n        /* \"exercises/twitter.sol\":1494:1496  id */\n      dup5\n        /* \"exercises/twitter.sol\":1479:1497  tweets[author][id] */\n      dup2\n      sload\n      dup2\n      lt\n      tag_108\n      jumpi\n      mstore(0x00, 0x4e487b7100000000000000000000000000000000000000000000000000000000)\n      mstore(0x04, 0x32)\n      revert(0x00, 0x24)\n    tag_108:\n      swap1\n      0x00\n      mstore\n      keccak256(0x00, 0x20)\n      swap1\n      0x05\n      mul\n      add\n        /* \"exercises/twitter.sol\":1479:1503  tweets[author][id].likes */\n      0x04\n      add\n      0x00\n        /* \"exercises/twitter.sol\":1479:1505  tweets[author][id].likes++ */\n      dup2\n      sload\n      dup1\n      swap3\n      swap2\n      swap1\n      tag_110\n      swap1\n      tag_111\n      jump\t// in\n    tag_110:\n      swap2\n      swap1\n      pop\n      sstore\n      pop\n        /* \"exercises/twitter.sol\":1394:1512  function likeTweet(uint id,address author) external tweetExists(id,author) {... */\n      pop\n      pop\n      pop\n      pop\n      jump\t// out\n    tag_88:\n      dup3\n      dup1\n      sload\n      tag_112\n      swap1\n      tag_54\n      jump\t// in\n    tag_112:\n      swap1\n      0x00\n      mstore\n      keccak256(0x00, 0x20)\n      swap1\n      0x1f\n      add\n      0x20\n      swap1\n      div\n      dup2\n      add\n      swap3\n      dup3\n      tag_114\n      jumpi\n      0x00\n      dup6\n      sstore\n      jump(tag_113)\n    tag_114:\n      dup3\n      0x1f\n      lt\n      tag_115\n      jumpi\n      dup1\n      mload\n      not(0xff)\n      and\n      dup4\n      dup1\n      add\n      or\n      dup6\n      sstore\n      jump(tag_113)\n    tag_115:\n      dup3\n      dup1\n      add\n      0x01\n      add\n      dup6\n      sstore\n      dup3\n      iszero\n      tag_113\n      jumpi\n      swap2\n      dup3\n      add\n    tag_116:\n      dup3\n      dup2\n      gt\n      iszero\n      tag_117\n      jumpi\n      dup3\n      mload\n      dup3\n      sstore\n      swap2\n      0x20\n      add\n      swap2\n      swap1\n      0x01\n      add\n      swap1\n      jump(tag_116)\n    tag_117:\n    tag_113:\n      pop\n      swap1\n      pop\n      tag_118\n      swap2\n      swap1\n      tag_119\n      jump\t// in\n    tag_118:\n      pop\n      swap1\n      jump\t// out\n    tag_95:\n      mload(0x40)\n      dup1\n      0xa0\n      add\n      0x40\n      mstore\n      dup1\n      0x00\n      dup2\n      mstore\n      0x20\n      add\n      and(0xffffffffffffffffffffffffffffffffffffffff, 0x00)\n      dup2\n      mstore\n      0x20\n      add\n      0x60\n      dup2\n      mstore\n      0x20\n      add\n      0x00\n      dup2\n      mstore\n      0x20\n      add\n      0x00\n      dup2\n      mstore\n      pop\n      swap1\n      jump\t// out\n    tag_119:\n    tag_120:\n      dup1\n      dup3\n      gt\n      iszero\n      tag_121\n      jumpi\n      0x00\n      dup2\n      0x00\n      swap1\n      sstore\n      pop\n      0x01\n      add\n      jump(tag_120)\n    tag_121:\n      pop\n      swap1\n      jump\t// out\n        /* \"#utility.yul\":7:351   */\n    tag_123:\n      0x00\n        /* \"#utility.yul\":110:175   */\n      tag_125\n        /* \"#utility.yul\":125:174   */\n      tag_126\n        /* \"#utility.yul\":167:173   */\n      dup5\n        /* \"#utility.yul\":125:174   */\n      tag_127\n      jump\t// in\n    tag_126:\n        /* \"#utility.yul\":110:175   */\n      tag_128\n      jump\t// in\n    tag_125:\n        /* \"#utility.yul\":101:175   */\n      swap1\n      pop\n        /* \"#utility.yul\":198:204   */\n      dup3\n        /* \"#utility.yul\":191:196   */\n      dup2\n        /* \"#utility.yul\":184:205   */\n      mstore\n        /* \"#utility.yul\":236:240   */\n      0x20\n        /* \"#utility.yul\":229:234   */\n      dup2\n        /* \"#utility.yul\":225:241   */\n      add\n        /* \"#utility.yul\":274:277   */\n      dup5\n        /* \"#utility.yul\":265:271   */\n      dup5\n        /* \"#utility.yul\":260:263   */\n      dup5\n        /* \"#utility.yul\":256:272   */\n      add\n        /* \"#utility.yul\":253:278   */\n      gt\n        /* \"#utility.yul\":250:252   */\n      iszero\n      tag_129\n      jumpi\n        /* \"#utility.yul\":291:292   */\n      0x00\n        /* \"#utility.yul\":288:289   */\n      dup1\n        /* \"#utility.yul\":281:293   */\n      revert\n        /* \"#utility.yul\":250:252   */\n    tag_129:\n        /* \"#utility.yul\":304:345   */\n      tag_130\n        /* \"#utility.yul\":338:344   */\n      dup5\n        /* \"#utility.yul\":333:336   */\n      dup3\n        /* \"#utility.yul\":328:331   */\n      dup6\n        /* \"#utility.yul\":304:345   */\n      tag_131\n      jump\t// in\n    tag_130:\n        /* \"#utility.yul\":91:351   */\n      pop\n      swap4\n      swap3\n      pop\n      pop\n      pop\n      jump\t// out\n        /* \"#utility.yul\":357:496   */\n    tag_132:\n      0x00\n        /* \"#utility.yul\":441:447   */\n      dup2\n        /* \"#utility.yul\":428:448   */\n      calldataload\n        /* \"#utility.yul\":419:448   */\n      swap1\n      pop\n        /* \"#utility.yul\":457:490   */\n      tag_134\n        /* \"#utility.yul\":484:489   */\n      dup2\n        /* \"#utility.yul\":457:490   */\n      tag_135\n      jump\t// in\n    tag_134:\n        /* \"#utility.yul\":409:496   */\n      swap3\n      swap2\n      pop\n      pop\n      jump\t// out\n        /* \"#utility.yul\":516:789   */\n    tag_136:\n      0x00\n        /* \"#utility.yul\":621:624   */\n      dup3\n        /* \"#utility.yul\":614:618   */\n      0x1f\n        /* \"#utility.yul\":606:612   */\n      dup4\n        /* \"#utility.yul\":602:619   */\n      add\n        /* \"#utility.yul\":598:625   */\n      slt\n        /* \"#utility.yul\":588:590   */\n      tag_138\n      jumpi\n        /* \"#utility.yul\":639:640   */\n      0x00\n        /* \"#utility.yul\":636:637   */\n      dup1\n        /* \"#utility.yul\":629:641   */\n      revert\n        /* \"#utility.yul\":588:590   */\n    tag_138:\n        /* \"#utility.yul\":679:685   */\n      dup2\n        /* \"#utility.yul\":666:686   */\n      calldataload\n        /* \"#utility.yul\":704:783   */\n      tag_139\n        /* \"#utility.yul\":779:782   */\n      dup5\n        /* \"#utility.yul\":771:777   */\n      dup3\n        /* \"#utility.yul\":764:768   */\n      0x20\n        /* \"#utility.yul\":756:762   */\n      dup7\n        /* \"#utility.yul\":752:769   */\n      add\n        /* \"#utility.yul\":704:783   */\n      tag_123\n      jump\t// in\n    tag_139:\n        /* \"#utility.yul\":695:783   */\n      swap2\n      pop\n        /* \"#utility.yul\":578:789   */\n      pop\n      swap3\n      swap2\n      pop\n      pop\n      jump\t// out\n        /* \"#utility.yul\":795:934   */\n    tag_140:\n      0x00\n        /* \"#utility.yul\":879:885   */\n      dup2\n        /* \"#utility.yul\":866:886   */\n      calldataload\n        /* \"#utility.yul\":857:886   */\n      swap1\n      pop\n        /* \"#utility.yul\":895:928   */\n      tag_142\n        /* \"#utility.yul\":922:927   */\n      dup2\n        /* \"#utility.yul\":895:928   */\n      tag_143\n      jump\t// in\n    tag_142:\n        /* \"#utility.yul\":847:934   */\n      swap3\n      swap2\n      pop\n      pop\n      jump\t// out\n        /* \"#utility.yul\":940:1347   */\n    tag_15:\n      0x00\n      dup1\n        /* \"#utility.yul\":1065:1067   */\n      0x40\n        /* \"#utility.yul\":1053:1062   */\n      dup4\n        /* \"#utility.yul\":1044:1051   */\n      dup6\n        /* \"#utility.yul\":1040:1063   */\n      sub\n        /* \"#utility.yul\":1036:1068   */\n      slt\n        /* \"#utility.yul\":1033:1035   */\n      iszero\n      tag_145\n      jumpi\n        /* \"#utility.yul\":1081:1082   */\n      0x00\n        /* \"#utility.yul\":1078:1079   */\n      dup1\n        /* \"#utility.yul\":1071:1083   */\n      revert\n        /* \"#utility.yul\":1033:1035   */\n    tag_145:\n        /* \"#utility.yul\":1124:1125   */\n      0x00\n        /* \"#utility.yul\":1149:1202   */\n      tag_146\n        /* \"#utility.yul\":1194:1201   */\n      dup6\n        /* \"#utility.yul\":1185:1191   */\n      dup3\n        /* \"#utility.yul\":1174:1183   */\n      dup7\n        /* \"#utility.yul\":1170:1192   */\n      add\n        /* \"#utility.yul\":1149:1202   */\n      tag_132\n      jump\t// in\n    tag_146:\n        /* \"#utility.yul\":1139:1202   */\n      swap3\n      pop\n        /* \"#utility.yul\":1095:1212   */\n      pop\n        /* \"#utility.yul\":1251:1253   */\n      0x20\n        /* \"#utility.yul\":1277:1330   */\n      tag_147\n        /* \"#utility.yul\":1322:1329   */\n      dup6\n        /* \"#utility.yul\":1313:1319   */\n      dup3\n        /* \"#utility.yul\":1302:1311   */\n      dup7\n        /* \"#utility.yul\":1298:1320   */\n      add\n        /* \"#utility.yul\":1277:1330   */\n      tag_140\n      jump\t// in\n    tag_147:\n        /* \"#utility.yul\":1267:1330   */\n      swap2\n      pop\n        /* \"#utility.yul\":1222:1340   */\n      pop\n        /* \"#utility.yul\":1023:1347   */\n      swap3\n      pop\n      swap3\n      swap1\n      pop\n      jump\t// out\n        /* \"#utility.yul\":1353:1728   */\n    tag_33:\n      0x00\n        /* \"#utility.yul\":1471:1473   */\n      0x20\n        /* \"#utility.yul\":1459:1468   */\n      dup3\n        /* \"#utility.yul\":1450:1457   */\n      dup5\n        /* \"#utility.yul\":1446:1469   */\n      sub\n        /* \"#utility.yul\":1442:1474   */\n      slt\n        /* \"#utility.yul\":1439:1441   */\n      iszero\n      tag_149\n      jumpi\n        /* \"#utility.yul\":1487:1488   */\n      0x00\n        /* \"#utility.yul\":1484:1485   */\n      dup1\n        /* \"#utility.yul\":1477:1489   */\n      revert\n        /* \"#utility.yul\":1439:1441   */\n    tag_149:\n        /* \"#utility.yul\":1558:1559   */\n      0x00\n        /* \"#utility.yul\":1547:1556   */\n      dup3\n        /* \"#utility.yul\":1543:1560   */\n      add\n        /* \"#utility.yul\":1530:1561   */\n      calldataload\n        /* \"#utility.yul\":1588:1606   */\n      0xffffffffffffffff\n        /* \"#utility.yul\":1580:1586   */\n      dup2\n        /* \"#utility.yul\":1577:1607   */\n      gt\n        /* \"#utility.yul\":1574:1576   */\n      iszero\n      tag_150\n      jumpi\n        /* \"#utility.yul\":1620:1621   */\n      0x00\n        /* \"#utility.yul\":1617:1618   */\n      dup1\n        /* \"#utility.yul\":1610:1622   */\n      revert\n        /* \"#utility.yul\":1574:1576   */\n    tag_150:\n        /* \"#utility.yul\":1648:1711   */\n      tag_151\n        /* \"#utility.yul\":1703:1710   */\n      dup5\n        /* \"#utility.yul\":1694:1700   */\n      dup3\n        /* \"#utility.yul\":1683:1692   */\n      dup6\n        /* \"#utility.yul\":1679:1701   */\n      add\n        /* \"#utility.yul\":1648:1711   */\n      tag_136\n      jump\t// in\n    tag_151:\n        /* \"#utility.yul\":1638:1711   */\n      swap2\n      pop\n        /* \"#utility.yul\":1501:1721   */\n      pop\n        /* \"#utility.yul\":1429:1728   */\n      swap3\n      swap2\n      pop\n      pop\n      jump\t// out\n        /* \"#utility.yul\":1734:1996   */\n    tag_37:\n      0x00\n        /* \"#utility.yul\":1842:1844   */\n      0x20\n        /* \"#utility.yul\":1830:1839   */\n      dup3\n        /* \"#utility.yul\":1821:1828   */\n      dup5\n        /* \"#utility.yul\":1817:1840   */\n      sub\n        /* \"#utility.yul\":1813:1845   */\n      slt\n        /* \"#utility.yul\":1810:1812   */\n      iszero\n      tag_153\n      jumpi\n        /* \"#utility.yul\":1858:1859   */\n      0x00\n        /* \"#utility.yul\":1855:1856   */\n      dup1\n        /* \"#utility.yul\":1848:1860   */\n      revert\n        /* \"#utility.yul\":1810:1812   */\n    tag_153:\n        /* \"#utility.yul\":1901:1902   */\n      0x00\n        /* \"#utility.yul\":1926:1979   */\n      tag_154\n        /* \"#utility.yul\":1971:1978   */\n      dup5\n        /* \"#utility.yul\":1962:1968   */\n      dup3\n        /* \"#utility.yul\":1951:1960   */\n      dup6\n        /* \"#utility.yul\":1947:1969   */\n      add\n        /* \"#utility.yul\":1926:1979   */\n      tag_140\n      jump\t// in\n    tag_154:\n        /* \"#utility.yul\":1916:1979   */\n      swap2\n      pop\n        /* \"#utility.yul\":1872:1989   */\n      pop\n        /* \"#utility.yul\":1800:1996   */\n      swap3\n      swap2\n      pop\n      pop\n      jump\t// out\n        /* \"#utility.yul\":2002:2409   */\n    tag_21:\n      0x00\n      dup1\n        /* \"#utility.yul\":2127:2129   */\n      0x40\n        /* \"#utility.yul\":2115:2124   */\n      dup4\n        /* \"#utility.yul\":2106:2113   */\n      dup6\n        /* \"#utility.yul\":2102:2125   */\n      sub\n        /* \"#utility.yul\":2098:2130   */\n      slt\n        /* \"#utility.yul\":2095:2097   */\n      iszero\n      tag_156\n      jumpi\n        /* \"#utility.yul\":2143:2144   */\n      0x00\n        /* \"#utility.yul\":2140:2141   */\n      dup1\n        /* \"#utility.yul\":2133:2145   */\n      revert\n        /* \"#utility.yul\":2095:2097   */\n    tag_156:\n        /* \"#utility.yul\":2186:2187   */\n      0x00\n        /* \"#utility.yul\":2211:2264   */\n      tag_157\n        /* \"#utility.yul\":2256:2263   */\n      dup6\n        /* \"#utility.yul\":2247:2253   */\n      dup3\n        /* \"#utility.yul\":2236:2245   */\n      dup7\n        /* \"#utility.yul\":2232:2254   */\n      add\n        /* \"#utility.yul\":2211:2264   */\n      tag_140\n      jump\t// in\n    tag_157:\n        /* \"#utility.yul\":2201:2264   */\n      swap3\n      pop\n        /* \"#utility.yul\":2157:2274   */\n      pop\n        /* \"#utility.yul\":2313:2315   */\n      0x20\n        /* \"#utility.yul\":2339:2392   */\n      tag_158\n        /* \"#utility.yul\":2384:2391   */\n      dup6\n        /* \"#utility.yul\":2375:2381   */\n      dup3\n        /* \"#utility.yul\":2364:2373   */\n      dup7\n        /* \"#utility.yul\":2360:2382   */\n      add\n        /* \"#utility.yul\":2339:2392   */\n      tag_132\n      jump\t// in\n    tag_158:\n        /* \"#utility.yul\":2329:2392   */\n      swap2\n      pop\n        /* \"#utility.yul\":2284:2402   */\n      pop\n        /* \"#utility.yul\":2085:2409   */\n      swap3\n      pop\n      swap3\n      swap1\n      pop\n      jump\t// out\n        /* \"#utility.yul\":2415:2655   */\n    tag_159:\n      0x00\n        /* \"#utility.yul\":2561:2649   */\n      tag_161\n        /* \"#utility.yul\":2645:2648   */\n      dup4\n        /* \"#utility.yul\":2637:2643   */\n      dup4\n        /* \"#utility.yul\":2561:2649   */\n      tag_162\n      jump\t// in\n    tag_161:\n        /* \"#utility.yul\":2547:2649   */\n      swap1\n      pop\n        /* \"#utility.yul\":2537:2655   */\n      swap3\n      swap2\n      pop\n      pop\n      jump\t// out\n        /* \"#utility.yul\":2661:2769   */\n    tag_163:\n        /* \"#utility.yul\":2738:2762   */\n      tag_165\n        /* \"#utility.yul\":2756:2761   */\n      dup2\n        /* \"#utility.yul\":2738:2762   */\n      tag_166\n      jump\t// in\n    tag_165:\n        /* \"#utility.yul\":2733:2736   */\n      dup3\n        /* \"#utility.yul\":2726:2763   */\n      mstore\n        /* \"#utility.yul\":2716:2769   */\n      pop\n      pop\n      jump\t// out\n        /* \"#utility.yul\":2775:2893   */\n    tag_167:\n        /* \"#utility.yul\":2862:2886   */\n      tag_169\n        /* \"#utility.yul\":2880:2885   */\n      dup2\n        /* \"#utility.yul\":2862:2886   */\n      tag_166\n      jump\t// in\n    tag_169:\n        /* \"#utility.yul\":2857:2860   */\n      dup3\n        /* \"#utility.yul\":2850:2887   */\n      mstore\n        /* \"#utility.yul\":2840:2893   */\n      pop\n      pop\n      jump\t// out\n        /* \"#utility.yul\":2955:4034   */\n    tag_170:\n      0x00\n        /* \"#utility.yul\":3145:3220   */\n      tag_172\n        /* \"#utility.yul\":3214:3219   */\n      dup3\n        /* \"#utility.yul\":3145:3220   */\n      tag_173\n      jump\t// in\n    tag_172:\n        /* \"#utility.yul\":3236:3343   */\n      tag_174\n        /* \"#utility.yul\":3336:3342   */\n      dup2\n        /* \"#utility.yul\":3331:3334   */\n      dup6\n        /* \"#utility.yul\":3236:3343   */\n      tag_175\n      jump\t// in\n    tag_174:\n        /* \"#utility.yul\":3229:3343   */\n      swap4\n      pop\n        /* \"#utility.yul\":3369:3372   */\n      dup4\n        /* \"#utility.yul\":3414:3418   */\n      0x20\n        /* \"#utility.yul\":3406:3412   */\n      dup3\n        /* \"#utility.yul\":3402:3419   */\n      mul\n        /* \"#utility.yul\":3397:3400   */\n      dup6\n        /* \"#utility.yul\":3393:3420   */\n      add\n        /* \"#utility.yul\":3444:3521   */\n      tag_176\n        /* \"#utility.yul\":3515:3520   */\n      dup6\n        /* \"#utility.yul\":3444:3521   */\n      tag_177\n      jump\t// in\n    tag_176:\n        /* \"#utility.yul\":3544:3551   */\n      dup1\n        /* \"#utility.yul\":3575:3576   */\n      0x00\n        /* \"#utility.yul\":3560:3989   */\n    tag_178:\n        /* \"#utility.yul\":3585:3591   */\n      dup6\n        /* \"#utility.yul\":3582:3583   */\n      dup2\n        /* \"#utility.yul\":3579:3592   */\n      lt\n        /* \"#utility.yul\":3560:3989   */\n      iszero\n      tag_180\n      jumpi\n        /* \"#utility.yul\":3656:3665   */\n      dup5\n        /* \"#utility.yul\":3650:3654   */\n      dup5\n        /* \"#utility.yul\":3646:3666   */\n      sub\n        /* \"#utility.yul\":3641:3644   */\n      dup10\n        /* \"#utility.yul\":3634:3667   */\n      mstore\n        /* \"#utility.yul\":3707:3713   */\n      dup2\n        /* \"#utility.yul\":3701:3714   */\n      mload\n        /* \"#utility.yul\":3735:3841   */\n      tag_181\n        /* \"#utility.yul\":3836:3840   */\n      dup6\n        /* \"#utility.yul\":3821:3834   */\n      dup3\n        /* \"#utility.yul\":3735:3841   */\n      tag_159\n      jump\t// in\n    tag_181:\n        /* \"#utility.yul\":3727:3841   */\n      swap5\n      pop\n        /* \"#utility.yul\":3864:3945   */\n      tag_182\n        /* \"#utility.yul\":3938:3944   */\n      dup4\n        /* \"#utility.yul\":3864:3945   */\n      tag_183\n      jump\t// in\n    tag_182:\n        /* \"#utility.yul\":3854:3945   */\n      swap3\n      pop\n        /* \"#utility.yul\":3974:3978   */\n      0x20\n        /* \"#utility.yul\":3969:3972   */\n      dup11\n        /* \"#utility.yul\":3965:3979   */\n      add\n        /* \"#utility.yul\":3958:3979   */\n      swap10\n      pop\n        /* \"#utility.yul\":3620:3989   */\n      pop\n        /* \"#utility.yul\":3607:3608   */\n      0x01\n        /* \"#utility.yul\":3604:3605   */\n      dup2\n        /* \"#utility.yul\":3600:3609   */\n      add\n        /* \"#utility.yul\":3595:3609   */\n      swap1\n      pop\n        /* \"#utility.yul\":3560:3989   */\n      jump(tag_178)\n    tag_180:\n        /* \"#utility.yul\":3564:3578   */\n      pop\n        /* \"#utility.yul\":4005:4009   */\n      dup3\n        /* \"#utility.yul\":3998:4009   */\n      swap8\n      pop\n        /* \"#utility.yul\":4025:4028   */\n      dup8\n        /* \"#utility.yul\":4018:4028   */\n      swap6\n      pop\n        /* \"#utility.yul\":3121:4034   */\n      pop\n      pop\n      pop\n      pop\n      pop\n      swap3\n      swap2\n      pop\n      pop\n      jump\t// out\n        /* \"#utility.yul\":4040:4384   */\n    tag_184:\n      0x00\n        /* \"#utility.yul\":4146:4185   */\n      tag_186\n        /* \"#utility.yul\":4179:4184   */\n      dup3\n        /* \"#utility.yul\":4146:4185   */\n      tag_187\n      jump\t// in\n    tag_186:\n        /* \"#utility.yul\":4201:4262   */\n      tag_188\n        /* \"#utility.yul\":4255:4261   */\n      dup2\n        /* \"#utility.yul\":4250:4253   */\n      dup6\n        /* \"#utility.yul\":4201:4262   */\n      tag_189\n      jump\t// in\n    tag_188:\n        /* \"#utility.yul\":4194:4262   */\n      swap4\n      pop\n        /* \"#utility.yul\":4271:4323   */\n      tag_190\n        /* \"#utility.yul\":4316:4322   */\n      dup2\n        /* \"#utility.yul\":4311:4314   */\n      dup6\n        /* \"#utility.yul\":4304:4308   */\n      0x20\n        /* \"#utility.yul\":4297:4302   */\n      dup7\n        /* \"#utility.yul\":4293:4309   */\n      add\n        /* \"#utility.yul\":4271:4323   */\n      tag_191\n      jump\t// in\n    tag_190:\n        /* \"#utility.yul\":4348:4377   */\n      tag_192\n        /* \"#utility.yul\":4370:4376   */\n      dup2\n        /* \"#utility.yul\":4348:4377   */\n      tag_193\n      jump\t// in\n    tag_192:\n        /* \"#utility.yul\":4343:4346   */\n      dup5\n        /* \"#utility.yul\":4339:4378   */\n      add\n        /* \"#utility.yul\":4332:4378   */\n      swap2\n      pop\n        /* \"#utility.yul\":4122:4384   */\n      pop\n      swap3\n      swap2\n      pop\n      pop\n      jump\t// out\n        /* \"#utility.yul\":4390:4754   */\n    tag_194:\n      0x00\n        /* \"#utility.yul\":4506:4545   */\n      tag_196\n        /* \"#utility.yul\":4539:4544   */\n      dup3\n        /* \"#utility.yul\":4506:4545   */\n      tag_187\n      jump\t// in\n    tag_196:\n        /* \"#utility.yul\":4561:4632   */\n      tag_197\n        /* \"#utility.yul\":4625:4631   */\n      dup2\n        /* \"#utility.yul\":4620:4623   */\n      dup6\n        /* \"#utility.yul\":4561:4632   */\n      tag_198\n      jump\t// in\n    tag_197:\n        /* \"#utility.yul\":4554:4632   */\n      swap4\n      pop\n        /* \"#utility.yul\":4641:4693   */\n      tag_199\n        /* \"#utility.yul\":4686:4692   */\n      dup2\n        /* \"#utility.yul\":4681:4684   */\n      dup6\n        /* \"#utility.yul\":4674:4678   */\n      0x20\n        /* \"#utility.yul\":4667:4672   */\n      dup7\n        /* \"#utility.yul\":4663:4679   */\n      add\n        /* \"#utility.yul\":4641:4693   */\n      tag_191\n      jump\t// in\n    tag_199:\n        /* \"#utility.yul\":4718:4747   */\n      tag_200\n        /* \"#utility.yul\":4740:4746   */\n      dup2\n        /* \"#utility.yul\":4718:4747   */\n      tag_193\n      jump\t// in\n    tag_200:\n        /* \"#utility.yul\":4713:4716   */\n      dup5\n        /* \"#utility.yul\":4709:4748   */\n      add\n        /* \"#utility.yul\":4702:4748   */\n      swap2\n      pop\n        /* \"#utility.yul\":4482:4754   */\n      pop\n      swap3\n      swap2\n      pop\n      pop\n      jump\t// out\n        /* \"#utility.yul\":4760:5075   */\n    tag_201:\n      0x00\n        /* \"#utility.yul\":4923:4990   */\n      tag_203\n        /* \"#utility.yul\":4987:4989   */\n      0x11\n        /* \"#utility.yul\":4982:4985   */\n      dup4\n        /* \"#utility.yul\":4923:4990   */\n      tag_198\n      jump\t// in\n    tag_203:\n        /* \"#utility.yul\":4916:4990   */\n      swap2\n      pop\n        /* \"#utility.yul\":5020:5039   */\n      0x547765657420697320746f6f206c6f6e67000000000000000000000000000000\n        /* \"#utility.yul\":5016:5017   */\n      0x00\n        /* \"#utility.yul\":5011:5014   */\n      dup4\n        /* \"#utility.yul\":5007:5018   */\n      add\n        /* \"#utility.yul\":5000:5040   */\n      mstore\n        /* \"#utility.yul\":5066:5068   */\n      0x20\n        /* \"#utility.yul\":5061:5064   */\n      dup3\n        /* \"#utility.yul\":5057:5069   */\n      add\n        /* \"#utility.yul\":5050:5069   */\n      swap1\n      pop\n        /* \"#utility.yul\":4906:5075   */\n      swap2\n      swap1\n      pop\n      jump\t// out\n        /* \"#utility.yul\":5081:5397   */\n    tag_204:\n      0x00\n        /* \"#utility.yul\":5244:5311   */\n      tag_206\n        /* \"#utility.yul\":5308:5310   */\n      0x12\n        /* \"#utility.yul\":5303:5306   */\n      dup4\n        /* \"#utility.yul\":5244:5311   */\n      tag_198\n      jump\t// in\n    tag_206:\n        /* \"#utility.yul\":5237:5311   */\n      swap2\n      pop\n        /* \"#utility.yul\":5341:5361   */\n      0x547765657420686173206e6f206c696b65730000000000000000000000000000\n        /* \"#utility.yul\":5337:5338   */\n      0x00\n        /* \"#utility.yul\":5332:5335   */\n      dup4\n        /* \"#utility.yul\":5328:5339   */\n      add\n        /* \"#utility.yul\":5321:5362   */\n      mstore\n        /* \"#utility.yul\":5388:5390   */\n      0x20\n        /* \"#utility.yul\":5383:5386   */\n      dup3\n        /* \"#utility.yul\":5379:5391   */\n      add\n        /* \"#utility.yul\":5372:5391   */\n      swap1\n      pop\n        /* \"#utility.yul\":5227:5397   */\n      swap2\n      swap1\n      pop\n      jump\t// out\n        /* \"#utility.yul\":5403:5779   */\n    tag_207:\n      0x00\n        /* \"#utility.yul\":5566:5633   */\n      tag_209\n        /* \"#utility.yul\":5630:5632   */\n      0x2c\n        /* \"#utility.yul\":5625:5628   */\n      dup4\n        /* \"#utility.yul\":5566:5633   */\n      tag_198\n      jump\t// in\n    tag_209:\n        /* \"#utility.yul\":5559:5633   */\n      swap2\n      pop\n        /* \"#utility.yul\":5663:5697   */\n      0x596f7520617265206e6f74206f776e657220746f206368616e6765206d617820\n        /* \"#utility.yul\":5659:5660   */\n      0x00\n        /* \"#utility.yul\":5654:5657   */\n      dup4\n        /* \"#utility.yul\":5650:5661   */\n      add\n        /* \"#utility.yul\":5643:5698   */\n      mstore\n        /* \"#utility.yul\":5729:5743   */\n      0x7477656574206c656e6774680000000000000000000000000000000000000000\n        /* \"#utility.yul\":5724:5726   */\n      0x20\n        /* \"#utility.yul\":5719:5722   */\n      dup4\n        /* \"#utility.yul\":5715:5727   */\n      add\n        /* \"#utility.yul\":5708:5744   */\n      mstore\n        /* \"#utility.yul\":5770:5772   */\n      0x40\n        /* \"#utility.yul\":5765:5768   */\n      dup3\n        /* \"#utility.yul\":5761:5773   */\n      add\n        /* \"#utility.yul\":5754:5773   */\n      swap1\n      pop\n        /* \"#utility.yul\":5549:5779   */\n      swap2\n      swap1\n      pop\n      jump\t// out\n        /* \"#utility.yul\":5785:6102   */\n    tag_210:\n      0x00\n        /* \"#utility.yul\":5948:6015   */\n      tag_212\n        /* \"#utility.yul\":6012:6014   */\n      0x13\n        /* \"#utility.yul\":6007:6010   */\n      dup4\n        /* \"#utility.yul\":5948:6015   */\n      tag_198\n      jump\t// in\n    tag_212:\n        /* \"#utility.yul\":5941:6015   */\n      swap2\n      pop\n        /* \"#utility.yul\":6045:6066   */\n      0x547765657420646f6573276e7420657869737400000000000000000000000000\n        /* \"#utility.yul\":6041:6042   */\n      0x00\n        /* \"#utility.yul\":6036:6039   */\n      dup4\n        /* \"#utility.yul\":6032:6043   */\n      add\n        /* \"#utility.yul\":6025:6067   */\n      mstore\n        /* \"#utility.yul\":6093:6095   */\n      0x20\n        /* \"#utility.yul\":6088:6091   */\n      dup3\n        /* \"#utility.yul\":6084:6096   */\n      add\n        /* \"#utility.yul\":6077:6096   */\n      swap1\n      pop\n        /* \"#utility.yul\":5931:6102   */\n      swap2\n      swap1\n      pop\n      jump\t// out\n        /* \"#utility.yul\":6160:7279   */\n    tag_162:\n      0x00\n        /* \"#utility.yul\":6297:6301   */\n      0xa0\n        /* \"#utility.yul\":6292:6295   */\n      dup4\n        /* \"#utility.yul\":6288:6302   */\n      add\n        /* \"#utility.yul\":6382:6386   */\n      0x00\n        /* \"#utility.yul\":6375:6380   */\n      dup4\n        /* \"#utility.yul\":6371:6387   */\n      add\n        /* \"#utility.yul\":6365:6388   */\n      mload\n        /* \"#utility.yul\":6401:6464   */\n      tag_214\n        /* \"#utility.yul\":6458:6462   */\n      0x00\n        /* \"#utility.yul\":6453:6456   */\n      dup7\n        /* \"#utility.yul\":6449:6463   */\n      add\n        /* \"#utility.yul\":6435:6447   */\n      dup3\n        /* \"#utility.yul\":6401:6464   */\n      tag_215\n      jump\t// in\n    tag_214:\n        /* \"#utility.yul\":6312:6474   */\n      pop\n        /* \"#utility.yul\":6558:6562   */\n      0x20\n        /* \"#utility.yul\":6551:6556   */\n      dup4\n        /* \"#utility.yul\":6547:6563   */\n      add\n        /* \"#utility.yul\":6541:6564   */\n      mload\n        /* \"#utility.yul\":6577:6640   */\n      tag_216\n        /* \"#utility.yul\":6634:6638   */\n      0x20\n        /* \"#utility.yul\":6629:6632   */\n      dup7\n        /* \"#utility.yul\":6625:6639   */\n      add\n        /* \"#utility.yul\":6611:6623   */\n      dup3\n        /* \"#utility.yul\":6577:6640   */\n      tag_163\n      jump\t// in\n    tag_216:\n        /* \"#utility.yul\":6484:6650   */\n      pop\n        /* \"#utility.yul\":6735:6739   */\n      0x40\n        /* \"#utility.yul\":6728:6733   */\n      dup4\n        /* \"#utility.yul\":6724:6740   */\n      add\n        /* \"#utility.yul\":6718:6741   */\n      mload\n        /* \"#utility.yul\":6788:6791   */\n      dup5\n        /* \"#utility.yul\":6782:6786   */\n      dup3\n        /* \"#utility.yul\":6778:6792   */\n      sub\n        /* \"#utility.yul\":6771:6775   */\n      0x40\n        /* \"#utility.yul\":6766:6769   */\n      dup7\n        /* \"#utility.yul\":6762:6776   */\n      add\n        /* \"#utility.yul\":6755:6793   */\n      mstore\n        /* \"#utility.yul\":6814:6887   */\n      tag_217\n        /* \"#utility.yul\":6882:6886   */\n      dup3\n        /* \"#utility.yul\":6868:6880   */\n      dup3\n        /* \"#utility.yul\":6814:6887   */\n      tag_184\n      jump\t// in\n    tag_217:\n        /* \"#utility.yul\":6806:6887   */\n      swap2\n      pop\n        /* \"#utility.yul\":6660:6898   */\n      pop\n        /* \"#utility.yul\":6985:6989   */\n      0x60\n        /* \"#utility.yul\":6978:6983   */\n      dup4\n        /* \"#utility.yul\":6974:6990   */\n      add\n        /* \"#utility.yul\":6968:6991   */\n      mload\n        /* \"#utility.yul\":7004:7067   */\n      tag_218\n        /* \"#utility.yul\":7061:7065   */\n      0x60\n        /* \"#utility.yul\":7056:7059   */\n      dup7\n        /* \"#utility.yul\":7052:7066   */\n      add\n        /* \"#utility.yul\":7038:7050   */\n      dup3\n        /* \"#utility.yul\":7004:7067   */\n      tag_215\n      jump\t// in\n    tag_218:\n        /* \"#utility.yul\":6908:7077   */\n      pop\n        /* \"#utility.yul\":7160:7164   */\n      0x80\n        /* \"#utility.yul\":7153:7158   */\n      dup4\n        /* \"#utility.yul\":7149:7165   */\n      add\n        /* \"#utility.yul\":7143:7166   */\n      mload\n        /* \"#utility.yul\":7179:7242   */\n      tag_219\n        /* \"#utility.yul\":7236:7240   */\n      0x80\n        /* \"#utility.yul\":7231:7234   */\n      dup7\n        /* \"#utility.yul\":7227:7241   */\n      add\n        /* \"#utility.yul\":7213:7225   */\n      dup3\n        /* \"#utility.yul\":7179:7242   */\n      tag_215\n      jump\t// in\n    tag_219:\n        /* \"#utility.yul\":7087:7252   */\n      pop\n        /* \"#utility.yul\":7269:7273   */\n      dup1\n        /* \"#utility.yul\":7262:7273   */\n      swap2\n      pop\n        /* \"#utility.yul\":6266:7279   */\n      pop\n      swap3\n      swap2\n      pop\n      pop\n      jump\t// out\n        /* \"#utility.yul\":7337:8466   */\n    tag_220:\n      0x00\n        /* \"#utility.yul\":7484:7488   */\n      0xa0\n        /* \"#utility.yul\":7479:7482   */\n      dup4\n        /* \"#utility.yul\":7475:7489   */\n      add\n        /* \"#utility.yul\":7569:7573   */\n      0x00\n        /* \"#utility.yul\":7562:7567   */\n      dup4\n        /* \"#utility.yul\":7558:7574   */\n      add\n        /* \"#utility.yul\":7552:7575   */\n      mload\n        /* \"#utility.yul\":7588:7651   */\n      tag_222\n        /* \"#utility.yul\":7645:7649   */\n      0x00\n        /* \"#utility.yul\":7640:7643   */\n      dup7\n        /* \"#utility.yul\":7636:7650   */\n      add\n        /* \"#utility.yul\":7622:7634   */\n      dup3\n        /* \"#utility.yul\":7588:7651   */\n      tag_215\n      jump\t// in\n    tag_222:\n        /* \"#utility.yul\":7499:7661   */\n      pop\n        /* \"#utility.yul\":7745:7749   */\n      0x20\n        /* \"#utility.yul\":7738:7743   */\n      dup4\n        /* \"#utility.yul\":7734:7750   */\n      add\n        /* \"#utility.yul\":7728:7751   */\n      mload\n        /* \"#utility.yul\":7764:7827   */\n      tag_223\n        /* \"#utility.yul\":7821:7825   */\n      0x20\n        /* \"#utility.yul\":7816:7819   */\n      dup7\n        /* \"#utility.yul\":7812:7826   */\n      add\n        /* \"#utility.yul\":7798:7810   */\n      dup3\n        /* \"#utility.yul\":7764:7827   */\n      tag_163\n      jump\t// in\n    tag_223:\n        /* \"#utility.yul\":7671:7837   */\n      pop\n        /* \"#utility.yul\":7922:7926   */\n      0x40\n        /* \"#utility.yul\":7915:7920   */\n      dup4\n        /* \"#utility.yul\":7911:7927   */\n      add\n        /* \"#utility.yul\":7905:7928   */\n      mload\n        /* \"#utility.yul\":7975:7978   */\n      dup5\n        /* \"#utility.yul\":7969:7973   */\n      dup3\n        /* \"#utility.yul\":7965:7979   */\n      sub\n        /* \"#utility.yul\":7958:7962   */\n      0x40\n        /* \"#utility.yul\":7953:7956   */\n      dup7\n        /* \"#utility.yul\":7949:7963   */\n      add\n        /* \"#utility.yul\":7942:7980   */\n      mstore\n        /* \"#utility.yul\":8001:8074   */\n      tag_224\n        /* \"#utility.yul\":8069:8073   */\n      dup3\n        /* \"#utility.yul\":8055:8067   */\n      dup3\n        /* \"#utility.yul\":8001:8074   */\n      tag_184\n      jump\t// in\n    tag_224:\n        /* \"#utility.yul\":7993:8074   */\n      swap2\n      pop\n        /* \"#utility.yul\":7847:8085   */\n      pop\n        /* \"#utility.yul\":8172:8176   */\n      0x60\n        /* \"#utility.yul\":8165:8170   */\n      dup4\n        /* \"#utility.yul\":8161:8177   */\n      add\n        /* \"#utility.yul\":8155:8178   */\n      mload\n        /* \"#utility.yul\":8191:8254   */\n      tag_225\n        /* \"#utility.yul\":8248:8252   */\n      0x60\n        /* \"#utility.yul\":8243:8246   */\n      dup7\n        /* \"#utility.yul\":8239:8253   */\n      add\n        /* \"#utility.yul\":8225:8237   */\n      dup3\n        /* \"#utility.yul\":8191:8254   */\n      tag_215\n      jump\t// in\n    tag_225:\n        /* \"#utility.yul\":8095:8264   */\n      pop\n        /* \"#utility.yul\":8347:8351   */\n      0x80\n        /* \"#utility.yul\":8340:8345   */\n      dup4\n        /* \"#utility.yul\":8336:8352   */\n      add\n        /* \"#utility.yul\":8330:8353   */\n      mload\n        /* \"#utility.yul\":8366:8429   */\n      tag_226\n        /* \"#utility.yul\":8423:8427   */\n      0x80\n        /* \"#utility.yul\":8418:8421   */\n      dup7\n        /* \"#utility.yul\":8414:8428   */\n      add\n        /* \"#utility.yul\":8400:8412   */\n      dup3\n        /* \"#utility.yul\":8366:8429   */\n      tag_215\n      jump\t// in\n    tag_226:\n        /* \"#utility.yul\":8274:8439   */\n      pop\n        /* \"#utility.yul\":8456:8460   */\n      dup1\n        /* \"#utility.yul\":8449:8460   */\n      swap2\n      pop\n        /* \"#utility.yul\":7453:8466   */\n      pop\n      swap3\n      swap2\n      pop\n      pop\n      jump\t// out\n        /* \"#utility.yul\":8472:8580   */\n    tag_215:\n        /* \"#utility.yul\":8549:8573   */\n      tag_228\n        /* \"#utility.yul\":8567:8572   */\n      dup2\n        /* \"#utility.yul\":8549:8573   */\n      tag_229\n      jump\t// in\n    tag_228:\n        /* \"#utility.yul\":8544:8547   */\n      dup3\n        /* \"#utility.yul\":8537:8574   */\n      mstore\n        /* \"#utility.yul\":8527:8580   */\n      pop\n      pop\n      jump\t// out\n        /* \"#utility.yul\":8586:8704   */\n    tag_230:\n        /* \"#utility.yul\":8673:8697   */\n      tag_232\n        /* \"#utility.yul\":8691:8696   */\n      dup2\n        /* \"#utility.yul\":8673:8697   */\n      tag_229\n      jump\t// in\n    tag_232:\n        /* \"#utility.yul\":8668:8671   */\n      dup3\n        /* \"#utility.yul\":8661:8698   */\n      mstore\n        /* \"#utility.yul\":8651:8704   */\n      pop\n      pop\n      jump\t// out\n        /* \"#utility.yul\":8710:8932   */\n    tag_42:\n      0x00\n        /* \"#utility.yul\":8841:8843   */\n      0x20\n        /* \"#utility.yul\":8830:8839   */\n      dup3\n        /* \"#utility.yul\":8826:8844   */\n      add\n        /* \"#utility.yul\":8818:8844   */\n      swap1\n      pop\n        /* \"#utility.yul\":8854:8925   */\n      tag_234\n        /* \"#utility.yul\":8922:8923   */\n      0x00\n        /* \"#utility.yul\":8911:8920   */\n      dup4\n        /* \"#utility.yul\":8907:8924   */\n      add\n        /* \"#utility.yul\":8898:8904   */\n      dup5\n        /* \"#utility.yul\":8854:8925   */\n      tag_167\n      jump\t// in\n    tag_234:\n        /* \"#utility.yul\":8808:8932   */\n      swap3\n      swap2\n      pop\n      pop\n      jump\t// out\n        /* \"#utility.yul\":8938:9395   */\n    tag_26:\n      0x00\n        /* \"#utility.yul\":9161:9163   */\n      0x20\n        /* \"#utility.yul\":9150:9159   */\n      dup3\n        /* \"#utility.yul\":9146:9164   */\n      add\n        /* \"#utility.yul\":9138:9164   */\n      swap1\n      pop\n        /* \"#utility.yul\":9210:9219   */\n      dup2\n        /* \"#utility.yul\":9204:9208   */\n      dup2\n        /* \"#utility.yul\":9200:9220   */\n      sub\n        /* \"#utility.yul\":9196:9197   */\n      0x00\n        /* \"#utility.yul\":9185:9194   */\n      dup4\n        /* \"#utility.yul\":9181:9198   */\n      add\n        /* \"#utility.yul\":9174:9221   */\n      mstore\n        /* \"#utility.yul\":9238:9388   */\n      tag_236\n        /* \"#utility.yul\":9383:9387   */\n      dup2\n        /* \"#utility.yul\":9374:9380   */\n      dup5\n        /* \"#utility.yul\":9238:9388   */\n      tag_170\n      jump\t// in\n    tag_236:\n        /* \"#utility.yul\":9230:9388   */\n      swap1\n      pop\n        /* \"#utility.yul\":9128:9395   */\n      swap3\n      swap2\n      pop\n      pop\n      jump\t// out\n        /* \"#utility.yul\":9401:9820   */\n    tag_85:\n      0x00\n        /* \"#utility.yul\":9605:9607   */\n      0x20\n        /* \"#utility.yul\":9594:9603   */\n      dup3\n        /* \"#utility.yul\":9590:9608   */\n      add\n        /* \"#utility.yul\":9582:9608   */\n      swap1\n      pop\n        /* \"#utility.yul\":9654:9663   */\n      dup2\n        /* \"#utility.yul\":9648:9652   */\n      dup2\n        /* \"#utility.yul\":9644:9664   */\n      sub\n        /* \"#utility.yul\":9640:9641   */\n      0x00\n        /* \"#utility.yul\":9629:9638   */\n      dup4\n        /* \"#utility.yul\":9625:9642   */\n      add\n        /* \"#utility.yul\":9618:9665   */\n      mstore\n        /* \"#utility.yul\":9682:9813   */\n      tag_238\n        /* \"#utility.yul\":9808:9812   */\n      dup2\n        /* \"#utility.yul\":9682:9813   */\n      tag_201\n      jump\t// in\n    tag_238:\n        /* \"#utility.yul\":9674:9813   */\n      swap1\n      pop\n        /* \"#utility.yul\":9572:9820   */\n      swap2\n      swap1\n      pop\n      jump\t// out\n        /* \"#utility.yul\":9826:10245   */\n    tag_68:\n      0x00\n        /* \"#utility.yul\":10030:10032   */\n      0x20\n        /* \"#utility.yul\":10019:10028   */\n      dup3\n        /* \"#utility.yul\":10015:10033   */\n      add\n        /* \"#utility.yul\":10007:10033   */\n      swap1\n      pop\n        /* \"#utility.yul\":10079:10088   */\n      dup2\n        /* \"#utility.yul\":10073:10077   */\n      dup2\n        /* \"#utility.yul\":10069:10089   */\n      sub\n        /* \"#utility.yul\":10065:10066   */\n      0x00\n        /* \"#utility.yul\":10054:10063   */\n      dup4\n        /* \"#utility.yul\":10050:10067   */\n      add\n        /* \"#utility.yul\":10043:10090   */\n      mstore\n        /* \"#utility.yul\":10107:10238   */\n      tag_240\n        /* \"#utility.yul\":10233:10237   */\n      dup2\n        /* \"#utility.yul\":10107:10238   */\n      tag_204\n      jump\t// in\n    tag_240:\n        /* \"#utility.yul\":10099:10238   */\n      swap1\n      pop\n        /* \"#utility.yul\":9997:10245   */\n      swap2\n      swap1\n      pop\n      jump\t// out\n        /* \"#utility.yul\":10251:10670   */\n    tag_92:\n      0x00\n        /* \"#utility.yul\":10455:10457   */\n      0x20\n        /* \"#utility.yul\":10444:10453   */\n      dup3\n        /* \"#utility.yul\":10440:10458   */\n      add\n        /* \"#utility.yul\":10432:10458   */\n      swap1\n      pop\n        /* \"#utility.yul\":10504:10513   */\n      dup2\n        /* \"#utility.yul\":10498:10502   */\n      dup2\n        /* \"#utility.yul\":10494:10514   */\n      sub\n        /* \"#utility.yul\":10490:10491   */\n      0x00\n        /* \"#utility.yul\":10479:10488   */\n      dup4\n        /* \"#utility.yul\":10475:10492   */\n      add\n        /* \"#utility.yul\":10468:10515   */\n      mstore\n        /* \"#utility.yul\":10532:10663   */\n      tag_242\n        /* \"#utility.yul\":10658:10662   */\n      dup2\n        /* \"#utility.yul\":10532:10663   */\n      tag_207\n      jump\t// in\n    tag_242:\n        /* \"#utility.yul\":10524:10663   */\n      swap1\n      pop\n        /* \"#utility.yul\":10422:10670   */\n      swap2\n      swap1\n      pop\n      jump\t// out\n        /* \"#utility.yul\":10676:11095   */\n    tag_62:\n      0x00\n        /* \"#utility.yul\":10880:10882   */\n      0x20\n        /* \"#utility.yul\":10869:10878   */\n      dup3\n        /* \"#utility.yul\":10865:10883   */\n      add\n        /* \"#utility.yul\":10857:10883   */\n      swap1\n      pop\n        /* \"#utility.yul\":10929:10938   */\n      dup2\n        /* \"#utility.yul\":10923:10927   */\n      dup2\n        /* \"#utility.yul\":10919:10939   */\n      sub\n        /* \"#utility.yul\":10915:10916   */\n      0x00\n        /* \"#utility.yul\":10904:10913   */\n      dup4\n        /* \"#utility.yul\":10900:10917   */\n      add\n        /* \"#utility.yul\":10893:10940   */\n      mstore\n        /* \"#utility.yul\":10957:11088   */\n      tag_244\n        /* \"#utility.yul\":11083:11087   */\n      dup2\n        /* \"#utility.yul\":10957:11088   */\n      tag_210\n      jump\t// in\n    tag_244:\n        /* \"#utility.yul\":10949:11088   */\n      swap1\n      pop\n        /* \"#utility.yul\":10847:11095   */\n      swap2\n      swap1\n      pop\n      jump\t// out\n        /* \"#utility.yul\":11101:11458   */\n    tag_47:\n      0x00\n        /* \"#utility.yul\":11274:11276   */\n      0x20\n        /* \"#utility.yul\":11263:11272   */\n      dup3\n        /* \"#utility.yul\":11259:11277   */\n      add\n        /* \"#utility.yul\":11251:11277   */\n      swap1\n      pop\n        /* \"#utility.yul\":11323:11332   */\n      dup2\n        /* \"#utility.yul\":11317:11321   */\n      dup2\n        /* \"#utility.yul\":11313:11333   */\n      sub\n        /* \"#utility.yul\":11309:11310   */\n      0x00\n        /* \"#utility.yul\":11298:11307   */\n      dup4\n        /* \"#utility.yul\":11294:11311   */\n      add\n        /* \"#utility.yul\":11287:11334   */\n      mstore\n        /* \"#utility.yul\":11351:11451   */\n      tag_246\n        /* \"#utility.yul\":11446:11450   */\n      dup2\n        /* \"#utility.yul\":11437:11443   */\n      dup5\n        /* \"#utility.yul\":11351:11451   */\n      tag_220\n      jump\t// in\n    tag_246:\n        /* \"#utility.yul\":11343:11451   */\n      swap1\n      pop\n        /* \"#utility.yul\":11241:11458   */\n      swap3\n      swap2\n      pop\n      pop\n      jump\t// out\n        /* \"#utility.yul\":11464:11686   */\n    tag_30:\n      0x00\n        /* \"#utility.yul\":11595:11597   */\n      0x20\n        /* \"#utility.yul\":11584:11593   */\n      dup3\n        /* \"#utility.yul\":11580:11598   */\n      add\n        /* \"#utility.yul\":11572:11598   */\n      swap1\n      pop\n        /* \"#utility.yul\":11608:11679   */\n      tag_248\n        /* \"#utility.yul\":11676:11677   */\n      0x00\n        /* \"#utility.yul\":11665:11674   */\n      dup4\n        /* \"#utility.yul\":11661:11678   */\n      add\n        /* \"#utility.yul\":11652:11658   */\n      dup5\n        /* \"#utility.yul\":11608:11679   */\n      tag_230\n      jump\t// in\n    tag_248:\n        /* \"#utility.yul\":11562:11686   */\n      swap3\n      swap2\n      pop\n      pop\n      jump\t// out\n        /* \"#utility.yul\":11692:12447   */\n    tag_18:\n      0x00\n        /* \"#utility.yul\":11955:11958   */\n      0xa0\n        /* \"#utility.yul\":11944:11953   */\n      dup3\n        /* \"#utility.yul\":11940:11959   */\n      add\n        /* \"#utility.yul\":11932:11959   */\n      swap1\n      pop\n        /* \"#utility.yul\":11969:12040   */\n      tag_250\n        /* \"#utility.yul\":12037:12038   */\n      0x00\n        /* \"#utility.yul\":12026:12035   */\n      dup4\n        /* \"#utility.yul\":12022:12039   */\n      add\n        /* \"#utility.yul\":12013:12019   */\n      dup9\n        /* \"#utility.yul\":11969:12040   */\n      tag_230\n      jump\t// in\n    tag_250:\n        /* \"#utility.yul\":12050:12122   */\n      tag_251\n        /* \"#utility.yul\":12118:12120   */\n      0x20\n        /* \"#utility.yul\":12107:12116   */\n      dup4\n        /* \"#utility.yul\":12103:12121   */\n      add\n        /* \"#utility.yul\":12094:12100   */\n      dup8\n        /* \"#utility.yul\":12050:12122   */\n      tag_167\n      jump\t// in\n    tag_251:\n        /* \"#utility.yul\":12169:12178   */\n      dup2\n        /* \"#utility.yul\":12163:12167   */\n      dup2\n        /* \"#utility.yul\":12159:12179   */\n      sub\n        /* \"#utility.yul\":12154:12156   */\n      0x40\n        /* \"#utility.yul\":12143:12152   */\n      dup4\n        /* \"#utility.yul\":12139:12157   */\n      add\n        /* \"#utility.yul\":12132:12180   */\n      mstore\n        /* \"#utility.yul\":12197:12275   */\n      tag_252\n        /* \"#utility.yul\":12270:12274   */\n      dup2\n        /* \"#utility.yul\":12261:12267   */\n      dup7\n        /* \"#utility.yul\":12197:12275   */\n      tag_194\n      jump\t// in\n    tag_252:\n        /* \"#utility.yul\":12189:12275   */\n      swap1\n      pop\n        /* \"#utility.yul\":12285:12357   */\n      tag_253\n        /* \"#utility.yul\":12353:12355   */\n      0x60\n        /* \"#utility.yul\":12342:12351   */\n      dup4\n        /* \"#utility.yul\":12338:12356   */\n      add\n        /* \"#utility.yul\":12329:12335   */\n      dup6\n        /* \"#utility.yul\":12285:12357   */\n      tag_230\n      jump\t// in\n    tag_253:\n        /* \"#utility.yul\":12367:12440   */\n      tag_254\n        /* \"#utility.yul\":12435:12438   */\n      0x80\n        /* \"#utility.yul\":12424:12433   */\n      dup4\n        /* \"#utility.yul\":12420:12439   */\n      add\n        /* \"#utility.yul\":12411:12417   */\n      dup5\n        /* \"#utility.yul\":12367:12440   */\n      tag_230\n      jump\t// in\n    tag_254:\n        /* \"#utility.yul\":11922:12447   */\n      swap7\n      swap6\n      pop\n      pop\n      pop\n      pop\n      pop\n      pop\n      jump\t// out\n        /* \"#utility.yul\":12453:12736   */\n    tag_128:\n      0x00\n        /* \"#utility.yul\":12519:12521   */\n      0x40\n        /* \"#utility.yul\":12513:12522   */\n      mload\n        /* \"#utility.yul\":12503:12522   */\n      swap1\n      pop\n        /* \"#utility.yul\":12561:12565   */\n      dup2\n        /* \"#utility.yul\":12553:12559   */\n      dup2\n        /* \"#utility.yul\":12549:12566   */\n      add\n        /* \"#utility.yul\":12668:12674   */\n      dup2\n        /* \"#utility.yul\":12656:12666   */\n      dup2\n        /* \"#utility.yul\":12653:12675   */\n      lt\n        /* \"#utility.yul\":12632:12650   */\n      0xffffffffffffffff\n        /* \"#utility.yul\":12620:12630   */\n      dup3\n        /* \"#utility.yul\":12617:12651   */\n      gt\n        /* \"#utility.yul\":12614:12676   */\n      or\n        /* \"#utility.yul\":12611:12613   */\n      iszero\n      tag_256\n      jumpi\n        /* \"#utility.yul\":12679:12697   */\n      tag_257\n      tag_258\n      jump\t// in\n    tag_257:\n        /* \"#utility.yul\":12611:12613   */\n    tag_256:\n        /* \"#utility.yul\":12719:12729   */\n      dup1\n        /* \"#utility.yul\":12715:12717   */\n      0x40\n        /* \"#utility.yul\":12708:12730   */\n      mstore\n        /* \"#utility.yul\":12493:12736   */\n      pop\n      swap2\n      swap1\n      pop\n      jump\t// out\n        /* \"#utility.yul\":12742:13074   */\n    tag_127:\n      0x00\n        /* \"#utility.yul\":12894:12912   */\n      0xffffffffffffffff\n        /* \"#utility.yul\":12886:12892   */\n      dup3\n        /* \"#utility.yul\":12883:12913   */\n      gt\n        /* \"#utility.yul\":12880:12882   */\n      iszero\n      tag_260\n      jumpi\n        /* \"#utility.yul\":12916:12934   */\n      tag_261\n      tag_258\n      jump\t// in\n    tag_261:\n        /* \"#utility.yul\":12880:12882   */\n    tag_260:\n        /* \"#utility.yul\":13001:13005   */\n      0x1f\n        /* \"#utility.yul\":12997:13006   */\n      not\n        /* \"#utility.yul\":12990:12994   */\n      0x1f\n        /* \"#utility.yul\":12982:12988   */\n      dup4\n        /* \"#utility.yul\":12978:12995   */\n      add\n        /* \"#utility.yul\":12974:13007   */\n      and\n        /* \"#utility.yul\":12966:13007   */\n      swap1\n      pop\n        /* \"#utility.yul\":13062:13066   */\n      0x20\n        /* \"#utility.yul\":13056:13060   */\n      dup2\n        /* \"#utility.yul\":13052:13067   */\n      add\n        /* \"#utility.yul\":13044:13067   */\n      swap1\n      pop\n        /* \"#utility.yul\":12809:13074   */\n      swap2\n      swap1\n      pop\n      jump\t// out\n        /* \"#utility.yul\":13080:13233   */\n    tag_177:\n      0x00\n        /* \"#utility.yul\":13191:13194   */\n      dup2\n        /* \"#utility.yul\":13183:13194   */\n      swap1\n      pop\n        /* \"#utility.yul\":13221:13225   */\n      0x20\n        /* \"#utility.yul\":13216:13219   */\n      dup3\n        /* \"#utility.yul\":13212:13226   */\n      add\n        /* \"#utility.yul\":13204:13226   */\n      swap1\n      pop\n        /* \"#utility.yul\":13173:13233   */\n      swap2\n      swap1\n      pop\n      jump\t// out\n        /* \"#utility.yul\":13239:13374   */\n    tag_173:\n      0x00\n        /* \"#utility.yul\":13361:13366   */\n      dup2\n        /* \"#utility.yul\":13355:13367   */\n      mload\n        /* \"#utility.yul\":13345:13367   */\n      swap1\n      pop\n        /* \"#utility.yul\":13334:13374   */\n      swap2\n      swap1\n      pop\n      jump\t// out\n        /* \"#utility.yul\":13380:13479   */\n    tag_187:\n      0x00\n        /* \"#utility.yul\":13466:13471   */\n      dup2\n        /* \"#utility.yul\":13460:13472   */\n      mload\n        /* \"#utility.yul\":13450:13472   */\n      swap1\n      pop\n        /* \"#utility.yul\":13439:13479   */\n      swap2\n      swap1\n      pop\n      jump\t// out\n        /* \"#utility.yul\":13485:13619   */\n    tag_183:\n      0x00\n        /* \"#utility.yul\":13608:13612   */\n      0x20\n        /* \"#utility.yul\":13603:13606   */\n      dup3\n        /* \"#utility.yul\":13599:13613   */\n      add\n        /* \"#utility.yul\":13591:13613   */\n      swap1\n      pop\n        /* \"#utility.yul\":13581:13619   */\n      swap2\n      swap1\n      pop\n      jump\t// out\n        /* \"#utility.yul\":13625:13830   */\n    tag_175:\n      0x00\n        /* \"#utility.yul\":13779:13785   */\n      dup3\n        /* \"#utility.yul\":13774:13777   */\n      dup3\n        /* \"#utility.yul\":13767:13786   */\n      mstore\n        /* \"#utility.yul\":13819:13823   */\n      0x20\n        /* \"#utility.yul\":13814:13817   */\n      dup3\n        /* \"#utility.yul\":13810:13824   */\n      add\n        /* \"#utility.yul\":13795:13824   */\n      swap1\n      pop\n        /* \"#utility.yul\":13757:13830   */\n      swap3\n      swap2\n      pop\n      pop\n      jump\t// out\n        /* \"#utility.yul\":13836:13995   */\n    tag_189:\n      0x00\n        /* \"#utility.yul\":13944:13950   */\n      dup3\n        /* \"#utility.yul\":13939:13942   */\n      dup3\n        /* \"#utility.yul\":13932:13951   */\n      mstore\n        /* \"#utility.yul\":13984:13988   */\n      0x20\n        /* \"#utility.yul\":13979:13982   */\n      dup3\n        /* \"#utility.yul\":13975:13989   */\n      add\n        /* \"#utility.yul\":13960:13989   */\n      swap1\n      pop\n        /* \"#utility.yul\":13922:13995   */\n      swap3\n      swap2\n      pop\n      pop\n      jump\t// out\n        /* \"#utility.yul\":14001:14170   */\n    tag_198:\n      0x00\n        /* \"#utility.yul\":14119:14125   */\n      dup3\n        /* \"#utility.yul\":14114:14117   */\n      dup3\n        /* \"#utility.yul\":14107:14126   */\n      mstore\n        /* \"#utility.yul\":14159:14163   */\n      0x20\n        /* \"#utility.yul\":14154:14157   */\n      dup3\n        /* \"#utility.yul\":14150:14164   */\n      add\n        /* \"#utility.yul\":14135:14164   */\n      swap1\n      pop\n        /* \"#utility.yul\":14097:14170   */\n      swap3\n      swap2\n      pop\n      pop\n      jump\t// out\n        /* \"#utility.yul\":14176:14272   */\n    tag_166:\n      0x00\n        /* \"#utility.yul\":14242:14266   */\n      tag_270\n        /* \"#utility.yul\":14260:14265   */\n      dup3\n        /* \"#utility.yul\":14242:14266   */\n      tag_271\n      jump\t// in\n    tag_270:\n        /* \"#utility.yul\":14231:14266   */\n      swap1\n      pop\n        /* \"#utility.yul\":14221:14272   */\n      swap2\n      swap1\n      pop\n      jump\t// out\n        /* \"#utility.yul\":14278:14404   */\n    tag_271:\n      0x00\n        /* \"#utility.yul\":14355:14397   */\n      0xffffffffffffffffffffffffffffffffffffffff\n        /* \"#utility.yul\":14348:14353   */\n      dup3\n        /* \"#utility.yul\":14344:14398   */\n      and\n        /* \"#utility.yul\":14333:14398   */\n      swap1\n      pop\n        /* \"#utility.yul\":14323:14404   */\n      swap2\n      swap1\n      pop\n      jump\t// out\n        /* \"#utility.yul\":14410:14487   */\n    tag_229:\n      0x00\n        /* \"#utility.yul\":14476:14481   */\n      dup2\n        /* \"#utility.yul\":14465:14481   */\n      swap1\n      pop\n        /* \"#utility.yul\":14455:14487   */\n      swap2\n      swap1\n      pop\n      jump\t// out\n        /* \"#utility.yul\":14493:14647   */\n    tag_131:\n        /* \"#utility.yul\":14577:14583   */\n      dup3\n        /* \"#utility.yul\":14572:14575   */\n      dup2\n        /* \"#utility.yul\":14567:14570   */\n      dup4\n        /* \"#utility.yul\":14554:14584   */\n      calldatacopy\n        /* \"#utility.yul\":14639:14640   */\n      0x00\n        /* \"#utility.yul\":14630:14636   */\n      dup4\n        /* \"#utility.yul\":14625:14628   */\n      dup4\n        /* \"#utility.yul\":14621:14637   */\n      add\n        /* \"#utility.yul\":14614:14641   */\n      mstore\n        /* \"#utility.yul\":14544:14647   */\n      pop\n      pop\n      pop\n      jump\t// out\n        /* \"#utility.yul\":14653:14960   */\n    tag_191:\n        /* \"#utility.yul\":14721:14722   */\n      0x00\n        /* \"#utility.yul\":14731:14844   */\n    tag_276:\n        /* \"#utility.yul\":14745:14751   */\n      dup4\n        /* \"#utility.yul\":14742:14743   */\n      dup2\n        /* \"#utility.yul\":14739:14752   */\n      lt\n        /* \"#utility.yul\":14731:14844   */\n      iszero\n      tag_278\n      jumpi\n        /* \"#utility.yul\":14830:14831   */\n      dup1\n        /* \"#utility.yul\":14825:14828   */\n      dup3\n        /* \"#utility.yul\":14821:14832   */\n      add\n        /* \"#utility.yul\":14815:14833   */\n      mload\n        /* \"#utility.yul\":14811:14812   */\n      dup2\n        /* \"#utility.yul\":14806:14809   */\n      dup5\n        /* \"#utility.yul\":14802:14813   */\n      add\n        /* \"#utility.yul\":14795:14834   */\n      mstore\n        /* \"#utility.yul\":14767:14769   */\n      0x20\n        /* \"#utility.yul\":14764:14765   */\n      dup2\n        /* \"#utility.yul\":14760:14770   */\n      add\n        /* \"#utility.yul\":14755:14770   */\n      swap1\n      pop\n        /* \"#utility.yul\":14731:14844   */\n      jump(tag_276)\n    tag_278:\n        /* \"#utility.yul\":14862:14868   */\n      dup4\n        /* \"#utility.yul\":14859:14860   */\n      dup2\n        /* \"#utility.yul\":14856:14869   */\n      gt\n        /* \"#utility.yul\":14853:14855   */\n      iszero\n      tag_279\n      jumpi\n        /* \"#utility.yul\":14942:14943   */\n      0x00\n        /* \"#utility.yul\":14933:14939   */\n      dup5\n        /* \"#utility.yul\":14928:14931   */\n      dup5\n        /* \"#utility.yul\":14924:14940   */\n      add\n        /* \"#utility.yul\":14917:14944   */\n      mstore\n        /* \"#utility.yul\":14853:14855   */\n    tag_279:\n        /* \"#utility.yul\":14702:14960   */\n      pop\n      pop\n      pop\n      pop\n      jump\t// out\n        /* \"#utility.yul\":14966:15137   */\n    tag_72:\n      0x00\n        /* \"#utility.yul\":15028:15052   */\n      tag_281\n        /* \"#utility.yul\":15046:15051   */\n      dup3\n        /* \"#utility.yul\":15028:15052   */\n      tag_229\n      jump\t// in\n    tag_281:\n        /* \"#utility.yul\":15019:15052   */\n      swap2\n      pop\n        /* \"#utility.yul\":15074:15078   */\n      0x00\n        /* \"#utility.yul\":15067:15072   */\n      dup3\n        /* \"#utility.yul\":15064:15079   */\n      eq\n        /* \"#utility.yul\":15061:15063   */\n      iszero\n      tag_282\n      jumpi\n        /* \"#utility.yul\":15082:15100   */\n      tag_283\n      tag_284\n      jump\t// in\n    tag_283:\n        /* \"#utility.yul\":15061:15063   */\n    tag_282:\n        /* \"#utility.yul\":15129:15130   */\n      0x01\n        /* \"#utility.yul\":15122:15127   */\n      dup3\n        /* \"#utility.yul\":15118:15131   */\n      sub\n        /* \"#utility.yul\":15111:15131   */\n      swap1\n      pop\n        /* \"#utility.yul\":15009:15137   */\n      swap2\n      swap1\n      pop\n      jump\t// out\n        /* \"#utility.yul\":15143:15463   */\n    tag_54:\n      0x00\n        /* \"#utility.yul\":15224:15225   */\n      0x02\n        /* \"#utility.yul\":15218:15222   */\n      dup3\n        /* \"#utility.yul\":15214:15226   */\n      div\n        /* \"#utility.yul\":15204:15226   */\n      swap1\n      pop\n        /* \"#utility.yul\":15271:15272   */\n      0x01\n        /* \"#utility.yul\":15265:15269   */\n      dup3\n        /* \"#utility.yul\":15261:15273   */\n      and\n        /* \"#utility.yul\":15292:15310   */\n      dup1\n        /* \"#utility.yul\":15282:15284   */\n      tag_286\n      jumpi\n        /* \"#utility.yul\":15348:15352   */\n      0x7f\n        /* \"#utility.yul\":15340:15346   */\n      dup3\n        /* \"#utility.yul\":15336:15353   */\n      and\n        /* \"#utility.yul\":15326:15353   */\n      swap2\n      pop\n        /* \"#utility.yul\":15282:15284   */\n    tag_286:\n        /* \"#utility.yul\":15410:15412   */\n      0x20\n        /* \"#utility.yul\":15402:15408   */\n      dup3\n        /* \"#utility.yul\":15399:15413   */\n      lt\n        /* \"#utility.yul\":15379:15397   */\n      dup2\n        /* \"#utility.yul\":15376:15414   */\n      eq\n        /* \"#utility.yul\":15373:15375   */\n      iszero\n      tag_287\n      jumpi\n        /* \"#utility.yul\":15429:15447   */\n      tag_288\n      tag_289\n      jump\t// in\n    tag_288:\n        /* \"#utility.yul\":15373:15375   */\n    tag_287:\n        /* \"#utility.yul\":15194:15463   */\n      pop\n      swap2\n      swap1\n      pop\n      jump\t// out\n        /* \"#utility.yul\":15469:15702   */\n    tag_111:\n      0x00\n        /* \"#utility.yul\":15531:15555   */\n      tag_291\n        /* \"#utility.yul\":15549:15554   */\n      dup3\n        /* \"#utility.yul\":15531:15555   */\n      tag_229\n      jump\t// in\n    tag_291:\n        /* \"#utility.yul\":15522:15555   */\n      swap2\n      pop\n        /* \"#utility.yul\":15577:15643   */\n      0xffffffffffffffffffffffffffffffffffffffffffffffffffffffffffffffff\n        /* \"#utility.yul\":15570:15575   */\n      dup3\n        /* \"#utility.yul\":15567:15644   */\n      eq\n        /* \"#utility.yul\":15564:15566   */\n      iszero\n      tag_292\n      jumpi\n        /* \"#utility.yul\":15647:15665   */\n      tag_293\n      tag_284\n      jump\t// in\n    tag_293:\n        /* \"#utility.yul\":15564:15566   */\n    tag_292:\n        /* \"#utility.yul\":15694:15695   */\n      0x01\n        /* \"#utility.yul\":15687:15692   */\n      dup3\n        /* \"#utility.yul\":15683:15696   */\n      add\n        /* \"#utility.yul\":15676:15696   */\n      swap1\n      pop\n        /* \"#utility.yul\":15512:15702   */\n      swap2\n      swap1\n      pop\n      jump\t// out\n        /* \"#utility.yul\":15708:15888   */\n    tag_284:\n        /* \"#utility.yul\":15756:15833   */\n      0x4e487b7100000000000000000000000000000000000000000000000000000000\n        /* \"#utility.yul\":15753:15754   */\n      0x00\n        /* \"#utility.yul\":15746:15834   */\n      mstore\n        /* \"#utility.yul\":15853:15857   */\n      0x11\n        /* \"#utility.yul\":15850:15851   */\n      0x04\n        /* \"#utility.yul\":15843:15858   */\n      mstore\n        /* \"#utility.yul\":15877:15881   */\n      0x24\n        /* \"#utility.yul\":15874:15875   */\n      0x00\n        /* \"#utility.yul\":15867:15882   */\n      revert\n        /* \"#utility.yul\":15894:16074   */\n    tag_289:\n        /* \"#utility.yul\":15942:16019   */\n      0x4e487b7100000000000000000000000000000000000000000000000000000000\n        /* \"#utility.yul\":15939:15940   */\n      0x00\n        /* \"#utility.yul\":15932:16020   */\n      mstore\n        /* \"#utility.yul\":16039:16043   */\n      0x22\n        /* \"#utility.yul\":16036:16037   */\n      0x04\n        /* \"#utility.yul\":16029:16044   */\n      mstore\n        /* \"#utility.yul\":16063:16067   */\n      0x24\n        /* \"#utility.yul\":16060:16061   */\n      0x00\n        /* \"#utility.yul\":16053:16068   */\n      revert\n        /* \"#utility.yul\":16080:16260   */\n    tag_258:\n        /* \"#utility.yul\":16128:16205   */\n      0x4e487b7100000000000000000000000000000000000000000000000000000000\n        /* \"#utility.yul\":16125:16126   */\n      0x00\n        /* \"#utility.yul\":16118:16206   */\n      mstore\n        /* \"#utility.yul\":16225:16229   */\n      0x41\n        /* \"#utility.yul\":16222:16223   */\n      0x04\n        /* \"#utility.yul\":16215:16230   */\n      mstore\n        /* \"#utility.yul\":16249:16253   */\n      0x24\n        /* \"#utility.yul\":16246:16247   */\n      0x00\n        /* \"#utility.yul\":16239:16254   */\n      revert\n        /* \"#utility.yul\":16266:16368   */\n    tag_193:\n      0x00\n        /* \"#utility.yul\":16358:16360   */\n      0x1f\n        /* \"#utility.yul\":16354:16361   */\n      not\n        /* \"#utility.yul\":16349:16351   */\n      0x1f\n        /* \"#utility.yul\":16342:16347   */\n      dup4\n        /* \"#utility.yul\":16338:16352   */\n      add\n        /* \"#utility.yul\":16334:16362   */\n      and\n        /* \"#utility.yul\":16324:16362   */\n      swap1\n      pop\n        /* \"#utility.yul\":16314:16368   */\n      swap2\n      swap1\n      pop\n      jump\t// out\n        /* \"#utility.yul\":16374:16496   */\n    tag_135:\n        /* \"#utility.yul\":16447:16471   */\n      tag_299\n        /* \"#utility.yul\":16465:16470   */\n      dup2\n        /* \"#utility.yul\":16447:16471   */\n      tag_166\n      jump\t// in\n    tag_299:\n        /* \"#utility.yul\":16440:16445   */\n      dup2\n        /* \"#utility.yul\":16437:16472   */\n      eq\n        /* \"#utility.yul\":16427:16429   */\n      tag_300\n      jumpi\n        /* \"#utility.yul\":16486:16487   */\n      0x00\n        /* \"#utility.yul\":16483:16484   */\n      dup1\n        /* \"#utility.yul\":16476:16488   */\n      revert\n        /* \"#utility.yul\":16427:16429   */\n    tag_300:\n        /* \"#utility.yul\":16417:16496   */\n      pop\n      jump\t// out\n        /* \"#utility.yul\":16502:16624   */\n    tag_143:\n        /* \"#utility.yul\":16575:16599   */\n      tag_302\n        /* \"#utility.yul\":16593:16598   */\n      dup2\n        /* \"#utility.yul\":16575:16599   */\n      tag_229\n      jump\t// in\n    tag_302:\n        /* \"#utility.yul\":16568:16573   */\n      dup2\n        /* \"#utility.yul\":16565:16600   */\n      eq\n        /* \"#utility.yul\":16555:16557   */\n      tag_303\n      jumpi\n        /* \"#utility.yul\":16614:16615   */\n      0x00\n        /* \"#utility.yul\":16611:16612   */\n      dup1\n        /* \"#utility.yul\":16604:16616   */\n      revert\n        /* \"#utility.yul\":16555:16557   */\n    tag_303:\n        /* \"#utility.yul\":16545:16624   */\n      pop\n      jump\t// out\n\n    auxdata: 0xa26469706673582212205ed44be7c24561f4b7d6e31327aa5b16ff746d7316e30d4d73eff06e9fed235464736f6c63430008000033\n}\n",
				"bytecode": {
					"linkReferences": {},
					"object": "608060405261011860015534801561001657600080fd5b50336000806101000a81548173ffffffffffffffffffffffffffffffffffffffff021916908373ffffffffffffffffffffffffffffffffffffffff160217905550611589806100666000396000f3fe608060405234801561001057600080fd5b50600436106100935760003560e01c80637c9cd2bc116100665780637c9cd2bc14610124578063888a7880146101405780638da5cb5b1461015c578063c3ad5ecb1461017a578063d04ddaa0146101aa57610093565b806305a1b4a9146100985780633fcd2d06146100cc57806353256135146100e85780636eb1079714610106575b600080fd5b6100b260048036038101906100ad9190610d1e565b6101c6565b6040516100c3959493929190611243565b60405180910390f35b6100e660048036038101906100e19190610dc4565b6102c1565b005b6100f06104b6565b6040516100fd9190611164565b60405180910390f35b61010e610658565b60405161011b9190611228565b60405180910390f35b61013e60048036038101906101399190610d5a565b61065e565b005b61015a60048036038101906101559190610d9b565b610819565b005b6101646108b1565b6040516101719190611149565b60405180910390f35b610194600480360381019061018f9190610d9b565b6108d5565b6040516101a19190611206565b60405180910390f35b6101c460048036038101906101bf9190610dc4565b610a7a565b005b600260205281600052604060002081815481106101e257600080fd5b9060005260206000209060050201600091509150508060000154908060010160009054906101000a900473ffffffffffffffffffffffffffffffffffffffff16908060020180546102329061140c565b80601f016020809104026020016040519081016040528092919081815260200182805461025e9061140c565b80156102ab5780601f10610280576101008083540402835291602001916102ab565b820191906000526020600020905b81548152906001019060200180831161028e57829003601f168201915b5050505050908060030154908060040154905085565b818181600260008373ffffffffffffffffffffffffffffffffffffffff1673ffffffffffffffffffffffffffffffffffffffff1681526020019081526020016000208054905011610347576040517f08c379a000000000000000000000000000000000000000000000000000000000815260040161033e906111e6565b60405180910390fd5b6000600260008573ffffffffffffffffffffffffffffffffffffffff1673ffffffffffffffffffffffffffffffffffffffff16815260200190815260200160002085815481106103c0577f4e487b7100000000000000000000000000000000000000000000000000000000600052603260045260246000fd5b90600052602060002090600502016004015411610412576040517f08c379a0000000000000000000000000000000000000000000000000000000008152600401610409906111a6565b60405180910390fd5b600260008473ffffffffffffffffffffffffffffffffffffffff1673ffffffffffffffffffffffffffffffffffffffff1681526020019081526020016000208481548110610489577f4e487b7100000000000000000000000000000000000000000000000000000000600052603260045260246000fd5b906000526020600020906005020160040160008154809291906104ab906113e2565b919050555050505050565b6060600260003373ffffffffffffffffffffffffffffffffffffffff1673ffffffffffffffffffffffffffffffffffffffff168152602001908152602001600020805480602002602001604051908101604052809291908181526020016000905b8282101561064f57838290600052602060002090600502016040518060a0016040529081600082015481526020016001820160009054906101000a900473ffffffffffffffffffffffffffffffffffffffff1673ffffffffffffffffffffffffffffffffffffffff1673ffffffffffffffffffffffffffffffffffffffff1681526020016002820180546105aa9061140c565b80601f01602080910402602001604051908101604052809291908181526020018280546105d69061140c565b80156106235780601f106105f857610100808354040283529160200191610623565b820191906000526020600020905b81548152906001019060200180831161060657829003601f168201915b505050505081526020016003820154815260200160048201548152505081526020019060010190610517565b50505050905090565b60015481565b600154815111156106a4576040517f08c379a000000000000000000000000000000000000000000000000000000000815260040161069b90611186565b60405180910390fd5b60006040518060a00160405280600260003373ffffffffffffffffffffffffffffffffffffffff1673ffffffffffffffffffffffffffffffffffffffff1681526020019081526020016000208054905081526020013373ffffffffffffffffffffffffffffffffffffffff16815260200183815260200142815260200160008152509050600260003373ffffffffffffffffffffffffffffffffffffffff1673ffffffffffffffffffffffffffffffffffffffff1681526020019081526020016000208190806001815401808255809150506001900390600052602060002090600502016000909190919091506000820151816000015560208201518160010160006101000a81548173ffffffffffffffffffffffffffffffffffffffff021916908373ffffffffffffffffffffffffffffffffffffffff16021790555060408201518160020190805190602001906107fe929190610ba4565b50606082015181600301556080820151816004015550505050565b60008054906101000a900473ffffffffffffffffffffffffffffffffffffffff1673ffffffffffffffffffffffffffffffffffffffff163373ffffffffffffffffffffffffffffffffffffffff16146108a7576040517f08c379a000000000000000000000000000000000000000000000000000000000815260040161089e906111c6565b60405180910390fd5b8060018190555050565b60008054906101000a900473ffffffffffffffffffffffffffffffffffffffff1681565b6108dd610c2a565b600260003373ffffffffffffffffffffffffffffffffffffffff1673ffffffffffffffffffffffffffffffffffffffff1681526020019081526020016000208281548110610954577f4e487b7100000000000000000000000000000000000000000000000000000000600052603260045260246000fd5b90600052602060002090600502016040518060a0016040529081600082015481526020016001820160009054906101000a900473ffffffffffffffffffffffffffffffffffffffff1673ffffffffffffffffffffffffffffffffffffffff1673ffffffffffffffffffffffffffffffffffffffff1681526020016002820180546109dd9061140c565b80601f0160208091040260200160405190810160405280929190818152602001828054610a099061140c565b8015610a565780601f10610a2b57610100808354040283529160200191610a56565b820191906000526020600020905b815481529060010190602001808311610a3957829003601f168201915b50505050508152602001600382015481526020016004820154815250509050919050565b818181600260008373ffffffffffffffffffffffffffffffffffffffff1673ffffffffffffffffffffffffffffffffffffffff1681526020019081526020016000208054905011610b00576040517f08c379a0000000000000000000000000000000000000000000000000000000008152600401610af7906111e6565b60405180910390fd5b600260008473ffffffffffffffffffffffffffffffffffffffff1673ffffffffffffffffffffffffffffffffffffffff1681526020019081526020016000208481548110610b77577f4e487b7100000000000000000000000000000000000000000000000000000000600052603260045260246000fd5b90600052602060002090600502016004016000815480929190610b999061143e565b919050555050505050565b828054610bb09061140c565b90600052602060002090601f016020900481019282610bd25760008555610c19565b82601f10610beb57805160ff1916838001178555610c19565b82800160010185558215610c19579182015b82811115610c18578251825591602001919060010190610bfd565b5b509050610c269190610c6f565b5090565b6040518060a0016040528060008152602001600073ffffffffffffffffffffffffffffffffffffffff1681526020016060815260200160008152602001600081525090565b5b80821115610c88576000816000905550600101610c70565b5090565b6000610c9f610c9a846112ce565b61129d565b905082815260208101848484011115610cb757600080fd5b610cc28482856113a0565b509392505050565b600081359050610cd981611525565b92915050565b600082601f830112610cf057600080fd5b8135610d00848260208601610c8c565b91505092915050565b600081359050610d188161153c565b92915050565b60008060408385031215610d3157600080fd5b6000610d3f85828601610cca565b9250506020610d5085828601610d09565b9150509250929050565b600060208284031215610d6c57600080fd5b600082013567ffffffffffffffff811115610d8657600080fd5b610d9284828501610cdf565b91505092915050565b600060208284031215610dad57600080fd5b6000610dbb84828501610d09565b91505092915050565b60008060408385031215610dd757600080fd5b6000610de585828601610d09565b9250506020610df685828601610cca565b9150509250929050565b6000610e0c838361103f565b905092915050565b610e1d81611364565b82525050565b610e2c81611364565b82525050565b6000610e3d8261130e565b610e478185611331565b935083602082028501610e59856112fe565b8060005b85811015610e955784840389528151610e768582610e00565b9450610e8183611324565b925060208a01995050600181019050610e5d565b50829750879550505050505092915050565b6000610eb282611319565b610ebc8185611342565b9350610ecc8185602086016113af565b610ed581611514565b840191505092915050565b6000610eeb82611319565b610ef58185611353565b9350610f058185602086016113af565b610f0e81611514565b840191505092915050565b6000610f26601183611353565b91507f547765657420697320746f6f206c6f6e670000000000000000000000000000006000830152602082019050919050565b6000610f66601283611353565b91507f547765657420686173206e6f206c696b657300000000000000000000000000006000830152602082019050919050565b6000610fa6602c83611353565b91507f596f7520617265206e6f74206f776e657220746f206368616e6765206d61782060008301527f7477656574206c656e67746800000000000000000000000000000000000000006020830152604082019050919050565b600061100c601383611353565b91507f547765657420646f6573276e74206578697374000000000000000000000000006000830152602082019050919050565b600060a083016000830151611057600086018261112b565b50602083015161106a6020860182610e14565b50604083015184820360408601526110828282610ea7565b9150506060830151611097606086018261112b565b5060808301516110aa608086018261112b565b508091505092915050565b600060a0830160008301516110cd600086018261112b565b5060208301516110e06020860182610e14565b50604083015184820360408601526110f88282610ea7565b915050606083015161110d606086018261112b565b506080830151611120608086018261112b565b508091505092915050565b61113481611396565b82525050565b61114381611396565b82525050565b600060208201905061115e6000830184610e23565b92915050565b6000602082019050818103600083015261117e8184610e32565b905092915050565b6000602082019050818103600083015261119f81610f19565b9050919050565b600060208201905081810360008301526111bf81610f59565b9050919050565b600060208201905081810360008301526111df81610f99565b9050919050565b600060208201905081810360008301526111ff81610fff565b9050919050565b6000602082019050818103600083015261122081846110b5565b905092915050565b600060208201905061123d600083018461113a565b92915050565b600060a082019050611258600083018861113a565b6112656020830187610e23565b81810360408301526112778186610ee0565b9050611286606083018561113a565b611293608083018461113a565b9695505050505050565b6000604051905081810181811067ffffffffffffffff821117156112c4576112c36114e5565b5b8060405250919050565b600067ffffffffffffffff8211156112e9576112e86114e5565b5b601f19601f8301169050602081019050919050565b6000819050602082019050919050565b600081519050919050565b600081519050919050565b6000602082019050919050565b600082825260208201905092915050565b600082825260208201905092915050565b600082825260208201905092915050565b600061136f82611376565b9050919050565b600073ffffffffffffffffffffffffffffffffffffffff82169050919050565b6000819050919050565b82818337600083830152505050565b60005b838110156113cd5780820151818401526020810190506113b2565b838111156113dc576000848401525b50505050565b60006113ed82611396565b9150600082141561140157611400611487565b5b600182039050919050565b6000600282049050600182168061142457607f821691505b60208210811415611438576114376114b6565b5b50919050565b600061144982611396565b91507fffffffffffffffffffffffffffffffffffffffffffffffffffffffffffffffff82141561147c5761147b611487565b5b600182019050919050565b7f4e487b7100000000000000000000000000000000000000000000000000000000600052601160045260246000fd5b7f4e487b7100000000000000000000000000000000000000000000000000000000600052602260045260246000fd5b7f4e487b7100000000000000000000000000000000000000000000000000000000600052604160045260246000fd5b6000601f19601f8301169050919050565b61152e81611364565b811461153957600080fd5b50565b61154581611396565b811461155057600080fd5b5056fea26469706673582212205ed44be7c24561f4b7d6e31327aa5b16ff746d7316e30d4d73eff06e9fed235464736f6c63430008000033",
					"opcodes": "PUSH1 0x80 PUSH1 0x40 MSTORE PUSH2 0x118 PUSH1 0x1 SSTORE CALLVALUE DUP1 ISZERO PUSH2 0x16 JUMPI PUSH1 0x0 DUP1 REVERT JUMPDEST POP CALLER PUSH1 0x0 DUP1 PUSH2 0x100 EXP DUP2 SLOAD DUP2 PUSH20 0xFFFFFFFFFFFFFFFFFFFFFFFFFFFFFFFFFFFFFFFF MUL NOT AND SWAP1 DUP4 PUSH20 0xFFFFFFFFFFFFFFFFFFFFFFFFFFFFFFFFFFFFFFFF AND MUL OR SWAP1 SSTORE POP PUSH2 0x1589 DUP1 PUSH2 0x66 PUSH1 0x0 CODECOPY PUSH1 0x0 RETURN INVALID PUSH1 0x80 PUSH1 0x40 MSTORE CALLVALUE DUP1 ISZERO PUSH2 0x10 JUMPI PUSH1 0x0 DUP1 REVERT JUMPDEST POP PUSH1 0x4 CALLDATASIZE LT PUSH2 0x93 JUMPI PUSH1 0x0 CALLDATALOAD PUSH1 0xE0 SHR DUP1 PUSH4 0x7C9CD2BC GT PUSH2 0x66 JUMPI DUP1 PUSH4 0x7C9CD2BC EQ PUSH2 0x124 JUMPI DUP1 PUSH4 0x888A7880 EQ PUSH2 0x140 JUMPI DUP1 PUSH4 0x8DA5CB5B EQ PUSH2 0x15C JUMPI DUP1 PUSH4 0xC3AD5ECB EQ PUSH2 0x17A JUMPI DUP1 PUSH4 0xD04DDAA0 EQ PUSH2 0x1AA JUMPI PUSH2 0x93 JUMP JUMPDEST DUP1 PUSH4 0x5A1B4A9 EQ PUSH2 0x98 JUMPI DUP1 PUSH4 0x3FCD2D06 EQ PUSH2 0xCC JUMPI DUP1 PUSH4 0x53256135 EQ PUSH2 0xE8 JUMPI DUP1 PUSH4 0x6EB10797 EQ PUSH2 0x106 JUMPI JUMPDEST PUSH1 0x0 DUP1 REVERT JUMPDEST PUSH2 0xB2 PUSH1 0x4 DUP1 CALLDATASIZE SUB DUP2 ADD SWAP1 PUSH2 0xAD SWAP2 SWAP1 PUSH2 0xD1E JUMP JUMPDEST PUSH2 0x1C6 JUMP JUMPDEST PUSH1 0x40 MLOAD PUSH2 0xC3 SWAP6 SWAP5 SWAP4 SWAP3 SWAP2 SWAP1 PUSH2 0x1243 JUMP JUMPDEST PUSH1 0x40 MLOAD DUP1 SWAP2 SUB SWAP1 RETURN JUMPDEST PUSH2 0xE6 PUSH1 0x4 DUP1 CALLDATASIZE SUB DUP2 ADD SWAP1 PUSH2 0xE1 SWAP2 SWAP1 PUSH2 0xDC4 JUMP JUMPDEST PUSH2 0x2C1 JUMP JUMPDEST STOP JUMPDEST PUSH2 0xF0 PUSH2 0x4B6 JUMP JUMPDEST PUSH1 0x40 MLOAD PUSH2 0xFD SWAP2 SWAP1 PUSH2 0x1164 JUMP JUMPDEST PUSH1 0x40 MLOAD DUP1 SWAP2 SUB SWAP1 RETURN JUMPDEST PUSH2 0x10E PUSH2 0x658 JUMP JUMPDEST PUSH1 0x40 MLOAD PUSH2 0x11B SWAP2 SWAP1 PUSH2 0x1228 JUMP JUMPDEST PUSH1 0x40 MLOAD DUP1 SWAP2 SUB SWAP1 RETURN JUMPDEST PUSH2 0x13E PUSH1 0x4 DUP1 CALLDATASIZE SUB DUP2 ADD SWAP1 PUSH2 0x139 SWAP2 SWAP1 PUSH2 0xD5A JUMP JUMPDEST PUSH2 0x65E JUMP JUMPDEST STOP JUMPDEST PUSH2 0x15A PUSH1 0x4 DUP1 CALLDATASIZE SUB DUP2 ADD SWAP1 PUSH2 0x155 SWAP2 SWAP1 PUSH2 0xD9B JUMP JUMPDEST PUSH2 0x819 JUMP JUMPDEST STOP JUMPDEST PUSH2 0x164 PUSH2 0x8B1 JUMP JUMPDEST PUSH1 0x40 MLOAD PUSH2 0x171 SWAP2 SWAP1 PUSH2 0x1149 JUMP JUMPDEST PUSH1 0x40 MLOAD DUP1 SWAP2 SUB SWAP1 RETURN JUMPDEST PUSH2 0x194 PUSH1 0x4 DUP1 CALLDATASIZE SUB DUP2 ADD SWAP1 PUSH2 0x18F SWAP2 SWAP1 PUSH2 0xD9B JUMP JUMPDEST PUSH2 0x8D5 JUMP JUMPDEST PUSH1 0x40 MLOAD PUSH2 0x1A1 SWAP2 SWAP1 PUSH2 0x1206 JUMP JUMPDEST PUSH1 0x40 MLOAD DUP1 SWAP2 SUB SWAP1 RETURN JUMPDEST PUSH2 0x1C4 PUSH1 0x4 DUP1 CALLDATASIZE SUB DUP2 ADD SWAP1 PUSH2 0x1BF SWAP2 SWAP1 PUSH2 0xDC4 JUMP JUMPDEST PUSH2 0xA7A JUMP JUMPDEST STOP JUMPDEST PUSH1 0x2 PUSH1 0x20 MSTORE DUP2 PUSH1 0x0 MSTORE PUSH1 0x40 PUSH1 0x0 KECCAK256 DUP2 DUP2 SLOAD DUP2 LT PUSH2 0x1E2 JUMPI PUSH1 0x0 DUP1 REVERT JUMPDEST SWAP1 PUSH1 0x0 MSTORE PUSH1 0x20 PUSH1 0x0 KECCAK256 SWAP1 PUSH1 0x5 MUL ADD PUSH1 0x0 SWAP2 POP SWAP2 POP POP DUP1 PUSH1 0x0 ADD SLOAD SWAP1 DUP1 PUSH1 0x1 ADD PUSH1 0x0 SWAP1 SLOAD SWAP1 PUSH2 0x100 EXP SWAP1 DIV PUSH20 0xFFFFFFFFFFFFFFFFFFFFFFFFFFFFFFFFFFFFFFFF AND SWAP1 DUP1 PUSH1 0x2 ADD DUP1 SLOAD PUSH2 0x232 SWAP1 PUSH2 0x140C JUMP JUMPDEST DUP1 PUSH1 0x1F ADD PUSH1 0x20 DUP1 SWAP2 DIV MUL PUSH1 0x20 ADD PUSH1 0x40 MLOAD SWAP1 DUP2 ADD PUSH1 0x40 MSTORE DUP1 SWAP3 SWAP2 SWAP1 DUP2 DUP2 MSTORE PUSH1 0x20 ADD DUP3 DUP1 SLOAD PUSH2 0x25E SWAP1 PUSH2 0x140C JUMP JUMPDEST DUP1 ISZERO PUSH2 0x2AB JUMPI DUP1 PUSH1 0x1F LT PUSH2 0x280 JUMPI PUSH2 0x100 DUP1 DUP4 SLOAD DIV MUL DUP4 MSTORE SWAP2 PUSH1 0x20 ADD SWAP2 PUSH2 0x2AB JUMP JUMPDEST DUP3 ADD SWAP2 SWAP1 PUSH1 0x0 MSTORE PUSH1 0x20 PUSH1 0x0 KECCAK256 SWAP1 JUMPDEST DUP2 SLOAD DUP2 MSTORE SWAP1 PUSH1 0x1 ADD SWAP1 PUSH1 0x20 ADD DUP1 DUP4 GT PUSH2 0x28E JUMPI DUP3 SWAP1 SUB PUSH1 0x1F AND DUP3 ADD SWAP2 JUMPDEST POP POP POP POP POP SWAP1 DUP1 PUSH1 0x3 ADD SLOAD SWAP1 DUP1 PUSH1 0x4 ADD SLOAD SWAP1 POP DUP6 JUMP JUMPDEST DUP2 DUP2 DUP2 PUSH1 0x2 PUSH1 0x0 DUP4 PUSH20 0xFFFFFFFFFFFFFFFFFFFFFFFFFFFFFFFFFFFFFFFF AND PUSH20 0xFFFFFFFFFFFFFFFFFFFFFFFFFFFFFFFFFFFFFFFF AND DUP2 MSTORE PUSH1 0x20 ADD SWAP1 DUP2 MSTORE PUSH1 0x20 ADD PUSH1 0x0 KECCAK256 DUP1 SLOAD SWAP1 POP GT PUSH2 0x347 JUMPI PUSH1 0x40 MLOAD PUSH32 0x8C379A000000000000000000000000000000000000000000000000000000000 DUP2 MSTORE PUSH1 0x4 ADD PUSH2 0x33E SWAP1 PUSH2 0x11E6 JUMP JUMPDEST PUSH1 0x40 MLOAD DUP1 SWAP2 SUB SWAP1 REVERT JUMPDEST PUSH1 0x0 PUSH1 0x2 PUSH1 0x0 DUP6 PUSH20 0xFFFFFFFFFFFFFFFFFFFFFFFFFFFFFFFFFFFFFFFF AND PUSH20 0xFFFFFFFFFFFFFFFFFFFFFFFFFFFFFFFFFFFFFFFF AND DUP2 MSTORE PUSH1 0x20 ADD SWAP1 DUP2 MSTORE PUSH1 0x20 ADD PUSH1 0x0 KECCAK256 DUP6 DUP2 SLOAD DUP2 LT PUSH2 0x3C0 JUMPI PUSH32 0x4E487B7100000000000000000000000000000000000000000000000000000000 PUSH1 0x0 MSTORE PUSH1 0x32 PUSH1 0x4 MSTORE PUSH1 0x24 PUSH1 0x0 REVERT JUMPDEST SWAP1 PUSH1 0x0 MSTORE PUSH1 0x20 PUSH1 0x0 KECCAK256 SWAP1 PUSH1 0x5 MUL ADD PUSH1 0x4 ADD SLOAD GT PUSH2 0x412 JUMPI PUSH1 0x40 MLOAD PUSH32 0x8C379A000000000000000000000000000000000000000000000000000000000 DUP2 MSTORE PUSH1 0x4 ADD PUSH2 0x409 SWAP1 PUSH2 0x11A6 JUMP JUMPDEST PUSH1 0x40 MLOAD DUP1 SWAP2 SUB SWAP1 REVERT JUMPDEST PUSH1 0x2 PUSH1 0x0 DUP5 PUSH20 0xFFFFFFFFFFFFFFFFFFFFFFFFFFFFFFFFFFFFFFFF AND PUSH20 0xFFFFFFFFFFFFFFFFFFFFFFFFFFFFFFFFFFFFFFFF AND DUP2 MSTORE PUSH1 0x20 ADD SWAP1 DUP2 MSTORE PUSH1 0x20 ADD PUSH1 0x0 KECCAK256 DUP5 DUP2 SLOAD DUP2 LT PUSH2 0x489 JUMPI PUSH32 0x4E487B7100000000000000000000000000000000000000000000000000000000 PUSH1 0x0 MSTORE PUSH1 0x32 PUSH1 0x4 MSTORE PUSH1 0x24 PUSH1 0x0 REVERT JUMPDEST SWAP1 PUSH1 0x0 MSTORE PUSH1 0x20 PUSH1 0x0 KECCAK256 SWAP1 PUSH1 0x5 MUL ADD PUSH1 0x4 ADD PUSH1 0x0 DUP2 SLOAD DUP1 SWAP3 SWAP2 SWAP1 PUSH2 0x4AB SWAP1 PUSH2 0x13E2 JUMP JUMPDEST SWAP2 SWAP1 POP SSTORE POP POP POP POP POP JUMP JUMPDEST PUSH1 0x60 PUSH1 0x2 PUSH1 0x0 CALLER PUSH20 0xFFFFFFFFFFFFFFFFFFFFFFFFFFFFFFFFFFFFFFFF AND PUSH20 0xFFFFFFFFFFFFFFFFFFFFFFFFFFFFFFFFFFFFFFFF AND DUP2 MSTORE PUSH1 0x20 ADD SWAP1 DUP2 MSTORE PUSH1 0x20 ADD PUSH1 0x0 KECCAK256 DUP1 SLOAD DUP1 PUSH1 0x20 MUL PUSH1 0x20 ADD PUSH1 0x40 MLOAD SWAP1 DUP2 ADD PUSH1 0x40 MSTORE DUP1 SWAP3 SWAP2 SWAP1 DUP2 DUP2 MSTORE PUSH1 0x20 ADD PUSH1 0x0 SWAP1 JUMPDEST DUP3 DUP3 LT ISZERO PUSH2 0x64F JUMPI DUP4 DUP3 SWAP1 PUSH1 0x0 MSTORE PUSH1 0x20 PUSH1 0x0 KECCAK256 SWAP1 PUSH1 0x5 MUL ADD PUSH1 0x40 MLOAD DUP1 PUSH1 0xA0 ADD PUSH1 0x40 MSTORE SWAP1 DUP2 PUSH1 0x0 DUP3 ADD SLOAD DUP2 MSTORE PUSH1 0x20 ADD PUSH1 0x1 DUP3 ADD PUSH1 0x0 SWAP1 SLOAD SWAP1 PUSH2 0x100 EXP SWAP1 DIV PUSH20 0xFFFFFFFFFFFFFFFFFFFFFFFFFFFFFFFFFFFFFFFF AND PUSH20 0xFFFFFFFFFFFFFFFFFFFFFFFFFFFFFFFFFFFFFFFF AND PUSH20 0xFFFFFFFFFFFFFFFFFFFFFFFFFFFFFFFFFFFFFFFF AND DUP2 MSTORE PUSH1 0x20 ADD PUSH1 0x2 DUP3 ADD DUP1 SLOAD PUSH2 0x5AA SWAP1 PUSH2 0x140C JUMP JUMPDEST DUP1 PUSH1 0x1F ADD PUSH1 0x20 DUP1 SWAP2 DIV MUL PUSH1 0x20 ADD PUSH1 0x40 MLOAD SWAP1 DUP2 ADD PUSH1 0x40 MSTORE DUP1 SWAP3 SWAP2 SWAP1 DUP2 DUP2 MSTORE PUSH1 0x20 ADD DUP3 DUP1 SLOAD PUSH2 0x5D6 SWAP1 PUSH2 0x140C JUMP JUMPDEST DUP1 ISZERO PUSH2 0x623 JUMPI DUP1 PUSH1 0x1F LT PUSH2 0x5F8 JUMPI PUSH2 0x100 DUP1 DUP4 SLOAD DIV MUL DUP4 MSTORE SWAP2 PUSH1 0x20 ADD SWAP2 PUSH2 0x623 JUMP JUMPDEST DUP3 ADD SWAP2 SWAP1 PUSH1 0x0 MSTORE PUSH1 0x20 PUSH1 0x0 KECCAK256 SWAP1 JUMPDEST DUP2 SLOAD DUP2 MSTORE SWAP1 PUSH1 0x1 ADD SWAP1 PUSH1 0x20 ADD DUP1 DUP4 GT PUSH2 0x606 JUMPI DUP3 SWAP1 SUB PUSH1 0x1F AND DUP3 ADD SWAP2 JUMPDEST POP POP POP POP POP DUP2 MSTORE PUSH1 0x20 ADD PUSH1 0x3 DUP3 ADD SLOAD DUP2 MSTORE PUSH1 0x20 ADD PUSH1 0x4 DUP3 ADD SLOAD DUP2 MSTORE POP POP DUP2 MSTORE PUSH1 0x20 ADD SWAP1 PUSH1 0x1 ADD SWAP1 PUSH2 0x517 JUMP JUMPDEST POP POP POP POP SWAP1 POP SWAP1 JUMP JUMPDEST PUSH1 0x1 SLOAD DUP2 JUMP JUMPDEST PUSH1 0x1 SLOAD DUP2 MLOAD GT ISZERO PUSH2 0x6A4 JUMPI PUSH1 0x40 MLOAD PUSH32 0x8C379A000000000000000000000000000000000000000000000000000000000 DUP2 MSTORE PUSH1 0x4 ADD PUSH2 0x69B SWAP1 PUSH2 0x1186 JUMP JUMPDEST PUSH1 0x40 MLOAD DUP1 SWAP2 SUB SWAP1 REVERT JUMPDEST PUSH1 0x0 PUSH1 0x40 MLOAD DUP1 PUSH1 0xA0 ADD PUSH1 0x40 MSTORE DUP1 PUSH1 0x2 PUSH1 0x0 CALLER PUSH20 0xFFFFFFFFFFFFFFFFFFFFFFFFFFFFFFFFFFFFFFFF AND PUSH20 0xFFFFFFFFFFFFFFFFFFFFFFFFFFFFFFFFFFFFFFFF AND DUP2 MSTORE PUSH1 0x20 ADD SWAP1 DUP2 MSTORE PUSH1 0x20 ADD PUSH1 0x0 KECCAK256 DUP1 SLOAD SWAP1 POP DUP2 MSTORE PUSH1 0x20 ADD CALLER PUSH20 0xFFFFFFFFFFFFFFFFFFFFFFFFFFFFFFFFFFFFFFFF AND DUP2 MSTORE PUSH1 0x20 ADD DUP4 DUP2 MSTORE PUSH1 0x20 ADD TIMESTAMP DUP2 MSTORE PUSH1 0x20 ADD PUSH1 0x0 DUP2 MSTORE POP SWAP1 POP PUSH1 0x2 PUSH1 0x0 CALLER PUSH20 0xFFFFFFFFFFFFFFFFFFFFFFFFFFFFFFFFFFFFFFFF AND PUSH20 0xFFFFFFFFFFFFFFFFFFFFFFFFFFFFFFFFFFFFFFFF AND DUP2 MSTORE PUSH1 0x20 ADD SWAP1 DUP2 MSTORE PUSH1 0x20 ADD PUSH1 0x0 KECCAK256 DUP2 SWAP1 DUP1 PUSH1 0x1 DUP2 SLOAD ADD DUP1 DUP3 SSTORE DUP1 SWAP2 POP POP PUSH1 0x1 SWAP1 SUB SWAP1 PUSH1 0x0 MSTORE PUSH1 0x20 PUSH1 0x0 KECCAK256 SWAP1 PUSH1 0x5 MUL ADD PUSH1 0x0 SWAP1 SWAP2 SWAP1 SWAP2 SWAP1 SWAP2 POP PUSH1 0x0 DUP3 ADD MLOAD DUP2 PUSH1 0x0 ADD SSTORE PUSH1 0x20 DUP3 ADD MLOAD DUP2 PUSH1 0x1 ADD PUSH1 0x0 PUSH2 0x100 EXP DUP2 SLOAD DUP2 PUSH20 0xFFFFFFFFFFFFFFFFFFFFFFFFFFFFFFFFFFFFFFFF MUL NOT AND SWAP1 DUP4 PUSH20 0xFFFFFFFFFFFFFFFFFFFFFFFFFFFFFFFFFFFFFFFF AND MUL OR SWAP1 SSTORE POP PUSH1 0x40 DUP3 ADD MLOAD DUP2 PUSH1 0x2 ADD SWAP1 DUP1 MLOAD SWAP1 PUSH1 0x20 ADD SWAP1 PUSH2 0x7FE SWAP3 SWAP2 SWAP1 PUSH2 0xBA4 JUMP JUMPDEST POP PUSH1 0x60 DUP3 ADD MLOAD DUP2 PUSH1 0x3 ADD SSTORE PUSH1 0x80 DUP3 ADD MLOAD DUP2 PUSH1 0x4 ADD SSTORE POP POP POP POP JUMP JUMPDEST PUSH1 0x0 DUP1 SLOAD SWAP1 PUSH2 0x100 EXP SWAP1 DIV PUSH20 0xFFFFFFFFFFFFFFFFFFFFFFFFFFFFFFFFFFFFFFFF AND PUSH20 0xFFFFFFFFFFFFFFFFFFFFFFFFFFFFFFFFFFFFFFFF AND CALLER PUSH20 0xFFFFFFFFFFFFFFFFFFFFFFFFFFFFFFFFFFFFFFFF AND EQ PUSH2 0x8A7 JUMPI PUSH1 0x40 MLOAD PUSH32 0x8C379A000000000000000000000000000000000000000000000000000000000 DUP2 MSTORE PUSH1 0x4 ADD PUSH2 0x89E SWAP1 PUSH2 0x11C6 JUMP JUMPDEST PUSH1 0x40 MLOAD DUP1 SWAP2 SUB SWAP1 REVERT JUMPDEST DUP1 PUSH1 0x1 DUP2 SWAP1 SSTORE POP POP JUMP JUMPDEST PUSH1 0x0 DUP1 SLOAD SWAP1 PUSH2 0x100 EXP SWAP1 DIV PUSH20 0xFFFFFFFFFFFFFFFFFFFFFFFFFFFFFFFFFFFFFFFF AND DUP2 JUMP JUMPDEST PUSH2 0x8DD PUSH2 0xC2A JUMP JUMPDEST PUSH1 0x2 PUSH1 0x0 CALLER PUSH20 0xFFFFFFFFFFFFFFFFFFFFFFFFFFFFFFFFFFFFFFFF AND PUSH20 0xFFFFFFFFFFFFFFFFFFFFFFFFFFFFFFFFFFFFFFFF AND DUP2 MSTORE PUSH1 0x20 ADD SWAP1 DUP2 MSTORE PUSH1 0x20 ADD PUSH1 0x0 KECCAK256 DUP3 DUP2 SLOAD DUP2 LT PUSH2 0x954 JUMPI PUSH32 0x4E487B7100000000000000000000000000000000000000000000000000000000 PUSH1 0x0 MSTORE PUSH1 0x32 PUSH1 0x4 MSTORE PUSH1 0x24 PUSH1 0x0 REVERT JUMPDEST SWAP1 PUSH1 0x0 MSTORE PUSH1 0x20 PUSH1 0x0 KECCAK256 SWAP1 PUSH1 0x5 MUL ADD PUSH1 0x40 MLOAD DUP1 PUSH1 0xA0 ADD PUSH1 0x40 MSTORE SWAP1 DUP2 PUSH1 0x0 DUP3 ADD SLOAD DUP2 MSTORE PUSH1 0x20 ADD PUSH1 0x1 DUP3 ADD PUSH1 0x0 SWAP1 SLOAD SWAP1 PUSH2 0x100 EXP SWAP1 DIV PUSH20 0xFFFFFFFFFFFFFFFFFFFFFFFFFFFFFFFFFFFFFFFF AND PUSH20 0xFFFFFFFFFFFFFFFFFFFFFFFFFFFFFFFFFFFFFFFF AND PUSH20 0xFFFFFFFFFFFFFFFFFFFFFFFFFFFFFFFFFFFFFFFF AND DUP2 MSTORE PUSH1 0x20 ADD PUSH1 0x2 DUP3 ADD DUP1 SLOAD PUSH2 0x9DD SWAP1 PUSH2 0x140C JUMP JUMPDEST DUP1 PUSH1 0x1F ADD PUSH1 0x20 DUP1 SWAP2 DIV MUL PUSH1 0x20 ADD PUSH1 0x40 MLOAD SWAP1 DUP2 ADD PUSH1 0x40 MSTORE DUP1 SWAP3 SWAP2 SWAP1 DUP2 DUP2 MSTORE PUSH1 0x20 ADD DUP3 DUP1 SLOAD PUSH2 0xA09 SWAP1 PUSH2 0x140C JUMP JUMPDEST DUP1 ISZERO PUSH2 0xA56 JUMPI DUP1 PUSH1 0x1F LT PUSH2 0xA2B JUMPI PUSH2 0x100 DUP1 DUP4 SLOAD DIV MUL DUP4 MSTORE SWAP2 PUSH1 0x20 ADD SWAP2 PUSH2 0xA56 JUMP JUMPDEST DUP3 ADD SWAP2 SWAP1 PUSH1 0x0 MSTORE PUSH1 0x20 PUSH1 0x0 KECCAK256 SWAP1 JUMPDEST DUP2 SLOAD DUP2 MSTORE SWAP1 PUSH1 0x1 ADD SWAP1 PUSH1 0x20 ADD DUP1 DUP4 GT PUSH2 0xA39 JUMPI DUP3 SWAP1 SUB PUSH1 0x1F AND DUP3 ADD SWAP2 JUMPDEST POP POP POP POP POP DUP2 MSTORE PUSH1 0x20 ADD PUSH1 0x3 DUP3 ADD SLOAD DUP2 MSTORE PUSH1 0x20 ADD PUSH1 0x4 DUP3 ADD SLOAD DUP2 MSTORE POP POP SWAP1 POP SWAP2 SWAP1 POP JUMP JUMPDEST DUP2 DUP2 DUP2 PUSH1 0x2 PUSH1 0x0 DUP4 PUSH20 0xFFFFFFFFFFFFFFFFFFFFFFFFFFFFFFFFFFFFFFFF AND PUSH20 0xFFFFFFFFFFFFFFFFFFFFFFFFFFFFFFFFFFFFFFFF AND DUP2 MSTORE PUSH1 0x20 ADD SWAP1 DUP2 MSTORE PUSH1 0x20 ADD PUSH1 0x0 KECCAK256 DUP1 SLOAD SWAP1 POP GT PUSH2 0xB00 JUMPI PUSH1 0x40 MLOAD PUSH32 0x8C379A000000000000000000000000000000000000000000000000000000000 DUP2 MSTORE PUSH1 0x4 ADD PUSH2 0xAF7 SWAP1 PUSH2 0x11E6 JUMP JUMPDEST PUSH1 0x40 MLOAD DUP1 SWAP2 SUB SWAP1 REVERT JUMPDEST PUSH1 0x2 PUSH1 0x0 DUP5 PUSH20 0xFFFFFFFFFFFFFFFFFFFFFFFFFFFFFFFFFFFFFFFF AND PUSH20 0xFFFFFFFFFFFFFFFFFFFFFFFFFFFFFFFFFFFFFFFF AND DUP2 MSTORE PUSH1 0x20 ADD SWAP1 DUP2 MSTORE PUSH1 0x20 ADD PUSH1 0x0 KECCAK256 DUP5 DUP2 SLOAD DUP2 LT PUSH2 0xB77 JUMPI PUSH32 0x4E487B7100000000000000000000000000000000000000000000000000000000 PUSH1 0x0 MSTORE PUSH1 0x32 PUSH1 0x4 MSTORE PUSH1 0x24 PUSH1 0x0 REVERT JUMPDEST SWAP1 PUSH1 0x0 MSTORE PUSH1 0x20 PUSH1 0x0 KECCAK256 SWAP1 PUSH1 0x5 MUL ADD PUSH1 0x4 ADD PUSH1 0x0 DUP2 SLOAD DUP1 SWAP3 SWAP2 SWAP1 PUSH2 0xB99 SWAP1 PUSH2 0x143E JUMP JUMPDEST SWAP2 SWAP1 POP SSTORE POP POP POP POP POP JUMP JUMPDEST DUP3 DUP1 SLOAD PUSH2 0xBB0 SWAP1 PUSH2 0x140C JUMP JUMPDEST SWAP1 PUSH1 0x0 MSTORE PUSH1 0x20 PUSH1 0x0 KECCAK256 SWAP1 PUSH1 0x1F ADD PUSH1 0x20 SWAP1 DIV DUP2 ADD SWAP3 DUP3 PUSH2 0xBD2 JUMPI PUSH1 0x0 DUP6 SSTORE PUSH2 0xC19 JUMP JUMPDEST DUP3 PUSH1 0x1F LT PUSH2 0xBEB JUMPI DUP1 MLOAD PUSH1 0xFF NOT AND DUP4 DUP1 ADD OR DUP6 SSTORE PUSH2 0xC19 JUMP JUMPDEST DUP3 DUP1 ADD PUSH1 0x1 ADD DUP6 SSTORE DUP3 ISZERO PUSH2 0xC19 JUMPI SWAP2 DUP3 ADD JUMPDEST DUP3 DUP2 GT ISZERO PUSH2 0xC18 JUMPI DUP3 MLOAD DUP3 SSTORE SWAP2 PUSH1 0x20 ADD SWAP2 SWAP1 PUSH1 0x1 ADD SWAP1 PUSH2 0xBFD JUMP JUMPDEST JUMPDEST POP SWAP1 POP PUSH2 0xC26 SWAP2 SWAP1 PUSH2 0xC6F JUMP JUMPDEST POP SWAP1 JUMP JUMPDEST PUSH1 0x40 MLOAD DUP1 PUSH1 0xA0 ADD PUSH1 0x40 MSTORE DUP1 PUSH1 0x0 DUP2 MSTORE PUSH1 0x20 ADD PUSH1 0x0 PUSH20 0xFFFFFFFFFFFFFFFFFFFFFFFFFFFFFFFFFFFFFFFF AND DUP2 MSTORE PUSH1 0x20 ADD PUSH1 0x60 DUP2 MSTORE PUSH1 0x20 ADD PUSH1 0x0 DUP2 MSTORE PUSH1 0x20 ADD PUSH1 0x0 DUP2 MSTORE POP SWAP1 JUMP JUMPDEST JUMPDEST DUP1 DUP3 GT ISZERO PUSH2 0xC88 JUMPI PUSH1 0x0 DUP2 PUSH1 0x0 SWAP1 SSTORE POP PUSH1 0x1 ADD PUSH2 0xC70 JUMP JUMPDEST POP SWAP1 JUMP JUMPDEST PUSH1 0x0 PUSH2 0xC9F PUSH2 0xC9A DUP5 PUSH2 0x12CE JUMP JUMPDEST PUSH2 0x129D JUMP JUMPDEST SWAP1 POP DUP3 DUP2 MSTORE PUSH1 0x20 DUP2 ADD DUP5 DUP5 DUP5 ADD GT ISZERO PUSH2 0xCB7 JUMPI PUSH1 0x0 DUP1 REVERT JUMPDEST PUSH2 0xCC2 DUP5 DUP3 DUP6 PUSH2 0x13A0 JUMP JUMPDEST POP SWAP4 SWAP3 POP POP POP JUMP JUMPDEST PUSH1 0x0 DUP2 CALLDATALOAD SWAP1 POP PUSH2 0xCD9 DUP2 PUSH2 0x1525 JUMP JUMPDEST SWAP3 SWAP2 POP POP JUMP JUMPDEST PUSH1 0x0 DUP3 PUSH1 0x1F DUP4 ADD SLT PUSH2 0xCF0 JUMPI PUSH1 0x0 DUP1 REVERT JUMPDEST DUP2 CALLDATALOAD PUSH2 0xD00 DUP5 DUP3 PUSH1 0x20 DUP7 ADD PUSH2 0xC8C JUMP JUMPDEST SWAP2 POP POP SWAP3 SWAP2 POP POP JUMP JUMPDEST PUSH1 0x0 DUP2 CALLDATALOAD SWAP1 POP PUSH2 0xD18 DUP2 PUSH2 0x153C JUMP JUMPDEST SWAP3 SWAP2 POP POP JUMP JUMPDEST PUSH1 0x0 DUP1 PUSH1 0x40 DUP4 DUP6 SUB SLT ISZERO PUSH2 0xD31 JUMPI PUSH1 0x0 DUP1 REVERT JUMPDEST PUSH1 0x0 PUSH2 0xD3F DUP6 DUP3 DUP7 ADD PUSH2 0xCCA JUMP JUMPDEST SWAP3 POP POP PUSH1 0x20 PUSH2 0xD50 DUP6 DUP3 DUP7 ADD PUSH2 0xD09 JUMP JUMPDEST SWAP2 POP POP SWAP3 POP SWAP3 SWAP1 POP JUMP JUMPDEST PUSH1 0x0 PUSH1 0x20 DUP3 DUP5 SUB SLT ISZERO PUSH2 0xD6C JUMPI PUSH1 0x0 DUP1 REVERT JUMPDEST PUSH1 0x0 DUP3 ADD CALLDATALOAD PUSH8 0xFFFFFFFFFFFFFFFF DUP2 GT ISZERO PUSH2 0xD86 JUMPI PUSH1 0x0 DUP1 REVERT JUMPDEST PUSH2 0xD92 DUP5 DUP3 DUP6 ADD PUSH2 0xCDF JUMP JUMPDEST SWAP2 POP POP SWAP3 SWAP2 POP POP JUMP JUMPDEST PUSH1 0x0 PUSH1 0x20 DUP3 DUP5 SUB SLT ISZERO PUSH2 0xDAD JUMPI PUSH1 0x0 DUP1 REVERT JUMPDEST PUSH1 0x0 PUSH2 0xDBB DUP5 DUP3 DUP6 ADD PUSH2 0xD09 JUMP JUMPDEST SWAP2 POP POP SWAP3 SWAP2 POP POP JUMP JUMPDEST PUSH1 0x0 DUP1 PUSH1 0x40 DUP4 DUP6 SUB SLT ISZERO PUSH2 0xDD7 JUMPI PUSH1 0x0 DUP1 REVERT JUMPDEST PUSH1 0x0 PUSH2 0xDE5 DUP6 DUP3 DUP7 ADD PUSH2 0xD09 JUMP JUMPDEST SWAP3 POP POP PUSH1 0x20 PUSH2 0xDF6 DUP6 DUP3 DUP7 ADD PUSH2 0xCCA JUMP JUMPDEST SWAP2 POP POP SWAP3 POP SWAP3 SWAP1 POP JUMP JUMPDEST PUSH1 0x0 PUSH2 0xE0C DUP4 DUP4 PUSH2 0x103F JUMP JUMPDEST SWAP1 POP SWAP3 SWAP2 POP POP JUMP JUMPDEST PUSH2 0xE1D DUP2 PUSH2 0x1364 JUMP JUMPDEST DUP3 MSTORE POP POP JUMP JUMPDEST PUSH2 0xE2C DUP2 PUSH2 0x1364 JUMP JUMPDEST DUP3 MSTORE POP POP JUMP JUMPDEST PUSH1 0x0 PUSH2 0xE3D DUP3 PUSH2 0x130E JUMP JUMPDEST PUSH2 0xE47 DUP2 DUP6 PUSH2 0x1331 JUMP JUMPDEST SWAP4 POP DUP4 PUSH1 0x20 DUP3 MUL DUP6 ADD PUSH2 0xE59 DUP6 PUSH2 0x12FE JUMP JUMPDEST DUP1 PUSH1 0x0 JUMPDEST DUP6 DUP2 LT ISZERO PUSH2 0xE95 JUMPI DUP5 DUP5 SUB DUP10 MSTORE DUP2 MLOAD PUSH2 0xE76 DUP6 DUP3 PUSH2 0xE00 JUMP JUMPDEST SWAP5 POP PUSH2 0xE81 DUP4 PUSH2 0x1324 JUMP JUMPDEST SWAP3 POP PUSH1 0x20 DUP11 ADD SWAP10 POP POP PUSH1 0x1 DUP2 ADD SWAP1 POP PUSH2 0xE5D JUMP JUMPDEST POP DUP3 SWAP8 POP DUP8 SWAP6 POP POP POP POP POP POP SWAP3 SWAP2 POP POP JUMP JUMPDEST PUSH1 0x0 PUSH2 0xEB2 DUP3 PUSH2 0x1319 JUMP JUMPDEST PUSH2 0xEBC DUP2 DUP6 PUSH2 0x1342 JUMP JUMPDEST SWAP4 POP PUSH2 0xECC DUP2 DUP6 PUSH1 0x20 DUP7 ADD PUSH2 0x13AF JUMP JUMPDEST PUSH2 0xED5 DUP2 PUSH2 0x1514 JUMP JUMPDEST DUP5 ADD SWAP2 POP POP SWAP3 SWAP2 POP POP JUMP JUMPDEST PUSH1 0x0 PUSH2 0xEEB DUP3 PUSH2 0x1319 JUMP JUMPDEST PUSH2 0xEF5 DUP2 DUP6 PUSH2 0x1353 JUMP JUMPDEST SWAP4 POP PUSH2 0xF05 DUP2 DUP6 PUSH1 0x20 DUP7 ADD PUSH2 0x13AF JUMP JUMPDEST PUSH2 0xF0E DUP2 PUSH2 0x1514 JUMP JUMPDEST DUP5 ADD SWAP2 POP POP SWAP3 SWAP2 POP POP JUMP JUMPDEST PUSH1 0x0 PUSH2 0xF26 PUSH1 0x11 DUP4 PUSH2 0x1353 JUMP JUMPDEST SWAP2 POP PUSH32 0x547765657420697320746F6F206C6F6E67000000000000000000000000000000 PUSH1 0x0 DUP4 ADD MSTORE PUSH1 0x20 DUP3 ADD SWAP1 POP SWAP2 SWAP1 POP JUMP JUMPDEST PUSH1 0x0 PUSH2 0xF66 PUSH1 0x12 DUP4 PUSH2 0x1353 JUMP JUMPDEST SWAP2 POP PUSH32 0x547765657420686173206E6F206C696B65730000000000000000000000000000 PUSH1 0x0 DUP4 ADD MSTORE PUSH1 0x20 DUP3 ADD SWAP1 POP SWAP2 SWAP1 POP JUMP JUMPDEST PUSH1 0x0 PUSH2 0xFA6 PUSH1 0x2C DUP4 PUSH2 0x1353 JUMP JUMPDEST SWAP2 POP PUSH32 0x596F7520617265206E6F74206F776E657220746F206368616E6765206D617820 PUSH1 0x0 DUP4 ADD MSTORE PUSH32 0x7477656574206C656E6774680000000000000000000000000000000000000000 PUSH1 0x20 DUP4 ADD MSTORE PUSH1 0x40 DUP3 ADD SWAP1 POP SWAP2 SWAP1 POP JUMP JUMPDEST PUSH1 0x0 PUSH2 0x100C PUSH1 0x13 DUP4 PUSH2 0x1353 JUMP JUMPDEST SWAP2 POP PUSH32 0x547765657420646F6573276E7420657869737400000000000000000000000000 PUSH1 0x0 DUP4 ADD MSTORE PUSH1 0x20 DUP3 ADD SWAP1 POP SWAP2 SWAP1 POP JUMP JUMPDEST PUSH1 0x0 PUSH1 0xA0 DUP4 ADD PUSH1 0x0 DUP4 ADD MLOAD PUSH2 0x1057 PUSH1 0x0 DUP7 ADD DUP3 PUSH2 0x112B JUMP JUMPDEST POP PUSH1 0x20 DUP4 ADD MLOAD PUSH2 0x106A PUSH1 0x20 DUP7 ADD DUP3 PUSH2 0xE14 JUMP JUMPDEST POP PUSH1 0x40 DUP4 ADD MLOAD DUP5 DUP3 SUB PUSH1 0x40 DUP7 ADD MSTORE PUSH2 0x1082 DUP3 DUP3 PUSH2 0xEA7 JUMP JUMPDEST SWAP2 POP POP PUSH1 0x60 DUP4 ADD MLOAD PUSH2 0x1097 PUSH1 0x60 DUP7 ADD DUP3 PUSH2 0x112B JUMP JUMPDEST POP PUSH1 0x80 DUP4 ADD MLOAD PUSH2 0x10AA PUSH1 0x80 DUP7 ADD DUP3 PUSH2 0x112B JUMP JUMPDEST POP DUP1 SWAP2 POP POP SWAP3 SWAP2 POP POP JUMP JUMPDEST PUSH1 0x0 PUSH1 0xA0 DUP4 ADD PUSH1 0x0 DUP4 ADD MLOAD PUSH2 0x10CD PUSH1 0x0 DUP7 ADD DUP3 PUSH2 0x112B JUMP JUMPDEST POP PUSH1 0x20 DUP4 ADD MLOAD PUSH2 0x10E0 PUSH1 0x20 DUP7 ADD DUP3 PUSH2 0xE14 JUMP JUMPDEST POP PUSH1 0x40 DUP4 ADD MLOAD DUP5 DUP3 SUB PUSH1 0x40 DUP7 ADD MSTORE PUSH2 0x10F8 DUP3 DUP3 PUSH2 0xEA7 JUMP JUMPDEST SWAP2 POP POP PUSH1 0x60 DUP4 ADD MLOAD PUSH2 0x110D PUSH1 0x60 DUP7 ADD DUP3 PUSH2 0x112B JUMP JUMPDEST POP PUSH1 0x80 DUP4 ADD MLOAD PUSH2 0x1120 PUSH1 0x80 DUP7 ADD DUP3 PUSH2 0x112B JUMP JUMPDEST POP DUP1 SWAP2 POP POP SWAP3 SWAP2 POP POP JUMP JUMPDEST PUSH2 0x1134 DUP2 PUSH2 0x1396 JUMP JUMPDEST DUP3 MSTORE POP POP JUMP JUMPDEST PUSH2 0x1143 DUP2 PUSH2 0x1396 JUMP JUMPDEST DUP3 MSTORE POP POP JUMP JUMPDEST PUSH1 0x0 PUSH1 0x20 DUP3 ADD SWAP1 POP PUSH2 0x115E PUSH1 0x0 DUP4 ADD DUP5 PUSH2 0xE23 JUMP JUMPDEST SWAP3 SWAP2 POP POP JUMP JUMPDEST PUSH1 0x0 PUSH1 0x20 DUP3 ADD SWAP1 POP DUP2 DUP2 SUB PUSH1 0x0 DUP4 ADD MSTORE PUSH2 0x117E DUP2 DUP5 PUSH2 0xE32 JUMP JUMPDEST SWAP1 POP SWAP3 SWAP2 POP POP JUMP JUMPDEST PUSH1 0x0 PUSH1 0x20 DUP3 ADD SWAP1 POP DUP2 DUP2 SUB PUSH1 0x0 DUP4 ADD MSTORE PUSH2 0x119F DUP2 PUSH2 0xF19 JUMP JUMPDEST SWAP1 POP SWAP2 SWAP1 POP JUMP JUMPDEST PUSH1 0x0 PUSH1 0x20 DUP3 ADD SWAP1 POP DUP2 DUP2 SUB PUSH1 0x0 DUP4 ADD MSTORE PUSH2 0x11BF DUP2 PUSH2 0xF59 JUMP JUMPDEST SWAP1 POP SWAP2 SWAP1 POP JUMP JUMPDEST PUSH1 0x0 PUSH1 0x20 DUP3 ADD SWAP1 POP DUP2 DUP2 SUB PUSH1 0x0 DUP4 ADD MSTORE PUSH2 0x11DF DUP2 PUSH2 0xF99 JUMP JUMPDEST SWAP1 POP SWAP2 SWAP1 POP JUMP JUMPDEST PUSH1 0x0 PUSH1 0x20 DUP3 ADD SWAP1 POP DUP2 DUP2 SUB PUSH1 0x0 DUP4 ADD MSTORE PUSH2 0x11FF DUP2 PUSH2 0xFFF JUMP JUMPDEST SWAP1 POP SWAP2 SWAP1 POP JUMP JUMPDEST PUSH1 0x0 PUSH1 0x20 DUP3 ADD SWAP1 POP DUP2 DUP2 SUB PUSH1 0x0 DUP4 ADD MSTORE PUSH2 0x1220 DUP2 DUP5 PUSH2 0x10B5 JUMP JUMPDEST SWAP1 POP SWAP3 SWAP2 POP POP JUMP JUMPDEST PUSH1 0x0 PUSH1 0x20 DUP3 ADD SWAP1 POP PUSH2 0x123D PUSH1 0x0 DUP4 ADD DUP5 PUSH2 0x113A JUMP JUMPDEST SWAP3 SWAP2 POP POP JUMP JUMPDEST PUSH1 0x0 PUSH1 0xA0 DUP3 ADD SWAP1 POP PUSH2 0x1258 PUSH1 0x0 DUP4 ADD DUP9 PUSH2 0x113A JUMP JUMPDEST PUSH2 0x1265 PUSH1 0x20 DUP4 ADD DUP8 PUSH2 0xE23 JUMP JUMPDEST DUP2 DUP2 SUB PUSH1 0x40 DUP4 ADD MSTORE PUSH2 0x1277 DUP2 DUP7 PUSH2 0xEE0 JUMP JUMPDEST SWAP1 POP PUSH2 0x1286 PUSH1 0x60 DUP4 ADD DUP6 PUSH2 0x113A JUMP JUMPDEST PUSH2 0x1293 PUSH1 0x80 DUP4 ADD DUP5 PUSH2 0x113A JUMP JUMPDEST SWAP7 SWAP6 POP POP POP POP POP POP JUMP JUMPDEST PUSH1 0x0 PUSH1 0x40 MLOAD SWAP1 POP DUP2 DUP2 ADD DUP2 DUP2 LT PUSH8 0xFFFFFFFFFFFFFFFF DUP3 GT OR ISZERO PUSH2 0x12C4 JUMPI PUSH2 0x12C3 PUSH2 0x14E5 JUMP JUMPDEST JUMPDEST DUP1 PUSH1 0x40 MSTORE POP SWAP2 SWAP1 POP JUMP JUMPDEST PUSH1 0x0 PUSH8 0xFFFFFFFFFFFFFFFF DUP3 GT ISZERO PUSH2 0x12E9 JUMPI PUSH2 0x12E8 PUSH2 0x14E5 JUMP JUMPDEST JUMPDEST PUSH1 0x1F NOT PUSH1 0x1F DUP4 ADD AND SWAP1 POP PUSH1 0x20 DUP2 ADD SWAP1 POP SWAP2 SWAP1 POP JUMP JUMPDEST PUSH1 0x0 DUP2 SWAP1 POP PUSH1 0x20 DUP3 ADD SWAP1 POP SWAP2 SWAP1 POP JUMP JUMPDEST PUSH1 0x0 DUP2 MLOAD SWAP1 POP SWAP2 SWAP1 POP JUMP JUMPDEST PUSH1 0x0 DUP2 MLOAD SWAP1 POP SWAP2 SWAP1 POP JUMP JUMPDEST PUSH1 0x0 PUSH1 0x20 DUP3 ADD SWAP1 POP SWAP2 SWAP1 POP JUMP JUMPDEST PUSH1 0x0 DUP3 DUP3 MSTORE PUSH1 0x20 DUP3 ADD SWAP1 POP SWAP3 SWAP2 POP POP JUMP JUMPDEST PUSH1 0x0 DUP3 DUP3 MSTORE PUSH1 0x20 DUP3 ADD SWAP1 POP SWAP3 SWAP2 POP POP JUMP JUMPDEST PUSH1 0x0 DUP3 DUP3 MSTORE PUSH1 0x20 DUP3 ADD SWAP1 POP SWAP3 SWAP2 POP POP JUMP JUMPDEST PUSH1 0x0 PUSH2 0x136F DUP3 PUSH2 0x1376 JUMP JUMPDEST SWAP1 POP SWAP2 SWAP1 POP JUMP JUMPDEST PUSH1 0x0 PUSH20 0xFFFFFFFFFFFFFFFFFFFFFFFFFFFFFFFFFFFFFFFF DUP3 AND SWAP1 POP SWAP2 SWAP1 POP JUMP JUMPDEST PUSH1 0x0 DUP2 SWAP1 POP SWAP2 SWAP1 POP JUMP JUMPDEST DUP3 DUP2 DUP4 CALLDATACOPY PUSH1 0x0 DUP4 DUP4 ADD MSTORE POP POP POP JUMP JUMPDEST PUSH1 0x0 JUMPDEST DUP4 DUP2 LT ISZERO PUSH2 0x13CD JUMPI DUP1 DUP3 ADD MLOAD DUP2 DUP5 ADD MSTORE PUSH1 0x20 DUP2 ADD SWAP1 POP PUSH2 0x13B2 JUMP JUMPDEST DUP4 DUP2 GT ISZERO PUSH2 0x13DC JUMPI PUSH1 0x0 DUP5 DUP5 ADD MSTORE JUMPDEST POP POP POP POP JUMP JUMPDEST PUSH1 0x0 PUSH2 0x13ED DUP3 PUSH2 0x1396 JUMP JUMPDEST SWAP2 POP PUSH1 0x0 DUP3 EQ ISZERO PUSH2 0x1401 JUMPI PUSH2 0x1400 PUSH2 0x1487 JUMP JUMPDEST JUMPDEST PUSH1 0x1 DUP3 SUB SWAP1 POP SWAP2 SWAP1 POP JUMP JUMPDEST PUSH1 0x0 PUSH1 0x2 DUP3 DIV SWAP1 POP PUSH1 0x1 DUP3 AND DUP1 PUSH2 0x1424 JUMPI PUSH1 0x7F DUP3 AND SWAP2 POP JUMPDEST PUSH1 0x20 DUP3 LT DUP2 EQ ISZERO PUSH2 0x1438 JUMPI PUSH2 0x1437 PUSH2 0x14B6 JUMP JUMPDEST JUMPDEST POP SWAP2 SWAP1 POP JUMP JUMPDEST PUSH1 0x0 PUSH2 0x1449 DUP3 PUSH2 0x1396 JUMP JUMPDEST SWAP2 POP PUSH32 0xFFFFFFFFFFFFFFFFFFFFFFFFFFFFFFFFFFFFFFFFFFFFFFFFFFFFFFFFFFFFFFFF DUP3 EQ ISZERO PUSH2 0x147C JUMPI PUSH2 0x147B PUSH2 0x1487 JUMP JUMPDEST JUMPDEST PUSH1 0x1 DUP3 ADD SWAP1 POP SWAP2 SWAP1 POP JUMP JUMPDEST PUSH32 0x4E487B7100000000000000000000000000000000000000000000000000000000 PUSH1 0x0 MSTORE PUSH1 0x11 PUSH1 0x4 MSTORE PUSH1 0x24 PUSH1 0x0 REVERT JUMPDEST PUSH32 0x4E487B7100000000000000000000000000000000000000000000000000000000 PUSH1 0x0 MSTORE PUSH1 0x22 PUSH1 0x4 MSTORE PUSH1 0x24 PUSH1 0x0 REVERT JUMPDEST PUSH32 0x4E487B7100000000000000000000000000000000000000000000000000000000 PUSH1 0x0 MSTORE PUSH1 0x41 PUSH1 0x4 MSTORE PUSH1 0x24 PUSH1 0x0 REVERT JUMPDEST PUSH1 0x0 PUSH1 0x1F NOT PUSH1 0x1F DUP4 ADD AND SWAP1 POP SWAP2 SWAP1 POP JUMP JUMPDEST PUSH2 0x152E DUP2 PUSH2 0x1364 JUMP JUMPDEST DUP2 EQ PUSH2 0x1539 JUMPI PUSH1 0x0 DUP1 REVERT JUMPDEST POP JUMP JUMPDEST PUSH2 0x1545 DUP2 PUSH2 0x1396 JUMP JUMPDEST DUP2 EQ PUSH2 0x1550 JUMPI PUSH1 0x0 DUP1 REVERT JUMPDEST POP JUMP INVALID LOG2 PUSH5 0x6970667358 0x22 SLT KECCAK256 0x5E 0xD4 0x4B 0xE7 0xC2 GASLIMIT PUSH2 0xF4B7 0xD6 0xE3 SGT 0x27 0xAA JUMPDEST AND SELFDESTRUCT PUSH21 0x6D7316E30D4D73EFF06E9FED235464736F6C634300 ADDMOD STOP STOP CALLER "
				},
				"gasEstimates": {
					"creation": {
						"codeDepositCost": "1102600",
						"executionCost": "42019",
						"totalCost": "1144619"
					},
					"external": {
						"MAX_TWEET_LENGTH()": "1196",
						"changeTweetLength(uint256)": "21309",
						"createTweet(string)": "infinite",
						"getAllTweets()": "infinite",
						"getTweet(uint256)": "infinite",
						"likeTweet(uint256,address)": "infinite",
						"owner()": "1255",
						"tweets(address,uint256)": "infinite",
						"unLikeTweet(uint256,address)": "infinite"
					}
				},
				"methodIdentifiers": {
					"MAX_TWEET_LENGTH()": "6eb10797",
					"changeTweetLength(uint256)": "888a7880",
					"createTweet(string)": "7c9cd2bc",
					"getAllTweets()": "53256135",
					"getTweet(uint256)": "c3ad5ecb",
					"likeTweet(uint256,address)": "d04ddaa0",
					"owner()": "8da5cb5b",
					"tweets(address,uint256)": "05a1b4a9",
					"unLikeTweet(uint256,address)": "3fcd2d06"
				}
			},
			"storageLayout": {
				"storage": [
					{
						"astId": 3,
						"contract": "exercises/twitter.sol:Twitter",
						"label": "owner",
						"offset": 0,
						"slot": "0",
						"type": "t_address"
					},
					{
						"astId": 17,
						"contract": "exercises/twitter.sol:Twitter",
						"label": "MAX_TWEET_LENGTH",
						"offset": 0,
						"slot": "1",
						"type": "t_uint256"
					},
					{
						"astId": 23,
						"contract": "exercises/twitter.sol:Twitter",
						"label": "tweets",
						"offset": 0,
						"slot": "2",
						"type": "t_mapping(t_address,t_array(t_struct(Tweet)14_storage)dyn_storage)"
					}
				],
				"types": {
					"t_address": {
						"encoding": "inplace",
						"label": "address",
						"numberOfBytes": "20"
					},
					"t_array(t_struct(Tweet)14_storage)dyn_storage": {
						"base": "t_struct(Tweet)14_storage",
						"encoding": "dynamic_array",
						"label": "struct Twitter.Tweet[]",
						"numberOfBytes": "32"
					},
					"t_mapping(t_address,t_array(t_struct(Tweet)14_storage)dyn_storage)": {
						"encoding": "mapping",
						"key": "t_address",
						"label": "mapping(address => struct Twitter.Tweet[])",
						"numberOfBytes": "32",
						"value": "t_array(t_struct(Tweet)14_storage)dyn_storage"
					},
					"t_string_storage": {
						"encoding": "bytes",
						"label": "string",
						"numberOfBytes": "32"
					},
					"t_struct(Tweet)14_storage": {
						"encoding": "inplace",
						"label": "struct Twitter.Tweet",
						"members": [
							{
								"astId": 5,
								"contract": "exercises/twitter.sol:Twitter",
								"label": "id",
								"offset": 0,
								"slot": "0",
								"type": "t_uint256"
							},
							{
								"astId": 7,
								"contract": "exercises/twitter.sol:Twitter",
								"label": "author",
								"offset": 0,
								"slot": "1",
								"type": "t_address"
							},
							{
								"astId": 9,
								"contract": "exercises/twitter.sol:Twitter",
								"label": "content",
								"offset": 0,
								"slot": "2",
								"type": "t_string_storage"
							},
							{
								"astId": 11,
								"contract": "exercises/twitter.sol:Twitter",
								"label": "timestamp",
								"offset": 0,
								"slot": "3",
								"type": "t_uint256"
							},
							{
								"astId": 13,
								"contract": "exercises/twitter.sol:Twitter",
								"label": "likes",
								"offset": 0,
								"slot": "4",
								"type": "t_uint256"
							}
						],
						"numberOfBytes": "160"
					},
					"t_uint256": {
						"encoding": "inplace",
						"label": "uint256",
						"numberOfBytes": "32"
					}
				}
			},
			"userdoc": {
				"kind": "user",
				"methods": {},
				"version": 1
			}
		}
	}
}