{
	"exercises/bank.sol": {
		"bank": {
			"abi": [
				{
					"inputs": [],
					"stateMutability": "nonpayable",
					"type": "constructor"
				},
				{
					"inputs": [
						{
							"internalType": "address",
							"name": "",
							"type": "address"
						}
					],
					"name": "balances",
					"outputs": [
						{
							"internalType": "uint256",
							"name": "",
							"type": "uint256"
						}
					],
					"stateMutability": "view",
					"type": "function"
				},
				{
					"inputs": [
						{
							"internalType": "address",
							"name": "user",
							"type": "address"
						}
					],
					"name": "getBal",
					"outputs": [
						{
							"internalType": "uint256",
							"name": "",
							"type": "uint256"
						}
					],
					"stateMutability": "view",
					"type": "function"
				},
				{
					"inputs": [],
					"name": "owner",
					"outputs": [
						{
							"internalType": "address",
							"name": "",
							"type": "address"
						}
					],
					"stateMutability": "view",
					"type": "function"
				},
				{
					"inputs": [],
					"name": "pause",
					"outputs": [],
					"stateMutability": "nonpayable",
					"type": "function"
				},
				{
					"inputs": [],
					"name": "paused",
					"outputs": [
						{
							"internalType": "bool",
							"name": "",
							"type": "bool"
						}
					],
					"stateMutability": "view",
					"type": "function"
				},
				{
					"inputs": [
						{
							"internalType": "address",
							"name": "_to",
							"type": "address"
						},
						{
							"internalType": "uint256",
							"name": "amt",
							"type": "uint256"
						}
					],
					"name": "transfer",
					"outputs": [],
					"stateMutability": "nonpayable",
					"type": "function"
				},
				{
					"inputs": [],
					"name": "unpause",
					"outputs": [],
					"stateMutability": "nonpayable",
					"type": "function"
				}
			],
			"devdoc": {
				"kind": "dev",
				"methods": {},
				"version": 1
			},
			"evm": {
				"assembly": "    /* \"exercises/bank.sol\":65:973  contract bank{... */\n  mstore(0x40, 0x80)\n    /* \"exercises/bank.sol\":180:284  constructor(){... */\n  callvalue\n  dup1\n  iszero\n  tag_1\n  jumpi\n  0x00\n  dup1\n  revert\ntag_1:\n  pop\n    /* \"exercises/bank.sol\":211:221  msg.sender */\n  caller\n    /* \"exercises/bank.sol\":203:208  owner */\n  0x00\n  dup1\n    /* \"exercises/bank.sol\":203:221  owner = msg.sender */\n  0x0100\n  exp\n  dup2\n  sload\n  dup2\n  0xffffffffffffffffffffffffffffffffffffffff\n  mul\n  not\n  and\n  swap1\n  dup4\n  0xffffffffffffffffffffffffffffffffffffffff\n  and\n  mul\n  or\n  swap1\n  sstore\n  pop\n    /* \"exercises/bank.sol\":240:245  false */\n  0x00\n    /* \"exercises/bank.sol\":231:237  paused */\n  dup1\n  0x14\n    /* \"exercises/bank.sol\":231:245  paused = false */\n  0x0100\n  exp\n  dup2\n  sload\n  dup2\n  0xff\n  mul\n  not\n  and\n  swap1\n  dup4\n  iszero\n  iszero\n  mul\n  or\n  swap1\n  sstore\n  pop\n    /* \"exercises/bank.sol\":273:277  1000 */\n  0x03e8\n    /* \"exercises/bank.sol\":255:263  balances */\n  0x01\n    /* \"exercises/bank.sol\":255:270  balances[owner] */\n  0x00\n    /* \"exercises/bank.sol\":264:269  owner */\n  dup1\n  0x00\n  swap1\n  sload\n  swap1\n  0x0100\n  exp\n  swap1\n  div\n  0xffffffffffffffffffffffffffffffffffffffff\n  and\n    /* \"exercises/bank.sol\":255:270  balances[owner] */\n  0xffffffffffffffffffffffffffffffffffffffff\n  and\n  0xffffffffffffffffffffffffffffffffffffffff\n  and\n  dup2\n  mstore\n  0x20\n  add\n  swap1\n  dup2\n  mstore\n  0x20\n  add\n  0x00\n  keccak256\n    /* \"exercises/bank.sol\":255:277  balances[owner] = 1000 */\n  dup2\n  swap1\n  sstore\n  pop\n    /* \"exercises/bank.sol\":65:973  contract bank{... */\n  dataSize(sub_0)\n  dup1\n  dataOffset(sub_0)\n  0x00\n  codecopy\n  0x00\n  return\nstop\n\nsub_0: assembly {\n        /* \"exercises/bank.sol\":65:973  contract bank{... */\n      mstore(0x40, 0x80)\n      callvalue\n      dup1\n      iszero\n      tag_1\n      jumpi\n      0x00\n      dup1\n      revert\n    tag_1:\n      pop\n      jumpi(tag_2, lt(calldatasize, 0x04))\n      shr(0xe0, calldataload(0x00))\n      dup1\n      0x5c975abb\n      gt\n      tag_10\n      jumpi\n      dup1\n      0x5c975abb\n      eq\n      tag_6\n      jumpi\n      dup1\n      0x8456cb59\n      eq\n      tag_7\n      jumpi\n      dup1\n      0x8da5cb5b\n      eq\n      tag_8\n      jumpi\n      dup1\n      0xa9059cbb\n      eq\n      tag_9\n      jumpi\n      jump(tag_2)\n    tag_10:\n      dup1\n      0x27e235e3\n      eq\n      tag_3\n      jumpi\n      dup1\n      0x2fa78085\n      eq\n      tag_4\n      jumpi\n      dup1\n      0x3f4ba83a\n      eq\n      tag_5\n      jumpi\n    tag_2:\n      0x00\n      dup1\n      revert\n        /* \"exercises/bank.sol\":134:174  mapping(address => uint) public balances */\n    tag_3:\n      tag_11\n      0x04\n      dup1\n      calldatasize\n      sub\n      dup2\n      add\n      swap1\n      tag_12\n      swap2\n      swap1\n      tag_13\n      jump\t// in\n    tag_12:\n      tag_14\n      jump\t// in\n    tag_11:\n      mload(0x40)\n      tag_15\n      swap2\n      swap1\n      tag_16\n      jump\t// in\n    tag_15:\n      mload(0x40)\n      dup1\n      swap2\n      sub\n      swap1\n      return\n        /* \"exercises/bank.sol\":634:728  function getBal(address user) view public returns (uint){... */\n    tag_4:\n      tag_17\n      0x04\n      dup1\n      calldatasize\n      sub\n      dup2\n      add\n      swap1\n      tag_18\n      swap2\n      swap1\n      tag_13\n      jump\t// in\n    tag_18:\n      tag_19\n      jump\t// in\n    tag_17:\n      mload(0x40)\n      tag_20\n      swap2\n      swap1\n      tag_16\n      jump\t// in\n    tag_20:\n      mload(0x40)\n      dup1\n      swap2\n      sub\n      swap1\n      return\n        /* \"exercises/bank.sol\":560:627  function unpause() public onlyOwner {... */\n    tag_5:\n      tag_21\n      tag_22\n      jump\t// in\n    tag_21:\n      stop\n        /* \"exercises/bank.sol\":110:128  bool public paused */\n    tag_6:\n      tag_23\n      tag_24\n      jump\t// in\n    tag_23:\n      mload(0x40)\n      tag_25\n      swap2\n      swap1\n      tag_26\n      jump\t// in\n    tag_25:\n      mload(0x40)\n      dup1\n      swap2\n      sub\n      swap1\n      return\n        /* \"exercises/bank.sol\":490:554  function pause() public onlyOwner {... */\n    tag_7:\n      tag_27\n      tag_28\n      jump\t// in\n    tag_27:\n      stop\n        /* \"exercises/bank.sol\":84:104  address public owner */\n    tag_8:\n      tag_29\n      tag_30\n      jump\t// in\n    tag_29:\n      mload(0x40)\n      tag_31\n      swap2\n      swap1\n      tag_32\n      jump\t// in\n    tag_31:\n      mload(0x40)\n      dup1\n      swap2\n      sub\n      swap1\n      return\n        /* \"exercises/bank.sol\":734:970  function transfer(address _to, uint amt) public isPaused {... */\n    tag_9:\n      tag_33\n      0x04\n      dup1\n      calldatasize\n      sub\n      dup2\n      add\n      swap1\n      tag_34\n      swap2\n      swap1\n      tag_35\n      jump\t// in\n    tag_34:\n      tag_36\n      jump\t// in\n    tag_33:\n      stop\n        /* \"exercises/bank.sol\":134:174  mapping(address => uint) public balances */\n    tag_14:\n      mstore(0x20, 0x01)\n      dup1\n      0x00\n      mstore\n      keccak256(0x00, 0x40)\n      0x00\n      swap2\n      pop\n      swap1\n      pop\n      sload\n      dup2\n      jump\t// out\n        /* \"exercises/bank.sol\":634:728  function getBal(address user) view public returns (uint){... */\n    tag_19:\n        /* \"exercises/bank.sol\":685:689  uint */\n      0x00\n        /* \"exercises/bank.sol\":707:715  balances */\n      0x01\n        /* \"exercises/bank.sol\":707:721  balances[user] */\n      0x00\n        /* \"exercises/bank.sol\":716:720  user */\n      dup4\n        /* \"exercises/bank.sol\":707:721  balances[user] */\n      0xffffffffffffffffffffffffffffffffffffffff\n      and\n      0xffffffffffffffffffffffffffffffffffffffff\n      and\n      dup2\n      mstore\n      0x20\n      add\n      swap1\n      dup2\n      mstore\n      0x20\n      add\n      0x00\n      keccak256\n      sload\n        /* \"exercises/bank.sol\":700:721  return balances[user] */\n      swap1\n      pop\n        /* \"exercises/bank.sol\":634:728  function getBal(address user) view public returns (uint){... */\n      swap2\n      swap1\n      pop\n      jump\t// out\n        /* \"exercises/bank.sol\":560:627  function unpause() public onlyOwner {... */\n    tag_22:\n        /* \"exercises/bank.sol\":440:445  owner */\n      0x00\n      dup1\n      sload\n      swap1\n      0x0100\n      exp\n      swap1\n      div\n      0xffffffffffffffffffffffffffffffffffffffff\n      and\n        /* \"exercises/bank.sol\":428:445  msg.sender==owner */\n      0xffffffffffffffffffffffffffffffffffffffff\n      and\n        /* \"exercises/bank.sol\":428:438  msg.sender */\n      caller\n        /* \"exercises/bank.sol\":428:445  msg.sender==owner */\n      0xffffffffffffffffffffffffffffffffffffffff\n      and\n      eq\n        /* \"exercises/bank.sol\":420:466  require(msg.sender==owner,\"You are not owner\") */\n      tag_39\n      jumpi\n      mload(0x40)\n      0x08c379a000000000000000000000000000000000000000000000000000000000\n      dup2\n      mstore\n      0x04\n      add\n      tag_40\n      swap1\n      tag_41\n      jump\t// in\n    tag_40:\n      mload(0x40)\n      dup1\n      swap2\n      sub\n      swap1\n      revert\n    tag_39:\n        /* \"exercises/bank.sol\":615:620  false */\n      0x00\n        /* \"exercises/bank.sol\":606:612  paused */\n      dup1\n      0x14\n        /* \"exercises/bank.sol\":606:620  paused = false */\n      0x0100\n      exp\n      dup2\n      sload\n      dup2\n      0xff\n      mul\n      not\n      and\n      swap1\n      dup4\n      iszero\n      iszero\n      mul\n      or\n      swap1\n      sstore\n      pop\n        /* \"exercises/bank.sol\":560:627  function unpause() public onlyOwner {... */\n      jump\t// out\n        /* \"exercises/bank.sol\":110:128  bool public paused */\n    tag_24:\n      0x00\n      0x14\n      swap1\n      sload\n      swap1\n      0x0100\n      exp\n      swap1\n      div\n      0xff\n      and\n      dup2\n      jump\t// out\n        /* \"exercises/bank.sol\":490:554  function pause() public onlyOwner {... */\n    tag_28:\n        /* \"exercises/bank.sol\":440:445  owner */\n      0x00\n      dup1\n      sload\n      swap1\n      0x0100\n      exp\n      swap1\n      div\n      0xffffffffffffffffffffffffffffffffffffffff\n      and\n        /* \"exercises/bank.sol\":428:445  msg.sender==owner */\n      0xffffffffffffffffffffffffffffffffffffffff\n      and\n        /* \"exercises/bank.sol\":428:438  msg.sender */\n      caller\n        /* \"exercises/bank.sol\":428:445  msg.sender==owner */\n      0xffffffffffffffffffffffffffffffffffffffff\n      and\n      eq\n        /* \"exercises/bank.sol\":420:466  require(msg.sender==owner,\"You are not owner\") */\n      tag_44\n      jumpi\n      mload(0x40)\n      0x08c379a000000000000000000000000000000000000000000000000000000000\n      dup2\n      mstore\n      0x04\n      add\n      tag_45\n      swap1\n      tag_41\n      jump\t// in\n    tag_45:\n      mload(0x40)\n      dup1\n      swap2\n      sub\n      swap1\n      revert\n    tag_44:\n        /* \"exercises/bank.sol\":543:547  true */\n      0x01\n        /* \"exercises/bank.sol\":534:540  paused */\n      0x00\n      0x14\n        /* \"exercises/bank.sol\":534:547  paused = true */\n      0x0100\n      exp\n      dup2\n      sload\n      dup2\n      0xff\n      mul\n      not\n      and\n      swap1\n      dup4\n      iszero\n      iszero\n      mul\n      or\n      swap1\n      sstore\n      pop\n        /* \"exercises/bank.sol\":490:554  function pause() public onlyOwner {... */\n      jump\t// out\n        /* \"exercises/bank.sol\":84:104  address public owner */\n    tag_30:\n      0x00\n      dup1\n      sload\n      swap1\n      0x0100\n      exp\n      swap1\n      div\n      0xffffffffffffffffffffffffffffffffffffffff\n      and\n      dup2\n      jump\t// out\n        /* \"exercises/bank.sol\":734:970  function transfer(address _to, uint amt) public isPaused {... */\n    tag_36:\n        /* \"exercises/bank.sol\":335:340  false */\n      0x00\n        /* \"exercises/bank.sol\":327:340  paused==false */\n      iszero\n      iszero\n        /* \"exercises/bank.sol\":327:333  paused */\n      0x00\n      0x14\n      swap1\n      sload\n      swap1\n      0x0100\n      exp\n      swap1\n      div\n      0xff\n      and\n        /* \"exercises/bank.sol\":327:340  paused==false */\n      iszero\n      iszero\n      eq\n        /* \"exercises/bank.sol\":319:366  require(paused==false,\"Your account is paused\") */\n      tag_48\n      jumpi\n      mload(0x40)\n      0x08c379a000000000000000000000000000000000000000000000000000000000\n      dup2\n      mstore\n      0x04\n      add\n      tag_49\n      swap1\n      tag_50\n      jump\t// in\n    tag_49:\n      mload(0x40)\n      dup1\n      swap2\n      sub\n      swap1\n      revert\n    tag_48:\n        /* \"exercises/bank.sol\":801:818  address currOwner */\n      0x00\n        /* \"exercises/bank.sol\":821:831  msg.sender */\n      caller\n        /* \"exercises/bank.sol\":801:831  address currOwner = msg.sender */\n      swap1\n      pop\n        /* \"exercises/bank.sol\":870:873  amt */\n      dup2\n        /* \"exercises/bank.sol\":849:857  balances */\n      0x01\n        /* \"exercises/bank.sol\":849:868  balances[currOwner] */\n      0x00\n        /* \"exercises/bank.sol\":858:867  currOwner */\n      dup4\n        /* \"exercises/bank.sol\":849:868  balances[currOwner] */\n      0xffffffffffffffffffffffffffffffffffffffff\n      and\n      0xffffffffffffffffffffffffffffffffffffffff\n      and\n      dup2\n      mstore\n      0x20\n      add\n      swap1\n      dup2\n      mstore\n      0x20\n      add\n      0x00\n      keccak256\n      sload\n        /* \"exercises/bank.sol\":849:873  balances[currOwner]>=amt */\n      lt\n      iszero\n        /* \"exercises/bank.sol\":841:897  require(balances[currOwner]>=amt,\"Insufficient balance\") */\n      tag_52\n      jumpi\n      mload(0x40)\n      0x08c379a000000000000000000000000000000000000000000000000000000000\n      dup2\n      mstore\n      0x04\n      add\n      tag_53\n      swap1\n      tag_54\n      jump\t// in\n    tag_53:\n      mload(0x40)\n      dup1\n      swap2\n      sub\n      swap1\n      revert\n    tag_52:\n        /* \"exercises/bank.sol\":930:933  amt */\n      dup2\n        /* \"exercises/bank.sol\":907:915  balances */\n      0x01\n        /* \"exercises/bank.sol\":907:926  balances[currOwner] */\n      0x00\n        /* \"exercises/bank.sol\":916:925  currOwner */\n      dup4\n        /* \"exercises/bank.sol\":907:926  balances[currOwner] */\n      0xffffffffffffffffffffffffffffffffffffffff\n      and\n      0xffffffffffffffffffffffffffffffffffffffff\n      and\n      dup2\n      mstore\n      0x20\n      add\n      swap1\n      dup2\n      mstore\n      0x20\n      add\n      0x00\n      keccak256\n      0x00\n        /* \"exercises/bank.sol\":907:933  balances[currOwner] -= amt */\n      dup3\n      dup3\n      sload\n      tag_55\n      swap2\n      swap1\n      tag_56\n      jump\t// in\n    tag_55:\n      swap3\n      pop\n      pop\n      dup2\n      swap1\n      sstore\n      pop\n        /* \"exercises/bank.sol\":960:963  amt */\n      dup2\n        /* \"exercises/bank.sol\":943:951  balances */\n      0x01\n        /* \"exercises/bank.sol\":943:956  balances[_to] */\n      0x00\n        /* \"exercises/bank.sol\":952:955  _to */\n      dup6\n        /* \"exercises/bank.sol\":943:956  balances[_to] */\n      0xffffffffffffffffffffffffffffffffffffffff\n      and\n      0xffffffffffffffffffffffffffffffffffffffff\n      and\n      dup2\n      mstore\n      0x20\n      add\n      swap1\n      dup2\n      mstore\n      0x20\n      add\n      0x00\n      keccak256\n      0x00\n        /* \"exercises/bank.sol\":943:963  balances[_to] += amt */\n      dup3\n      dup3\n      sload\n      tag_57\n      swap2\n      swap1\n      tag_58\n      jump\t// in\n    tag_57:\n      swap3\n      pop\n      pop\n      dup2\n      swap1\n      sstore\n      pop\n        /* \"exercises/bank.sol\":376:377  _ */\n      pop\n        /* \"exercises/bank.sol\":734:970  function transfer(address _to, uint amt) public isPaused {... */\n      pop\n      pop\n      jump\t// out\n        /* \"#utility.yul\":7:146   */\n    tag_60:\n      0x00\n        /* \"#utility.yul\":91:97   */\n      dup2\n        /* \"#utility.yul\":78:98   */\n      calldataload\n        /* \"#utility.yul\":69:98   */\n      swap1\n      pop\n        /* \"#utility.yul\":107:140   */\n      tag_62\n        /* \"#utility.yul\":134:139   */\n      dup2\n        /* \"#utility.yul\":107:140   */\n      tag_63\n      jump\t// in\n    tag_62:\n        /* \"#utility.yul\":59:146   */\n      swap3\n      swap2\n      pop\n      pop\n      jump\t// out\n        /* \"#utility.yul\":152:291   */\n    tag_64:\n      0x00\n        /* \"#utility.yul\":236:242   */\n      dup2\n        /* \"#utility.yul\":223:243   */\n      calldataload\n        /* \"#utility.yul\":214:243   */\n      swap1\n      pop\n        /* \"#utility.yul\":252:285   */\n      tag_66\n        /* \"#utility.yul\":279:284   */\n      dup2\n        /* \"#utility.yul\":252:285   */\n      tag_67\n      jump\t// in\n    tag_66:\n        /* \"#utility.yul\":204:291   */\n      swap3\n      swap2\n      pop\n      pop\n      jump\t// out\n        /* \"#utility.yul\":297:559   */\n    tag_13:\n      0x00\n        /* \"#utility.yul\":405:407   */\n      0x20\n        /* \"#utility.yul\":393:402   */\n      dup3\n        /* \"#utility.yul\":384:391   */\n      dup5\n        /* \"#utility.yul\":380:403   */\n      sub\n        /* \"#utility.yul\":376:408   */\n      slt\n        /* \"#utility.yul\":373:375   */\n      iszero\n      tag_69\n      jumpi\n        /* \"#utility.yul\":421:422   */\n      0x00\n        /* \"#utility.yul\":418:419   */\n      dup1\n        /* \"#utility.yul\":411:423   */\n      revert\n        /* \"#utility.yul\":373:375   */\n    tag_69:\n        /* \"#utility.yul\":464:465   */\n      0x00\n        /* \"#utility.yul\":489:542   */\n      tag_70\n        /* \"#utility.yul\":534:541   */\n      dup5\n        /* \"#utility.yul\":525:531   */\n      dup3\n        /* \"#utility.yul\":514:523   */\n      dup6\n        /* \"#utility.yul\":510:532   */\n      add\n        /* \"#utility.yul\":489:542   */\n      tag_60\n      jump\t// in\n    tag_70:\n        /* \"#utility.yul\":479:542   */\n      swap2\n      pop\n        /* \"#utility.yul\":435:552   */\n      pop\n        /* \"#utility.yul\":363:559   */\n      swap3\n      swap2\n      pop\n      pop\n      jump\t// out\n        /* \"#utility.yul\":565:972   */\n    tag_35:\n      0x00\n      dup1\n        /* \"#utility.yul\":690:692   */\n      0x40\n        /* \"#utility.yul\":678:687   */\n      dup4\n        /* \"#utility.yul\":669:676   */\n      dup6\n        /* \"#utility.yul\":665:688   */\n      sub\n        /* \"#utility.yul\":661:693   */\n      slt\n        /* \"#utility.yul\":658:660   */\n      iszero\n      tag_72\n      jumpi\n        /* \"#utility.yul\":706:707   */\n      0x00\n        /* \"#utility.yul\":703:704   */\n      dup1\n        /* \"#utility.yul\":696:708   */\n      revert\n        /* \"#utility.yul\":658:660   */\n    tag_72:\n        /* \"#utility.yul\":749:750   */\n      0x00\n        /* \"#utility.yul\":774:827   */\n      tag_73\n        /* \"#utility.yul\":819:826   */\n      dup6\n        /* \"#utility.yul\":810:816   */\n      dup3\n        /* \"#utility.yul\":799:808   */\n      dup7\n        /* \"#utility.yul\":795:817   */\n      add\n        /* \"#utility.yul\":774:827   */\n      tag_60\n      jump\t// in\n    tag_73:\n        /* \"#utility.yul\":764:827   */\n      swap3\n      pop\n        /* \"#utility.yul\":720:837   */\n      pop\n        /* \"#utility.yul\":876:878   */\n      0x20\n        /* \"#utility.yul\":902:955   */\n      tag_74\n        /* \"#utility.yul\":947:954   */\n      dup6\n        /* \"#utility.yul\":938:944   */\n      dup3\n        /* \"#utility.yul\":927:936   */\n      dup7\n        /* \"#utility.yul\":923:945   */\n      add\n        /* \"#utility.yul\":902:955   */\n      tag_64\n      jump\t// in\n    tag_74:\n        /* \"#utility.yul\":892:955   */\n      swap2\n      pop\n        /* \"#utility.yul\":847:965   */\n      pop\n        /* \"#utility.yul\":648:972   */\n      swap3\n      pop\n      swap3\n      swap1\n      pop\n      jump\t// out\n        /* \"#utility.yul\":978:1096   */\n    tag_75:\n        /* \"#utility.yul\":1065:1089   */\n      tag_77\n        /* \"#utility.yul\":1083:1088   */\n      dup2\n        /* \"#utility.yul\":1065:1089   */\n      tag_78\n      jump\t// in\n    tag_77:\n        /* \"#utility.yul\":1060:1063   */\n      dup3\n        /* \"#utility.yul\":1053:1090   */\n      mstore\n        /* \"#utility.yul\":1043:1096   */\n      pop\n      pop\n      jump\t// out\n        /* \"#utility.yul\":1102:1211   */\n    tag_79:\n        /* \"#utility.yul\":1183:1204   */\n      tag_81\n        /* \"#utility.yul\":1198:1203   */\n      dup2\n        /* \"#utility.yul\":1183:1204   */\n      tag_82\n      jump\t// in\n    tag_81:\n        /* \"#utility.yul\":1178:1181   */\n      dup3\n        /* \"#utility.yul\":1171:1205   */\n      mstore\n        /* \"#utility.yul\":1161:1211   */\n      pop\n      pop\n      jump\t// out\n        /* \"#utility.yul\":1217:1535   */\n    tag_83:\n      0x00\n        /* \"#utility.yul\":1380:1447   */\n      tag_85\n        /* \"#utility.yul\":1444:1446   */\n      0x14\n        /* \"#utility.yul\":1439:1442   */\n      dup4\n        /* \"#utility.yul\":1380:1447   */\n      tag_86\n      jump\t// in\n    tag_85:\n        /* \"#utility.yul\":1373:1447   */\n      swap2\n      pop\n        /* \"#utility.yul\":1477:1499   */\n      0x496e73756666696369656e742062616c616e6365000000000000000000000000\n        /* \"#utility.yul\":1473:1474   */\n      0x00\n        /* \"#utility.yul\":1468:1471   */\n      dup4\n        /* \"#utility.yul\":1464:1475   */\n      add\n        /* \"#utility.yul\":1457:1500   */\n      mstore\n        /* \"#utility.yul\":1526:1528   */\n      0x20\n        /* \"#utility.yul\":1521:1524   */\n      dup3\n        /* \"#utility.yul\":1517:1529   */\n      add\n        /* \"#utility.yul\":1510:1529   */\n      swap1\n      pop\n        /* \"#utility.yul\":1363:1535   */\n      swap2\n      swap1\n      pop\n      jump\t// out\n        /* \"#utility.yul\":1541:1861   */\n    tag_87:\n      0x00\n        /* \"#utility.yul\":1704:1771   */\n      tag_89\n        /* \"#utility.yul\":1768:1770   */\n      0x16\n        /* \"#utility.yul\":1763:1766   */\n      dup4\n        /* \"#utility.yul\":1704:1771   */\n      tag_86\n      jump\t// in\n    tag_89:\n        /* \"#utility.yul\":1697:1771   */\n      swap2\n      pop\n        /* \"#utility.yul\":1801:1825   */\n      0x596f7572206163636f756e742069732070617573656400000000000000000000\n        /* \"#utility.yul\":1797:1798   */\n      0x00\n        /* \"#utility.yul\":1792:1795   */\n      dup4\n        /* \"#utility.yul\":1788:1799   */\n      add\n        /* \"#utility.yul\":1781:1826   */\n      mstore\n        /* \"#utility.yul\":1852:1854   */\n      0x20\n        /* \"#utility.yul\":1847:1850   */\n      dup3\n        /* \"#utility.yul\":1843:1855   */\n      add\n        /* \"#utility.yul\":1836:1855   */\n      swap1\n      pop\n        /* \"#utility.yul\":1687:1861   */\n      swap2\n      swap1\n      pop\n      jump\t// out\n        /* \"#utility.yul\":1867:2182   */\n    tag_90:\n      0x00\n        /* \"#utility.yul\":2030:2097   */\n      tag_92\n        /* \"#utility.yul\":2094:2096   */\n      0x11\n        /* \"#utility.yul\":2089:2092   */\n      dup4\n        /* \"#utility.yul\":2030:2097   */\n      tag_86\n      jump\t// in\n    tag_92:\n        /* \"#utility.yul\":2023:2097   */\n      swap2\n      pop\n        /* \"#utility.yul\":2127:2146   */\n      0x596f7520617265206e6f74206f776e6572000000000000000000000000000000\n        /* \"#utility.yul\":2123:2124   */\n      0x00\n        /* \"#utility.yul\":2118:2121   */\n      dup4\n        /* \"#utility.yul\":2114:2125   */\n      add\n        /* \"#utility.yul\":2107:2147   */\n      mstore\n        /* \"#utility.yul\":2173:2175   */\n      0x20\n        /* \"#utility.yul\":2168:2171   */\n      dup3\n        /* \"#utility.yul\":2164:2176   */\n      add\n        /* \"#utility.yul\":2157:2176   */\n      swap1\n      pop\n        /* \"#utility.yul\":2013:2182   */\n      swap2\n      swap1\n      pop\n      jump\t// out\n        /* \"#utility.yul\":2188:2306   */\n    tag_93:\n        /* \"#utility.yul\":2275:2299   */\n      tag_95\n        /* \"#utility.yul\":2293:2298   */\n      dup2\n        /* \"#utility.yul\":2275:2299   */\n      tag_96\n      jump\t// in\n    tag_95:\n        /* \"#utility.yul\":2270:2273   */\n      dup3\n        /* \"#utility.yul\":2263:2300   */\n      mstore\n        /* \"#utility.yul\":2253:2306   */\n      pop\n      pop\n      jump\t// out\n        /* \"#utility.yul\":2312:2534   */\n    tag_32:\n      0x00\n        /* \"#utility.yul\":2443:2445   */\n      0x20\n        /* \"#utility.yul\":2432:2441   */\n      dup3\n        /* \"#utility.yul\":2428:2446   */\n      add\n        /* \"#utility.yul\":2420:2446   */\n      swap1\n      pop\n        /* \"#utility.yul\":2456:2527   */\n      tag_98\n        /* \"#utility.yul\":2524:2525   */\n      0x00\n        /* \"#utility.yul\":2513:2522   */\n      dup4\n        /* \"#utility.yul\":2509:2526   */\n      add\n        /* \"#utility.yul\":2500:2506   */\n      dup5\n        /* \"#utility.yul\":2456:2527   */\n      tag_75\n      jump\t// in\n    tag_98:\n        /* \"#utility.yul\":2410:2534   */\n      swap3\n      swap2\n      pop\n      pop\n      jump\t// out\n        /* \"#utility.yul\":2540:2750   */\n    tag_26:\n      0x00\n        /* \"#utility.yul\":2665:2667   */\n      0x20\n        /* \"#utility.yul\":2654:2663   */\n      dup3\n        /* \"#utility.yul\":2650:2668   */\n      add\n        /* \"#utility.yul\":2642:2668   */\n      swap1\n      pop\n        /* \"#utility.yul\":2678:2743   */\n      tag_100\n        /* \"#utility.yul\":2740:2741   */\n      0x00\n        /* \"#utility.yul\":2729:2738   */\n      dup4\n        /* \"#utility.yul\":2725:2742   */\n      add\n        /* \"#utility.yul\":2716:2722   */\n      dup5\n        /* \"#utility.yul\":2678:2743   */\n      tag_79\n      jump\t// in\n    tag_100:\n        /* \"#utility.yul\":2632:2750   */\n      swap3\n      swap2\n      pop\n      pop\n      jump\t// out\n        /* \"#utility.yul\":2756:3175   */\n    tag_54:\n      0x00\n        /* \"#utility.yul\":2960:2962   */\n      0x20\n        /* \"#utility.yul\":2949:2958   */\n      dup3\n        /* \"#utility.yul\":2945:2963   */\n      add\n        /* \"#utility.yul\":2937:2963   */\n      swap1\n      pop\n        /* \"#utility.yul\":3009:3018   */\n      dup2\n        /* \"#utility.yul\":3003:3007   */\n      dup2\n        /* \"#utility.yul\":2999:3019   */\n      sub\n        /* \"#utility.yul\":2995:2996   */\n      0x00\n        /* \"#utility.yul\":2984:2993   */\n      dup4\n        /* \"#utility.yul\":2980:2997   */\n      add\n        /* \"#utility.yul\":2973:3020   */\n      mstore\n        /* \"#utility.yul\":3037:3168   */\n      tag_102\n        /* \"#utility.yul\":3163:3167   */\n      dup2\n        /* \"#utility.yul\":3037:3168   */\n      tag_83\n      jump\t// in\n    tag_102:\n        /* \"#utility.yul\":3029:3168   */\n      swap1\n      pop\n        /* \"#utility.yul\":2927:3175   */\n      swap2\n      swap1\n      pop\n      jump\t// out\n        /* \"#utility.yul\":3181:3600   */\n    tag_50:\n      0x00\n        /* \"#utility.yul\":3385:3387   */\n      0x20\n        /* \"#utility.yul\":3374:3383   */\n      dup3\n        /* \"#utility.yul\":3370:3388   */\n      add\n        /* \"#utility.yul\":3362:3388   */\n      swap1\n      pop\n        /* \"#utility.yul\":3434:3443   */\n      dup2\n        /* \"#utility.yul\":3428:3432   */\n      dup2\n        /* \"#utility.yul\":3424:3444   */\n      sub\n        /* \"#utility.yul\":3420:3421   */\n      0x00\n        /* \"#utility.yul\":3409:3418   */\n      dup4\n        /* \"#utility.yul\":3405:3422   */\n      add\n        /* \"#utility.yul\":3398:3445   */\n      mstore\n        /* \"#utility.yul\":3462:3593   */\n      tag_104\n        /* \"#utility.yul\":3588:3592   */\n      dup2\n        /* \"#utility.yul\":3462:3593   */\n      tag_87\n      jump\t// in\n    tag_104:\n        /* \"#utility.yul\":3454:3593   */\n      swap1\n      pop\n        /* \"#utility.yul\":3352:3600   */\n      swap2\n      swap1\n      pop\n      jump\t// out\n        /* \"#utility.yul\":3606:4025   */\n    tag_41:\n      0x00\n        /* \"#utility.yul\":3810:3812   */\n      0x20\n        /* \"#utility.yul\":3799:3808   */\n      dup3\n        /* \"#utility.yul\":3795:3813   */\n      add\n        /* \"#utility.yul\":3787:3813   */\n      swap1\n      pop\n        /* \"#utility.yul\":3859:3868   */\n      dup2\n        /* \"#utility.yul\":3853:3857   */\n      dup2\n        /* \"#utility.yul\":3849:3869   */\n      sub\n        /* \"#utility.yul\":3845:3846   */\n      0x00\n        /* \"#utility.yul\":3834:3843   */\n      dup4\n        /* \"#utility.yul\":3830:3847   */\n      add\n        /* \"#utility.yul\":3823:3870   */\n      mstore\n        /* \"#utility.yul\":3887:4018   */\n      tag_106\n        /* \"#utility.yul\":4013:4017   */\n      dup2\n        /* \"#utility.yul\":3887:4018   */\n      tag_90\n      jump\t// in\n    tag_106:\n        /* \"#utility.yul\":3879:4018   */\n      swap1\n      pop\n        /* \"#utility.yul\":3777:4025   */\n      swap2\n      swap1\n      pop\n      jump\t// out\n        /* \"#utility.yul\":4031:4253   */\n    tag_16:\n      0x00\n        /* \"#utility.yul\":4162:4164   */\n      0x20\n        /* \"#utility.yul\":4151:4160   */\n      dup3\n        /* \"#utility.yul\":4147:4165   */\n      add\n        /* \"#utility.yul\":4139:4165   */\n      swap1\n      pop\n        /* \"#utility.yul\":4175:4246   */\n      tag_108\n        /* \"#utility.yul\":4243:4244   */\n      0x00\n        /* \"#utility.yul\":4232:4241   */\n      dup4\n        /* \"#utility.yul\":4228:4245   */\n      add\n        /* \"#utility.yul\":4219:4225   */\n      dup5\n        /* \"#utility.yul\":4175:4246   */\n      tag_93\n      jump\t// in\n    tag_108:\n        /* \"#utility.yul\":4129:4253   */\n      swap3\n      swap2\n      pop\n      pop\n      jump\t// out\n        /* \"#utility.yul\":4259:4428   */\n    tag_86:\n      0x00\n        /* \"#utility.yul\":4377:4383   */\n      dup3\n        /* \"#utility.yul\":4372:4375   */\n      dup3\n        /* \"#utility.yul\":4365:4384   */\n      mstore\n        /* \"#utility.yul\":4417:4421   */\n      0x20\n        /* \"#utility.yul\":4412:4415   */\n      dup3\n        /* \"#utility.yul\":4408:4422   */\n      add\n        /* \"#utility.yul\":4393:4422   */\n      swap1\n      pop\n        /* \"#utility.yul\":4355:4428   */\n      swap3\n      swap2\n      pop\n      pop\n      jump\t// out\n        /* \"#utility.yul\":4434:4739   */\n    tag_58:\n      0x00\n        /* \"#utility.yul\":4493:4513   */\n      tag_111\n        /* \"#utility.yul\":4511:4512   */\n      dup3\n        /* \"#utility.yul\":4493:4513   */\n      tag_96\n      jump\t// in\n    tag_111:\n        /* \"#utility.yul\":4488:4513   */\n      swap2\n      pop\n        /* \"#utility.yul\":4527:4547   */\n      tag_112\n        /* \"#utility.yul\":4545:4546   */\n      dup4\n        /* \"#utility.yul\":4527:4547   */\n      tag_96\n      jump\t// in\n    tag_112:\n        /* \"#utility.yul\":4522:4547   */\n      swap3\n      pop\n        /* \"#utility.yul\":4681:4682   */\n      dup3\n        /* \"#utility.yul\":4613:4679   */\n      0xffffffffffffffffffffffffffffffffffffffffffffffffffffffffffffffff\n        /* \"#utility.yul\":4609:4683   */\n      sub\n        /* \"#utility.yul\":4606:4607   */\n      dup3\n        /* \"#utility.yul\":4603:4684   */\n      gt\n        /* \"#utility.yul\":4600:4602   */\n      iszero\n      tag_113\n      jumpi\n        /* \"#utility.yul\":4687:4705   */\n      tag_114\n      tag_115\n      jump\t// in\n    tag_114:\n        /* \"#utility.yul\":4600:4602   */\n    tag_113:\n        /* \"#utility.yul\":4731:4732   */\n      dup3\n        /* \"#utility.yul\":4728:4729   */\n      dup3\n        /* \"#utility.yul\":4724:4733   */\n      add\n        /* \"#utility.yul\":4717:4733   */\n      swap1\n      pop\n        /* \"#utility.yul\":4478:4739   */\n      swap3\n      swap2\n      pop\n      pop\n      jump\t// out\n        /* \"#utility.yul\":4745:4936   */\n    tag_56:\n      0x00\n        /* \"#utility.yul\":4805:4825   */\n      tag_117\n        /* \"#utility.yul\":4823:4824   */\n      dup3\n        /* \"#utility.yul\":4805:4825   */\n      tag_96\n      jump\t// in\n    tag_117:\n        /* \"#utility.yul\":4800:4825   */\n      swap2\n      pop\n        /* \"#utility.yul\":4839:4859   */\n      tag_118\n        /* \"#utility.yul\":4857:4858   */\n      dup4\n        /* \"#utility.yul\":4839:4859   */\n      tag_96\n      jump\t// in\n    tag_118:\n        /* \"#utility.yul\":4834:4859   */\n      swap3\n      pop\n        /* \"#utility.yul\":4878:4879   */\n      dup3\n        /* \"#utility.yul\":4875:4876   */\n      dup3\n        /* \"#utility.yul\":4872:4880   */\n      lt\n        /* \"#utility.yul\":4869:4871   */\n      iszero\n      tag_119\n      jumpi\n        /* \"#utility.yul\":4883:4901   */\n      tag_120\n      tag_115\n      jump\t// in\n    tag_120:\n        /* \"#utility.yul\":4869:4871   */\n    tag_119:\n        /* \"#utility.yul\":4928:4929   */\n      dup3\n        /* \"#utility.yul\":4925:4926   */\n      dup3\n        /* \"#utility.yul\":4921:4930   */\n      sub\n        /* \"#utility.yul\":4913:4930   */\n      swap1\n      pop\n        /* \"#utility.yul\":4790:4936   */\n      swap3\n      swap2\n      pop\n      pop\n      jump\t// out\n        /* \"#utility.yul\":4942:5038   */\n    tag_78:\n      0x00\n        /* \"#utility.yul\":5008:5032   */\n      tag_122\n        /* \"#utility.yul\":5026:5031   */\n      dup3\n        /* \"#utility.yul\":5008:5032   */\n      tag_123\n      jump\t// in\n    tag_122:\n        /* \"#utility.yul\":4997:5032   */\n      swap1\n      pop\n        /* \"#utility.yul\":4987:5038   */\n      swap2\n      swap1\n      pop\n      jump\t// out\n        /* \"#utility.yul\":5044:5134   */\n    tag_82:\n      0x00\n        /* \"#utility.yul\":5121:5126   */\n      dup2\n        /* \"#utility.yul\":5114:5127   */\n      iszero\n        /* \"#utility.yul\":5107:5128   */\n      iszero\n        /* \"#utility.yul\":5096:5128   */\n      swap1\n      pop\n        /* \"#utility.yul\":5086:5134   */\n      swap2\n      swap1\n      pop\n      jump\t// out\n        /* \"#utility.yul\":5140:5266   */\n    tag_123:\n      0x00\n        /* \"#utility.yul\":5217:5259   */\n      0xffffffffffffffffffffffffffffffffffffffff\n        /* \"#utility.yul\":5210:5215   */\n      dup3\n        /* \"#utility.yul\":5206:5260   */\n      and\n        /* \"#utility.yul\":5195:5260   */\n      swap1\n      pop\n        /* \"#utility.yul\":5185:5266   */\n      swap2\n      swap1\n      pop\n      jump\t// out\n        /* \"#utility.yul\":5272:5349   */\n    tag_96:\n      0x00\n        /* \"#utility.yul\":5338:5343   */\n      dup2\n        /* \"#utility.yul\":5327:5343   */\n      swap1\n      pop\n        /* \"#utility.yul\":5317:5349   */\n      swap2\n      swap1\n      pop\n      jump\t// out\n        /* \"#utility.yul\":5355:5535   */\n    tag_115:\n        /* \"#utility.yul\":5403:5480   */\n      0x4e487b7100000000000000000000000000000000000000000000000000000000\n        /* \"#utility.yul\":5400:5401   */\n      0x00\n        /* \"#utility.yul\":5393:5481   */\n      mstore\n        /* \"#utility.yul\":5500:5504   */\n      0x11\n        /* \"#utility.yul\":5497:5498   */\n      0x04\n        /* \"#utility.yul\":5490:5505   */\n      mstore\n        /* \"#utility.yul\":5524:5528   */\n      0x24\n        /* \"#utility.yul\":5521:5522   */\n      0x00\n        /* \"#utility.yul\":5514:5529   */\n      revert\n        /* \"#utility.yul\":5541:5663   */\n    tag_63:\n        /* \"#utility.yul\":5614:5638   */\n      tag_129\n        /* \"#utility.yul\":5632:5637   */\n      dup2\n        /* \"#utility.yul\":5614:5638   */\n      tag_78\n      jump\t// in\n    tag_129:\n        /* \"#utility.yul\":5607:5612   */\n      dup2\n        /* \"#utility.yul\":5604:5639   */\n      eq\n        /* \"#utility.yul\":5594:5596   */\n      tag_130\n      jumpi\n        /* \"#utility.yul\":5653:5654   */\n      0x00\n        /* \"#utility.yul\":5650:5651   */\n      dup1\n        /* \"#utility.yul\":5643:5655   */\n      revert\n        /* \"#utility.yul\":5594:5596   */\n    tag_130:\n        /* \"#utility.yul\":5584:5663   */\n      pop\n      jump\t// out\n        /* \"#utility.yul\":5669:5791   */\n    tag_67:\n        /* \"#utility.yul\":5742:5766   */\n      tag_132\n        /* \"#utility.yul\":5760:5765   */\n      dup2\n        /* \"#utility.yul\":5742:5766   */\n      tag_96\n      jump\t// in\n    tag_132:\n        /* \"#utility.yul\":5735:5740   */\n      dup2\n        /* \"#utility.yul\":5732:5767   */\n      eq\n        /* \"#utility.yul\":5722:5724   */\n      tag_133\n      jumpi\n        /* \"#utility.yul\":5781:5782   */\n      0x00\n        /* \"#utility.yul\":5778:5779   */\n      dup1\n        /* \"#utility.yul\":5771:5783   */\n      revert\n        /* \"#utility.yul\":5722:5724   */\n    tag_133:\n        /* \"#utility.yul\":5712:5791   */\n      pop\n      jump\t// out\n\n    auxdata: 0xa26469706673582212205c6db80cacc297641edc9e38e2c1c51f35b92cc0c15aacc899d10066b486eee164736f6c63430008000033\n}\n",
				"bytecode": {
					"linkReferences": {},
					"object": "608060405234801561001057600080fd5b50336000806101000a81548173ffffffffffffffffffffffffffffffffffffffff021916908373ffffffffffffffffffffffffffffffffffffffff16021790555060008060146101000a81548160ff0219169083151502179055506103e8600160008060009054906101000a900473ffffffffffffffffffffffffffffffffffffffff1673ffffffffffffffffffffffffffffffffffffffff1673ffffffffffffffffffffffffffffffffffffffff1681526020019081526020016000208190555061086c806100e16000396000f3fe608060405234801561001057600080fd5b506004361061007d5760003560e01c80635c975abb1161005b5780635c975abb146100ec5780638456cb591461010a5780638da5cb5b14610114578063a9059cbb146101325761007d565b806327e235e3146100825780632fa78085146100b25780633f4ba83a146100e2575b600080fd5b61009c600480360381019061009791906104f3565b61014e565b6040516100a991906106db565b60405180910390f35b6100cc60048036038101906100c791906104f3565b610166565b6040516100d991906106db565b60405180910390f35b6100ea6101af565b005b6100f4610259565b6040516101019190610660565b60405180910390f35b61011261026c565b005b61011c610317565b6040516101299190610645565b60405180910390f35b61014c6004803603810190610147919061051c565b61033b565b005b60016020528060005260406000206000915090505481565b6000600160008373ffffffffffffffffffffffffffffffffffffffff1673ffffffffffffffffffffffffffffffffffffffff168152602001908152602001600020549050919050565b60008054906101000a900473ffffffffffffffffffffffffffffffffffffffff1673ffffffffffffffffffffffffffffffffffffffff163373ffffffffffffffffffffffffffffffffffffffff161461023d576040517f08c379a0000000000000000000000000000000000000000000000000000000008152600401610234906106bb565b60405180910390fd5b60008060146101000a81548160ff021916908315150217905550565b600060149054906101000a900460ff1681565b60008054906101000a900473ffffffffffffffffffffffffffffffffffffffff1673ffffffffffffffffffffffffffffffffffffffff163373ffffffffffffffffffffffffffffffffffffffff16146102fa576040517f08c379a00000000000000000000000000000000000000000000000000000000081526004016102f1906106bb565b60405180910390fd5b6001600060146101000a81548160ff021916908315150217905550565b60008054906101000a900473ffffffffffffffffffffffffffffffffffffffff1681565b60001515600060149054906101000a900460ff16151514610391576040517f08c379a00000000000000000000000000000000000000000000000000000000081526004016103889061069b565b60405180910390fd5b600033905081600160008373ffffffffffffffffffffffffffffffffffffffff1673ffffffffffffffffffffffffffffffffffffffff168152602001908152602001600020541015610418576040517f08c379a000000000000000000000000000000000000000000000000000000000815260040161040f9061067b565b60405180910390fd5b81600160008373ffffffffffffffffffffffffffffffffffffffff1673ffffffffffffffffffffffffffffffffffffffff1681526020019081526020016000206000828254610467919061075d565b9250508190555081600160008573ffffffffffffffffffffffffffffffffffffffff1673ffffffffffffffffffffffffffffffffffffffff16815260200190815260200160002060008282546104bd9190610707565b92505081905550505050565b6000813590506104d881610808565b92915050565b6000813590506104ed8161081f565b92915050565b60006020828403121561050557600080fd5b6000610513848285016104c9565b91505092915050565b6000806040838503121561052f57600080fd5b600061053d858286016104c9565b925050602061054e858286016104de565b9150509250929050565b61056181610791565b82525050565b610570816107a3565b82525050565b60006105836014836106f6565b91507f496e73756666696369656e742062616c616e63650000000000000000000000006000830152602082019050919050565b60006105c36016836106f6565b91507f596f7572206163636f756e7420697320706175736564000000000000000000006000830152602082019050919050565b60006106036011836106f6565b91507f596f7520617265206e6f74206f776e65720000000000000000000000000000006000830152602082019050919050565b61063f816107cf565b82525050565b600060208201905061065a6000830184610558565b92915050565b60006020820190506106756000830184610567565b92915050565b6000602082019050818103600083015261069481610576565b9050919050565b600060208201905081810360008301526106b4816105b6565b9050919050565b600060208201905081810360008301526106d4816105f6565b9050919050565b60006020820190506106f06000830184610636565b92915050565b600082825260208201905092915050565b6000610712826107cf565b915061071d836107cf565b9250827fffffffffffffffffffffffffffffffffffffffffffffffffffffffffffffffff03821115610752576107516107d9565b5b828201905092915050565b6000610768826107cf565b9150610773836107cf565b925082821015610786576107856107d9565b5b828203905092915050565b600061079c826107af565b9050919050565b60008115159050919050565b600073ffffffffffffffffffffffffffffffffffffffff82169050919050565b6000819050919050565b7f4e487b7100000000000000000000000000000000000000000000000000000000600052601160045260246000fd5b61081181610791565b811461081c57600080fd5b50565b610828816107cf565b811461083357600080fd5b5056fea26469706673582212205c6db80cacc297641edc9e38e2c1c51f35b92cc0c15aacc899d10066b486eee164736f6c63430008000033",
					"opcodes": "PUSH1 0x80 PUSH1 0x40 MSTORE CALLVALUE DUP1 ISZERO PUSH2 0x10 JUMPI PUSH1 0x0 DUP1 REVERT JUMPDEST POP CALLER PUSH1 0x0 DUP1 PUSH2 0x100 EXP DUP2 SLOAD DUP2 PUSH20 0xFFFFFFFFFFFFFFFFFFFFFFFFFFFFFFFFFFFFFFFF MUL NOT AND SWAP1 DUP4 PUSH20 0xFFFFFFFFFFFFFFFFFFFFFFFFFFFFFFFFFFFFFFFF AND MUL OR SWAP1 SSTORE POP PUSH1 0x0 DUP1 PUSH1 0x14 PUSH2 0x100 EXP DUP2 SLOAD DUP2 PUSH1 0xFF MUL NOT AND SWAP1 DUP4 ISZERO ISZERO MUL OR SWAP1 SSTORE POP PUSH2 0x3E8 PUSH1 0x1 PUSH1 0x0 DUP1 PUSH1 0x0 SWAP1 SLOAD SWAP1 PUSH2 0x100 EXP SWAP1 DIV PUSH20 0xFFFFFFFFFFFFFFFFFFFFFFFFFFFFFFFFFFFFFFFF AND PUSH20 0xFFFFFFFFFFFFFFFFFFFFFFFFFFFFFFFFFFFFFFFF AND PUSH20 0xFFFFFFFFFFFFFFFFFFFFFFFFFFFFFFFFFFFFFFFF AND DUP2 MSTORE PUSH1 0x20 ADD SWAP1 DUP2 MSTORE PUSH1 0x20 ADD PUSH1 0x0 KECCAK256 DUP2 SWAP1 SSTORE POP PUSH2 0x86C DUP1 PUSH2 0xE1 PUSH1 0x0 CODECOPY PUSH1 0x0 RETURN INVALID PUSH1 0x80 PUSH1 0x40 MSTORE CALLVALUE DUP1 ISZERO PUSH2 0x10 JUMPI PUSH1 0x0 DUP1 REVERT JUMPDEST POP PUSH1 0x4 CALLDATASIZE LT PUSH2 0x7D JUMPI PUSH1 0x0 CALLDATALOAD PUSH1 0xE0 SHR DUP1 PUSH4 0x5C975ABB GT PUSH2 0x5B JUMPI DUP1 PUSH4 0x5C975ABB EQ PUSH2 0xEC JUMPI DUP1 PUSH4 0x8456CB59 EQ PUSH2 0x10A JUMPI DUP1 PUSH4 0x8DA5CB5B EQ PUSH2 0x114 JUMPI DUP1 PUSH4 0xA9059CBB EQ PUSH2 0x132 JUMPI PUSH2 0x7D JUMP JUMPDEST DUP1 PUSH4 0x27E235E3 EQ PUSH2 0x82 JUMPI DUP1 PUSH4 0x2FA78085 EQ PUSH2 0xB2 JUMPI DUP1 PUSH4 0x3F4BA83A EQ PUSH2 0xE2 JUMPI JUMPDEST PUSH1 0x0 DUP1 REVERT JUMPDEST PUSH2 0x9C PUSH1 0x4 DUP1 CALLDATASIZE SUB DUP2 ADD SWAP1 PUSH2 0x97 SWAP2 SWAP1 PUSH2 0x4F3 JUMP JUMPDEST PUSH2 0x14E JUMP JUMPDEST PUSH1 0x40 MLOAD PUSH2 0xA9 SWAP2 SWAP1 PUSH2 0x6DB JUMP JUMPDEST PUSH1 0x40 MLOAD DUP1 SWAP2 SUB SWAP1 RETURN JUMPDEST PUSH2 0xCC PUSH1 0x4 DUP1 CALLDATASIZE SUB DUP2 ADD SWAP1 PUSH2 0xC7 SWAP2 SWAP1 PUSH2 0x4F3 JUMP JUMPDEST PUSH2 0x166 JUMP JUMPDEST PUSH1 0x40 MLOAD PUSH2 0xD9 SWAP2 SWAP1 PUSH2 0x6DB JUMP JUMPDEST PUSH1 0x40 MLOAD DUP1 SWAP2 SUB SWAP1 RETURN JUMPDEST PUSH2 0xEA PUSH2 0x1AF JUMP JUMPDEST STOP JUMPDEST PUSH2 0xF4 PUSH2 0x259 JUMP JUMPDEST PUSH1 0x40 MLOAD PUSH2 0x101 SWAP2 SWAP1 PUSH2 0x660 JUMP JUMPDEST PUSH1 0x40 MLOAD DUP1 SWAP2 SUB SWAP1 RETURN JUMPDEST PUSH2 0x112 PUSH2 0x26C JUMP JUMPDEST STOP JUMPDEST PUSH2 0x11C PUSH2 0x317 JUMP JUMPDEST PUSH1 0x40 MLOAD PUSH2 0x129 SWAP2 SWAP1 PUSH2 0x645 JUMP JUMPDEST PUSH1 0x40 MLOAD DUP1 SWAP2 SUB SWAP1 RETURN JUMPDEST PUSH2 0x14C PUSH1 0x4 DUP1 CALLDATASIZE SUB DUP2 ADD SWAP1 PUSH2 0x147 SWAP2 SWAP1 PUSH2 0x51C JUMP JUMPDEST PUSH2 0x33B JUMP JUMPDEST STOP JUMPDEST PUSH1 0x1 PUSH1 0x20 MSTORE DUP1 PUSH1 0x0 MSTORE PUSH1 0x40 PUSH1 0x0 KECCAK256 PUSH1 0x0 SWAP2 POP SWAP1 POP SLOAD DUP2 JUMP JUMPDEST PUSH1 0x0 PUSH1 0x1 PUSH1 0x0 DUP4 PUSH20 0xFFFFFFFFFFFFFFFFFFFFFFFFFFFFFFFFFFFFFFFF AND PUSH20 0xFFFFFFFFFFFFFFFFFFFFFFFFFFFFFFFFFFFFFFFF AND DUP2 MSTORE PUSH1 0x20 ADD SWAP1 DUP2 MSTORE PUSH1 0x20 ADD PUSH1 0x0 KECCAK256 SLOAD SWAP1 POP SWAP2 SWAP1 POP JUMP JUMPDEST PUSH1 0x0 DUP1 SLOAD SWAP1 PUSH2 0x100 EXP SWAP1 DIV PUSH20 0xFFFFFFFFFFFFFFFFFFFFFFFFFFFFFFFFFFFFFFFF AND PUSH20 0xFFFFFFFFFFFFFFFFFFFFFFFFFFFFFFFFFFFFFFFF AND CALLER PUSH20 0xFFFFFFFFFFFFFFFFFFFFFFFFFFFFFFFFFFFFFFFF AND EQ PUSH2 0x23D JUMPI PUSH1 0x40 MLOAD PUSH32 0x8C379A000000000000000000000000000000000000000000000000000000000 DUP2 MSTORE PUSH1 0x4 ADD PUSH2 0x234 SWAP1 PUSH2 0x6BB JUMP JUMPDEST PUSH1 0x40 MLOAD DUP1 SWAP2 SUB SWAP1 REVERT JUMPDEST PUSH1 0x0 DUP1 PUSH1 0x14 PUSH2 0x100 EXP DUP2 SLOAD DUP2 PUSH1 0xFF MUL NOT AND SWAP1 DUP4 ISZERO ISZERO MUL OR SWAP1 SSTORE POP JUMP JUMPDEST PUSH1 0x0 PUSH1 0x14 SWAP1 SLOAD SWAP1 PUSH2 0x100 EXP SWAP1 DIV PUSH1 0xFF AND DUP2 JUMP JUMPDEST PUSH1 0x0 DUP1 SLOAD SWAP1 PUSH2 0x100 EXP SWAP1 DIV PUSH20 0xFFFFFFFFFFFFFFFFFFFFFFFFFFFFFFFFFFFFFFFF AND PUSH20 0xFFFFFFFFFFFFFFFFFFFFFFFFFFFFFFFFFFFFFFFF AND CALLER PUSH20 0xFFFFFFFFFFFFFFFFFFFFFFFFFFFFFFFFFFFFFFFF AND EQ PUSH2 0x2FA JUMPI PUSH1 0x40 MLOAD PUSH32 0x8C379A000000000000000000000000000000000000000000000000000000000 DUP2 MSTORE PUSH1 0x4 ADD PUSH2 0x2F1 SWAP1 PUSH2 0x6BB JUMP JUMPDEST PUSH1 0x40 MLOAD DUP1 SWAP2 SUB SWAP1 REVERT JUMPDEST PUSH1 0x1 PUSH1 0x0 PUSH1 0x14 PUSH2 0x100 EXP DUP2 SLOAD DUP2 PUSH1 0xFF MUL NOT AND SWAP1 DUP4 ISZERO ISZERO MUL OR SWAP1 SSTORE POP JUMP JUMPDEST PUSH1 0x0 DUP1 SLOAD SWAP1 PUSH2 0x100 EXP SWAP1 DIV PUSH20 0xFFFFFFFFFFFFFFFFFFFFFFFFFFFFFFFFFFFFFFFF AND DUP2 JUMP JUMPDEST PUSH1 0x0 ISZERO ISZERO PUSH1 0x0 PUSH1 0x14 SWAP1 SLOAD SWAP1 PUSH2 0x100 EXP SWAP1 DIV PUSH1 0xFF AND ISZERO ISZERO EQ PUSH2 0x391 JUMPI PUSH1 0x40 MLOAD PUSH32 0x8C379A000000000000000000000000000000000000000000000000000000000 DUP2 MSTORE PUSH1 0x4 ADD PUSH2 0x388 SWAP1 PUSH2 0x69B JUMP JUMPDEST PUSH1 0x40 MLOAD DUP1 SWAP2 SUB SWAP1 REVERT JUMPDEST PUSH1 0x0 CALLER SWAP1 POP DUP2 PUSH1 0x1 PUSH1 0x0 DUP4 PUSH20 0xFFFFFFFFFFFFFFFFFFFFFFFFFFFFFFFFFFFFFFFF AND PUSH20 0xFFFFFFFFFFFFFFFFFFFFFFFFFFFFFFFFFFFFFFFF AND DUP2 MSTORE PUSH1 0x20 ADD SWAP1 DUP2 MSTORE PUSH1 0x20 ADD PUSH1 0x0 KECCAK256 SLOAD LT ISZERO PUSH2 0x418 JUMPI PUSH1 0x40 MLOAD PUSH32 0x8C379A000000000000000000000000000000000000000000000000000000000 DUP2 MSTORE PUSH1 0x4 ADD PUSH2 0x40F SWAP1 PUSH2 0x67B JUMP JUMPDEST PUSH1 0x40 MLOAD DUP1 SWAP2 SUB SWAP1 REVERT JUMPDEST DUP2 PUSH1 0x1 PUSH1 0x0 DUP4 PUSH20 0xFFFFFFFFFFFFFFFFFFFFFFFFFFFFFFFFFFFFFFFF AND PUSH20 0xFFFFFFFFFFFFFFFFFFFFFFFFFFFFFFFFFFFFFFFF AND DUP2 MSTORE PUSH1 0x20 ADD SWAP1 DUP2 MSTORE PUSH1 0x20 ADD PUSH1 0x0 KECCAK256 PUSH1 0x0 DUP3 DUP3 SLOAD PUSH2 0x467 SWAP2 SWAP1 PUSH2 0x75D JUMP JUMPDEST SWAP3 POP POP DUP2 SWAP1 SSTORE POP DUP2 PUSH1 0x1 PUSH1 0x0 DUP6 PUSH20 0xFFFFFFFFFFFFFFFFFFFFFFFFFFFFFFFFFFFFFFFF AND PUSH20 0xFFFFFFFFFFFFFFFFFFFFFFFFFFFFFFFFFFFFFFFF AND DUP2 MSTORE PUSH1 0x20 ADD SWAP1 DUP2 MSTORE PUSH1 0x20 ADD PUSH1 0x0 KECCAK256 PUSH1 0x0 DUP3 DUP3 SLOAD PUSH2 0x4BD SWAP2 SWAP1 PUSH2 0x707 JUMP JUMPDEST SWAP3 POP POP DUP2 SWAP1 SSTORE POP POP POP POP JUMP JUMPDEST PUSH1 0x0 DUP2 CALLDATALOAD SWAP1 POP PUSH2 0x4D8 DUP2 PUSH2 0x808 JUMP JUMPDEST SWAP3 SWAP2 POP POP JUMP JUMPDEST PUSH1 0x0 DUP2 CALLDATALOAD SWAP1 POP PUSH2 0x4ED DUP2 PUSH2 0x81F JUMP JUMPDEST SWAP3 SWAP2 POP POP JUMP JUMPDEST PUSH1 0x0 PUSH1 0x20 DUP3 DUP5 SUB SLT ISZERO PUSH2 0x505 JUMPI PUSH1 0x0 DUP1 REVERT JUMPDEST PUSH1 0x0 PUSH2 0x513 DUP5 DUP3 DUP6 ADD PUSH2 0x4C9 JUMP JUMPDEST SWAP2 POP POP SWAP3 SWAP2 POP POP JUMP JUMPDEST PUSH1 0x0 DUP1 PUSH1 0x40 DUP4 DUP6 SUB SLT ISZERO PUSH2 0x52F JUMPI PUSH1 0x0 DUP1 REVERT JUMPDEST PUSH1 0x0 PUSH2 0x53D DUP6 DUP3 DUP7 ADD PUSH2 0x4C9 JUMP JUMPDEST SWAP3 POP POP PUSH1 0x20 PUSH2 0x54E DUP6 DUP3 DUP7 ADD PUSH2 0x4DE JUMP JUMPDEST SWAP2 POP POP SWAP3 POP SWAP3 SWAP1 POP JUMP JUMPDEST PUSH2 0x561 DUP2 PUSH2 0x791 JUMP JUMPDEST DUP3 MSTORE POP POP JUMP JUMPDEST PUSH2 0x570 DUP2 PUSH2 0x7A3 JUMP JUMPDEST DUP3 MSTORE POP POP JUMP JUMPDEST PUSH1 0x0 PUSH2 0x583 PUSH1 0x14 DUP4 PUSH2 0x6F6 JUMP JUMPDEST SWAP2 POP PUSH32 0x496E73756666696369656E742062616C616E6365000000000000000000000000 PUSH1 0x0 DUP4 ADD MSTORE PUSH1 0x20 DUP3 ADD SWAP1 POP SWAP2 SWAP1 POP JUMP JUMPDEST PUSH1 0x0 PUSH2 0x5C3 PUSH1 0x16 DUP4 PUSH2 0x6F6 JUMP JUMPDEST SWAP2 POP PUSH32 0x596F7572206163636F756E742069732070617573656400000000000000000000 PUSH1 0x0 DUP4 ADD MSTORE PUSH1 0x20 DUP3 ADD SWAP1 POP SWAP2 SWAP1 POP JUMP JUMPDEST PUSH1 0x0 PUSH2 0x603 PUSH1 0x11 DUP4 PUSH2 0x6F6 JUMP JUMPDEST SWAP2 POP PUSH32 0x596F7520617265206E6F74206F776E6572000000000000000000000000000000 PUSH1 0x0 DUP4 ADD MSTORE PUSH1 0x20 DUP3 ADD SWAP1 POP SWAP2 SWAP1 POP JUMP JUMPDEST PUSH2 0x63F DUP2 PUSH2 0x7CF JUMP JUMPDEST DUP3 MSTORE POP POP JUMP JUMPDEST PUSH1 0x0 PUSH1 0x20 DUP3 ADD SWAP1 POP PUSH2 0x65A PUSH1 0x0 DUP4 ADD DUP5 PUSH2 0x558 JUMP JUMPDEST SWAP3 SWAP2 POP POP JUMP JUMPDEST PUSH1 0x0 PUSH1 0x20 DUP3 ADD SWAP1 POP PUSH2 0x675 PUSH1 0x0 DUP4 ADD DUP5 PUSH2 0x567 JUMP JUMPDEST SWAP3 SWAP2 POP POP JUMP JUMPDEST PUSH1 0x0 PUSH1 0x20 DUP3 ADD SWAP1 POP DUP2 DUP2 SUB PUSH1 0x0 DUP4 ADD MSTORE PUSH2 0x694 DUP2 PUSH2 0x576 JUMP JUMPDEST SWAP1 POP SWAP2 SWAP1 POP JUMP JUMPDEST PUSH1 0x0 PUSH1 0x20 DUP3 ADD SWAP1 POP DUP2 DUP2 SUB PUSH1 0x0 DUP4 ADD MSTORE PUSH2 0x6B4 DUP2 PUSH2 0x5B6 JUMP JUMPDEST SWAP1 POP SWAP2 SWAP1 POP JUMP JUMPDEST PUSH1 0x0 PUSH1 0x20 DUP3 ADD SWAP1 POP DUP2 DUP2 SUB PUSH1 0x0 DUP4 ADD MSTORE PUSH2 0x6D4 DUP2 PUSH2 0x5F6 JUMP JUMPDEST SWAP1 POP SWAP2 SWAP1 POP JUMP JUMPDEST PUSH1 0x0 PUSH1 0x20 DUP3 ADD SWAP1 POP PUSH2 0x6F0 PUSH1 0x0 DUP4 ADD DUP5 PUSH2 0x636 JUMP JUMPDEST SWAP3 SWAP2 POP POP JUMP JUMPDEST PUSH1 0x0 DUP3 DUP3 MSTORE PUSH1 0x20 DUP3 ADD SWAP1 POP SWAP3 SWAP2 POP POP JUMP JUMPDEST PUSH1 0x0 PUSH2 0x712 DUP3 PUSH2 0x7CF JUMP JUMPDEST SWAP2 POP PUSH2 0x71D DUP4 PUSH2 0x7CF JUMP JUMPDEST SWAP3 POP DUP3 PUSH32 0xFFFFFFFFFFFFFFFFFFFFFFFFFFFFFFFFFFFFFFFFFFFFFFFFFFFFFFFFFFFFFFFF SUB DUP3 GT ISZERO PUSH2 0x752 JUMPI PUSH2 0x751 PUSH2 0x7D9 JUMP JUMPDEST JUMPDEST DUP3 DUP3 ADD SWAP1 POP SWAP3 SWAP2 POP POP JUMP JUMPDEST PUSH1 0x0 PUSH2 0x768 DUP3 PUSH2 0x7CF JUMP JUMPDEST SWAP2 POP PUSH2 0x773 DUP4 PUSH2 0x7CF JUMP JUMPDEST SWAP3 POP DUP3 DUP3 LT ISZERO PUSH2 0x786 JUMPI PUSH2 0x785 PUSH2 0x7D9 JUMP JUMPDEST JUMPDEST DUP3 DUP3 SUB SWAP1 POP SWAP3 SWAP2 POP POP JUMP JUMPDEST PUSH1 0x0 PUSH2 0x79C DUP3 PUSH2 0x7AF JUMP JUMPDEST SWAP1 POP SWAP2 SWAP1 POP JUMP JUMPDEST PUSH1 0x0 DUP2 ISZERO ISZERO SWAP1 POP SWAP2 SWAP1 POP JUMP JUMPDEST PUSH1 0x0 PUSH20 0xFFFFFFFFFFFFFFFFFFFFFFFFFFFFFFFFFFFFFFFF DUP3 AND SWAP1 POP SWAP2 SWAP1 POP JUMP JUMPDEST PUSH1 0x0 DUP2 SWAP1 POP SWAP2 SWAP1 POP JUMP JUMPDEST PUSH32 0x4E487B7100000000000000000000000000000000000000000000000000000000 PUSH1 0x0 MSTORE PUSH1 0x11 PUSH1 0x4 MSTORE PUSH1 0x24 PUSH1 0x0 REVERT JUMPDEST PUSH2 0x811 DUP2 PUSH2 0x791 JUMP JUMPDEST DUP2 EQ PUSH2 0x81C JUMPI PUSH1 0x0 DUP1 REVERT JUMPDEST POP JUMP JUMPDEST PUSH2 0x828 DUP2 PUSH2 0x7CF JUMP JUMPDEST DUP2 EQ PUSH2 0x833 JUMPI PUSH1 0x0 DUP1 REVERT JUMPDEST POP JUMP INVALID LOG2 PUSH5 0x6970667358 0x22 SLT KECCAK256 0x5C PUSH14 0xB80CACC297641EDC9E38E2C1C51F CALLDATALOAD 0xB9 0x2C 0xC0 0xC1 GAS 0xAC 0xC8 SWAP10 0xD1 STOP PUSH7 0xB486EEE164736F PUSH13 0x63430008000033000000000000 "
				},
				"gasEstimates": {
					"creation": {
						"codeDepositCost": "431200",
						"executionCost": "63191",
						"totalCost": "494391"
					},
					"external": {
						"balances(address)": "1515",
						"getBal(address)": "1564",
						"owner()": "1255",
						"pause()": "21950",
						"paused()": "1221",
						"transfer(address,uint256)": "infinite",
						"unpause()": "21973"
					}
				},
				"methodIdentifiers": {
					"balances(address)": "27e235e3",
					"getBal(address)": "2fa78085",
					"owner()": "8da5cb5b",
					"pause()": "8456cb59",
					"paused()": "5c975abb",
					"transfer(address,uint256)": "a9059cbb",
					"unpause()": "3f4ba83a"
				}
			},
			"storageLayout": {
				"storage": [
					{
						"astId": 3,
						"contract": "exercises/bank.sol:bank",
						"label": "owner",
						"offset": 0,
						"slot": "0",
						"type": "t_address"
					},
					{
						"astId": 5,
						"contract": "exercises/bank.sol:bank",
						"label": "paused",
						"offset": 20,
						"slot": "0",
						"type": "t_bool"
					},
					{
						"astId": 9,
						"contract": "exercises/bank.sol:bank",
						"label": "balances",
						"offset": 0,
						"slot": "1",
						"type": "t_mapping(t_address,t_uint256)"
					}
				],
				"types": {
					"t_address": {
						"encoding": "inplace",
						"label": "address",
						"numberOfBytes": "20"
					},
					"t_bool": {
						"encoding": "inplace",
						"label": "bool",
						"numberOfBytes": "1"
					},
					"t_mapping(t_address,t_uint256)": {
						"encoding": "mapping",
						"key": "t_address",
						"label": "mapping(address => uint256)",
						"numberOfBytes": "32",
						"value": "t_uint256"
					},
					"t_uint256": {
						"encoding": "inplace",
						"label": "uint256",
						"numberOfBytes": "32"
					}
				}
			},
			"userdoc": {
				"kind": "user",
				"methods": {},
				"version": 1
			}
		}
	}
}