{
	"exercises/twitter.sol": {
		"Twitter": {
			"abi": [
				{
					"inputs": [],
					"stateMutability": "nonpayable",
					"type": "constructor"
				},
				{
					"anonymous": false,
					"inputs": [
						{
							"indexed": false,
							"internalType": "uint256",
							"name": "id",
							"type": "uint256"
						},
						{
							"indexed": false,
							"internalType": "address",
							"name": "author",
							"type": "address"
						},
						{
							"indexed": false,
							"internalType": "string",
							"name": "content",
							"type": "string"
						},
						{
							"indexed": false,
							"internalType": "uint256",
							"name": "timestamp",
							"type": "uint256"
						}
					],
					"name": "createTweetEvent",
					"type": "event"
				},
				{
					"anonymous": false,
					"inputs": [
						{
							"indexed": false,
							"internalType": "address",
							"name": "liker",
							"type": "address"
						},
						{
							"indexed": false,
							"internalType": "address",
							"name": "author",
							"type": "address"
						},
						{
							"indexed": false,
							"internalType": "uint256",
							"name": "tweetId",
							"type": "uint256"
						},
						{
							"indexed": false,
							"internalType": "uint256",
							"name": "likes",
							"type": "uint256"
						}
					],
					"name": "likedTweetEvent",
					"type": "event"
				},
				{
					"anonymous": false,
					"inputs": [
						{
							"indexed": false,
							"internalType": "address",
							"name": "liker",
							"type": "address"
						},
						{
							"indexed": false,
							"internalType": "address",
							"name": "author",
							"type": "address"
						},
						{
							"indexed": false,
							"internalType": "uint256",
							"name": "tweetId",
							"type": "uint256"
						},
						{
							"indexed": false,
							"internalType": "uint256",
							"name": "likes",
							"type": "uint256"
						}
					],
					"name": "unlikedTweetEvent",
					"type": "event"
				},
				{
					"inputs": [],
					"name": "MAX_TWEET_LENGTH",
					"outputs": [
						{
							"internalType": "uint256",
							"name": "",
							"type": "uint256"
						}
					],
					"stateMutability": "view",
					"type": "function"
				},
				{
					"inputs": [
						{
							"internalType": "uint256",
							"name": "newLength",
							"type": "uint256"
						}
					],
					"name": "changeTweetLength",
					"outputs": [],
					"stateMutability": "nonpayable",
					"type": "function"
				},
				{
					"inputs": [
						{
							"internalType": "string",
							"name": "_tweet",
							"type": "string"
						}
					],
					"name": "createTweet",
					"outputs": [],
					"stateMutability": "nonpayable",
					"type": "function"
				},
				{
					"inputs": [
						{
							"internalType": "address",
							"name": "_user",
							"type": "address"
						}
					],
					"name": "getAllTweets",
					"outputs": [
						{
							"components": [
								{
									"internalType": "uint256",
									"name": "id",
									"type": "uint256"
								},
								{
									"internalType": "address",
									"name": "author",
									"type": "address"
								},
								{
									"internalType": "string",
									"name": "content",
									"type": "string"
								},
								{
									"internalType": "uint256",
									"name": "timestamp",
									"type": "uint256"
								},
								{
									"internalType": "uint256",
									"name": "likes",
									"type": "uint256"
								}
							],
							"internalType": "struct Twitter.Tweet[]",
							"name": "",
							"type": "tuple[]"
						}
					],
					"stateMutability": "view",
					"type": "function"
				},
				{
					"inputs": [
						{
							"internalType": "uint256",
							"name": "i",
							"type": "uint256"
						}
					],
					"name": "getTweet",
					"outputs": [
						{
							"components": [
								{
									"internalType": "uint256",
									"name": "id",
									"type": "uint256"
								},
								{
									"internalType": "address",
									"name": "author",
									"type": "address"
								},
								{
									"internalType": "string",
									"name": "content",
									"type": "string"
								},
								{
									"internalType": "uint256",
									"name": "timestamp",
									"type": "uint256"
								},
								{
									"internalType": "uint256",
									"name": "likes",
									"type": "uint256"
								}
							],
							"internalType": "struct Twitter.Tweet",
							"name": "",
							"type": "tuple"
						}
					],
					"stateMutability": "view",
					"type": "function"
				},
				{
					"inputs": [
						{
							"internalType": "uint256",
							"name": "id",
							"type": "uint256"
						},
						{
							"internalType": "address",
							"name": "author",
							"type": "address"
						}
					],
					"name": "likeTweet",
					"outputs": [],
					"stateMutability": "nonpayable",
					"type": "function"
				},
				{
					"inputs": [],
					"name": "owner",
					"outputs": [
						{
							"internalType": "address",
							"name": "",
							"type": "address"
						}
					],
					"stateMutability": "view",
					"type": "function"
				},
				{
					"inputs": [
						{
							"internalType": "address",
							"name": "",
							"type": "address"
						},
						{
							"internalType": "uint256",
							"name": "",
							"type": "uint256"
						}
					],
					"name": "tweets",
					"outputs": [
						{
							"internalType": "uint256",
							"name": "id",
							"type": "uint256"
						},
						{
							"internalType": "address",
							"name": "author",
							"type": "address"
						},
						{
							"internalType": "string",
							"name": "content",
							"type": "string"
						},
						{
							"internalType": "uint256",
							"name": "timestamp",
							"type": "uint256"
						},
						{
							"internalType": "uint256",
							"name": "likes",
							"type": "uint256"
						}
					],
					"stateMutability": "view",
					"type": "function"
				},
				{
					"inputs": [
						{
							"internalType": "uint256",
							"name": "id",
							"type": "uint256"
						},
						{
							"internalType": "address",
							"name": "author",
							"type": "address"
						}
					],
					"name": "unLikeTweet",
					"outputs": [],
					"stateMutability": "nonpayable",
					"type": "function"
				}
			],
			"devdoc": {
				"kind": "dev",
				"methods": {},
				"version": 1
			},
			"evm": {
				"assembly": "    /* \"exercises/twitter.sol\":57:2211  contract Twitter{... */\n  mstore(0x40, 0x80)\n    /* \"exercises/twitter.sol\":278:281  280 */\n  0x0118\n    /* \"exercises/twitter.sol\":247:281  uint public MAX_TWEET_LENGTH = 280 */\n  0x01\n  sstore\n    /* \"exercises/twitter.sol\":595:644  constructor() {... */\n  callvalue\n  dup1\n  iszero\n  tag_1\n  jumpi\n  0x00\n  dup1\n  revert\ntag_1:\n  pop\n    /* \"exercises/twitter.sol\":627:637  msg.sender */\n  caller\n    /* \"exercises/twitter.sol\":619:624  owner */\n  0x00\n  dup1\n    /* \"exercises/twitter.sol\":619:637  owner = msg.sender */\n  0x0100\n  exp\n  dup2\n  sload\n  dup2\n  0xffffffffffffffffffffffffffffffffffffffff\n  mul\n  not\n  and\n  swap1\n  dup4\n  0xffffffffffffffffffffffffffffffffffffffff\n  and\n  mul\n  or\n  swap1\n  sstore\n  pop\n    /* \"exercises/twitter.sol\":57:2211  contract Twitter{... */\n  dataSize(sub_0)\n  dup1\n  dataOffset(sub_0)\n  0x00\n  codecopy\n  0x00\n  return\nstop\n\nsub_0: assembly {\n        /* \"exercises/twitter.sol\":57:2211  contract Twitter{... */\n      mstore(0x40, 0x80)\n      callvalue\n      dup1\n      iszero\n      tag_1\n      jumpi\n      0x00\n      dup1\n      revert\n    tag_1:\n      pop\n      jumpi(tag_2, lt(calldatasize, 0x04))\n      shr(0xe0, calldataload(0x00))\n      dup1\n      0x7c9cd2bc\n      gt\n      tag_12\n      jumpi\n      dup1\n      0x7c9cd2bc\n      eq\n      tag_7\n      jumpi\n      dup1\n      0x888a7880\n      eq\n      tag_8\n      jumpi\n      dup1\n      0x8da5cb5b\n      eq\n      tag_9\n      jumpi\n      dup1\n      0xc3ad5ecb\n      eq\n      tag_10\n      jumpi\n      dup1\n      0xd04ddaa0\n      eq\n      tag_11\n      jumpi\n      jump(tag_2)\n    tag_12:\n      dup1\n      0x05a1b4a9\n      eq\n      tag_3\n      jumpi\n      dup1\n      0x12e7ee1c\n      eq\n      tag_4\n      jumpi\n      dup1\n      0x3fcd2d06\n      eq\n      tag_5\n      jumpi\n      dup1\n      0x6eb10797\n      eq\n      tag_6\n      jumpi\n    tag_2:\n      0x00\n      dup1\n      revert\n        /* \"exercises/twitter.sol\":292:334  mapping (address => Tweet[]) public tweets */\n    tag_3:\n      tag_13\n      0x04\n      dup1\n      calldatasize\n      sub\n      dup2\n      add\n      swap1\n      tag_14\n      swap2\n      swap1\n      tag_15\n      jump\t// in\n    tag_14:\n      tag_16\n      jump\t// in\n    tag_13:\n      mload(0x40)\n      tag_17\n      swap6\n      swap5\n      swap4\n      swap3\n      swap2\n      swap1\n      tag_18\n      jump\t// in\n    tag_17:\n      mload(0x40)\n      dup1\n      swap2\n      sub\n      swap1\n      return\n        /* \"exercises/twitter.sol\":1399:1509  function getAllTweets(address _user) view public returns (Tweet[] memory){... */\n    tag_4:\n      tag_19\n      0x04\n      dup1\n      calldatasize\n      sub\n      dup2\n      add\n      swap1\n      tag_20\n      swap2\n      swap1\n      tag_21\n      jump\t// in\n    tag_20:\n      tag_22\n      jump\t// in\n    tag_19:\n      mload(0x40)\n      tag_23\n      swap2\n      swap1\n      tag_24\n      jump\t// in\n    tag_23:\n      mload(0x40)\n      dup1\n      swap2\n      sub\n      swap1\n      return\n        /* \"exercises/twitter.sol\":1941:2209  function unLikeTweet(uint id,address author) external tweetExists(id,author) {... */\n    tag_5:\n      tag_25\n      0x04\n      dup1\n      calldatasize\n      sub\n      dup2\n      add\n      swap1\n      tag_26\n      swap2\n      swap1\n      tag_27\n      jump\t// in\n    tag_26:\n      tag_28\n      jump\t// in\n    tag_25:\n      stop\n        /* \"exercises/twitter.sol\":247:281  uint public MAX_TWEET_LENGTH = 280 */\n    tag_6:\n      tag_29\n      tag_30\n      jump\t// in\n    tag_29:\n      mload(0x40)\n      tag_31\n      swap2\n      swap1\n      tag_32\n      jump\t// in\n    tag_31:\n      mload(0x40)\n      dup1\n      swap2\n      sub\n      swap1\n      return\n        /* \"exercises/twitter.sol\":912:1393  function createTweet(string memory _tweet) public {... */\n    tag_7:\n      tag_33\n      0x04\n      dup1\n      calldatasize\n      sub\n      dup2\n      add\n      swap1\n      tag_34\n      swap2\n      swap1\n      tag_35\n      jump\t// in\n    tag_34:\n      tag_36\n      jump\t// in\n    tag_33:\n      stop\n        /* \"exercises/twitter.sol\":1626:1731  function changeTweetLength(uint newLength) public onlyOwner {... */\n    tag_8:\n      tag_37\n      0x04\n      dup1\n      calldatasize\n      sub\n      dup2\n      add\n      swap1\n      tag_38\n      swap2\n      swap1\n      tag_39\n      jump\t// in\n    tag_38:\n      tag_40\n      jump\t// in\n    tag_37:\n      stop\n        /* \"exercises/twitter.sol\":80:100  address public owner */\n    tag_9:\n      tag_41\n      tag_42\n      jump\t// in\n    tag_41:\n      mload(0x40)\n      tag_43\n      swap2\n      swap1\n      tag_44\n      jump\t// in\n    tag_43:\n      mload(0x40)\n      dup1\n      swap2\n      sub\n      swap1\n      return\n        /* \"exercises/twitter.sol\":1515:1620  function getTweet(uint i) view public returns (Tweet memory){... */\n    tag_10:\n      tag_45\n      0x04\n      dup1\n      calldatasize\n      sub\n      dup2\n      add\n      swap1\n      tag_46\n      swap2\n      swap1\n      tag_39\n      jump\t// in\n    tag_46:\n      tag_47\n      jump\t// in\n    tag_45:\n      mload(0x40)\n      tag_48\n      swap2\n      swap1\n      tag_49\n      jump\t// in\n    tag_48:\n      mload(0x40)\n      dup1\n      swap2\n      sub\n      swap1\n      return\n        /* \"exercises/twitter.sol\":1737:1935  function likeTweet(uint id,address author) external tweetExists(id,author) {... */\n    tag_11:\n      tag_50\n      0x04\n      dup1\n      calldatasize\n      sub\n      dup2\n      add\n      swap1\n      tag_51\n      swap2\n      swap1\n      tag_27\n      jump\t// in\n    tag_51:\n      tag_52\n      jump\t// in\n    tag_50:\n      stop\n        /* \"exercises/twitter.sol\":292:334  mapping (address => Tweet[]) public tweets */\n    tag_16:\n      mstore(0x20, 0x02)\n      dup2\n      0x00\n      mstore\n      keccak256(0x00, 0x40)\n      dup2\n      dup2\n      sload\n      dup2\n      lt\n      tag_53\n      jumpi\n      0x00\n      dup1\n      revert\n    tag_53:\n      swap1\n      0x00\n      mstore\n      keccak256(0x00, 0x20)\n      swap1\n      0x05\n      mul\n      add\n      0x00\n      swap2\n      pop\n      swap2\n      pop\n      pop\n      dup1\n      0x00\n      add\n      sload\n      swap1\n      dup1\n      0x01\n      add\n      0x00\n      swap1\n      sload\n      swap1\n      0x0100\n      exp\n      swap1\n      div\n      0xffffffffffffffffffffffffffffffffffffffff\n      and\n      swap1\n      dup1\n      0x02\n      add\n      dup1\n      sload\n      tag_55\n      swap1\n      tag_56\n      jump\t// in\n    tag_55:\n      dup1\n      0x1f\n      add\n      0x20\n      dup1\n      swap2\n      div\n      mul\n      0x20\n      add\n      mload(0x40)\n      swap1\n      dup2\n      add\n      0x40\n      mstore\n      dup1\n      swap3\n      swap2\n      swap1\n      dup2\n      dup2\n      mstore\n      0x20\n      add\n      dup3\n      dup1\n      sload\n      tag_57\n      swap1\n      tag_56\n      jump\t// in\n    tag_57:\n      dup1\n      iszero\n      tag_58\n      jumpi\n      dup1\n      0x1f\n      lt\n      tag_59\n      jumpi\n      0x0100\n      dup1\n      dup4\n      sload\n      div\n      mul\n      dup4\n      mstore\n      swap2\n      0x20\n      add\n      swap2\n      jump(tag_58)\n    tag_59:\n      dup3\n      add\n      swap2\n      swap1\n      0x00\n      mstore\n      keccak256(0x00, 0x20)\n      swap1\n    tag_60:\n      dup2\n      sload\n      dup2\n      mstore\n      swap1\n      0x01\n      add\n      swap1\n      0x20\n      add\n      dup1\n      dup4\n      gt\n      tag_60\n      jumpi\n      dup3\n      swap1\n      sub\n      0x1f\n      and\n      dup3\n      add\n      swap2\n    tag_58:\n      pop\n      pop\n      pop\n      pop\n      pop\n      swap1\n      dup1\n      0x03\n      add\n      sload\n      swap1\n      dup1\n      0x04\n      add\n      sload\n      swap1\n      pop\n      dup6\n      jump\t// out\n        /* \"exercises/twitter.sol\":1399:1509  function getAllTweets(address _user) view public returns (Tweet[] memory){... */\n    tag_22:\n        /* \"exercises/twitter.sol\":1457:1471  Tweet[] memory */\n      0x60\n        /* \"exercises/twitter.sol\":1489:1495  tweets */\n      0x02\n        /* \"exercises/twitter.sol\":1489:1502  tweets[_user] */\n      0x00\n        /* \"exercises/twitter.sol\":1496:1501  _user */\n      dup4\n        /* \"exercises/twitter.sol\":1489:1502  tweets[_user] */\n      0xffffffffffffffffffffffffffffffffffffffff\n      and\n      0xffffffffffffffffffffffffffffffffffffffff\n      and\n      dup2\n      mstore\n      0x20\n      add\n      swap1\n      dup2\n      mstore\n      0x20\n      add\n      0x00\n      keccak256\n        /* \"exercises/twitter.sol\":1482:1502  return tweets[_user] */\n      dup1\n      sload\n      dup1\n      0x20\n      mul\n      0x20\n      add\n      mload(0x40)\n      swap1\n      dup2\n      add\n      0x40\n      mstore\n      dup1\n      swap3\n      swap2\n      swap1\n      dup2\n      dup2\n      mstore\n      0x20\n      add\n      0x00\n      swap1\n    tag_62:\n      dup3\n      dup3\n      lt\n      iszero\n      tag_63\n      jumpi\n      dup4\n      dup3\n      swap1\n      0x00\n      mstore\n      keccak256(0x00, 0x20)\n      swap1\n      0x05\n      mul\n      add\n      mload(0x40)\n      dup1\n      0xa0\n      add\n      0x40\n      mstore\n      swap1\n      dup2\n      0x00\n      dup3\n      add\n      sload\n      dup2\n      mstore\n      0x20\n      add\n      0x01\n      dup3\n      add\n      0x00\n      swap1\n      sload\n      swap1\n      0x0100\n      exp\n      swap1\n      div\n      0xffffffffffffffffffffffffffffffffffffffff\n      and\n      0xffffffffffffffffffffffffffffffffffffffff\n      and\n      0xffffffffffffffffffffffffffffffffffffffff\n      and\n      dup2\n      mstore\n      0x20\n      add\n      0x02\n      dup3\n      add\n      dup1\n      sload\n      tag_65\n      swap1\n      tag_56\n      jump\t// in\n    tag_65:\n      dup1\n      0x1f\n      add\n      0x20\n      dup1\n      swap2\n      div\n      mul\n      0x20\n      add\n      mload(0x40)\n      swap1\n      dup2\n      add\n      0x40\n      mstore\n      dup1\n      swap3\n      swap2\n      swap1\n      dup2\n      dup2\n      mstore\n      0x20\n      add\n      dup3\n      dup1\n      sload\n      tag_66\n      swap1\n      tag_56\n      jump\t// in\n    tag_66:\n      dup1\n      iszero\n      tag_67\n      jumpi\n      dup1\n      0x1f\n      lt\n      tag_68\n      jumpi\n      0x0100\n      dup1\n      dup4\n      sload\n      div\n      mul\n      dup4\n      mstore\n      swap2\n      0x20\n      add\n      swap2\n      jump(tag_67)\n    tag_68:\n      dup3\n      add\n      swap2\n      swap1\n      0x00\n      mstore\n      keccak256(0x00, 0x20)\n      swap1\n    tag_69:\n      dup2\n      sload\n      dup2\n      mstore\n      swap1\n      0x01\n      add\n      swap1\n      0x20\n      add\n      dup1\n      dup4\n      gt\n      tag_69\n      jumpi\n      dup3\n      swap1\n      sub\n      0x1f\n      and\n      dup3\n      add\n      swap2\n    tag_67:\n      pop\n      pop\n      pop\n      pop\n      pop\n      dup2\n      mstore\n      0x20\n      add\n      0x03\n      dup3\n      add\n      sload\n      dup2\n      mstore\n      0x20\n      add\n      0x04\n      dup3\n      add\n      sload\n      dup2\n      mstore\n      pop\n      pop\n      dup2\n      mstore\n      0x20\n      add\n      swap1\n      0x01\n      add\n      swap1\n      jump(tag_62)\n    tag_63:\n      pop\n      pop\n      pop\n      pop\n      swap1\n      pop\n        /* \"exercises/twitter.sol\":1399:1509  function getAllTweets(address _user) view public returns (Tweet[] memory){... */\n      swap2\n      swap1\n      pop\n      jump\t// out\n        /* \"exercises/twitter.sol\":1941:2209  function unLikeTweet(uint id,address author) external tweetExists(id,author) {... */\n    tag_28:\n        /* \"exercises/twitter.sol\":2007:2009  id */\n      dup2\n        /* \"exercises/twitter.sol\":2010:2016  author */\n      dup2\n        /* \"exercises/twitter.sol\":863:865  id */\n      dup2\n        /* \"exercises/twitter.sol\":841:847  tweets */\n      0x02\n        /* \"exercises/twitter.sol\":841:855  tweets[author] */\n      0x00\n        /* \"exercises/twitter.sol\":848:854  author */\n      dup4\n        /* \"exercises/twitter.sol\":841:855  tweets[author] */\n      0xffffffffffffffffffffffffffffffffffffffff\n      and\n      0xffffffffffffffffffffffffffffffffffffffff\n      and\n      dup2\n      mstore\n      0x20\n      add\n      swap1\n      dup2\n      mstore\n      0x20\n      add\n      0x00\n      keccak256\n        /* \"exercises/twitter.sol\":841:862  tweets[author].length */\n      dup1\n      sload\n      swap1\n      pop\n        /* \"exercises/twitter.sol\":841:865  tweets[author].length>id */\n      gt\n        /* \"exercises/twitter.sol\":833:888  require(tweets[author].length>id,\"Tweet does'nt exist\") */\n      tag_71\n      jumpi\n      mload(0x40)\n      0x08c379a000000000000000000000000000000000000000000000000000000000\n      dup2\n      mstore\n      0x04\n      add\n      tag_72\n      swap1\n      tag_73\n      jump\t// in\n    tag_72:\n      mload(0x40)\n      dup1\n      swap2\n      sub\n      swap1\n      revert\n    tag_71:\n        /* \"exercises/twitter.sol\":2061:2062  0 */\n      0x00\n        /* \"exercises/twitter.sol\":2036:2042  tweets */\n      0x02\n        /* \"exercises/twitter.sol\":2036:2050  tweets[author] */\n      0x00\n        /* \"exercises/twitter.sol\":2043:2049  author */\n      dup6\n        /* \"exercises/twitter.sol\":2036:2050  tweets[author] */\n      0xffffffffffffffffffffffffffffffffffffffff\n      and\n      0xffffffffffffffffffffffffffffffffffffffff\n      and\n      dup2\n      mstore\n      0x20\n      add\n      swap1\n      dup2\n      mstore\n      0x20\n      add\n      0x00\n      keccak256\n        /* \"exercises/twitter.sol\":2051:2053  id */\n      dup6\n        /* \"exercises/twitter.sol\":2036:2054  tweets[author][id] */\n      dup2\n      sload\n      dup2\n      lt\n      tag_75\n      jumpi\n      tag_76\n      tag_77\n      jump\t// in\n    tag_76:\n    tag_75:\n      swap1\n      0x00\n      mstore\n      keccak256(0x00, 0x20)\n      swap1\n      0x05\n      mul\n      add\n        /* \"exercises/twitter.sol\":2036:2060  tweets[author][id].likes */\n      0x04\n      add\n      sload\n        /* \"exercises/twitter.sol\":2036:2062  tweets[author][id].likes>0 */\n      gt\n        /* \"exercises/twitter.sol\":2028:2084  require(tweets[author][id].likes>0,\"Tweet has no likes\") */\n      tag_79\n      jumpi\n      mload(0x40)\n      0x08c379a000000000000000000000000000000000000000000000000000000000\n      dup2\n      mstore\n      0x04\n      add\n      tag_80\n      swap1\n      tag_81\n      jump\t// in\n    tag_80:\n      mload(0x40)\n      dup1\n      swap2\n      sub\n      swap1\n      revert\n    tag_79:\n        /* \"exercises/twitter.sol\":2094:2100  tweets */\n      0x02\n        /* \"exercises/twitter.sol\":2094:2108  tweets[author] */\n      0x00\n        /* \"exercises/twitter.sol\":2101:2107  author */\n      dup5\n        /* \"exercises/twitter.sol\":2094:2108  tweets[author] */\n      0xffffffffffffffffffffffffffffffffffffffff\n      and\n      0xffffffffffffffffffffffffffffffffffffffff\n      and\n      dup2\n      mstore\n      0x20\n      add\n      swap1\n      dup2\n      mstore\n      0x20\n      add\n      0x00\n      keccak256\n        /* \"exercises/twitter.sol\":2109:2111  id */\n      dup5\n        /* \"exercises/twitter.sol\":2094:2112  tweets[author][id] */\n      dup2\n      sload\n      dup2\n      lt\n      tag_82\n      jumpi\n      tag_83\n      tag_77\n      jump\t// in\n    tag_83:\n    tag_82:\n      swap1\n      0x00\n      mstore\n      keccak256(0x00, 0x20)\n      swap1\n      0x05\n      mul\n      add\n        /* \"exercises/twitter.sol\":2094:2118  tweets[author][id].likes */\n      0x04\n      add\n      0x00\n        /* \"exercises/twitter.sol\":2094:2120  tweets[author][id].likes-- */\n      dup2\n      sload\n      dup1\n      swap3\n      swap2\n      swap1\n      tag_85\n      swap1\n      tag_86\n      jump\t// in\n    tag_85:\n      swap2\n      swap1\n      pop\n      sstore\n      pop\n        /* \"exercises/twitter.sol\":2135:2202  unlikedTweetEvent(msg.sender, author, id, tweets[author][id].likes) */\n      0x42ee00178302bd24a171484438e7134c1900ce62a2ea788bc76159780c62d926\n        /* \"exercises/twitter.sol\":2153:2163  msg.sender */\n      caller\n        /* \"exercises/twitter.sol\":2165:2171  author */\n      dup5\n        /* \"exercises/twitter.sol\":2173:2175  id */\n      dup7\n        /* \"exercises/twitter.sol\":2177:2183  tweets */\n      0x02\n        /* \"exercises/twitter.sol\":2177:2191  tweets[author] */\n      0x00\n        /* \"exercises/twitter.sol\":2184:2190  author */\n      dup9\n        /* \"exercises/twitter.sol\":2177:2191  tweets[author] */\n      0xffffffffffffffffffffffffffffffffffffffff\n      and\n      0xffffffffffffffffffffffffffffffffffffffff\n      and\n      dup2\n      mstore\n      0x20\n      add\n      swap1\n      dup2\n      mstore\n      0x20\n      add\n      0x00\n      keccak256\n        /* \"exercises/twitter.sol\":2192:2194  id */\n      dup9\n        /* \"exercises/twitter.sol\":2177:2195  tweets[author][id] */\n      dup2\n      sload\n      dup2\n      lt\n      tag_87\n      jumpi\n      tag_88\n      tag_77\n      jump\t// in\n    tag_88:\n    tag_87:\n      swap1\n      0x00\n      mstore\n      keccak256(0x00, 0x20)\n      swap1\n      0x05\n      mul\n      add\n        /* \"exercises/twitter.sol\":2177:2201  tweets[author][id].likes */\n      0x04\n      add\n      sload\n        /* \"exercises/twitter.sol\":2135:2202  unlikedTweetEvent(msg.sender, author, id, tweets[author][id].likes) */\n      mload(0x40)\n      tag_90\n      swap5\n      swap4\n      swap3\n      swap2\n      swap1\n      tag_91\n      jump\t// in\n    tag_90:\n      mload(0x40)\n      dup1\n      swap2\n      sub\n      swap1\n      log1\n        /* \"exercises/twitter.sol\":1941:2209  function unLikeTweet(uint id,address author) external tweetExists(id,author) {... */\n      pop\n      pop\n      pop\n      pop\n      jump\t// out\n        /* \"exercises/twitter.sol\":247:281  uint public MAX_TWEET_LENGTH = 280 */\n    tag_30:\n      sload(0x01)\n      dup2\n      jump\t// out\n        /* \"exercises/twitter.sol\":912:1393  function createTweet(string memory _tweet) public {... */\n    tag_36:\n        /* \"exercises/twitter.sol\":1005:1021  MAX_TWEET_LENGTH */\n      sload(0x01)\n        /* \"exercises/twitter.sol\":987:993  _tweet */\n      dup2\n        /* \"exercises/twitter.sol\":981:1001  bytes(_tweet).length */\n      mload\n        /* \"exercises/twitter.sol\":981:1021  bytes(_tweet).length <= MAX_TWEET_LENGTH */\n      gt\n      iszero\n        /* \"exercises/twitter.sol\":973:1043  require(bytes(_tweet).length <= MAX_TWEET_LENGTH, \"Tweet is too long\") */\n      tag_93\n      jumpi\n      mload(0x40)\n      0x08c379a000000000000000000000000000000000000000000000000000000000\n      dup2\n      mstore\n      0x04\n      add\n      tag_94\n      swap1\n      tag_95\n      jump\t// in\n    tag_94:\n      mload(0x40)\n      dup1\n      swap2\n      sub\n      swap1\n      revert\n    tag_93:\n        /* \"exercises/twitter.sol\":1054:1075  Tweet memory newTweet */\n      0x00\n        /* \"exercises/twitter.sol\":1078:1261  Tweet({... */\n      mload(0x40)\n      dup1\n      0xa0\n      add\n      0x40\n      mstore\n      dup1\n        /* \"exercises/twitter.sol\":1102:1108  tweets */\n      0x02\n        /* \"exercises/twitter.sol\":1102:1120  tweets[msg.sender] */\n      0x00\n        /* \"exercises/twitter.sol\":1109:1119  msg.sender */\n      caller\n        /* \"exercises/twitter.sol\":1102:1120  tweets[msg.sender] */\n      0xffffffffffffffffffffffffffffffffffffffff\n      and\n      0xffffffffffffffffffffffffffffffffffffffff\n      and\n      dup2\n      mstore\n      0x20\n      add\n      swap1\n      dup2\n      mstore\n      0x20\n      add\n      0x00\n      keccak256\n        /* \"exercises/twitter.sol\":1102:1127  tweets[msg.sender].length */\n      dup1\n      sload\n      swap1\n      pop\n        /* \"exercises/twitter.sol\":1078:1261  Tweet({... */\n      dup2\n      mstore\n      0x20\n      add\n        /* \"exercises/twitter.sol\":1149:1159  msg.sender */\n      caller\n        /* \"exercises/twitter.sol\":1078:1261  Tweet({... */\n      0xffffffffffffffffffffffffffffffffffffffff\n      and\n      dup2\n      mstore\n      0x20\n      add\n        /* \"exercises/twitter.sol\":1182:1188  _tweet */\n      dup4\n        /* \"exercises/twitter.sol\":1078:1261  Tweet({... */\n      dup2\n      mstore\n      0x20\n      add\n        /* \"exercises/twitter.sol\":1213:1228  block.timestamp */\n      timestamp\n        /* \"exercises/twitter.sol\":1078:1261  Tweet({... */\n      dup2\n      mstore\n      0x20\n      add\n        /* \"exercises/twitter.sol\":1249:1250  0 */\n      0x00\n        /* \"exercises/twitter.sol\":1078:1261  Tweet({... */\n      dup2\n      mstore\n      pop\n        /* \"exercises/twitter.sol\":1054:1261  Tweet memory newTweet = Tweet({... */\n      swap1\n      pop\n        /* \"exercises/twitter.sol\":1272:1278  tweets */\n      0x02\n        /* \"exercises/twitter.sol\":1272:1290  tweets[msg.sender] */\n      0x00\n        /* \"exercises/twitter.sol\":1279:1289  msg.sender */\n      caller\n        /* \"exercises/twitter.sol\":1272:1290  tweets[msg.sender] */\n      0xffffffffffffffffffffffffffffffffffffffff\n      and\n      0xffffffffffffffffffffffffffffffffffffffff\n      and\n      dup2\n      mstore\n      0x20\n      add\n      swap1\n      dup2\n      mstore\n      0x20\n      add\n      0x00\n      keccak256\n        /* \"exercises/twitter.sol\":1296:1304  newTweet */\n      dup2\n        /* \"exercises/twitter.sol\":1272:1305  tweets[msg.sender].push(newTweet) */\n      swap1\n      dup1\n      0x01\n      dup2\n      sload\n      add\n      dup1\n      dup3\n      sstore\n      dup1\n      swap2\n      pop\n      pop\n      0x01\n      swap1\n      sub\n      swap1\n      0x00\n      mstore\n      keccak256(0x00, 0x20)\n      swap1\n      0x05\n      mul\n      add\n      0x00\n      swap1\n      swap2\n      swap1\n      swap2\n      swap1\n      swap2\n      pop\n      0x00\n      dup3\n      add\n      mload\n      dup2\n      0x00\n      add\n      sstore\n      0x20\n      dup3\n      add\n      mload\n      dup2\n      0x01\n      add\n      exp(0x0100, 0x00)\n      dup2\n      sload\n      dup2\n      0xffffffffffffffffffffffffffffffffffffffff\n      mul\n      not\n      and\n      swap1\n      dup4\n      0xffffffffffffffffffffffffffffffffffffffff\n      and\n      mul\n      or\n      swap1\n      sstore\n      pop\n      0x40\n      dup3\n      add\n      mload\n      dup2\n      0x02\n      add\n      swap1\n      dup2\n      tag_97\n      swap2\n      swap1\n      tag_98\n      jump\t// in\n    tag_97:\n      pop\n      0x60\n      dup3\n      add\n      mload\n      dup2\n      0x03\n      add\n      sstore\n      0x80\n      dup3\n      add\n      mload\n      dup2\n      0x04\n      add\n      sstore\n      pop\n      pop\n        /* \"exercises/twitter.sol\":1320:1386  createTweetEvent(newTweet.id, msg.sender, _tweet, block.timestamp) */\n      0x8ecbe5a52270eab83ce1dada3c2969eca41c568702b97f104f69709999e19661\n        /* \"exercises/twitter.sol\":1337:1345  newTweet */\n      dup2\n        /* \"exercises/twitter.sol\":1337:1348  newTweet.id */\n      0x00\n      add\n      mload\n        /* \"exercises/twitter.sol\":1350:1360  msg.sender */\n      caller\n        /* \"exercises/twitter.sol\":1362:1368  _tweet */\n      dup5\n        /* \"exercises/twitter.sol\":1370:1385  block.timestamp */\n      timestamp\n        /* \"exercises/twitter.sol\":1320:1386  createTweetEvent(newTweet.id, msg.sender, _tweet, block.timestamp) */\n      mload(0x40)\n      tag_99\n      swap5\n      swap4\n      swap3\n      swap2\n      swap1\n      tag_100\n      jump\t// in\n    tag_99:\n      mload(0x40)\n      dup1\n      swap2\n      sub\n      swap1\n      log1\n        /* \"exercises/twitter.sol\":962:1393  {... */\n      pop\n        /* \"exercises/twitter.sol\":912:1393  function createTweet(string memory _tweet) public {... */\n      pop\n      jump\t// out\n        /* \"exercises/twitter.sol\":1626:1731  function changeTweetLength(uint newLength) public onlyOwner {... */\n    tag_40:\n        /* \"exercises/twitter.sol\":701:706  owner */\n      0x00\n      dup1\n      sload\n      swap1\n      0x0100\n      exp\n      swap1\n      div\n      0xffffffffffffffffffffffffffffffffffffffff\n      and\n        /* \"exercises/twitter.sol\":689:706  msg.sender==owner */\n      0xffffffffffffffffffffffffffffffffffffffff\n      and\n        /* \"exercises/twitter.sol\":689:699  msg.sender */\n      caller\n        /* \"exercises/twitter.sol\":689:706  msg.sender==owner */\n      0xffffffffffffffffffffffffffffffffffffffff\n      and\n      eq\n        /* \"exercises/twitter.sol\":681:754  require(msg.sender==owner,\"You are not owner to change max tweet length\") */\n      tag_102\n      jumpi\n      mload(0x40)\n      0x08c379a000000000000000000000000000000000000000000000000000000000\n      dup2\n      mstore\n      0x04\n      add\n      tag_103\n      swap1\n      tag_104\n      jump\t// in\n    tag_103:\n      mload(0x40)\n      dup1\n      swap2\n      sub\n      swap1\n      revert\n    tag_102:\n        /* \"exercises/twitter.sol\":1715:1724  newLength */\n      dup1\n        /* \"exercises/twitter.sol\":1696:1712  MAX_TWEET_LENGTH */\n      0x01\n        /* \"exercises/twitter.sol\":1696:1724  MAX_TWEET_LENGTH = newLength */\n      dup2\n      swap1\n      sstore\n      pop\n        /* \"exercises/twitter.sol\":1626:1731  function changeTweetLength(uint newLength) public onlyOwner {... */\n      pop\n      jump\t// out\n        /* \"exercises/twitter.sol\":80:100  address public owner */\n    tag_42:\n      0x00\n      dup1\n      sload\n      swap1\n      0x0100\n      exp\n      swap1\n      div\n      0xffffffffffffffffffffffffffffffffffffffff\n      and\n      dup2\n      jump\t// out\n        /* \"exercises/twitter.sol\":1515:1620  function getTweet(uint i) view public returns (Tweet memory){... */\n    tag_47:\n        /* \"exercises/twitter.sol\":1562:1574  Tweet memory */\n      tag_106\n      tag_107\n      jump\t// in\n    tag_106:\n        /* \"exercises/twitter.sol\":1592:1598  tweets */\n      0x02\n        /* \"exercises/twitter.sol\":1592:1610  tweets[msg.sender] */\n      0x00\n        /* \"exercises/twitter.sol\":1599:1609  msg.sender */\n      caller\n        /* \"exercises/twitter.sol\":1592:1610  tweets[msg.sender] */\n      0xffffffffffffffffffffffffffffffffffffffff\n      and\n      0xffffffffffffffffffffffffffffffffffffffff\n      and\n      dup2\n      mstore\n      0x20\n      add\n      swap1\n      dup2\n      mstore\n      0x20\n      add\n      0x00\n      keccak256\n        /* \"exercises/twitter.sol\":1611:1612  i */\n      dup3\n        /* \"exercises/twitter.sol\":1592:1613  tweets[msg.sender][i] */\n      dup2\n      sload\n      dup2\n      lt\n      tag_109\n      jumpi\n      tag_110\n      tag_77\n      jump\t// in\n    tag_110:\n    tag_109:\n      swap1\n      0x00\n      mstore\n      keccak256(0x00, 0x20)\n      swap1\n      0x05\n      mul\n      add\n        /* \"exercises/twitter.sol\":1585:1613  return tweets[msg.sender][i] */\n      mload(0x40)\n      dup1\n      0xa0\n      add\n      0x40\n      mstore\n      swap1\n      dup2\n      0x00\n      dup3\n      add\n      sload\n      dup2\n      mstore\n      0x20\n      add\n      0x01\n      dup3\n      add\n      0x00\n      swap1\n      sload\n      swap1\n      0x0100\n      exp\n      swap1\n      div\n      0xffffffffffffffffffffffffffffffffffffffff\n      and\n      0xffffffffffffffffffffffffffffffffffffffff\n      and\n      0xffffffffffffffffffffffffffffffffffffffff\n      and\n      dup2\n      mstore\n      0x20\n      add\n      0x02\n      dup3\n      add\n      dup1\n      sload\n      tag_112\n      swap1\n      tag_56\n      jump\t// in\n    tag_112:\n      dup1\n      0x1f\n      add\n      0x20\n      dup1\n      swap2\n      div\n      mul\n      0x20\n      add\n      mload(0x40)\n      swap1\n      dup2\n      add\n      0x40\n      mstore\n      dup1\n      swap3\n      swap2\n      swap1\n      dup2\n      dup2\n      mstore\n      0x20\n      add\n      dup3\n      dup1\n      sload\n      tag_113\n      swap1\n      tag_56\n      jump\t// in\n    tag_113:\n      dup1\n      iszero\n      tag_114\n      jumpi\n      dup1\n      0x1f\n      lt\n      tag_115\n      jumpi\n      0x0100\n      dup1\n      dup4\n      sload\n      div\n      mul\n      dup4\n      mstore\n      swap2\n      0x20\n      add\n      swap2\n      jump(tag_114)\n    tag_115:\n      dup3\n      add\n      swap2\n      swap1\n      0x00\n      mstore\n      keccak256(0x00, 0x20)\n      swap1\n    tag_116:\n      dup2\n      sload\n      dup2\n      mstore\n      swap1\n      0x01\n      add\n      swap1\n      0x20\n      add\n      dup1\n      dup4\n      gt\n      tag_116\n      jumpi\n      dup3\n      swap1\n      sub\n      0x1f\n      and\n      dup3\n      add\n      swap2\n    tag_114:\n      pop\n      pop\n      pop\n      pop\n      pop\n      dup2\n      mstore\n      0x20\n      add\n      0x03\n      dup3\n      add\n      sload\n      dup2\n      mstore\n      0x20\n      add\n      0x04\n      dup3\n      add\n      sload\n      dup2\n      mstore\n      pop\n      pop\n      swap1\n      pop\n        /* \"exercises/twitter.sol\":1515:1620  function getTweet(uint i) view public returns (Tweet memory){... */\n      swap2\n      swap1\n      pop\n      jump\t// out\n        /* \"exercises/twitter.sol\":1737:1935  function likeTweet(uint id,address author) external tweetExists(id,author) {... */\n    tag_52:\n        /* \"exercises/twitter.sol\":1801:1803  id */\n      dup2\n        /* \"exercises/twitter.sol\":1804:1810  author */\n      dup2\n        /* \"exercises/twitter.sol\":863:865  id */\n      dup2\n        /* \"exercises/twitter.sol\":841:847  tweets */\n      0x02\n        /* \"exercises/twitter.sol\":841:855  tweets[author] */\n      0x00\n        /* \"exercises/twitter.sol\":848:854  author */\n      dup4\n        /* \"exercises/twitter.sol\":841:855  tweets[author] */\n      0xffffffffffffffffffffffffffffffffffffffff\n      and\n      0xffffffffffffffffffffffffffffffffffffffff\n      and\n      dup2\n      mstore\n      0x20\n      add\n      swap1\n      dup2\n      mstore\n      0x20\n      add\n      0x00\n      keccak256\n        /* \"exercises/twitter.sol\":841:862  tweets[author].length */\n      dup1\n      sload\n      swap1\n      pop\n        /* \"exercises/twitter.sol\":841:865  tweets[author].length>id */\n      gt\n        /* \"exercises/twitter.sol\":833:888  require(tweets[author].length>id,\"Tweet does'nt exist\") */\n      tag_118\n      jumpi\n      mload(0x40)\n      0x08c379a000000000000000000000000000000000000000000000000000000000\n      dup2\n      mstore\n      0x04\n      add\n      tag_119\n      swap1\n      tag_73\n      jump\t// in\n    tag_119:\n      mload(0x40)\n      dup1\n      swap2\n      sub\n      swap1\n      revert\n    tag_118:\n        /* \"exercises/twitter.sol\":1822:1828  tweets */\n      0x02\n        /* \"exercises/twitter.sol\":1822:1836  tweets[author] */\n      0x00\n        /* \"exercises/twitter.sol\":1829:1835  author */\n      dup5\n        /* \"exercises/twitter.sol\":1822:1836  tweets[author] */\n      0xffffffffffffffffffffffffffffffffffffffff\n      and\n      0xffffffffffffffffffffffffffffffffffffffff\n      and\n      dup2\n      mstore\n      0x20\n      add\n      swap1\n      dup2\n      mstore\n      0x20\n      add\n      0x00\n      keccak256\n        /* \"exercises/twitter.sol\":1837:1839  id */\n      dup5\n        /* \"exercises/twitter.sol\":1822:1840  tweets[author][id] */\n      dup2\n      sload\n      dup2\n      lt\n      tag_121\n      jumpi\n      tag_122\n      tag_77\n      jump\t// in\n    tag_122:\n    tag_121:\n      swap1\n      0x00\n      mstore\n      keccak256(0x00, 0x20)\n      swap1\n      0x05\n      mul\n      add\n        /* \"exercises/twitter.sol\":1822:1846  tweets[author][id].likes */\n      0x04\n      add\n      0x00\n        /* \"exercises/twitter.sol\":1822:1848  tweets[author][id].likes++ */\n      dup2\n      sload\n      dup1\n      swap3\n      swap2\n      swap1\n      tag_124\n      swap1\n      tag_125\n      jump\t// in\n    tag_124:\n      swap2\n      swap1\n      pop\n      sstore\n      pop\n        /* \"exercises/twitter.sol\":1863:1928  likedTweetEvent(msg.sender, author, id, tweets[author][id].likes) */\n      0xea2cec6534597c58ab804c4a22c20d33ab9edc08f1b684c328e983b9c787ee27\n        /* \"exercises/twitter.sol\":1879:1889  msg.sender */\n      caller\n        /* \"exercises/twitter.sol\":1891:1897  author */\n      dup5\n        /* \"exercises/twitter.sol\":1899:1901  id */\n      dup7\n        /* \"exercises/twitter.sol\":1903:1909  tweets */\n      0x02\n        /* \"exercises/twitter.sol\":1903:1917  tweets[author] */\n      0x00\n        /* \"exercises/twitter.sol\":1910:1916  author */\n      dup9\n        /* \"exercises/twitter.sol\":1903:1917  tweets[author] */\n      0xffffffffffffffffffffffffffffffffffffffff\n      and\n      0xffffffffffffffffffffffffffffffffffffffff\n      and\n      dup2\n      mstore\n      0x20\n      add\n      swap1\n      dup2\n      mstore\n      0x20\n      add\n      0x00\n      keccak256\n        /* \"exercises/twitter.sol\":1918:1920  id */\n      dup9\n        /* \"exercises/twitter.sol\":1903:1921  tweets[author][id] */\n      dup2\n      sload\n      dup2\n      lt\n      tag_126\n      jumpi\n      tag_127\n      tag_77\n      jump\t// in\n    tag_127:\n    tag_126:\n      swap1\n      0x00\n      mstore\n      keccak256(0x00, 0x20)\n      swap1\n      0x05\n      mul\n      add\n        /* \"exercises/twitter.sol\":1903:1927  tweets[author][id].likes */\n      0x04\n      add\n      sload\n        /* \"exercises/twitter.sol\":1863:1928  likedTweetEvent(msg.sender, author, id, tweets[author][id].likes) */\n      mload(0x40)\n      tag_129\n      swap5\n      swap4\n      swap3\n      swap2\n      swap1\n      tag_91\n      jump\t// in\n    tag_129:\n      mload(0x40)\n      dup1\n      swap2\n      sub\n      swap1\n      log1\n        /* \"exercises/twitter.sol\":1737:1935  function likeTweet(uint id,address author) external tweetExists(id,author) {... */\n      pop\n      pop\n      pop\n      pop\n      jump\t// out\n    tag_107:\n      mload(0x40)\n      dup1\n      0xa0\n      add\n      0x40\n      mstore\n      dup1\n      0x00\n      dup2\n      mstore\n      0x20\n      add\n      and(0xffffffffffffffffffffffffffffffffffffffff, 0x00)\n      dup2\n      mstore\n      0x20\n      add\n      0x60\n      dup2\n      mstore\n      0x20\n      add\n      0x00\n      dup2\n      mstore\n      0x20\n      add\n      0x00\n      dup2\n      mstore\n      pop\n      swap1\n      jump\t// out\n        /* \"#utility.yul\":7:82   */\n    tag_130:\n        /* \"#utility.yul\":40:46   */\n      0x00\n        /* \"#utility.yul\":73:75   */\n      0x40\n        /* \"#utility.yul\":67:76   */\n      mload\n        /* \"#utility.yul\":57:76   */\n      swap1\n      pop\n        /* \"#utility.yul\":7:82   */\n      swap1\n      jump\t// out\n        /* \"#utility.yul\":88:205   */\n    tag_131:\n        /* \"#utility.yul\":197:198   */\n      0x00\n        /* \"#utility.yul\":194:195   */\n      dup1\n        /* \"#utility.yul\":187:199   */\n      revert\n        /* \"#utility.yul\":211:328   */\n    tag_132:\n        /* \"#utility.yul\":320:321   */\n      0x00\n        /* \"#utility.yul\":317:318   */\n      dup1\n        /* \"#utility.yul\":310:322   */\n      revert\n        /* \"#utility.yul\":334:460   */\n    tag_133:\n        /* \"#utility.yul\":371:378   */\n      0x00\n        /* \"#utility.yul\":411:453   */\n      0xffffffffffffffffffffffffffffffffffffffff\n        /* \"#utility.yul\":404:409   */\n      dup3\n        /* \"#utility.yul\":400:454   */\n      and\n        /* \"#utility.yul\":389:454   */\n      swap1\n      pop\n        /* \"#utility.yul\":334:460   */\n      swap2\n      swap1\n      pop\n      jump\t// out\n        /* \"#utility.yul\":466:562   */\n    tag_134:\n        /* \"#utility.yul\":503:510   */\n      0x00\n        /* \"#utility.yul\":532:556   */\n      tag_199\n        /* \"#utility.yul\":550:555   */\n      dup3\n        /* \"#utility.yul\":532:556   */\n      tag_133\n      jump\t// in\n    tag_199:\n        /* \"#utility.yul\":521:556   */\n      swap1\n      pop\n        /* \"#utility.yul\":466:562   */\n      swap2\n      swap1\n      pop\n      jump\t// out\n        /* \"#utility.yul\":568:690   */\n    tag_135:\n        /* \"#utility.yul\":641:665   */\n      tag_201\n        /* \"#utility.yul\":659:664   */\n      dup2\n        /* \"#utility.yul\":641:665   */\n      tag_134\n      jump\t// in\n    tag_201:\n        /* \"#utility.yul\":634:639   */\n      dup2\n        /* \"#utility.yul\":631:666   */\n      eq\n        /* \"#utility.yul\":621:684   */\n      tag_202\n      jumpi\n        /* \"#utility.yul\":680:681   */\n      0x00\n        /* \"#utility.yul\":677:678   */\n      dup1\n        /* \"#utility.yul\":670:682   */\n      revert\n        /* \"#utility.yul\":621:684   */\n    tag_202:\n        /* \"#utility.yul\":568:690   */\n      pop\n      jump\t// out\n        /* \"#utility.yul\":696:835   */\n    tag_136:\n        /* \"#utility.yul\":742:747   */\n      0x00\n        /* \"#utility.yul\":780:786   */\n      dup2\n        /* \"#utility.yul\":767:787   */\n      calldataload\n        /* \"#utility.yul\":758:787   */\n      swap1\n      pop\n        /* \"#utility.yul\":796:829   */\n      tag_204\n        /* \"#utility.yul\":823:828   */\n      dup2\n        /* \"#utility.yul\":796:829   */\n      tag_135\n      jump\t// in\n    tag_204:\n        /* \"#utility.yul\":696:835   */\n      swap3\n      swap2\n      pop\n      pop\n      jump\t// out\n        /* \"#utility.yul\":841:918   */\n    tag_137:\n        /* \"#utility.yul\":878:885   */\n      0x00\n        /* \"#utility.yul\":907:912   */\n      dup2\n        /* \"#utility.yul\":896:912   */\n      swap1\n      pop\n        /* \"#utility.yul\":841:918   */\n      swap2\n      swap1\n      pop\n      jump\t// out\n        /* \"#utility.yul\":924:1046   */\n    tag_138:\n        /* \"#utility.yul\":997:1021   */\n      tag_207\n        /* \"#utility.yul\":1015:1020   */\n      dup2\n        /* \"#utility.yul\":997:1021   */\n      tag_137\n      jump\t// in\n    tag_207:\n        /* \"#utility.yul\":990:995   */\n      dup2\n        /* \"#utility.yul\":987:1022   */\n      eq\n        /* \"#utility.yul\":977:1040   */\n      tag_208\n      jumpi\n        /* \"#utility.yul\":1036:1037   */\n      0x00\n        /* \"#utility.yul\":1033:1034   */\n      dup1\n        /* \"#utility.yul\":1026:1038   */\n      revert\n        /* \"#utility.yul\":977:1040   */\n    tag_208:\n        /* \"#utility.yul\":924:1046   */\n      pop\n      jump\t// out\n        /* \"#utility.yul\":1052:1191   */\n    tag_139:\n        /* \"#utility.yul\":1098:1103   */\n      0x00\n        /* \"#utility.yul\":1136:1142   */\n      dup2\n        /* \"#utility.yul\":1123:1143   */\n      calldataload\n        /* \"#utility.yul\":1114:1143   */\n      swap1\n      pop\n        /* \"#utility.yul\":1152:1185   */\n      tag_210\n        /* \"#utility.yul\":1179:1184   */\n      dup2\n        /* \"#utility.yul\":1152:1185   */\n      tag_138\n      jump\t// in\n    tag_210:\n        /* \"#utility.yul\":1052:1191   */\n      swap3\n      swap2\n      pop\n      pop\n      jump\t// out\n        /* \"#utility.yul\":1197:1671   */\n    tag_15:\n        /* \"#utility.yul\":1265:1271   */\n      0x00\n        /* \"#utility.yul\":1273:1279   */\n      dup1\n        /* \"#utility.yul\":1322:1324   */\n      0x40\n        /* \"#utility.yul\":1310:1319   */\n      dup4\n        /* \"#utility.yul\":1301:1308   */\n      dup6\n        /* \"#utility.yul\":1297:1320   */\n      sub\n        /* \"#utility.yul\":1293:1325   */\n      slt\n        /* \"#utility.yul\":1290:1409   */\n      iszero\n      tag_212\n      jumpi\n        /* \"#utility.yul\":1328:1407   */\n      tag_213\n      tag_131\n      jump\t// in\n    tag_213:\n        /* \"#utility.yul\":1290:1409   */\n    tag_212:\n        /* \"#utility.yul\":1448:1449   */\n      0x00\n        /* \"#utility.yul\":1473:1526   */\n      tag_214\n        /* \"#utility.yul\":1518:1525   */\n      dup6\n        /* \"#utility.yul\":1509:1515   */\n      dup3\n        /* \"#utility.yul\":1498:1507   */\n      dup7\n        /* \"#utility.yul\":1494:1516   */\n      add\n        /* \"#utility.yul\":1473:1526   */\n      tag_136\n      jump\t// in\n    tag_214:\n        /* \"#utility.yul\":1463:1526   */\n      swap3\n      pop\n        /* \"#utility.yul\":1419:1536   */\n      pop\n        /* \"#utility.yul\":1575:1577   */\n      0x20\n        /* \"#utility.yul\":1601:1654   */\n      tag_215\n        /* \"#utility.yul\":1646:1653   */\n      dup6\n        /* \"#utility.yul\":1637:1643   */\n      dup3\n        /* \"#utility.yul\":1626:1635   */\n      dup7\n        /* \"#utility.yul\":1622:1644   */\n      add\n        /* \"#utility.yul\":1601:1654   */\n      tag_139\n      jump\t// in\n    tag_215:\n        /* \"#utility.yul\":1591:1654   */\n      swap2\n      pop\n        /* \"#utility.yul\":1546:1664   */\n      pop\n        /* \"#utility.yul\":1197:1671   */\n      swap3\n      pop\n      swap3\n      swap1\n      pop\n      jump\t// out\n        /* \"#utility.yul\":1677:1795   */\n    tag_140:\n        /* \"#utility.yul\":1764:1788   */\n      tag_217\n        /* \"#utility.yul\":1782:1787   */\n      dup2\n        /* \"#utility.yul\":1764:1788   */\n      tag_137\n      jump\t// in\n    tag_217:\n        /* \"#utility.yul\":1759:1762   */\n      dup3\n        /* \"#utility.yul\":1752:1789   */\n      mstore\n        /* \"#utility.yul\":1677:1795   */\n      pop\n      pop\n      jump\t// out\n        /* \"#utility.yul\":1801:1919   */\n    tag_141:\n        /* \"#utility.yul\":1888:1912   */\n      tag_219\n        /* \"#utility.yul\":1906:1911   */\n      dup2\n        /* \"#utility.yul\":1888:1912   */\n      tag_134\n      jump\t// in\n    tag_219:\n        /* \"#utility.yul\":1883:1886   */\n      dup3\n        /* \"#utility.yul\":1876:1913   */\n      mstore\n        /* \"#utility.yul\":1801:1919   */\n      pop\n      pop\n      jump\t// out\n        /* \"#utility.yul\":1925:2024   */\n    tag_142:\n        /* \"#utility.yul\":1977:1983   */\n      0x00\n        /* \"#utility.yul\":2011:2016   */\n      dup2\n        /* \"#utility.yul\":2005:2017   */\n      mload\n        /* \"#utility.yul\":1995:2017   */\n      swap1\n      pop\n        /* \"#utility.yul\":1925:2024   */\n      swap2\n      swap1\n      pop\n      jump\t// out\n        /* \"#utility.yul\":2030:2199   */\n    tag_143:\n        /* \"#utility.yul\":2114:2125   */\n      0x00\n        /* \"#utility.yul\":2148:2154   */\n      dup3\n        /* \"#utility.yul\":2143:2146   */\n      dup3\n        /* \"#utility.yul\":2136:2155   */\n      mstore\n        /* \"#utility.yul\":2188:2192   */\n      0x20\n        /* \"#utility.yul\":2183:2186   */\n      dup3\n        /* \"#utility.yul\":2179:2193   */\n      add\n        /* \"#utility.yul\":2164:2193   */\n      swap1\n      pop\n        /* \"#utility.yul\":2030:2199   */\n      swap3\n      swap2\n      pop\n      pop\n      jump\t// out\n        /* \"#utility.yul\":2205:2344   */\n    tag_144:\n        /* \"#utility.yul\":2294:2300   */\n      dup3\n        /* \"#utility.yul\":2289:2292   */\n      dup2\n        /* \"#utility.yul\":2284:2287   */\n      dup4\n        /* \"#utility.yul\":2278:2301   */\n      mcopy\n        /* \"#utility.yul\":2335:2336   */\n      0x00\n        /* \"#utility.yul\":2326:2332   */\n      dup4\n        /* \"#utility.yul\":2321:2324   */\n      dup4\n        /* \"#utility.yul\":2317:2333   */\n      add\n        /* \"#utility.yul\":2310:2337   */\n      mstore\n        /* \"#utility.yul\":2205:2344   */\n      pop\n      pop\n      pop\n      jump\t// out\n        /* \"#utility.yul\":2350:2452   */\n    tag_145:\n        /* \"#utility.yul\":2391:2397   */\n      0x00\n        /* \"#utility.yul\":2442:2444   */\n      0x1f\n        /* \"#utility.yul\":2438:2445   */\n      not\n        /* \"#utility.yul\":2433:2435   */\n      0x1f\n        /* \"#utility.yul\":2426:2431   */\n      dup4\n        /* \"#utility.yul\":2422:2436   */\n      add\n        /* \"#utility.yul\":2418:2446   */\n      and\n        /* \"#utility.yul\":2408:2446   */\n      swap1\n      pop\n        /* \"#utility.yul\":2350:2452   */\n      swap2\n      swap1\n      pop\n      jump\t// out\n        /* \"#utility.yul\":2458:2835   */\n    tag_146:\n        /* \"#utility.yul\":2546:2549   */\n      0x00\n        /* \"#utility.yul\":2574:2613   */\n      tag_225\n        /* \"#utility.yul\":2607:2612   */\n      dup3\n        /* \"#utility.yul\":2574:2613   */\n      tag_142\n      jump\t// in\n    tag_225:\n        /* \"#utility.yul\":2629:2700   */\n      tag_226\n        /* \"#utility.yul\":2693:2699   */\n      dup2\n        /* \"#utility.yul\":2688:2691   */\n      dup6\n        /* \"#utility.yul\":2629:2700   */\n      tag_143\n      jump\t// in\n    tag_226:\n        /* \"#utility.yul\":2622:2700   */\n      swap4\n      pop\n        /* \"#utility.yul\":2709:2774   */\n      tag_227\n        /* \"#utility.yul\":2767:2773   */\n      dup2\n        /* \"#utility.yul\":2762:2765   */\n      dup6\n        /* \"#utility.yul\":2755:2759   */\n      0x20\n        /* \"#utility.yul\":2748:2753   */\n      dup7\n        /* \"#utility.yul\":2744:2760   */\n      add\n        /* \"#utility.yul\":2709:2774   */\n      tag_144\n      jump\t// in\n    tag_227:\n        /* \"#utility.yul\":2799:2828   */\n      tag_228\n        /* \"#utility.yul\":2821:2827   */\n      dup2\n        /* \"#utility.yul\":2799:2828   */\n      tag_145\n      jump\t// in\n    tag_228:\n        /* \"#utility.yul\":2794:2797   */\n      dup5\n        /* \"#utility.yul\":2790:2829   */\n      add\n        /* \"#utility.yul\":2783:2829   */\n      swap2\n      pop\n        /* \"#utility.yul\":2550:2835   */\n      pop\n        /* \"#utility.yul\":2458:2835   */\n      swap3\n      swap2\n      pop\n      pop\n      jump\t// out\n        /* \"#utility.yul\":2841:3596   */\n    tag_18:\n        /* \"#utility.yul\":3066:3070   */\n      0x00\n        /* \"#utility.yul\":3104:3107   */\n      0xa0\n        /* \"#utility.yul\":3093:3102   */\n      dup3\n        /* \"#utility.yul\":3089:3108   */\n      add\n        /* \"#utility.yul\":3081:3108   */\n      swap1\n      pop\n        /* \"#utility.yul\":3118:3189   */\n      tag_230\n        /* \"#utility.yul\":3186:3187   */\n      0x00\n        /* \"#utility.yul\":3175:3184   */\n      dup4\n        /* \"#utility.yul\":3171:3188   */\n      add\n        /* \"#utility.yul\":3162:3168   */\n      dup9\n        /* \"#utility.yul\":3118:3189   */\n      tag_140\n      jump\t// in\n    tag_230:\n        /* \"#utility.yul\":3199:3271   */\n      tag_231\n        /* \"#utility.yul\":3267:3269   */\n      0x20\n        /* \"#utility.yul\":3256:3265   */\n      dup4\n        /* \"#utility.yul\":3252:3270   */\n      add\n        /* \"#utility.yul\":3243:3249   */\n      dup8\n        /* \"#utility.yul\":3199:3271   */\n      tag_141\n      jump\t// in\n    tag_231:\n        /* \"#utility.yul\":3318:3327   */\n      dup2\n        /* \"#utility.yul\":3312:3316   */\n      dup2\n        /* \"#utility.yul\":3308:3328   */\n      sub\n        /* \"#utility.yul\":3303:3305   */\n      0x40\n        /* \"#utility.yul\":3292:3301   */\n      dup4\n        /* \"#utility.yul\":3288:3306   */\n      add\n        /* \"#utility.yul\":3281:3329   */\n      mstore\n        /* \"#utility.yul\":3346:3424   */\n      tag_232\n        /* \"#utility.yul\":3419:3423   */\n      dup2\n        /* \"#utility.yul\":3410:3416   */\n      dup7\n        /* \"#utility.yul\":3346:3424   */\n      tag_146\n      jump\t// in\n    tag_232:\n        /* \"#utility.yul\":3338:3424   */\n      swap1\n      pop\n        /* \"#utility.yul\":3434:3506   */\n      tag_233\n        /* \"#utility.yul\":3502:3504   */\n      0x60\n        /* \"#utility.yul\":3491:3500   */\n      dup4\n        /* \"#utility.yul\":3487:3505   */\n      add\n        /* \"#utility.yul\":3478:3484   */\n      dup6\n        /* \"#utility.yul\":3434:3506   */\n      tag_140\n      jump\t// in\n    tag_233:\n        /* \"#utility.yul\":3516:3589   */\n      tag_234\n        /* \"#utility.yul\":3584:3587   */\n      0x80\n        /* \"#utility.yul\":3573:3582   */\n      dup4\n        /* \"#utility.yul\":3569:3588   */\n      add\n        /* \"#utility.yul\":3560:3566   */\n      dup5\n        /* \"#utility.yul\":3516:3589   */\n      tag_140\n      jump\t// in\n    tag_234:\n        /* \"#utility.yul\":2841:3596   */\n      swap7\n      swap6\n      pop\n      pop\n      pop\n      pop\n      pop\n      pop\n      jump\t// out\n        /* \"#utility.yul\":3602:3931   */\n    tag_21:\n        /* \"#utility.yul\":3661:3667   */\n      0x00\n        /* \"#utility.yul\":3710:3712   */\n      0x20\n        /* \"#utility.yul\":3698:3707   */\n      dup3\n        /* \"#utility.yul\":3689:3696   */\n      dup5\n        /* \"#utility.yul\":3685:3708   */\n      sub\n        /* \"#utility.yul\":3681:3713   */\n      slt\n        /* \"#utility.yul\":3678:3797   */\n      iszero\n      tag_236\n      jumpi\n        /* \"#utility.yul\":3716:3795   */\n      tag_237\n      tag_131\n      jump\t// in\n    tag_237:\n        /* \"#utility.yul\":3678:3797   */\n    tag_236:\n        /* \"#utility.yul\":3836:3837   */\n      0x00\n        /* \"#utility.yul\":3861:3914   */\n      tag_238\n        /* \"#utility.yul\":3906:3913   */\n      dup5\n        /* \"#utility.yul\":3897:3903   */\n      dup3\n        /* \"#utility.yul\":3886:3895   */\n      dup6\n        /* \"#utility.yul\":3882:3904   */\n      add\n        /* \"#utility.yul\":3861:3914   */\n      tag_136\n      jump\t// in\n    tag_238:\n        /* \"#utility.yul\":3851:3914   */\n      swap2\n      pop\n        /* \"#utility.yul\":3807:3924   */\n      pop\n        /* \"#utility.yul\":3602:3931   */\n      swap3\n      swap2\n      pop\n      pop\n      jump\t// out\n        /* \"#utility.yul\":3937:4072   */\n    tag_147:\n        /* \"#utility.yul\":4025:4031   */\n      0x00\n        /* \"#utility.yul\":4059:4064   */\n      dup2\n        /* \"#utility.yul\":4053:4065   */\n      mload\n        /* \"#utility.yul\":4043:4065   */\n      swap1\n      pop\n        /* \"#utility.yul\":3937:4072   */\n      swap2\n      swap1\n      pop\n      jump\t// out\n        /* \"#utility.yul\":4078:4283   */\n    tag_148:\n        /* \"#utility.yul\":4198:4209   */\n      0x00\n        /* \"#utility.yul\":4232:4238   */\n      dup3\n        /* \"#utility.yul\":4227:4230   */\n      dup3\n        /* \"#utility.yul\":4220:4239   */\n      mstore\n        /* \"#utility.yul\":4272:4276   */\n      0x20\n        /* \"#utility.yul\":4267:4270   */\n      dup3\n        /* \"#utility.yul\":4263:4277   */\n      add\n        /* \"#utility.yul\":4248:4277   */\n      swap1\n      pop\n        /* \"#utility.yul\":4078:4283   */\n      swap3\n      swap2\n      pop\n      pop\n      jump\t// out\n        /* \"#utility.yul\":4289:4442   */\n    tag_149:\n        /* \"#utility.yul\":4377:4381   */\n      0x00\n        /* \"#utility.yul\":4400:4403   */\n      dup2\n        /* \"#utility.yul\":4392:4403   */\n      swap1\n      pop\n        /* \"#utility.yul\":4430:4434   */\n      0x20\n        /* \"#utility.yul\":4425:4428   */\n      dup3\n        /* \"#utility.yul\":4421:4435   */\n      add\n        /* \"#utility.yul\":4413:4435   */\n      swap1\n      pop\n        /* \"#utility.yul\":4289:4442   */\n      swap2\n      swap1\n      pop\n      jump\t// out\n        /* \"#utility.yul\":4448:4556   */\n    tag_150:\n        /* \"#utility.yul\":4525:4549   */\n      tag_243\n        /* \"#utility.yul\":4543:4548   */\n      dup2\n        /* \"#utility.yul\":4525:4549   */\n      tag_137\n      jump\t// in\n    tag_243:\n        /* \"#utility.yul\":4520:4523   */\n      dup3\n        /* \"#utility.yul\":4513:4550   */\n      mstore\n        /* \"#utility.yul\":4448:4556   */\n      pop\n      pop\n      jump\t// out\n        /* \"#utility.yul\":4562:4670   */\n    tag_151:\n        /* \"#utility.yul\":4639:4663   */\n      tag_245\n        /* \"#utility.yul\":4657:4662   */\n      dup2\n        /* \"#utility.yul\":4639:4663   */\n      tag_134\n      jump\t// in\n    tag_245:\n        /* \"#utility.yul\":4634:4637   */\n      dup3\n        /* \"#utility.yul\":4627:4664   */\n      mstore\n        /* \"#utility.yul\":4562:4670   */\n      pop\n      pop\n      jump\t// out\n        /* \"#utility.yul\":4676:4835   */\n    tag_152:\n        /* \"#utility.yul\":4750:4761   */\n      0x00\n        /* \"#utility.yul\":4784:4790   */\n      dup3\n        /* \"#utility.yul\":4779:4782   */\n      dup3\n        /* \"#utility.yul\":4772:4791   */\n      mstore\n        /* \"#utility.yul\":4824:4828   */\n      0x20\n        /* \"#utility.yul\":4819:4822   */\n      dup3\n        /* \"#utility.yul\":4815:4829   */\n      add\n        /* \"#utility.yul\":4800:4829   */\n      swap1\n      pop\n        /* \"#utility.yul\":4676:4835   */\n      swap3\n      swap2\n      pop\n      pop\n      jump\t// out\n        /* \"#utility.yul\":4841:5198   */\n    tag_153:\n        /* \"#utility.yul\":4919:4922   */\n      0x00\n        /* \"#utility.yul\":4947:4986   */\n      tag_248\n        /* \"#utility.yul\":4980:4985   */\n      dup3\n        /* \"#utility.yul\":4947:4986   */\n      tag_142\n      jump\t// in\n    tag_248:\n        /* \"#utility.yul\":5002:5063   */\n      tag_249\n        /* \"#utility.yul\":5056:5062   */\n      dup2\n        /* \"#utility.yul\":5051:5054   */\n      dup6\n        /* \"#utility.yul\":5002:5063   */\n      tag_152\n      jump\t// in\n    tag_249:\n        /* \"#utility.yul\":4995:5063   */\n      swap4\n      pop\n        /* \"#utility.yul\":5072:5137   */\n      tag_250\n        /* \"#utility.yul\":5130:5136   */\n      dup2\n        /* \"#utility.yul\":5125:5128   */\n      dup6\n        /* \"#utility.yul\":5118:5122   */\n      0x20\n        /* \"#utility.yul\":5111:5116   */\n      dup7\n        /* \"#utility.yul\":5107:5123   */\n      add\n        /* \"#utility.yul\":5072:5137   */\n      tag_144\n      jump\t// in\n    tag_250:\n        /* \"#utility.yul\":5162:5191   */\n      tag_251\n        /* \"#utility.yul\":5184:5190   */\n      dup2\n        /* \"#utility.yul\":5162:5191   */\n      tag_145\n      jump\t// in\n    tag_251:\n        /* \"#utility.yul\":5157:5160   */\n      dup5\n        /* \"#utility.yul\":5153:5192   */\n      add\n        /* \"#utility.yul\":5146:5192   */\n      swap2\n      pop\n        /* \"#utility.yul\":4923:5198   */\n      pop\n        /* \"#utility.yul\":4841:5198   */\n      swap3\n      swap2\n      pop\n      pop\n      jump\t// out\n        /* \"#utility.yul\":5256:6375   */\n    tag_154:\n        /* \"#utility.yul\":5357:5360   */\n      0x00\n        /* \"#utility.yul\":5393:5397   */\n      0xa0\n        /* \"#utility.yul\":5388:5391   */\n      dup4\n        /* \"#utility.yul\":5384:5398   */\n      add\n        /* \"#utility.yul\":5478:5482   */\n      0x00\n        /* \"#utility.yul\":5471:5476   */\n      dup4\n        /* \"#utility.yul\":5467:5483   */\n      add\n        /* \"#utility.yul\":5461:5484   */\n      mload\n        /* \"#utility.yul\":5497:5560   */\n      tag_253\n        /* \"#utility.yul\":5554:5558   */\n      0x00\n        /* \"#utility.yul\":5549:5552   */\n      dup7\n        /* \"#utility.yul\":5545:5559   */\n      add\n        /* \"#utility.yul\":5531:5543   */\n      dup3\n        /* \"#utility.yul\":5497:5560   */\n      tag_150\n      jump\t// in\n    tag_253:\n        /* \"#utility.yul\":5408:5570   */\n      pop\n        /* \"#utility.yul\":5654:5658   */\n      0x20\n        /* \"#utility.yul\":5647:5652   */\n      dup4\n        /* \"#utility.yul\":5643:5659   */\n      add\n        /* \"#utility.yul\":5637:5660   */\n      mload\n        /* \"#utility.yul\":5673:5736   */\n      tag_254\n        /* \"#utility.yul\":5730:5734   */\n      0x20\n        /* \"#utility.yul\":5725:5728   */\n      dup7\n        /* \"#utility.yul\":5721:5735   */\n      add\n        /* \"#utility.yul\":5707:5719   */\n      dup3\n        /* \"#utility.yul\":5673:5736   */\n      tag_151\n      jump\t// in\n    tag_254:\n        /* \"#utility.yul\":5580:5746   */\n      pop\n        /* \"#utility.yul\":5831:5835   */\n      0x40\n        /* \"#utility.yul\":5824:5829   */\n      dup4\n        /* \"#utility.yul\":5820:5836   */\n      add\n        /* \"#utility.yul\":5814:5837   */\n      mload\n        /* \"#utility.yul\":5884:5887   */\n      dup5\n        /* \"#utility.yul\":5878:5882   */\n      dup3\n        /* \"#utility.yul\":5874:5888   */\n      sub\n        /* \"#utility.yul\":5867:5871   */\n      0x40\n        /* \"#utility.yul\":5862:5865   */\n      dup7\n        /* \"#utility.yul\":5858:5872   */\n      add\n        /* \"#utility.yul\":5851:5889   */\n      mstore\n        /* \"#utility.yul\":5910:5983   */\n      tag_255\n        /* \"#utility.yul\":5978:5982   */\n      dup3\n        /* \"#utility.yul\":5964:5976   */\n      dup3\n        /* \"#utility.yul\":5910:5983   */\n      tag_153\n      jump\t// in\n    tag_255:\n        /* \"#utility.yul\":5902:5983   */\n      swap2\n      pop\n        /* \"#utility.yul\":5756:5994   */\n      pop\n        /* \"#utility.yul\":6081:6085   */\n      0x60\n        /* \"#utility.yul\":6074:6079   */\n      dup4\n        /* \"#utility.yul\":6070:6086   */\n      add\n        /* \"#utility.yul\":6064:6087   */\n      mload\n        /* \"#utility.yul\":6100:6163   */\n      tag_256\n        /* \"#utility.yul\":6157:6161   */\n      0x60\n        /* \"#utility.yul\":6152:6155   */\n      dup7\n        /* \"#utility.yul\":6148:6162   */\n      add\n        /* \"#utility.yul\":6134:6146   */\n      dup3\n        /* \"#utility.yul\":6100:6163   */\n      tag_150\n      jump\t// in\n    tag_256:\n        /* \"#utility.yul\":6004:6173   */\n      pop\n        /* \"#utility.yul\":6256:6260   */\n      0x80\n        /* \"#utility.yul\":6249:6254   */\n      dup4\n        /* \"#utility.yul\":6245:6261   */\n      add\n        /* \"#utility.yul\":6239:6262   */\n      mload\n        /* \"#utility.yul\":6275:6338   */\n      tag_257\n        /* \"#utility.yul\":6332:6336   */\n      0x80\n        /* \"#utility.yul\":6327:6330   */\n      dup7\n        /* \"#utility.yul\":6323:6337   */\n      add\n        /* \"#utility.yul\":6309:6321   */\n      dup3\n        /* \"#utility.yul\":6275:6338   */\n      tag_150\n      jump\t// in\n    tag_257:\n        /* \"#utility.yul\":6183:6348   */\n      pop\n        /* \"#utility.yul\":6365:6369   */\n      dup1\n        /* \"#utility.yul\":6358:6369   */\n      swap2\n      pop\n        /* \"#utility.yul\":5362:6375   */\n      pop\n        /* \"#utility.yul\":5256:6375   */\n      swap3\n      swap2\n      pop\n      pop\n      jump\t// out\n        /* \"#utility.yul\":6381:6621   */\n    tag_155:\n        /* \"#utility.yul\":6492:6502   */\n      0x00\n        /* \"#utility.yul\":6527:6615   */\n      tag_259\n        /* \"#utility.yul\":6611:6614   */\n      dup4\n        /* \"#utility.yul\":6603:6609   */\n      dup4\n        /* \"#utility.yul\":6527:6615   */\n      tag_154\n      jump\t// in\n    tag_259:\n        /* \"#utility.yul\":6513:6615   */\n      swap1\n      pop\n        /* \"#utility.yul\":6381:6621   */\n      swap3\n      swap2\n      pop\n      pop\n      jump\t// out\n        /* \"#utility.yul\":6627:6761   */\n    tag_156:\n        /* \"#utility.yul\":6718:6722   */\n      0x00\n        /* \"#utility.yul\":6750:6754   */\n      0x20\n        /* \"#utility.yul\":6745:6748   */\n      dup3\n        /* \"#utility.yul\":6741:6755   */\n      add\n        /* \"#utility.yul\":6733:6755   */\n      swap1\n      pop\n        /* \"#utility.yul\":6627:6761   */\n      swap2\n      swap1\n      pop\n      jump\t// out\n        /* \"#utility.yul\":6823:7902   */\n    tag_157:\n        /* \"#utility.yul\":6984:6987   */\n      0x00\n        /* \"#utility.yul\":7013:7088   */\n      tag_262\n        /* \"#utility.yul\":7082:7087   */\n      dup3\n        /* \"#utility.yul\":7013:7088   */\n      tag_147\n      jump\t// in\n    tag_262:\n        /* \"#utility.yul\":7104:7211   */\n      tag_263\n        /* \"#utility.yul\":7204:7210   */\n      dup2\n        /* \"#utility.yul\":7199:7202   */\n      dup6\n        /* \"#utility.yul\":7104:7211   */\n      tag_148\n      jump\t// in\n    tag_263:\n        /* \"#utility.yul\":7097:7211   */\n      swap4\n      pop\n        /* \"#utility.yul\":7237:7240   */\n      dup4\n        /* \"#utility.yul\":7282:7286   */\n      0x20\n        /* \"#utility.yul\":7274:7280   */\n      dup3\n        /* \"#utility.yul\":7270:7287   */\n      mul\n        /* \"#utility.yul\":7265:7268   */\n      dup6\n        /* \"#utility.yul\":7261:7288   */\n      add\n        /* \"#utility.yul\":7312:7389   */\n      tag_264\n        /* \"#utility.yul\":7383:7388   */\n      dup6\n        /* \"#utility.yul\":7312:7389   */\n      tag_149\n      jump\t// in\n    tag_264:\n        /* \"#utility.yul\":7412:7419   */\n      dup1\n        /* \"#utility.yul\":7443:7444   */\n      0x00\n        /* \"#utility.yul\":7428:7857   */\n    tag_265:\n        /* \"#utility.yul\":7453:7459   */\n      dup6\n        /* \"#utility.yul\":7450:7451   */\n      dup2\n        /* \"#utility.yul\":7447:7460   */\n      lt\n        /* \"#utility.yul\":7428:7857   */\n      iszero\n      tag_267\n      jumpi\n        /* \"#utility.yul\":7524:7533   */\n      dup5\n        /* \"#utility.yul\":7518:7522   */\n      dup5\n        /* \"#utility.yul\":7514:7534   */\n      sub\n        /* \"#utility.yul\":7509:7512   */\n      dup10\n        /* \"#utility.yul\":7502:7535   */\n      mstore\n        /* \"#utility.yul\":7575:7581   */\n      dup2\n        /* \"#utility.yul\":7569:7582   */\n      mload\n        /* \"#utility.yul\":7603:7709   */\n      tag_268\n        /* \"#utility.yul\":7704:7708   */\n      dup6\n        /* \"#utility.yul\":7689:7702   */\n      dup3\n        /* \"#utility.yul\":7603:7709   */\n      tag_155\n      jump\t// in\n    tag_268:\n        /* \"#utility.yul\":7595:7709   */\n      swap5\n      pop\n        /* \"#utility.yul\":7732:7813   */\n      tag_269\n        /* \"#utility.yul\":7806:7812   */\n      dup4\n        /* \"#utility.yul\":7732:7813   */\n      tag_156\n      jump\t// in\n    tag_269:\n        /* \"#utility.yul\":7722:7813   */\n      swap3\n      pop\n        /* \"#utility.yul\":7842:7846   */\n      0x20\n        /* \"#utility.yul\":7837:7840   */\n      dup11\n        /* \"#utility.yul\":7833:7847   */\n      add\n        /* \"#utility.yul\":7826:7847   */\n      swap10\n      pop\n        /* \"#utility.yul\":7488:7857   */\n      pop\n        /* \"#utility.yul\":7475:7476   */\n      0x01\n        /* \"#utility.yul\":7472:7473   */\n      dup2\n        /* \"#utility.yul\":7468:7477   */\n      add\n        /* \"#utility.yul\":7463:7477   */\n      swap1\n      pop\n        /* \"#utility.yul\":7428:7857   */\n      jump(tag_265)\n    tag_267:\n        /* \"#utility.yul\":7432:7446   */\n      pop\n        /* \"#utility.yul\":7873:7877   */\n      dup3\n        /* \"#utility.yul\":7866:7877   */\n      swap8\n      pop\n        /* \"#utility.yul\":7893:7896   */\n      dup8\n        /* \"#utility.yul\":7886:7896   */\n      swap6\n      pop\n        /* \"#utility.yul\":6989:7902   */\n      pop\n      pop\n      pop\n      pop\n      pop\n        /* \"#utility.yul\":6823:7902   */\n      swap3\n      swap2\n      pop\n      pop\n      jump\t// out\n        /* \"#utility.yul\":7908:8365   */\n    tag_24:\n        /* \"#utility.yul\":8093:8097   */\n      0x00\n        /* \"#utility.yul\":8131:8133   */\n      0x20\n        /* \"#utility.yul\":8120:8129   */\n      dup3\n        /* \"#utility.yul\":8116:8134   */\n      add\n        /* \"#utility.yul\":8108:8134   */\n      swap1\n      pop\n        /* \"#utility.yul\":8180:8189   */\n      dup2\n        /* \"#utility.yul\":8174:8178   */\n      dup2\n        /* \"#utility.yul\":8170:8190   */\n      sub\n        /* \"#utility.yul\":8166:8167   */\n      0x00\n        /* \"#utility.yul\":8155:8164   */\n      dup4\n        /* \"#utility.yul\":8151:8168   */\n      add\n        /* \"#utility.yul\":8144:8191   */\n      mstore\n        /* \"#utility.yul\":8208:8358   */\n      tag_271\n        /* \"#utility.yul\":8353:8357   */\n      dup2\n        /* \"#utility.yul\":8344:8350   */\n      dup5\n        /* \"#utility.yul\":8208:8358   */\n      tag_157\n      jump\t// in\n    tag_271:\n        /* \"#utility.yul\":8200:8358   */\n      swap1\n      pop\n        /* \"#utility.yul\":7908:8365   */\n      swap3\n      swap2\n      pop\n      pop\n      jump\t// out\n        /* \"#utility.yul\":8371:8845   */\n    tag_27:\n        /* \"#utility.yul\":8439:8445   */\n      0x00\n        /* \"#utility.yul\":8447:8453   */\n      dup1\n        /* \"#utility.yul\":8496:8498   */\n      0x40\n        /* \"#utility.yul\":8484:8493   */\n      dup4\n        /* \"#utility.yul\":8475:8482   */\n      dup6\n        /* \"#utility.yul\":8471:8494   */\n      sub\n        /* \"#utility.yul\":8467:8499   */\n      slt\n        /* \"#utility.yul\":8464:8583   */\n      iszero\n      tag_273\n      jumpi\n        /* \"#utility.yul\":8502:8581   */\n      tag_274\n      tag_131\n      jump\t// in\n    tag_274:\n        /* \"#utility.yul\":8464:8583   */\n    tag_273:\n        /* \"#utility.yul\":8622:8623   */\n      0x00\n        /* \"#utility.yul\":8647:8700   */\n      tag_275\n        /* \"#utility.yul\":8692:8699   */\n      dup6\n        /* \"#utility.yul\":8683:8689   */\n      dup3\n        /* \"#utility.yul\":8672:8681   */\n      dup7\n        /* \"#utility.yul\":8668:8690   */\n      add\n        /* \"#utility.yul\":8647:8700   */\n      tag_139\n      jump\t// in\n    tag_275:\n        /* \"#utility.yul\":8637:8700   */\n      swap3\n      pop\n        /* \"#utility.yul\":8593:8710   */\n      pop\n        /* \"#utility.yul\":8749:8751   */\n      0x20\n        /* \"#utility.yul\":8775:8828   */\n      tag_276\n        /* \"#utility.yul\":8820:8827   */\n      dup6\n        /* \"#utility.yul\":8811:8817   */\n      dup3\n        /* \"#utility.yul\":8800:8809   */\n      dup7\n        /* \"#utility.yul\":8796:8818   */\n      add\n        /* \"#utility.yul\":8775:8828   */\n      tag_136\n      jump\t// in\n    tag_276:\n        /* \"#utility.yul\":8765:8828   */\n      swap2\n      pop\n        /* \"#utility.yul\":8720:8838   */\n      pop\n        /* \"#utility.yul\":8371:8845   */\n      swap3\n      pop\n      swap3\n      swap1\n      pop\n      jump\t// out\n        /* \"#utility.yul\":8851:9073   */\n    tag_32:\n        /* \"#utility.yul\":8944:8948   */\n      0x00\n        /* \"#utility.yul\":8982:8984   */\n      0x20\n        /* \"#utility.yul\":8971:8980   */\n      dup3\n        /* \"#utility.yul\":8967:8985   */\n      add\n        /* \"#utility.yul\":8959:8985   */\n      swap1\n      pop\n        /* \"#utility.yul\":8995:9066   */\n      tag_278\n        /* \"#utility.yul\":9063:9064   */\n      0x00\n        /* \"#utility.yul\":9052:9061   */\n      dup4\n        /* \"#utility.yul\":9048:9065   */\n      add\n        /* \"#utility.yul\":9039:9045   */\n      dup5\n        /* \"#utility.yul\":8995:9066   */\n      tag_140\n      jump\t// in\n    tag_278:\n        /* \"#utility.yul\":8851:9073   */\n      swap3\n      swap2\n      pop\n      pop\n      jump\t// out\n        /* \"#utility.yul\":9079:9196   */\n    tag_158:\n        /* \"#utility.yul\":9188:9189   */\n      0x00\n        /* \"#utility.yul\":9185:9186   */\n      dup1\n        /* \"#utility.yul\":9178:9190   */\n      revert\n        /* \"#utility.yul\":9202:9319   */\n    tag_159:\n        /* \"#utility.yul\":9311:9312   */\n      0x00\n        /* \"#utility.yul\":9308:9309   */\n      dup1\n        /* \"#utility.yul\":9301:9313   */\n      revert\n        /* \"#utility.yul\":9325:9505   */\n    tag_160:\n        /* \"#utility.yul\":9373:9450   */\n      0x4e487b7100000000000000000000000000000000000000000000000000000000\n        /* \"#utility.yul\":9370:9371   */\n      0x00\n        /* \"#utility.yul\":9363:9451   */\n      mstore\n        /* \"#utility.yul\":9470:9474   */\n      0x41\n        /* \"#utility.yul\":9467:9468   */\n      0x04\n        /* \"#utility.yul\":9460:9475   */\n      mstore\n        /* \"#utility.yul\":9494:9498   */\n      0x24\n        /* \"#utility.yul\":9491:9492   */\n      0x00\n        /* \"#utility.yul\":9484:9499   */\n      revert\n        /* \"#utility.yul\":9511:9792   */\n    tag_161:\n        /* \"#utility.yul\":9594:9621   */\n      tag_283\n        /* \"#utility.yul\":9616:9620   */\n      dup3\n        /* \"#utility.yul\":9594:9621   */\n      tag_145\n      jump\t// in\n    tag_283:\n        /* \"#utility.yul\":9586:9592   */\n      dup2\n        /* \"#utility.yul\":9582:9622   */\n      add\n        /* \"#utility.yul\":9724:9730   */\n      dup2\n        /* \"#utility.yul\":9712:9722   */\n      dup2\n        /* \"#utility.yul\":9709:9731   */\n      lt\n        /* \"#utility.yul\":9688:9706   */\n      0xffffffffffffffff\n        /* \"#utility.yul\":9676:9686   */\n      dup3\n        /* \"#utility.yul\":9673:9707   */\n      gt\n        /* \"#utility.yul\":9670:9732   */\n      or\n        /* \"#utility.yul\":9667:9755   */\n      iszero\n      tag_284\n      jumpi\n        /* \"#utility.yul\":9735:9753   */\n      tag_285\n      tag_160\n      jump\t// in\n    tag_285:\n        /* \"#utility.yul\":9667:9755   */\n    tag_284:\n        /* \"#utility.yul\":9775:9785   */\n      dup1\n        /* \"#utility.yul\":9771:9773   */\n      0x40\n        /* \"#utility.yul\":9764:9786   */\n      mstore\n        /* \"#utility.yul\":9554:9792   */\n      pop\n        /* \"#utility.yul\":9511:9792   */\n      pop\n      pop\n      jump\t// out\n        /* \"#utility.yul\":9798:9927   */\n    tag_162:\n        /* \"#utility.yul\":9832:9838   */\n      0x00\n        /* \"#utility.yul\":9859:9879   */\n      tag_287\n      tag_130\n      jump\t// in\n    tag_287:\n        /* \"#utility.yul\":9849:9879   */\n      swap1\n      pop\n        /* \"#utility.yul\":9888:9921   */\n      tag_288\n        /* \"#utility.yul\":9916:9920   */\n      dup3\n        /* \"#utility.yul\":9908:9914   */\n      dup3\n        /* \"#utility.yul\":9888:9921   */\n      tag_161\n      jump\t// in\n    tag_288:\n        /* \"#utility.yul\":9798:9927   */\n      swap2\n      swap1\n      pop\n      jump\t// out\n        /* \"#utility.yul\":9933:10241   */\n    tag_163:\n        /* \"#utility.yul\":9995:9999   */\n      0x00\n        /* \"#utility.yul\":10085:10103   */\n      0xffffffffffffffff\n        /* \"#utility.yul\":10077:10083   */\n      dup3\n        /* \"#utility.yul\":10074:10104   */\n      gt\n        /* \"#utility.yul\":10071:10127   */\n      iszero\n      tag_290\n      jumpi\n        /* \"#utility.yul\":10107:10125   */\n      tag_291\n      tag_160\n      jump\t// in\n    tag_291:\n        /* \"#utility.yul\":10071:10127   */\n    tag_290:\n        /* \"#utility.yul\":10145:10174   */\n      tag_292\n        /* \"#utility.yul\":10167:10173   */\n      dup3\n        /* \"#utility.yul\":10145:10174   */\n      tag_145\n      jump\t// in\n    tag_292:\n        /* \"#utility.yul\":10137:10174   */\n      swap1\n      pop\n        /* \"#utility.yul\":10229:10233   */\n      0x20\n        /* \"#utility.yul\":10223:10227   */\n      dup2\n        /* \"#utility.yul\":10219:10234   */\n      add\n        /* \"#utility.yul\":10211:10234   */\n      swap1\n      pop\n        /* \"#utility.yul\":9933:10241   */\n      swap2\n      swap1\n      pop\n      jump\t// out\n        /* \"#utility.yul\":10247:10395   */\n    tag_164:\n        /* \"#utility.yul\":10345:10351   */\n      dup3\n        /* \"#utility.yul\":10340:10343   */\n      dup2\n        /* \"#utility.yul\":10335:10338   */\n      dup4\n        /* \"#utility.yul\":10322:10352   */\n      calldatacopy\n        /* \"#utility.yul\":10386:10387   */\n      0x00\n        /* \"#utility.yul\":10377:10383   */\n      dup4\n        /* \"#utility.yul\":10372:10375   */\n      dup4\n        /* \"#utility.yul\":10368:10384   */\n      add\n        /* \"#utility.yul\":10361:10388   */\n      mstore\n        /* \"#utility.yul\":10247:10395   */\n      pop\n      pop\n      pop\n      jump\t// out\n        /* \"#utility.yul\":10401:10826   */\n    tag_165:\n        /* \"#utility.yul\":10479:10484   */\n      0x00\n        /* \"#utility.yul\":10504:10570   */\n      tag_295\n        /* \"#utility.yul\":10520:10569   */\n      tag_296\n        /* \"#utility.yul\":10562:10568   */\n      dup5\n        /* \"#utility.yul\":10520:10569   */\n      tag_163\n      jump\t// in\n    tag_296:\n        /* \"#utility.yul\":10504:10570   */\n      tag_162\n      jump\t// in\n    tag_295:\n        /* \"#utility.yul\":10495:10570   */\n      swap1\n      pop\n        /* \"#utility.yul\":10593:10599   */\n      dup3\n        /* \"#utility.yul\":10586:10591   */\n      dup2\n        /* \"#utility.yul\":10579:10600   */\n      mstore\n        /* \"#utility.yul\":10631:10635   */\n      0x20\n        /* \"#utility.yul\":10624:10629   */\n      dup2\n        /* \"#utility.yul\":10620:10636   */\n      add\n        /* \"#utility.yul\":10669:10672   */\n      dup5\n        /* \"#utility.yul\":10660:10666   */\n      dup5\n        /* \"#utility.yul\":10655:10658   */\n      dup5\n        /* \"#utility.yul\":10651:10667   */\n      add\n        /* \"#utility.yul\":10648:10673   */\n      gt\n        /* \"#utility.yul\":10645:10757   */\n      iszero\n      tag_297\n      jumpi\n        /* \"#utility.yul\":10676:10755   */\n      tag_298\n      tag_159\n      jump\t// in\n    tag_298:\n        /* \"#utility.yul\":10645:10757   */\n    tag_297:\n        /* \"#utility.yul\":10766:10820   */\n      tag_299\n        /* \"#utility.yul\":10813:10819   */\n      dup5\n        /* \"#utility.yul\":10808:10811   */\n      dup3\n        /* \"#utility.yul\":10803:10806   */\n      dup6\n        /* \"#utility.yul\":10766:10820   */\n      tag_164\n      jump\t// in\n    tag_299:\n        /* \"#utility.yul\":10485:10826   */\n      pop\n        /* \"#utility.yul\":10401:10826   */\n      swap4\n      swap3\n      pop\n      pop\n      pop\n      jump\t// out\n        /* \"#utility.yul\":10846:11186   */\n    tag_166:\n        /* \"#utility.yul\":10902:10907   */\n      0x00\n        /* \"#utility.yul\":10951:10954   */\n      dup3\n        /* \"#utility.yul\":10944:10948   */\n      0x1f\n        /* \"#utility.yul\":10936:10942   */\n      dup4\n        /* \"#utility.yul\":10932:10949   */\n      add\n        /* \"#utility.yul\":10928:10955   */\n      slt\n        /* \"#utility.yul\":10918:11040   */\n      tag_301\n      jumpi\n        /* \"#utility.yul\":10959:11038   */\n      tag_302\n      tag_158\n      jump\t// in\n    tag_302:\n        /* \"#utility.yul\":10918:11040   */\n    tag_301:\n        /* \"#utility.yul\":11076:11082   */\n      dup2\n        /* \"#utility.yul\":11063:11083   */\n      calldataload\n        /* \"#utility.yul\":11101:11180   */\n      tag_303\n        /* \"#utility.yul\":11176:11179   */\n      dup5\n        /* \"#utility.yul\":11168:11174   */\n      dup3\n        /* \"#utility.yul\":11161:11165   */\n      0x20\n        /* \"#utility.yul\":11153:11159   */\n      dup7\n        /* \"#utility.yul\":11149:11166   */\n      add\n        /* \"#utility.yul\":11101:11180   */\n      tag_165\n      jump\t// in\n    tag_303:\n        /* \"#utility.yul\":11092:11180   */\n      swap2\n      pop\n        /* \"#utility.yul\":10908:11186   */\n      pop\n        /* \"#utility.yul\":10846:11186   */\n      swap3\n      swap2\n      pop\n      pop\n      jump\t// out\n        /* \"#utility.yul\":11192:11701   */\n    tag_35:\n        /* \"#utility.yul\":11261:11267   */\n      0x00\n        /* \"#utility.yul\":11310:11312   */\n      0x20\n        /* \"#utility.yul\":11298:11307   */\n      dup3\n        /* \"#utility.yul\":11289:11296   */\n      dup5\n        /* \"#utility.yul\":11285:11308   */\n      sub\n        /* \"#utility.yul\":11281:11313   */\n      slt\n        /* \"#utility.yul\":11278:11397   */\n      iszero\n      tag_305\n      jumpi\n        /* \"#utility.yul\":11316:11395   */\n      tag_306\n      tag_131\n      jump\t// in\n    tag_306:\n        /* \"#utility.yul\":11278:11397   */\n    tag_305:\n        /* \"#utility.yul\":11464:11465   */\n      0x00\n        /* \"#utility.yul\":11453:11462   */\n      dup3\n        /* \"#utility.yul\":11449:11466   */\n      add\n        /* \"#utility.yul\":11436:11467   */\n      calldataload\n        /* \"#utility.yul\":11494:11512   */\n      0xffffffffffffffff\n        /* \"#utility.yul\":11486:11492   */\n      dup2\n        /* \"#utility.yul\":11483:11513   */\n      gt\n        /* \"#utility.yul\":11480:11597   */\n      iszero\n      tag_307\n      jumpi\n        /* \"#utility.yul\":11516:11595   */\n      tag_308\n      tag_132\n      jump\t// in\n    tag_308:\n        /* \"#utility.yul\":11480:11597   */\n    tag_307:\n        /* \"#utility.yul\":11621:11684   */\n      tag_309\n        /* \"#utility.yul\":11676:11683   */\n      dup5\n        /* \"#utility.yul\":11667:11673   */\n      dup3\n        /* \"#utility.yul\":11656:11665   */\n      dup6\n        /* \"#utility.yul\":11652:11674   */\n      add\n        /* \"#utility.yul\":11621:11684   */\n      tag_166\n      jump\t// in\n    tag_309:\n        /* \"#utility.yul\":11611:11684   */\n      swap2\n      pop\n        /* \"#utility.yul\":11407:11694   */\n      pop\n        /* \"#utility.yul\":11192:11701   */\n      swap3\n      swap2\n      pop\n      pop\n      jump\t// out\n        /* \"#utility.yul\":11707:12036   */\n    tag_39:\n        /* \"#utility.yul\":11766:11772   */\n      0x00\n        /* \"#utility.yul\":11815:11817   */\n      0x20\n        /* \"#utility.yul\":11803:11812   */\n      dup3\n        /* \"#utility.yul\":11794:11801   */\n      dup5\n        /* \"#utility.yul\":11790:11813   */\n      sub\n        /* \"#utility.yul\":11786:11818   */\n      slt\n        /* \"#utility.yul\":11783:11902   */\n      iszero\n      tag_311\n      jumpi\n        /* \"#utility.yul\":11821:11900   */\n      tag_312\n      tag_131\n      jump\t// in\n    tag_312:\n        /* \"#utility.yul\":11783:11902   */\n    tag_311:\n        /* \"#utility.yul\":11941:11942   */\n      0x00\n        /* \"#utility.yul\":11966:12019   */\n      tag_313\n        /* \"#utility.yul\":12011:12018   */\n      dup5\n        /* \"#utility.yul\":12002:12008   */\n      dup3\n        /* \"#utility.yul\":11991:12000   */\n      dup6\n        /* \"#utility.yul\":11987:12009   */\n      add\n        /* \"#utility.yul\":11966:12019   */\n      tag_139\n      jump\t// in\n    tag_313:\n        /* \"#utility.yul\":11956:12019   */\n      swap2\n      pop\n        /* \"#utility.yul\":11912:12029   */\n      pop\n        /* \"#utility.yul\":11707:12036   */\n      swap3\n      swap2\n      pop\n      pop\n      jump\t// out\n        /* \"#utility.yul\":12042:12264   */\n    tag_44:\n        /* \"#utility.yul\":12135:12139   */\n      0x00\n        /* \"#utility.yul\":12173:12175   */\n      0x20\n        /* \"#utility.yul\":12162:12171   */\n      dup3\n        /* \"#utility.yul\":12158:12176   */\n      add\n        /* \"#utility.yul\":12150:12176   */\n      swap1\n      pop\n        /* \"#utility.yul\":12186:12257   */\n      tag_315\n        /* \"#utility.yul\":12254:12255   */\n      0x00\n        /* \"#utility.yul\":12243:12252   */\n      dup4\n        /* \"#utility.yul\":12239:12256   */\n      add\n        /* \"#utility.yul\":12230:12236   */\n      dup5\n        /* \"#utility.yul\":12186:12257   */\n      tag_141\n      jump\t// in\n    tag_315:\n        /* \"#utility.yul\":12042:12264   */\n      swap3\n      swap2\n      pop\n      pop\n      jump\t// out\n        /* \"#utility.yul\":12322:13451   */\n    tag_167:\n        /* \"#utility.yul\":12433:12436   */\n      0x00\n        /* \"#utility.yul\":12469:12473   */\n      0xa0\n        /* \"#utility.yul\":12464:12467   */\n      dup4\n        /* \"#utility.yul\":12460:12474   */\n      add\n        /* \"#utility.yul\":12554:12558   */\n      0x00\n        /* \"#utility.yul\":12547:12552   */\n      dup4\n        /* \"#utility.yul\":12543:12559   */\n      add\n        /* \"#utility.yul\":12537:12560   */\n      mload\n        /* \"#utility.yul\":12573:12636   */\n      tag_317\n        /* \"#utility.yul\":12630:12634   */\n      0x00\n        /* \"#utility.yul\":12625:12628   */\n      dup7\n        /* \"#utility.yul\":12621:12635   */\n      add\n        /* \"#utility.yul\":12607:12619   */\n      dup3\n        /* \"#utility.yul\":12573:12636   */\n      tag_150\n      jump\t// in\n    tag_317:\n        /* \"#utility.yul\":12484:12646   */\n      pop\n        /* \"#utility.yul\":12730:12734   */\n      0x20\n        /* \"#utility.yul\":12723:12728   */\n      dup4\n        /* \"#utility.yul\":12719:12735   */\n      add\n        /* \"#utility.yul\":12713:12736   */\n      mload\n        /* \"#utility.yul\":12749:12812   */\n      tag_318\n        /* \"#utility.yul\":12806:12810   */\n      0x20\n        /* \"#utility.yul\":12801:12804   */\n      dup7\n        /* \"#utility.yul\":12797:12811   */\n      add\n        /* \"#utility.yul\":12783:12795   */\n      dup3\n        /* \"#utility.yul\":12749:12812   */\n      tag_151\n      jump\t// in\n    tag_318:\n        /* \"#utility.yul\":12656:12822   */\n      pop\n        /* \"#utility.yul\":12907:12911   */\n      0x40\n        /* \"#utility.yul\":12900:12905   */\n      dup4\n        /* \"#utility.yul\":12896:12912   */\n      add\n        /* \"#utility.yul\":12890:12913   */\n      mload\n        /* \"#utility.yul\":12960:12963   */\n      dup5\n        /* \"#utility.yul\":12954:12958   */\n      dup3\n        /* \"#utility.yul\":12950:12964   */\n      sub\n        /* \"#utility.yul\":12943:12947   */\n      0x40\n        /* \"#utility.yul\":12938:12941   */\n      dup7\n        /* \"#utility.yul\":12934:12948   */\n      add\n        /* \"#utility.yul\":12927:12965   */\n      mstore\n        /* \"#utility.yul\":12986:13059   */\n      tag_319\n        /* \"#utility.yul\":13054:13058   */\n      dup3\n        /* \"#utility.yul\":13040:13052   */\n      dup3\n        /* \"#utility.yul\":12986:13059   */\n      tag_153\n      jump\t// in\n    tag_319:\n        /* \"#utility.yul\":12978:13059   */\n      swap2\n      pop\n        /* \"#utility.yul\":12832:13070   */\n      pop\n        /* \"#utility.yul\":13157:13161   */\n      0x60\n        /* \"#utility.yul\":13150:13155   */\n      dup4\n        /* \"#utility.yul\":13146:13162   */\n      add\n        /* \"#utility.yul\":13140:13163   */\n      mload\n        /* \"#utility.yul\":13176:13239   */\n      tag_320\n        /* \"#utility.yul\":13233:13237   */\n      0x60\n        /* \"#utility.yul\":13228:13231   */\n      dup7\n        /* \"#utility.yul\":13224:13238   */\n      add\n        /* \"#utility.yul\":13210:13222   */\n      dup3\n        /* \"#utility.yul\":13176:13239   */\n      tag_150\n      jump\t// in\n    tag_320:\n        /* \"#utility.yul\":13080:13249   */\n      pop\n        /* \"#utility.yul\":13332:13336   */\n      0x80\n        /* \"#utility.yul\":13325:13330   */\n      dup4\n        /* \"#utility.yul\":13321:13337   */\n      add\n        /* \"#utility.yul\":13315:13338   */\n      mload\n        /* \"#utility.yul\":13351:13414   */\n      tag_321\n        /* \"#utility.yul\":13408:13412   */\n      0x80\n        /* \"#utility.yul\":13403:13406   */\n      dup7\n        /* \"#utility.yul\":13399:13413   */\n      add\n        /* \"#utility.yul\":13385:13397   */\n      dup3\n        /* \"#utility.yul\":13351:13414   */\n      tag_150\n      jump\t// in\n    tag_321:\n        /* \"#utility.yul\":13259:13424   */\n      pop\n        /* \"#utility.yul\":13441:13445   */\n      dup1\n        /* \"#utility.yul\":13434:13445   */\n      swap2\n      pop\n        /* \"#utility.yul\":12438:13451   */\n      pop\n        /* \"#utility.yul\":12322:13451   */\n      swap3\n      swap2\n      pop\n      pop\n      jump\t// out\n        /* \"#utility.yul\":13457:13814   */\n    tag_49:\n        /* \"#utility.yul\":13592:13596   */\n      0x00\n        /* \"#utility.yul\":13630:13632   */\n      0x20\n        /* \"#utility.yul\":13619:13628   */\n      dup3\n        /* \"#utility.yul\":13615:13633   */\n      add\n        /* \"#utility.yul\":13607:13633   */\n      swap1\n      pop\n        /* \"#utility.yul\":13679:13688   */\n      dup2\n        /* \"#utility.yul\":13673:13677   */\n      dup2\n        /* \"#utility.yul\":13669:13689   */\n      sub\n        /* \"#utility.yul\":13665:13666   */\n      0x00\n        /* \"#utility.yul\":13654:13663   */\n      dup4\n        /* \"#utility.yul\":13650:13667   */\n      add\n        /* \"#utility.yul\":13643:13690   */\n      mstore\n        /* \"#utility.yul\":13707:13807   */\n      tag_323\n        /* \"#utility.yul\":13802:13806   */\n      dup2\n        /* \"#utility.yul\":13793:13799   */\n      dup5\n        /* \"#utility.yul\":13707:13807   */\n      tag_167\n      jump\t// in\n    tag_323:\n        /* \"#utility.yul\":13699:13807   */\n      swap1\n      pop\n        /* \"#utility.yul\":13457:13814   */\n      swap3\n      swap2\n      pop\n      pop\n      jump\t// out\n        /* \"#utility.yul\":13820:14000   */\n    tag_168:\n        /* \"#utility.yul\":13868:13945   */\n      0x4e487b7100000000000000000000000000000000000000000000000000000000\n        /* \"#utility.yul\":13865:13866   */\n      0x00\n        /* \"#utility.yul\":13858:13946   */\n      mstore\n        /* \"#utility.yul\":13965:13969   */\n      0x22\n        /* \"#utility.yul\":13962:13963   */\n      0x04\n        /* \"#utility.yul\":13955:13970   */\n      mstore\n        /* \"#utility.yul\":13989:13993   */\n      0x24\n        /* \"#utility.yul\":13986:13987   */\n      0x00\n        /* \"#utility.yul\":13979:13994   */\n      revert\n        /* \"#utility.yul\":14006:14326   */\n    tag_56:\n        /* \"#utility.yul\":14050:14056   */\n      0x00\n        /* \"#utility.yul\":14087:14088   */\n      0x02\n        /* \"#utility.yul\":14081:14085   */\n      dup3\n        /* \"#utility.yul\":14077:14089   */\n      div\n        /* \"#utility.yul\":14067:14089   */\n      swap1\n      pop\n        /* \"#utility.yul\":14134:14135   */\n      0x01\n        /* \"#utility.yul\":14128:14132   */\n      dup3\n        /* \"#utility.yul\":14124:14136   */\n      and\n        /* \"#utility.yul\":14155:14173   */\n      dup1\n        /* \"#utility.yul\":14145:14226   */\n      tag_326\n      jumpi\n        /* \"#utility.yul\":14211:14215   */\n      0x7f\n        /* \"#utility.yul\":14203:14209   */\n      dup3\n        /* \"#utility.yul\":14199:14216   */\n      and\n        /* \"#utility.yul\":14189:14216   */\n      swap2\n      pop\n        /* \"#utility.yul\":14145:14226   */\n    tag_326:\n        /* \"#utility.yul\":14273:14275   */\n      0x20\n        /* \"#utility.yul\":14265:14271   */\n      dup3\n        /* \"#utility.yul\":14262:14276   */\n      lt\n        /* \"#utility.yul\":14242:14260   */\n      dup2\n        /* \"#utility.yul\":14239:14277   */\n      sub\n        /* \"#utility.yul\":14236:14320   */\n      tag_327\n      jumpi\n        /* \"#utility.yul\":14292:14310   */\n      tag_328\n      tag_168\n      jump\t// in\n    tag_328:\n        /* \"#utility.yul\":14236:14320   */\n    tag_327:\n        /* \"#utility.yul\":14057:14326   */\n      pop\n        /* \"#utility.yul\":14006:14326   */\n      swap2\n      swap1\n      pop\n      jump\t// out\n        /* \"#utility.yul\":14332:14501   */\n    tag_169:\n        /* \"#utility.yul\":14472:14493   */\n      0x547765657420646f6573276e7420657869737400000000000000000000000000\n        /* \"#utility.yul\":14468:14469   */\n      0x00\n        /* \"#utility.yul\":14460:14466   */\n      dup3\n        /* \"#utility.yul\":14456:14470   */\n      add\n        /* \"#utility.yul\":14449:14494   */\n      mstore\n        /* \"#utility.yul\":14332:14501   */\n      pop\n      jump\t// out\n        /* \"#utility.yul\":14507:14873   */\n    tag_170:\n        /* \"#utility.yul\":14649:14652   */\n      0x00\n        /* \"#utility.yul\":14670:14737   */\n      tag_331\n        /* \"#utility.yul\":14734:14736   */\n      0x13\n        /* \"#utility.yul\":14729:14732   */\n      dup4\n        /* \"#utility.yul\":14670:14737   */\n      tag_143\n      jump\t// in\n    tag_331:\n        /* \"#utility.yul\":14663:14737   */\n      swap2\n      pop\n        /* \"#utility.yul\":14746:14839   */\n      tag_332\n        /* \"#utility.yul\":14835:14838   */\n      dup3\n        /* \"#utility.yul\":14746:14839   */\n      tag_169\n      jump\t// in\n    tag_332:\n        /* \"#utility.yul\":14864:14866   */\n      0x20\n        /* \"#utility.yul\":14859:14862   */\n      dup3\n        /* \"#utility.yul\":14855:14867   */\n      add\n        /* \"#utility.yul\":14848:14867   */\n      swap1\n      pop\n        /* \"#utility.yul\":14507:14873   */\n      swap2\n      swap1\n      pop\n      jump\t// out\n        /* \"#utility.yul\":14879:15298   */\n    tag_73:\n        /* \"#utility.yul\":15045:15049   */\n      0x00\n        /* \"#utility.yul\":15083:15085   */\n      0x20\n        /* \"#utility.yul\":15072:15081   */\n      dup3\n        /* \"#utility.yul\":15068:15086   */\n      add\n        /* \"#utility.yul\":15060:15086   */\n      swap1\n      pop\n        /* \"#utility.yul\":15132:15141   */\n      dup2\n        /* \"#utility.yul\":15126:15130   */\n      dup2\n        /* \"#utility.yul\":15122:15142   */\n      sub\n        /* \"#utility.yul\":15118:15119   */\n      0x00\n        /* \"#utility.yul\":15107:15116   */\n      dup4\n        /* \"#utility.yul\":15103:15120   */\n      add\n        /* \"#utility.yul\":15096:15143   */\n      mstore\n        /* \"#utility.yul\":15160:15291   */\n      tag_334\n        /* \"#utility.yul\":15286:15290   */\n      dup2\n        /* \"#utility.yul\":15160:15291   */\n      tag_170\n      jump\t// in\n    tag_334:\n        /* \"#utility.yul\":15152:15291   */\n      swap1\n      pop\n        /* \"#utility.yul\":14879:15298   */\n      swap2\n      swap1\n      pop\n      jump\t// out\n        /* \"#utility.yul\":15304:15484   */\n    tag_77:\n        /* \"#utility.yul\":15352:15429   */\n      0x4e487b7100000000000000000000000000000000000000000000000000000000\n        /* \"#utility.yul\":15349:15350   */\n      0x00\n        /* \"#utility.yul\":15342:15430   */\n      mstore\n        /* \"#utility.yul\":15449:15453   */\n      0x32\n        /* \"#utility.yul\":15446:15447   */\n      0x04\n        /* \"#utility.yul\":15439:15454   */\n      mstore\n        /* \"#utility.yul\":15473:15477   */\n      0x24\n        /* \"#utility.yul\":15470:15471   */\n      0x00\n        /* \"#utility.yul\":15463:15478   */\n      revert\n        /* \"#utility.yul\":15490:15658   */\n    tag_171:\n        /* \"#utility.yul\":15630:15650   */\n      0x547765657420686173206e6f206c696b65730000000000000000000000000000\n        /* \"#utility.yul\":15626:15627   */\n      0x00\n        /* \"#utility.yul\":15618:15624   */\n      dup3\n        /* \"#utility.yul\":15614:15628   */\n      add\n        /* \"#utility.yul\":15607:15651   */\n      mstore\n        /* \"#utility.yul\":15490:15658   */\n      pop\n      jump\t// out\n        /* \"#utility.yul\":15664:16030   */\n    tag_172:\n        /* \"#utility.yul\":15806:15809   */\n      0x00\n        /* \"#utility.yul\":15827:15894   */\n      tag_338\n        /* \"#utility.yul\":15891:15893   */\n      0x12\n        /* \"#utility.yul\":15886:15889   */\n      dup4\n        /* \"#utility.yul\":15827:15894   */\n      tag_143\n      jump\t// in\n    tag_338:\n        /* \"#utility.yul\":15820:15894   */\n      swap2\n      pop\n        /* \"#utility.yul\":15903:15996   */\n      tag_339\n        /* \"#utility.yul\":15992:15995   */\n      dup3\n        /* \"#utility.yul\":15903:15996   */\n      tag_171\n      jump\t// in\n    tag_339:\n        /* \"#utility.yul\":16021:16023   */\n      0x20\n        /* \"#utility.yul\":16016:16019   */\n      dup3\n        /* \"#utility.yul\":16012:16024   */\n      add\n        /* \"#utility.yul\":16005:16024   */\n      swap1\n      pop\n        /* \"#utility.yul\":15664:16030   */\n      swap2\n      swap1\n      pop\n      jump\t// out\n        /* \"#utility.yul\":16036:16455   */\n    tag_81:\n        /* \"#utility.yul\":16202:16206   */\n      0x00\n        /* \"#utility.yul\":16240:16242   */\n      0x20\n        /* \"#utility.yul\":16229:16238   */\n      dup3\n        /* \"#utility.yul\":16225:16243   */\n      add\n        /* \"#utility.yul\":16217:16243   */\n      swap1\n      pop\n        /* \"#utility.yul\":16289:16298   */\n      dup2\n        /* \"#utility.yul\":16283:16287   */\n      dup2\n        /* \"#utility.yul\":16279:16299   */\n      sub\n        /* \"#utility.yul\":16275:16276   */\n      0x00\n        /* \"#utility.yul\":16264:16273   */\n      dup4\n        /* \"#utility.yul\":16260:16277   */\n      add\n        /* \"#utility.yul\":16253:16300   */\n      mstore\n        /* \"#utility.yul\":16317:16448   */\n      tag_341\n        /* \"#utility.yul\":16443:16447   */\n      dup2\n        /* \"#utility.yul\":16317:16448   */\n      tag_172\n      jump\t// in\n    tag_341:\n        /* \"#utility.yul\":16309:16448   */\n      swap1\n      pop\n        /* \"#utility.yul\":16036:16455   */\n      swap2\n      swap1\n      pop\n      jump\t// out\n        /* \"#utility.yul\":16461:16641   */\n    tag_173:\n        /* \"#utility.yul\":16509:16586   */\n      0x4e487b7100000000000000000000000000000000000000000000000000000000\n        /* \"#utility.yul\":16506:16507   */\n      0x00\n        /* \"#utility.yul\":16499:16587   */\n      mstore\n        /* \"#utility.yul\":16606:16610   */\n      0x11\n        /* \"#utility.yul\":16603:16604   */\n      0x04\n        /* \"#utility.yul\":16596:16611   */\n      mstore\n        /* \"#utility.yul\":16630:16634   */\n      0x24\n        /* \"#utility.yul\":16627:16628   */\n      0x00\n        /* \"#utility.yul\":16620:16635   */\n      revert\n        /* \"#utility.yul\":16647:16818   */\n    tag_86:\n        /* \"#utility.yul\":16686:16689   */\n      0x00\n        /* \"#utility.yul\":16709:16733   */\n      tag_344\n        /* \"#utility.yul\":16727:16732   */\n      dup3\n        /* \"#utility.yul\":16709:16733   */\n      tag_137\n      jump\t// in\n    tag_344:\n        /* \"#utility.yul\":16700:16733   */\n      swap2\n      pop\n        /* \"#utility.yul\":16755:16759   */\n      0x00\n        /* \"#utility.yul\":16748:16753   */\n      dup3\n        /* \"#utility.yul\":16745:16760   */\n      sub\n        /* \"#utility.yul\":16742:16783   */\n      tag_345\n      jumpi\n        /* \"#utility.yul\":16763:16781   */\n      tag_346\n      tag_173\n      jump\t// in\n    tag_346:\n        /* \"#utility.yul\":16742:16783   */\n    tag_345:\n        /* \"#utility.yul\":16810:16811   */\n      0x01\n        /* \"#utility.yul\":16803:16808   */\n      dup3\n        /* \"#utility.yul\":16799:16812   */\n      sub\n        /* \"#utility.yul\":16792:16812   */\n      swap1\n      pop\n        /* \"#utility.yul\":16647:16818   */\n      swap2\n      swap1\n      pop\n      jump\t// out\n        /* \"#utility.yul\":16824:17377   */\n    tag_91:\n        /* \"#utility.yul\":17001:17005   */\n      0x00\n        /* \"#utility.yul\":17039:17042   */\n      0x80\n        /* \"#utility.yul\":17028:17037   */\n      dup3\n        /* \"#utility.yul\":17024:17043   */\n      add\n        /* \"#utility.yul\":17016:17043   */\n      swap1\n      pop\n        /* \"#utility.yul\":17053:17124   */\n      tag_348\n        /* \"#utility.yul\":17121:17122   */\n      0x00\n        /* \"#utility.yul\":17110:17119   */\n      dup4\n        /* \"#utility.yul\":17106:17123   */\n      add\n        /* \"#utility.yul\":17097:17103   */\n      dup8\n        /* \"#utility.yul\":17053:17124   */\n      tag_141\n      jump\t// in\n    tag_348:\n        /* \"#utility.yul\":17134:17206   */\n      tag_349\n        /* \"#utility.yul\":17202:17204   */\n      0x20\n        /* \"#utility.yul\":17191:17200   */\n      dup4\n        /* \"#utility.yul\":17187:17205   */\n      add\n        /* \"#utility.yul\":17178:17184   */\n      dup7\n        /* \"#utility.yul\":17134:17206   */\n      tag_141\n      jump\t// in\n    tag_349:\n        /* \"#utility.yul\":17216:17288   */\n      tag_350\n        /* \"#utility.yul\":17284:17286   */\n      0x40\n        /* \"#utility.yul\":17273:17282   */\n      dup4\n        /* \"#utility.yul\":17269:17287   */\n      add\n        /* \"#utility.yul\":17260:17266   */\n      dup6\n        /* \"#utility.yul\":17216:17288   */\n      tag_140\n      jump\t// in\n    tag_350:\n        /* \"#utility.yul\":17298:17370   */\n      tag_351\n        /* \"#utility.yul\":17366:17368   */\n      0x60\n        /* \"#utility.yul\":17355:17364   */\n      dup4\n        /* \"#utility.yul\":17351:17369   */\n      add\n        /* \"#utility.yul\":17342:17348   */\n      dup5\n        /* \"#utility.yul\":17298:17370   */\n      tag_140\n      jump\t// in\n    tag_351:\n        /* \"#utility.yul\":16824:17377   */\n      swap6\n      swap5\n      pop\n      pop\n      pop\n      pop\n      pop\n      jump\t// out\n        /* \"#utility.yul\":17383:17550   */\n    tag_174:\n        /* \"#utility.yul\":17523:17542   */\n      0x547765657420697320746f6f206c6f6e67000000000000000000000000000000\n        /* \"#utility.yul\":17519:17520   */\n      0x00\n        /* \"#utility.yul\":17511:17517   */\n      dup3\n        /* \"#utility.yul\":17507:17521   */\n      add\n        /* \"#utility.yul\":17500:17543   */\n      mstore\n        /* \"#utility.yul\":17383:17550   */\n      pop\n      jump\t// out\n        /* \"#utility.yul\":17556:17922   */\n    tag_175:\n        /* \"#utility.yul\":17698:17701   */\n      0x00\n        /* \"#utility.yul\":17719:17786   */\n      tag_354\n        /* \"#utility.yul\":17783:17785   */\n      0x11\n        /* \"#utility.yul\":17778:17781   */\n      dup4\n        /* \"#utility.yul\":17719:17786   */\n      tag_143\n      jump\t// in\n    tag_354:\n        /* \"#utility.yul\":17712:17786   */\n      swap2\n      pop\n        /* \"#utility.yul\":17795:17888   */\n      tag_355\n        /* \"#utility.yul\":17884:17887   */\n      dup3\n        /* \"#utility.yul\":17795:17888   */\n      tag_174\n      jump\t// in\n    tag_355:\n        /* \"#utility.yul\":17913:17915   */\n      0x20\n        /* \"#utility.yul\":17908:17911   */\n      dup3\n        /* \"#utility.yul\":17904:17916   */\n      add\n        /* \"#utility.yul\":17897:17916   */\n      swap1\n      pop\n        /* \"#utility.yul\":17556:17922   */\n      swap2\n      swap1\n      pop\n      jump\t// out\n        /* \"#utility.yul\":17928:18347   */\n    tag_95:\n        /* \"#utility.yul\":18094:18098   */\n      0x00\n        /* \"#utility.yul\":18132:18134   */\n      0x20\n        /* \"#utility.yul\":18121:18130   */\n      dup3\n        /* \"#utility.yul\":18117:18135   */\n      add\n        /* \"#utility.yul\":18109:18135   */\n      swap1\n      pop\n        /* \"#utility.yul\":18181:18190   */\n      dup2\n        /* \"#utility.yul\":18175:18179   */\n      dup2\n        /* \"#utility.yul\":18171:18191   */\n      sub\n        /* \"#utility.yul\":18167:18168   */\n      0x00\n        /* \"#utility.yul\":18156:18165   */\n      dup4\n        /* \"#utility.yul\":18152:18169   */\n      add\n        /* \"#utility.yul\":18145:18192   */\n      mstore\n        /* \"#utility.yul\":18209:18340   */\n      tag_357\n        /* \"#utility.yul\":18335:18339   */\n      dup2\n        /* \"#utility.yul\":18209:18340   */\n      tag_175\n      jump\t// in\n    tag_357:\n        /* \"#utility.yul\":18201:18340   */\n      swap1\n      pop\n        /* \"#utility.yul\":17928:18347   */\n      swap2\n      swap1\n      pop\n      jump\t// out\n        /* \"#utility.yul\":18353:18494   */\n    tag_176:\n        /* \"#utility.yul\":18402:18406   */\n      0x00\n        /* \"#utility.yul\":18425:18428   */\n      dup2\n        /* \"#utility.yul\":18417:18428   */\n      swap1\n      pop\n        /* \"#utility.yul\":18448:18451   */\n      dup2\n        /* \"#utility.yul\":18445:18446   */\n      0x00\n        /* \"#utility.yul\":18438:18452   */\n      mstore\n        /* \"#utility.yul\":18482:18486   */\n      0x20\n        /* \"#utility.yul\":18479:18480   */\n      0x00\n        /* \"#utility.yul\":18469:18487   */\n      keccak256\n        /* \"#utility.yul\":18461:18487   */\n      swap1\n      pop\n        /* \"#utility.yul\":18353:18494   */\n      swap2\n      swap1\n      pop\n      jump\t// out\n        /* \"#utility.yul\":18500:18593   */\n    tag_177:\n        /* \"#utility.yul\":18537:18543   */\n      0x00\n        /* \"#utility.yul\":18584:18586   */\n      0x20\n        /* \"#utility.yul\":18579:18581   */\n      0x1f\n        /* \"#utility.yul\":18572:18577   */\n      dup4\n        /* \"#utility.yul\":18568:18582   */\n      add\n        /* \"#utility.yul\":18564:18587   */\n      div\n        /* \"#utility.yul\":18554:18587   */\n      swap1\n      pop\n        /* \"#utility.yul\":18500:18593   */\n      swap2\n      swap1\n      pop\n      jump\t// out\n        /* \"#utility.yul\":18599:18706   */\n    tag_178:\n        /* \"#utility.yul\":18643:18651   */\n      0x00\n        /* \"#utility.yul\":18693:18698   */\n      dup3\n        /* \"#utility.yul\":18687:18691   */\n      dup3\n        /* \"#utility.yul\":18683:18699   */\n      shl\n        /* \"#utility.yul\":18662:18699   */\n      swap1\n      pop\n        /* \"#utility.yul\":18599:18706   */\n      swap3\n      swap2\n      pop\n      pop\n      jump\t// out\n        /* \"#utility.yul\":18712:19105   */\n    tag_179:\n        /* \"#utility.yul\":18781:18787   */\n      0x00\n        /* \"#utility.yul\":18831:18832   */\n      0x08\n        /* \"#utility.yul\":18819:18829   */\n      dup4\n        /* \"#utility.yul\":18815:18833   */\n      mul\n        /* \"#utility.yul\":18854:18951   */\n      tag_362\n        /* \"#utility.yul\":18884:18950   */\n      0xffffffffffffffffffffffffffffffffffffffffffffffffffffffffffffffff\n        /* \"#utility.yul\":18873:18882   */\n      dup3\n        /* \"#utility.yul\":18854:18951   */\n      tag_178\n      jump\t// in\n    tag_362:\n        /* \"#utility.yul\":18972:19011   */\n      tag_363\n        /* \"#utility.yul\":19002:19010   */\n      dup7\n        /* \"#utility.yul\":18991:19000   */\n      dup4\n        /* \"#utility.yul\":18972:19011   */\n      tag_178\n      jump\t// in\n    tag_363:\n        /* \"#utility.yul\":18960:19011   */\n      swap6\n      pop\n        /* \"#utility.yul\":19044:19048   */\n      dup1\n        /* \"#utility.yul\":19040:19049   */\n      not\n        /* \"#utility.yul\":19033:19038   */\n      dup5\n        /* \"#utility.yul\":19029:19050   */\n      and\n        /* \"#utility.yul\":19020:19050   */\n      swap4\n      pop\n        /* \"#utility.yul\":19093:19097   */\n      dup1\n        /* \"#utility.yul\":19083:19091   */\n      dup7\n        /* \"#utility.yul\":19079:19098   */\n      and\n        /* \"#utility.yul\":19072:19077   */\n      dup5\n        /* \"#utility.yul\":19069:19099   */\n      or\n        /* \"#utility.yul\":19059:19099   */\n      swap3\n      pop\n        /* \"#utility.yul\":18788:19105   */\n      pop\n      pop\n        /* \"#utility.yul\":18712:19105   */\n      swap4\n      swap3\n      pop\n      pop\n      pop\n      jump\t// out\n        /* \"#utility.yul\":19111:19171   */\n    tag_180:\n        /* \"#utility.yul\":19139:19142   */\n      0x00\n        /* \"#utility.yul\":19160:19165   */\n      dup2\n        /* \"#utility.yul\":19153:19165   */\n      swap1\n      pop\n        /* \"#utility.yul\":19111:19171   */\n      swap2\n      swap1\n      pop\n      jump\t// out\n        /* \"#utility.yul\":19177:19319   */\n    tag_181:\n        /* \"#utility.yul\":19227:19236   */\n      0x00\n        /* \"#utility.yul\":19260:19313   */\n      tag_366\n        /* \"#utility.yul\":19278:19312   */\n      tag_367\n        /* \"#utility.yul\":19287:19311   */\n      tag_368\n        /* \"#utility.yul\":19305:19310   */\n      dup5\n        /* \"#utility.yul\":19287:19311   */\n      tag_137\n      jump\t// in\n    tag_368:\n        /* \"#utility.yul\":19278:19312   */\n      tag_180\n      jump\t// in\n    tag_367:\n        /* \"#utility.yul\":19260:19313   */\n      tag_137\n      jump\t// in\n    tag_366:\n        /* \"#utility.yul\":19247:19313   */\n      swap1\n      pop\n        /* \"#utility.yul\":19177:19319   */\n      swap2\n      swap1\n      pop\n      jump\t// out\n        /* \"#utility.yul\":19325:19400   */\n    tag_182:\n        /* \"#utility.yul\":19368:19371   */\n      0x00\n        /* \"#utility.yul\":19389:19394   */\n      dup2\n        /* \"#utility.yul\":19382:19394   */\n      swap1\n      pop\n        /* \"#utility.yul\":19325:19400   */\n      swap2\n      swap1\n      pop\n      jump\t// out\n        /* \"#utility.yul\":19406:19675   */\n    tag_183:\n        /* \"#utility.yul\":19516:19555   */\n      tag_371\n        /* \"#utility.yul\":19547:19554   */\n      dup4\n        /* \"#utility.yul\":19516:19555   */\n      tag_181\n      jump\t// in\n    tag_371:\n        /* \"#utility.yul\":19577:19668   */\n      tag_372\n        /* \"#utility.yul\":19626:19667   */\n      tag_373\n        /* \"#utility.yul\":19650:19666   */\n      dup3\n        /* \"#utility.yul\":19626:19667   */\n      tag_182\n      jump\t// in\n    tag_373:\n        /* \"#utility.yul\":19618:19624   */\n      dup5\n        /* \"#utility.yul\":19611:19615   */\n      dup5\n        /* \"#utility.yul\":19605:19616   */\n      sload\n        /* \"#utility.yul\":19577:19668   */\n      tag_179\n      jump\t// in\n    tag_372:\n        /* \"#utility.yul\":19571:19575   */\n      dup3\n        /* \"#utility.yul\":19564:19669   */\n      sstore\n        /* \"#utility.yul\":19482:19675   */\n      pop\n        /* \"#utility.yul\":19406:19675   */\n      pop\n      pop\n      pop\n      jump\t// out\n        /* \"#utility.yul\":19681:19754   */\n    tag_184:\n        /* \"#utility.yul\":19726:19729   */\n      0x00\n        /* \"#utility.yul\":19681:19754   */\n      swap1\n      jump\t// out\n        /* \"#utility.yul\":19760:19949   */\n    tag_185:\n        /* \"#utility.yul\":19837:19869   */\n      tag_376\n      tag_184\n      jump\t// in\n    tag_376:\n        /* \"#utility.yul\":19878:19943   */\n      tag_377\n        /* \"#utility.yul\":19936:19942   */\n      dup2\n        /* \"#utility.yul\":19928:19934   */\n      dup5\n        /* \"#utility.yul\":19922:19926   */\n      dup5\n        /* \"#utility.yul\":19878:19943   */\n      tag_183\n      jump\t// in\n    tag_377:\n        /* \"#utility.yul\":19813:19949   */\n      pop\n        /* \"#utility.yul\":19760:19949   */\n      pop\n      pop\n      jump\t// out\n        /* \"#utility.yul\":19955:20141   */\n    tag_186:\n        /* \"#utility.yul\":20015:20135   */\n    tag_379:\n        /* \"#utility.yul\":20032:20035   */\n      dup2\n        /* \"#utility.yul\":20025:20030   */\n      dup2\n        /* \"#utility.yul\":20022:20036   */\n      lt\n        /* \"#utility.yul\":20015:20135   */\n      iszero\n      tag_381\n      jumpi\n        /* \"#utility.yul\":20086:20125   */\n      tag_382\n        /* \"#utility.yul\":20123:20124   */\n      0x00\n        /* \"#utility.yul\":20116:20121   */\n      dup3\n        /* \"#utility.yul\":20086:20125   */\n      tag_185\n      jump\t// in\n    tag_382:\n        /* \"#utility.yul\":20059:20060   */\n      0x01\n        /* \"#utility.yul\":20052:20057   */\n      dup2\n        /* \"#utility.yul\":20048:20061   */\n      add\n        /* \"#utility.yul\":20039:20061   */\n      swap1\n      pop\n        /* \"#utility.yul\":20015:20135   */\n      jump(tag_379)\n    tag_381:\n        /* \"#utility.yul\":19955:20141   */\n      pop\n      pop\n      jump\t// out\n        /* \"#utility.yul\":20147:20690   */\n    tag_187:\n        /* \"#utility.yul\":20248:20250   */\n      0x1f\n        /* \"#utility.yul\":20243:20246   */\n      dup3\n        /* \"#utility.yul\":20240:20251   */\n      gt\n        /* \"#utility.yul\":20237:20683   */\n      iszero\n      tag_384\n      jumpi\n        /* \"#utility.yul\":20282:20320   */\n      tag_385\n        /* \"#utility.yul\":20314:20319   */\n      dup2\n        /* \"#utility.yul\":20282:20320   */\n      tag_176\n      jump\t// in\n    tag_385:\n        /* \"#utility.yul\":20366:20395   */\n      tag_386\n        /* \"#utility.yul\":20384:20394   */\n      dup5\n        /* \"#utility.yul\":20366:20395   */\n      tag_177\n      jump\t// in\n    tag_386:\n        /* \"#utility.yul\":20356:20364   */\n      dup2\n        /* \"#utility.yul\":20352:20396   */\n      add\n        /* \"#utility.yul\":20549:20551   */\n      0x20\n        /* \"#utility.yul\":20537:20547   */\n      dup6\n        /* \"#utility.yul\":20534:20552   */\n      lt\n        /* \"#utility.yul\":20531:20580   */\n      iszero\n      tag_387\n      jumpi\n        /* \"#utility.yul\":20570:20578   */\n      dup2\n        /* \"#utility.yul\":20555:20578   */\n      swap1\n      pop\n        /* \"#utility.yul\":20531:20580   */\n    tag_387:\n        /* \"#utility.yul\":20593:20673   */\n      tag_388\n        /* \"#utility.yul\":20649:20671   */\n      tag_389\n        /* \"#utility.yul\":20667:20670   */\n      dup6\n        /* \"#utility.yul\":20649:20671   */\n      tag_177\n      jump\t// in\n    tag_389:\n        /* \"#utility.yul\":20639:20647   */\n      dup4\n        /* \"#utility.yul\":20635:20672   */\n      add\n        /* \"#utility.yul\":20622:20633   */\n      dup3\n        /* \"#utility.yul\":20593:20673   */\n      tag_186\n      jump\t// in\n    tag_388:\n        /* \"#utility.yul\":20252:20683   */\n      pop\n      pop\n        /* \"#utility.yul\":20237:20683   */\n    tag_384:\n        /* \"#utility.yul\":20147:20690   */\n      pop\n      pop\n      pop\n      jump\t// out\n        /* \"#utility.yul\":20696:20813   */\n    tag_188:\n        /* \"#utility.yul\":20750:20758   */\n      0x00\n        /* \"#utility.yul\":20800:20805   */\n      dup3\n        /* \"#utility.yul\":20794:20798   */\n      dup3\n        /* \"#utility.yul\":20790:20806   */\n      shr\n        /* \"#utility.yul\":20769:20806   */\n      swap1\n      pop\n        /* \"#utility.yul\":20696:20813   */\n      swap3\n      swap2\n      pop\n      pop\n      jump\t// out\n        /* \"#utility.yul\":20819:20988   */\n    tag_189:\n        /* \"#utility.yul\":20863:20869   */\n      0x00\n        /* \"#utility.yul\":20896:20947   */\n      tag_392\n        /* \"#utility.yul\":20944:20945   */\n      0x00\n        /* \"#utility.yul\":20940:20946   */\n      not\n        /* \"#utility.yul\":20932:20937   */\n      dup5\n        /* \"#utility.yul\":20929:20930   */\n      0x08\n        /* \"#utility.yul\":20925:20938   */\n      mul\n        /* \"#utility.yul\":20896:20947   */\n      tag_188\n      jump\t// in\n    tag_392:\n        /* \"#utility.yul\":20892:20948   */\n      not\n        /* \"#utility.yul\":20977:20981   */\n      dup1\n        /* \"#utility.yul\":20971:20975   */\n      dup4\n        /* \"#utility.yul\":20967:20982   */\n      and\n        /* \"#utility.yul\":20957:20982   */\n      swap2\n      pop\n        /* \"#utility.yul\":20870:20988   */\n      pop\n        /* \"#utility.yul\":20819:20988   */\n      swap3\n      swap2\n      pop\n      pop\n      jump\t// out\n        /* \"#utility.yul\":20993:21288   */\n    tag_190:\n        /* \"#utility.yul\":21069:21073   */\n      0x00\n        /* \"#utility.yul\":21215:21244   */\n      tag_394\n        /* \"#utility.yul\":21240:21243   */\n      dup4\n        /* \"#utility.yul\":21234:21238   */\n      dup4\n        /* \"#utility.yul\":21215:21244   */\n      tag_189\n      jump\t// in\n    tag_394:\n        /* \"#utility.yul\":21207:21244   */\n      swap2\n      pop\n        /* \"#utility.yul\":21277:21280   */\n      dup3\n        /* \"#utility.yul\":21274:21275   */\n      0x02\n        /* \"#utility.yul\":21270:21281   */\n      mul\n        /* \"#utility.yul\":21264:21268   */\n      dup3\n        /* \"#utility.yul\":21261:21282   */\n      or\n        /* \"#utility.yul\":21253:21282   */\n      swap1\n      pop\n        /* \"#utility.yul\":20993:21288   */\n      swap3\n      swap2\n      pop\n      pop\n      jump\t// out\n        /* \"#utility.yul\":21293:22688   */\n    tag_98:\n        /* \"#utility.yul\":21410:21447   */\n      tag_396\n        /* \"#utility.yul\":21443:21446   */\n      dup3\n        /* \"#utility.yul\":21410:21447   */\n      tag_142\n      jump\t// in\n    tag_396:\n        /* \"#utility.yul\":21512:21530   */\n      0xffffffffffffffff\n        /* \"#utility.yul\":21504:21510   */\n      dup2\n        /* \"#utility.yul\":21501:21531   */\n      gt\n        /* \"#utility.yul\":21498:21554   */\n      iszero\n      tag_397\n      jumpi\n        /* \"#utility.yul\":21534:21552   */\n      tag_398\n      tag_160\n      jump\t// in\n    tag_398:\n        /* \"#utility.yul\":21498:21554   */\n    tag_397:\n        /* \"#utility.yul\":21578:21616   */\n      tag_399\n        /* \"#utility.yul\":21610:21614   */\n      dup3\n        /* \"#utility.yul\":21604:21615   */\n      sload\n        /* \"#utility.yul\":21578:21616   */\n      tag_56\n      jump\t// in\n    tag_399:\n        /* \"#utility.yul\":21663:21730   */\n      tag_400\n        /* \"#utility.yul\":21723:21729   */\n      dup3\n        /* \"#utility.yul\":21715:21721   */\n      dup3\n        /* \"#utility.yul\":21709:21713   */\n      dup6\n        /* \"#utility.yul\":21663:21730   */\n      tag_187\n      jump\t// in\n    tag_400:\n        /* \"#utility.yul\":21757:21758   */\n      0x00\n        /* \"#utility.yul\":21781:21785   */\n      0x20\n        /* \"#utility.yul\":21768:21785   */\n      swap1\n      pop\n        /* \"#utility.yul\":21813:21815   */\n      0x1f\n        /* \"#utility.yul\":21805:21811   */\n      dup4\n        /* \"#utility.yul\":21802:21816   */\n      gt\n        /* \"#utility.yul\":21830:21831   */\n      0x01\n        /* \"#utility.yul\":21825:22443   */\n      dup2\n      eq\n      tag_402\n      jumpi\n        /* \"#utility.yul\":22487:22488   */\n      0x00\n        /* \"#utility.yul\":22504:22510   */\n      dup5\n        /* \"#utility.yul\":22501:22578   */\n      iszero\n      tag_403\n      jumpi\n        /* \"#utility.yul\":22553:22562   */\n      dup3\n        /* \"#utility.yul\":22548:22551   */\n      dup8\n        /* \"#utility.yul\":22544:22563   */\n      add\n        /* \"#utility.yul\":22538:22564   */\n      mload\n        /* \"#utility.yul\":22529:22564   */\n      swap1\n      pop\n        /* \"#utility.yul\":22501:22578   */\n    tag_403:\n        /* \"#utility.yul\":22604:22671   */\n      tag_404\n        /* \"#utility.yul\":22664:22670   */\n      dup6\n        /* \"#utility.yul\":22657:22662   */\n      dup3\n        /* \"#utility.yul\":22604:22671   */\n      tag_190\n      jump\t// in\n    tag_404:\n        /* \"#utility.yul\":22598:22602   */\n      dup7\n        /* \"#utility.yul\":22591:22672   */\n      sstore\n        /* \"#utility.yul\":22460:22682   */\n      pop\n        /* \"#utility.yul\":21795:22682   */\n      jump(tag_401)\n        /* \"#utility.yul\":21825:22443   */\n    tag_402:\n        /* \"#utility.yul\":21877:21881   */\n      0x1f\n        /* \"#utility.yul\":21873:21882   */\n      not\n        /* \"#utility.yul\":21865:21871   */\n      dup5\n        /* \"#utility.yul\":21861:21883   */\n      and\n        /* \"#utility.yul\":21911:21948   */\n      tag_405\n        /* \"#utility.yul\":21943:21947   */\n      dup7\n        /* \"#utility.yul\":21911:21948   */\n      tag_176\n      jump\t// in\n    tag_405:\n        /* \"#utility.yul\":21970:21971   */\n      0x00\n        /* \"#utility.yul\":21984:22192   */\n    tag_406:\n        /* \"#utility.yul\":21998:22005   */\n      dup3\n        /* \"#utility.yul\":21995:21996   */\n      dup2\n        /* \"#utility.yul\":21992:22006   */\n      lt\n        /* \"#utility.yul\":21984:22192   */\n      iszero\n      tag_408\n      jumpi\n        /* \"#utility.yul\":22077:22086   */\n      dup5\n        /* \"#utility.yul\":22072:22075   */\n      dup10\n        /* \"#utility.yul\":22068:22087   */\n      add\n        /* \"#utility.yul\":22062:22088   */\n      mload\n        /* \"#utility.yul\":22054:22060   */\n      dup3\n        /* \"#utility.yul\":22047:22089   */\n      sstore\n        /* \"#utility.yul\":22128:22129   */\n      0x01\n        /* \"#utility.yul\":22120:22126   */\n      dup3\n        /* \"#utility.yul\":22116:22130   */\n      add\n        /* \"#utility.yul\":22106:22130   */\n      swap2\n      pop\n        /* \"#utility.yul\":22175:22177   */\n      0x20\n        /* \"#utility.yul\":22164:22173   */\n      dup6\n        /* \"#utility.yul\":22160:22178   */\n      add\n        /* \"#utility.yul\":22147:22178   */\n      swap5\n      pop\n        /* \"#utility.yul\":22021:22025   */\n      0x20\n        /* \"#utility.yul\":22018:22019   */\n      dup2\n        /* \"#utility.yul\":22014:22026   */\n      add\n        /* \"#utility.yul\":22009:22026   */\n      swap1\n      pop\n        /* \"#utility.yul\":21984:22192   */\n      jump(tag_406)\n    tag_408:\n        /* \"#utility.yul\":22220:22226   */\n      dup7\n        /* \"#utility.yul\":22211:22218   */\n      dup4\n        /* \"#utility.yul\":22208:22227   */\n      lt\n        /* \"#utility.yul\":22205:22384   */\n      iszero\n      tag_409\n      jumpi\n        /* \"#utility.yul\":22278:22287   */\n      dup5\n        /* \"#utility.yul\":22273:22276   */\n      dup10\n        /* \"#utility.yul\":22269:22288   */\n      add\n        /* \"#utility.yul\":22263:22289   */\n      mload\n        /* \"#utility.yul\":22321:22369   */\n      tag_410\n        /* \"#utility.yul\":22363:22367   */\n      0x1f\n        /* \"#utility.yul\":22355:22361   */\n      dup10\n        /* \"#utility.yul\":22351:22368   */\n      and\n        /* \"#utility.yul\":22340:22349   */\n      dup3\n        /* \"#utility.yul\":22321:22369   */\n      tag_189\n      jump\t// in\n    tag_410:\n        /* \"#utility.yul\":22313:22319   */\n      dup4\n        /* \"#utility.yul\":22306:22370   */\n      sstore\n        /* \"#utility.yul\":22228:22384   */\n      pop\n        /* \"#utility.yul\":22205:22384   */\n    tag_409:\n        /* \"#utility.yul\":22430:22431   */\n      0x01\n        /* \"#utility.yul\":22426:22427   */\n      0x02\n        /* \"#utility.yul\":22418:22424   */\n      dup9\n        /* \"#utility.yul\":22414:22428   */\n      mul\n        /* \"#utility.yul\":22410:22432   */\n      add\n        /* \"#utility.yul\":22404:22408   */\n      dup9\n        /* \"#utility.yul\":22397:22433   */\n      sstore\n        /* \"#utility.yul\":21832:22443   */\n      pop\n      pop\n      pop\n        /* \"#utility.yul\":21795:22682   */\n    tag_401:\n      pop\n        /* \"#utility.yul\":21385:22688   */\n      pop\n      pop\n      pop\n        /* \"#utility.yul\":21293:22688   */\n      pop\n      pop\n      jump\t// out\n        /* \"#utility.yul\":22694:23338   */\n    tag_100:\n        /* \"#utility.yul\":22891:22895   */\n      0x00\n        /* \"#utility.yul\":22929:22932   */\n      0x80\n        /* \"#utility.yul\":22918:22927   */\n      dup3\n        /* \"#utility.yul\":22914:22933   */\n      add\n        /* \"#utility.yul\":22906:22933   */\n      swap1\n      pop\n        /* \"#utility.yul\":22943:23014   */\n      tag_412\n        /* \"#utility.yul\":23011:23012   */\n      0x00\n        /* \"#utility.yul\":23000:23009   */\n      dup4\n        /* \"#utility.yul\":22996:23013   */\n      add\n        /* \"#utility.yul\":22987:22993   */\n      dup8\n        /* \"#utility.yul\":22943:23014   */\n      tag_140\n      jump\t// in\n    tag_412:\n        /* \"#utility.yul\":23024:23096   */\n      tag_413\n        /* \"#utility.yul\":23092:23094   */\n      0x20\n        /* \"#utility.yul\":23081:23090   */\n      dup4\n        /* \"#utility.yul\":23077:23095   */\n      add\n        /* \"#utility.yul\":23068:23074   */\n      dup7\n        /* \"#utility.yul\":23024:23096   */\n      tag_141\n      jump\t// in\n    tag_413:\n        /* \"#utility.yul\":23143:23152   */\n      dup2\n        /* \"#utility.yul\":23137:23141   */\n      dup2\n        /* \"#utility.yul\":23133:23153   */\n      sub\n        /* \"#utility.yul\":23128:23130   */\n      0x40\n        /* \"#utility.yul\":23117:23126   */\n      dup4\n        /* \"#utility.yul\":23113:23131   */\n      add\n        /* \"#utility.yul\":23106:23154   */\n      mstore\n        /* \"#utility.yul\":23171:23249   */\n      tag_414\n        /* \"#utility.yul\":23244:23248   */\n      dup2\n        /* \"#utility.yul\":23235:23241   */\n      dup6\n        /* \"#utility.yul\":23171:23249   */\n      tag_146\n      jump\t// in\n    tag_414:\n        /* \"#utility.yul\":23163:23249   */\n      swap1\n      pop\n        /* \"#utility.yul\":23259:23331   */\n      tag_415\n        /* \"#utility.yul\":23327:23329   */\n      0x60\n        /* \"#utility.yul\":23316:23325   */\n      dup4\n        /* \"#utility.yul\":23312:23330   */\n      add\n        /* \"#utility.yul\":23303:23309   */\n      dup5\n        /* \"#utility.yul\":23259:23331   */\n      tag_140\n      jump\t// in\n    tag_415:\n        /* \"#utility.yul\":22694:23338   */\n      swap6\n      swap5\n      pop\n      pop\n      pop\n      pop\n      pop\n      jump\t// out\n        /* \"#utility.yul\":23344:23575   */\n    tag_191:\n        /* \"#utility.yul\":23484:23518   */\n      0x596f7520617265206e6f74206f776e657220746f206368616e6765206d617820\n        /* \"#utility.yul\":23480:23481   */\n      0x00\n        /* \"#utility.yul\":23472:23478   */\n      dup3\n        /* \"#utility.yul\":23468:23482   */\n      add\n        /* \"#utility.yul\":23461:23519   */\n      mstore\n        /* \"#utility.yul\":23553:23567   */\n      0x7477656574206c656e6774680000000000000000000000000000000000000000\n        /* \"#utility.yul\":23548:23550   */\n      0x20\n        /* \"#utility.yul\":23540:23546   */\n      dup3\n        /* \"#utility.yul\":23536:23551   */\n      add\n        /* \"#utility.yul\":23529:23568   */\n      mstore\n        /* \"#utility.yul\":23344:23575   */\n      pop\n      jump\t// out\n        /* \"#utility.yul\":23581:23947   */\n    tag_192:\n        /* \"#utility.yul\":23723:23726   */\n      0x00\n        /* \"#utility.yul\":23744:23811   */\n      tag_418\n        /* \"#utility.yul\":23808:23810   */\n      0x2c\n        /* \"#utility.yul\":23803:23806   */\n      dup4\n        /* \"#utility.yul\":23744:23811   */\n      tag_143\n      jump\t// in\n    tag_418:\n        /* \"#utility.yul\":23737:23811   */\n      swap2\n      pop\n        /* \"#utility.yul\":23820:23913   */\n      tag_419\n        /* \"#utility.yul\":23909:23912   */\n      dup3\n        /* \"#utility.yul\":23820:23913   */\n      tag_191\n      jump\t// in\n    tag_419:\n        /* \"#utility.yul\":23938:23940   */\n      0x40\n        /* \"#utility.yul\":23933:23936   */\n      dup3\n        /* \"#utility.yul\":23929:23941   */\n      add\n        /* \"#utility.yul\":23922:23941   */\n      swap1\n      pop\n        /* \"#utility.yul\":23581:23947   */\n      swap2\n      swap1\n      pop\n      jump\t// out\n        /* \"#utility.yul\":23953:24372   */\n    tag_104:\n        /* \"#utility.yul\":24119:24123   */\n      0x00\n        /* \"#utility.yul\":24157:24159   */\n      0x20\n        /* \"#utility.yul\":24146:24155   */\n      dup3\n        /* \"#utility.yul\":24142:24160   */\n      add\n        /* \"#utility.yul\":24134:24160   */\n      swap1\n      pop\n        /* \"#utility.yul\":24206:24215   */\n      dup2\n        /* \"#utility.yul\":24200:24204   */\n      dup2\n        /* \"#utility.yul\":24196:24216   */\n      sub\n        /* \"#utility.yul\":24192:24193   */\n      0x00\n        /* \"#utility.yul\":24181:24190   */\n      dup4\n        /* \"#utility.yul\":24177:24194   */\n      add\n        /* \"#utility.yul\":24170:24217   */\n      mstore\n        /* \"#utility.yul\":24234:24365   */\n      tag_421\n        /* \"#utility.yul\":24360:24364   */\n      dup2\n        /* \"#utility.yul\":24234:24365   */\n      tag_192\n      jump\t// in\n    tag_421:\n        /* \"#utility.yul\":24226:24365   */\n      swap1\n      pop\n        /* \"#utility.yul\":23953:24372   */\n      swap2\n      swap1\n      pop\n      jump\t// out\n        /* \"#utility.yul\":24378:24611   */\n    tag_125:\n        /* \"#utility.yul\":24417:24420   */\n      0x00\n        /* \"#utility.yul\":24440:24464   */\n      tag_423\n        /* \"#utility.yul\":24458:24463   */\n      dup3\n        /* \"#utility.yul\":24440:24464   */\n      tag_137\n      jump\t// in\n    tag_423:\n        /* \"#utility.yul\":24431:24464   */\n      swap2\n      pop\n        /* \"#utility.yul\":24486:24552   */\n      0xffffffffffffffffffffffffffffffffffffffffffffffffffffffffffffffff\n        /* \"#utility.yul\":24479:24484   */\n      dup3\n        /* \"#utility.yul\":24476:24553   */\n      sub\n        /* \"#utility.yul\":24473:24576   */\n      tag_424\n      jumpi\n        /* \"#utility.yul\":24556:24574   */\n      tag_425\n      tag_173\n      jump\t// in\n    tag_425:\n        /* \"#utility.yul\":24473:24576   */\n    tag_424:\n        /* \"#utility.yul\":24603:24604   */\n      0x01\n        /* \"#utility.yul\":24596:24601   */\n      dup3\n        /* \"#utility.yul\":24592:24605   */\n      add\n        /* \"#utility.yul\":24585:24605   */\n      swap1\n      pop\n        /* \"#utility.yul\":24378:24611   */\n      swap2\n      swap1\n      pop\n      jump\t// out\n\n    auxdata: 0xa26469706673582212202488c36f8bf3117dd6bee94bf3968f1c814c3b7a4d53ddaab3bca5c003b5162e64736f6c634300081a0033\n}\n",
				"bytecode": {
					"linkReferences": {},
					"object": "60806040526101186001553480156014575f80fd5b50335f806101000a81548173ffffffffffffffffffffffffffffffffffffffff021916908373ffffffffffffffffffffffffffffffffffffffff1602179055506118ed806100615f395ff3fe608060405234801561000f575f80fd5b5060043610610091575f3560e01c80637c9cd2bc116100645780637c9cd2bc14610133578063888a78801461014f5780638da5cb5b1461016b578063c3ad5ecb14610189578063d04ddaa0146101b957610091565b806305a1b4a91461009557806312e7ee1c146100c95780633fcd2d06146100f95780636eb1079714610115575b5f80fd5b6100af60048036038101906100aa9190610d2f565b6101d5565b6040516100c0959493929190610dfb565b60405180910390f35b6100e360048036038101906100de9190610e53565b6102c6565b6040516100f09190611012565b60405180910390f35b610113600480360381019061010e9190611032565b610461565b005b61011d610699565b60405161012a9190611070565b60405180910390f35b61014d600480360381019061014891906111b5565b61069f565b005b610169600480360381019061016491906111fc565b610887565b005b61017361091e565b6040516101809190611227565b60405180910390f35b6101a3600480360381019061019e91906111fc565b610941565b6040516101b091906112b3565b60405180910390f35b6101d360048036038101906101ce9190611032565b610ab8565b005b6002602052815f5260405f2081815481106101ee575f80fd5b905f5260205f2090600502015f9150915050805f015490806001015f9054906101000a900473ffffffffffffffffffffffffffffffffffffffff169080600201805461023990611300565b80601f016020809104026020016040519081016040528092919081815260200182805461026590611300565b80156102b05780601f10610287576101008083540402835291602001916102b0565b820191905f5260205f20905b81548152906001019060200180831161029357829003601f168201915b5050505050908060030154908060040154905085565b606060025f8373ffffffffffffffffffffffffffffffffffffffff1673ffffffffffffffffffffffffffffffffffffffff1681526020019081526020015f20805480602002602001604051908101604052809291908181526020015f905b82821015610456578382905f5260205f2090600502016040518060a00160405290815f8201548152602001600182015f9054906101000a900473ffffffffffffffffffffffffffffffffffffffff1673ffffffffffffffffffffffffffffffffffffffff1673ffffffffffffffffffffffffffffffffffffffff1681526020016002820180546103b390611300565b80601f01602080910402602001604051908101604052809291908181526020018280546103df90611300565b801561042a5780601f106104015761010080835404028352916020019161042a565b820191905f5260205f20905b81548152906001019060200180831161040d57829003601f168201915b505050505081526020016003820154815260200160048201548152505081526020019060010190610324565b505050509050919050565b81818160025f8373ffffffffffffffffffffffffffffffffffffffff1673ffffffffffffffffffffffffffffffffffffffff1681526020019081526020015f2080549050116104e5576040517f08c379a00000000000000000000000000000000000000000000000000000000081526004016104dc9061137a565b60405180910390fd5b5f60025f8573ffffffffffffffffffffffffffffffffffffffff1673ffffffffffffffffffffffffffffffffffffffff1681526020019081526020015f20858154811061053557610534611398565b5b905f5260205f2090600502016004015411610585576040517f08c379a000000000000000000000000000000000000000000000000000000000815260040161057c9061140f565b60405180910390fd5b60025f8473ffffffffffffffffffffffffffffffffffffffff1673ffffffffffffffffffffffffffffffffffffffff1681526020019081526020015f2084815481106105d4576105d3611398565b5b905f5260205f2090600502016004015f8154809291906105f39061145a565b91905055507f42ee00178302bd24a171484438e7134c1900ce62a2ea788bc76159780c62d92633848660025f8873ffffffffffffffffffffffffffffffffffffffff1673ffffffffffffffffffffffffffffffffffffffff1681526020019081526020015f20888154811061066b5761066a611398565b5b905f5260205f2090600502016004015460405161068b9493929190611481565b60405180910390a150505050565b60015481565b600154815111156106e5576040517f08c379a00000000000000000000000000000000000000000000000000000000081526004016106dc9061150e565b60405180910390fd5b5f6040518060a0016040528060025f3373ffffffffffffffffffffffffffffffffffffffff1673ffffffffffffffffffffffffffffffffffffffff1681526020019081526020015f208054905081526020013373ffffffffffffffffffffffffffffffffffffffff1681526020018381526020014281526020015f815250905060025f3373ffffffffffffffffffffffffffffffffffffffff1673ffffffffffffffffffffffffffffffffffffffff1681526020019081526020015f2081908060018154018082558091505060019003905f5260205f2090600502015f909190919091505f820151815f01556020820151816001015f6101000a81548173ffffffffffffffffffffffffffffffffffffffff021916908373ffffffffffffffffffffffffffffffffffffffff160217905550604082015181600201908161082c91906116c9565b50606082015181600301556080820151816004015550507f8ecbe5a52270eab83ce1dada3c2969eca41c568702b97f104f69709999e19661815f015133844260405161087b9493929190611798565b60405180910390a15050565b5f8054906101000a900473ffffffffffffffffffffffffffffffffffffffff1673ffffffffffffffffffffffffffffffffffffffff163373ffffffffffffffffffffffffffffffffffffffff1614610914576040517f08c379a000000000000000000000000000000000000000000000000000000000815260040161090b90611852565b60405180910390fd5b8060018190555050565b5f8054906101000a900473ffffffffffffffffffffffffffffffffffffffff1681565b610949610c50565b60025f3373ffffffffffffffffffffffffffffffffffffffff1673ffffffffffffffffffffffffffffffffffffffff1681526020019081526020015f20828154811061099857610997611398565b5b905f5260205f2090600502016040518060a00160405290815f8201548152602001600182015f9054906101000a900473ffffffffffffffffffffffffffffffffffffffff1673ffffffffffffffffffffffffffffffffffffffff1673ffffffffffffffffffffffffffffffffffffffff168152602001600282018054610a1d90611300565b80601f0160208091040260200160405190810160405280929190818152602001828054610a4990611300565b8015610a945780601f10610a6b57610100808354040283529160200191610a94565b820191905f5260205f20905b815481529060010190602001808311610a7757829003601f168201915b50505050508152602001600382015481526020016004820154815250509050919050565b81818160025f8373ffffffffffffffffffffffffffffffffffffffff1673ffffffffffffffffffffffffffffffffffffffff1681526020019081526020015f208054905011610b3c576040517f08c379a0000000000000000000000000000000000000000000000000000000008152600401610b339061137a565b60405180910390fd5b60025f8473ffffffffffffffffffffffffffffffffffffffff1673ffffffffffffffffffffffffffffffffffffffff1681526020019081526020015f208481548110610b8b57610b8a611398565b5b905f5260205f2090600502016004015f815480929190610baa90611870565b91905055507fea2cec6534597c58ab804c4a22c20d33ab9edc08f1b684c328e983b9c787ee2733848660025f8873ffffffffffffffffffffffffffffffffffffffff1673ffffffffffffffffffffffffffffffffffffffff1681526020019081526020015f208881548110610c2257610c21611398565b5b905f5260205f20906005020160040154604051610c429493929190611481565b60405180910390a150505050565b6040518060a001604052805f81526020015f73ffffffffffffffffffffffffffffffffffffffff168152602001606081526020015f81526020015f81525090565b5f604051905090565b5f80fd5b5f80fd5b5f73ffffffffffffffffffffffffffffffffffffffff82169050919050565b5f610ccb82610ca2565b9050919050565b610cdb81610cc1565b8114610ce5575f80fd5b50565b5f81359050610cf681610cd2565b92915050565b5f819050919050565b610d0e81610cfc565b8114610d18575f80fd5b50565b5f81359050610d2981610d05565b92915050565b5f8060408385031215610d4557610d44610c9a565b5b5f610d5285828601610ce8565b9250506020610d6385828601610d1b565b9150509250929050565b610d7681610cfc565b82525050565b610d8581610cc1565b82525050565b5f81519050919050565b5f82825260208201905092915050565b8281835e5f83830152505050565b5f601f19601f8301169050919050565b5f610dcd82610d8b565b610dd78185610d95565b9350610de7818560208601610da5565b610df081610db3565b840191505092915050565b5f60a082019050610e0e5f830188610d6d565b610e1b6020830187610d7c565b8181036040830152610e2d8186610dc3565b9050610e3c6060830185610d6d565b610e496080830184610d6d565b9695505050505050565b5f60208284031215610e6857610e67610c9a565b5b5f610e7584828501610ce8565b91505092915050565b5f81519050919050565b5f82825260208201905092915050565b5f819050602082019050919050565b610eb081610cfc565b82525050565b610ebf81610cc1565b82525050565b5f82825260208201905092915050565b5f610edf82610d8b565b610ee98185610ec5565b9350610ef9818560208601610da5565b610f0281610db3565b840191505092915050565b5f60a083015f830151610f225f860182610ea7565b506020830151610f356020860182610eb6565b5060408301518482036040860152610f4d8282610ed5565b9150506060830151610f626060860182610ea7565b506080830151610f756080860182610ea7565b508091505092915050565b5f610f8b8383610f0d565b905092915050565b5f602082019050919050565b5f610fa982610e7e565b610fb38185610e88565b935083602082028501610fc585610e98565b805f5b858110156110005784840389528151610fe18582610f80565b9450610fec83610f93565b925060208a01995050600181019050610fc8565b50829750879550505050505092915050565b5f6020820190508181035f83015261102a8184610f9f565b905092915050565b5f806040838503121561104857611047610c9a565b5b5f61105585828601610d1b565b925050602061106685828601610ce8565b9150509250929050565b5f6020820190506110835f830184610d6d565b92915050565b5f80fd5b5f80fd5b7f4e487b71000000000000000000000000000000000000000000000000000000005f52604160045260245ffd5b6110c782610db3565b810181811067ffffffffffffffff821117156110e6576110e5611091565b5b80604052505050565b5f6110f8610c91565b905061110482826110be565b919050565b5f67ffffffffffffffff82111561112357611122611091565b5b61112c82610db3565b9050602081019050919050565b828183375f83830152505050565b5f61115961115484611109565b6110ef565b9050828152602081018484840111156111755761117461108d565b5b611180848285611139565b509392505050565b5f82601f83011261119c5761119b611089565b5b81356111ac848260208601611147565b91505092915050565b5f602082840312156111ca576111c9610c9a565b5b5f82013567ffffffffffffffff8111156111e7576111e6610c9e565b5b6111f384828501611188565b91505092915050565b5f6020828403121561121157611210610c9a565b5b5f61121e84828501610d1b565b91505092915050565b5f60208201905061123a5f830184610d7c565b92915050565b5f60a083015f8301516112555f860182610ea7565b5060208301516112686020860182610eb6565b50604083015184820360408601526112808282610ed5565b91505060608301516112956060860182610ea7565b5060808301516112a86080860182610ea7565b508091505092915050565b5f6020820190508181035f8301526112cb8184611240565b905092915050565b7f4e487b71000000000000000000000000000000000000000000000000000000005f52602260045260245ffd5b5f600282049050600182168061131757607f821691505b60208210810361132a576113296112d3565b5b50919050565b7f547765657420646f6573276e74206578697374000000000000000000000000005f82015250565b5f611364601383610d95565b915061136f82611330565b602082019050919050565b5f6020820190508181035f83015261139181611358565b9050919050565b7f4e487b71000000000000000000000000000000000000000000000000000000005f52603260045260245ffd5b7f547765657420686173206e6f206c696b657300000000000000000000000000005f82015250565b5f6113f9601283610d95565b9150611404826113c5565b602082019050919050565b5f6020820190508181035f830152611426816113ed565b9050919050565b7f4e487b71000000000000000000000000000000000000000000000000000000005f52601160045260245ffd5b5f61146482610cfc565b91505f82036114765761147561142d565b5b600182039050919050565b5f6080820190506114945f830187610d7c565b6114a16020830186610d7c565b6114ae6040830185610d6d565b6114bb6060830184610d6d565b95945050505050565b7f547765657420697320746f6f206c6f6e670000000000000000000000000000005f82015250565b5f6114f8601183610d95565b9150611503826114c4565b602082019050919050565b5f6020820190508181035f830152611525816114ec565b9050919050565b5f819050815f5260205f209050919050565b5f6020601f8301049050919050565b5f82821b905092915050565b5f600883026115887fffffffffffffffffffffffffffffffffffffffffffffffffffffffffffffffff8261154d565b611592868361154d565b95508019841693508086168417925050509392505050565b5f819050919050565b5f6115cd6115c86115c384610cfc565b6115aa565b610cfc565b9050919050565b5f819050919050565b6115e6836115b3565b6115fa6115f2826115d4565b848454611559565b825550505050565b5f90565b61160e611602565b6116198184846115dd565b505050565b5b8181101561163c576116315f82611606565b60018101905061161f565b5050565b601f821115611681576116528161152c565b61165b8461153e565b8101602085101561166a578190505b61167e6116768561153e565b83018261161e565b50505b505050565b5f82821c905092915050565b5f6116a15f1984600802611686565b1980831691505092915050565b5f6116b98383611692565b9150826002028217905092915050565b6116d282610d8b565b67ffffffffffffffff8111156116eb576116ea611091565b5b6116f58254611300565b611700828285611640565b5f60209050601f831160018114611731575f841561171f578287015190505b61172985826116ae565b865550611790565b601f19841661173f8661152c565b5f5b8281101561176657848901518255600182019150602085019450602081019050611741565b86831015611783578489015161177f601f891682611692565b8355505b6001600288020188555050505b505050505050565b5f6080820190506117ab5f830187610d6d565b6117b86020830186610d7c565b81810360408301526117ca8185610dc3565b90506117d96060830184610d6d565b95945050505050565b7f596f7520617265206e6f74206f776e657220746f206368616e6765206d6178205f8201527f7477656574206c656e6774680000000000000000000000000000000000000000602082015250565b5f61183c602c83610d95565b9150611847826117e2565b604082019050919050565b5f6020820190508181035f83015261186981611830565b9050919050565b5f61187a82610cfc565b91507fffffffffffffffffffffffffffffffffffffffffffffffffffffffffffffffff82036118ac576118ab61142d565b5b60018201905091905056fea26469706673582212202488c36f8bf3117dd6bee94bf3968f1c814c3b7a4d53ddaab3bca5c003b5162e64736f6c634300081a0033",
					"opcodes": "PUSH1 0x80 PUSH1 0x40 MSTORE PUSH2 0x118 PUSH1 0x1 SSTORE CALLVALUE DUP1 ISZERO PUSH1 0x14 JUMPI PUSH0 DUP1 REVERT JUMPDEST POP CALLER PUSH0 DUP1 PUSH2 0x100 EXP DUP2 SLOAD DUP2 PUSH20 0xFFFFFFFFFFFFFFFFFFFFFFFFFFFFFFFFFFFFFFFF MUL NOT AND SWAP1 DUP4 PUSH20 0xFFFFFFFFFFFFFFFFFFFFFFFFFFFFFFFFFFFFFFFF AND MUL OR SWAP1 SSTORE POP PUSH2 0x18ED DUP1 PUSH2 0x61 PUSH0 CODECOPY PUSH0 RETURN INVALID PUSH1 0x80 PUSH1 0x40 MSTORE CALLVALUE DUP1 ISZERO PUSH2 0xF JUMPI PUSH0 DUP1 REVERT JUMPDEST POP PUSH1 0x4 CALLDATASIZE LT PUSH2 0x91 JUMPI PUSH0 CALLDATALOAD PUSH1 0xE0 SHR DUP1 PUSH4 0x7C9CD2BC GT PUSH2 0x64 JUMPI DUP1 PUSH4 0x7C9CD2BC EQ PUSH2 0x133 JUMPI DUP1 PUSH4 0x888A7880 EQ PUSH2 0x14F JUMPI DUP1 PUSH4 0x8DA5CB5B EQ PUSH2 0x16B JUMPI DUP1 PUSH4 0xC3AD5ECB EQ PUSH2 0x189 JUMPI DUP1 PUSH4 0xD04DDAA0 EQ PUSH2 0x1B9 JUMPI PUSH2 0x91 JUMP JUMPDEST DUP1 PUSH4 0x5A1B4A9 EQ PUSH2 0x95 JUMPI DUP1 PUSH4 0x12E7EE1C EQ PUSH2 0xC9 JUMPI DUP1 PUSH4 0x3FCD2D06 EQ PUSH2 0xF9 JUMPI DUP1 PUSH4 0x6EB10797 EQ PUSH2 0x115 JUMPI JUMPDEST PUSH0 DUP1 REVERT JUMPDEST PUSH2 0xAF PUSH1 0x4 DUP1 CALLDATASIZE SUB DUP2 ADD SWAP1 PUSH2 0xAA SWAP2 SWAP1 PUSH2 0xD2F JUMP JUMPDEST PUSH2 0x1D5 JUMP JUMPDEST PUSH1 0x40 MLOAD PUSH2 0xC0 SWAP6 SWAP5 SWAP4 SWAP3 SWAP2 SWAP1 PUSH2 0xDFB JUMP JUMPDEST PUSH1 0x40 MLOAD DUP1 SWAP2 SUB SWAP1 RETURN JUMPDEST PUSH2 0xE3 PUSH1 0x4 DUP1 CALLDATASIZE SUB DUP2 ADD SWAP1 PUSH2 0xDE SWAP2 SWAP1 PUSH2 0xE53 JUMP JUMPDEST PUSH2 0x2C6 JUMP JUMPDEST PUSH1 0x40 MLOAD PUSH2 0xF0 SWAP2 SWAP1 PUSH2 0x1012 JUMP JUMPDEST PUSH1 0x40 MLOAD DUP1 SWAP2 SUB SWAP1 RETURN JUMPDEST PUSH2 0x113 PUSH1 0x4 DUP1 CALLDATASIZE SUB DUP2 ADD SWAP1 PUSH2 0x10E SWAP2 SWAP1 PUSH2 0x1032 JUMP JUMPDEST PUSH2 0x461 JUMP JUMPDEST STOP JUMPDEST PUSH2 0x11D PUSH2 0x699 JUMP JUMPDEST PUSH1 0x40 MLOAD PUSH2 0x12A SWAP2 SWAP1 PUSH2 0x1070 JUMP JUMPDEST PUSH1 0x40 MLOAD DUP1 SWAP2 SUB SWAP1 RETURN JUMPDEST PUSH2 0x14D PUSH1 0x4 DUP1 CALLDATASIZE SUB DUP2 ADD SWAP1 PUSH2 0x148 SWAP2 SWAP1 PUSH2 0x11B5 JUMP JUMPDEST PUSH2 0x69F JUMP JUMPDEST STOP JUMPDEST PUSH2 0x169 PUSH1 0x4 DUP1 CALLDATASIZE SUB DUP2 ADD SWAP1 PUSH2 0x164 SWAP2 SWAP1 PUSH2 0x11FC JUMP JUMPDEST PUSH2 0x887 JUMP JUMPDEST STOP JUMPDEST PUSH2 0x173 PUSH2 0x91E JUMP JUMPDEST PUSH1 0x40 MLOAD PUSH2 0x180 SWAP2 SWAP1 PUSH2 0x1227 JUMP JUMPDEST PUSH1 0x40 MLOAD DUP1 SWAP2 SUB SWAP1 RETURN JUMPDEST PUSH2 0x1A3 PUSH1 0x4 DUP1 CALLDATASIZE SUB DUP2 ADD SWAP1 PUSH2 0x19E SWAP2 SWAP1 PUSH2 0x11FC JUMP JUMPDEST PUSH2 0x941 JUMP JUMPDEST PUSH1 0x40 MLOAD PUSH2 0x1B0 SWAP2 SWAP1 PUSH2 0x12B3 JUMP JUMPDEST PUSH1 0x40 MLOAD DUP1 SWAP2 SUB SWAP1 RETURN JUMPDEST PUSH2 0x1D3 PUSH1 0x4 DUP1 CALLDATASIZE SUB DUP2 ADD SWAP1 PUSH2 0x1CE SWAP2 SWAP1 PUSH2 0x1032 JUMP JUMPDEST PUSH2 0xAB8 JUMP JUMPDEST STOP JUMPDEST PUSH1 0x2 PUSH1 0x20 MSTORE DUP2 PUSH0 MSTORE PUSH1 0x40 PUSH0 KECCAK256 DUP2 DUP2 SLOAD DUP2 LT PUSH2 0x1EE JUMPI PUSH0 DUP1 REVERT JUMPDEST SWAP1 PUSH0 MSTORE PUSH1 0x20 PUSH0 KECCAK256 SWAP1 PUSH1 0x5 MUL ADD PUSH0 SWAP2 POP SWAP2 POP POP DUP1 PUSH0 ADD SLOAD SWAP1 DUP1 PUSH1 0x1 ADD PUSH0 SWAP1 SLOAD SWAP1 PUSH2 0x100 EXP SWAP1 DIV PUSH20 0xFFFFFFFFFFFFFFFFFFFFFFFFFFFFFFFFFFFFFFFF AND SWAP1 DUP1 PUSH1 0x2 ADD DUP1 SLOAD PUSH2 0x239 SWAP1 PUSH2 0x1300 JUMP JUMPDEST DUP1 PUSH1 0x1F ADD PUSH1 0x20 DUP1 SWAP2 DIV MUL PUSH1 0x20 ADD PUSH1 0x40 MLOAD SWAP1 DUP2 ADD PUSH1 0x40 MSTORE DUP1 SWAP3 SWAP2 SWAP1 DUP2 DUP2 MSTORE PUSH1 0x20 ADD DUP3 DUP1 SLOAD PUSH2 0x265 SWAP1 PUSH2 0x1300 JUMP JUMPDEST DUP1 ISZERO PUSH2 0x2B0 JUMPI DUP1 PUSH1 0x1F LT PUSH2 0x287 JUMPI PUSH2 0x100 DUP1 DUP4 SLOAD DIV MUL DUP4 MSTORE SWAP2 PUSH1 0x20 ADD SWAP2 PUSH2 0x2B0 JUMP JUMPDEST DUP3 ADD SWAP2 SWAP1 PUSH0 MSTORE PUSH1 0x20 PUSH0 KECCAK256 SWAP1 JUMPDEST DUP2 SLOAD DUP2 MSTORE SWAP1 PUSH1 0x1 ADD SWAP1 PUSH1 0x20 ADD DUP1 DUP4 GT PUSH2 0x293 JUMPI DUP3 SWAP1 SUB PUSH1 0x1F AND DUP3 ADD SWAP2 JUMPDEST POP POP POP POP POP SWAP1 DUP1 PUSH1 0x3 ADD SLOAD SWAP1 DUP1 PUSH1 0x4 ADD SLOAD SWAP1 POP DUP6 JUMP JUMPDEST PUSH1 0x60 PUSH1 0x2 PUSH0 DUP4 PUSH20 0xFFFFFFFFFFFFFFFFFFFFFFFFFFFFFFFFFFFFFFFF AND PUSH20 0xFFFFFFFFFFFFFFFFFFFFFFFFFFFFFFFFFFFFFFFF AND DUP2 MSTORE PUSH1 0x20 ADD SWAP1 DUP2 MSTORE PUSH1 0x20 ADD PUSH0 KECCAK256 DUP1 SLOAD DUP1 PUSH1 0x20 MUL PUSH1 0x20 ADD PUSH1 0x40 MLOAD SWAP1 DUP2 ADD PUSH1 0x40 MSTORE DUP1 SWAP3 SWAP2 SWAP1 DUP2 DUP2 MSTORE PUSH1 0x20 ADD PUSH0 SWAP1 JUMPDEST DUP3 DUP3 LT ISZERO PUSH2 0x456 JUMPI DUP4 DUP3 SWAP1 PUSH0 MSTORE PUSH1 0x20 PUSH0 KECCAK256 SWAP1 PUSH1 0x5 MUL ADD PUSH1 0x40 MLOAD DUP1 PUSH1 0xA0 ADD PUSH1 0x40 MSTORE SWAP1 DUP2 PUSH0 DUP3 ADD SLOAD DUP2 MSTORE PUSH1 0x20 ADD PUSH1 0x1 DUP3 ADD PUSH0 SWAP1 SLOAD SWAP1 PUSH2 0x100 EXP SWAP1 DIV PUSH20 0xFFFFFFFFFFFFFFFFFFFFFFFFFFFFFFFFFFFFFFFF AND PUSH20 0xFFFFFFFFFFFFFFFFFFFFFFFFFFFFFFFFFFFFFFFF AND PUSH20 0xFFFFFFFFFFFFFFFFFFFFFFFFFFFFFFFFFFFFFFFF AND DUP2 MSTORE PUSH1 0x20 ADD PUSH1 0x2 DUP3 ADD DUP1 SLOAD PUSH2 0x3B3 SWAP1 PUSH2 0x1300 JUMP JUMPDEST DUP1 PUSH1 0x1F ADD PUSH1 0x20 DUP1 SWAP2 DIV MUL PUSH1 0x20 ADD PUSH1 0x40 MLOAD SWAP1 DUP2 ADD PUSH1 0x40 MSTORE DUP1 SWAP3 SWAP2 SWAP1 DUP2 DUP2 MSTORE PUSH1 0x20 ADD DUP3 DUP1 SLOAD PUSH2 0x3DF SWAP1 PUSH2 0x1300 JUMP JUMPDEST DUP1 ISZERO PUSH2 0x42A JUMPI DUP1 PUSH1 0x1F LT PUSH2 0x401 JUMPI PUSH2 0x100 DUP1 DUP4 SLOAD DIV MUL DUP4 MSTORE SWAP2 PUSH1 0x20 ADD SWAP2 PUSH2 0x42A JUMP JUMPDEST DUP3 ADD SWAP2 SWAP1 PUSH0 MSTORE PUSH1 0x20 PUSH0 KECCAK256 SWAP1 JUMPDEST DUP2 SLOAD DUP2 MSTORE SWAP1 PUSH1 0x1 ADD SWAP1 PUSH1 0x20 ADD DUP1 DUP4 GT PUSH2 0x40D JUMPI DUP3 SWAP1 SUB PUSH1 0x1F AND DUP3 ADD SWAP2 JUMPDEST POP POP POP POP POP DUP2 MSTORE PUSH1 0x20 ADD PUSH1 0x3 DUP3 ADD SLOAD DUP2 MSTORE PUSH1 0x20 ADD PUSH1 0x4 DUP3 ADD SLOAD DUP2 MSTORE POP POP DUP2 MSTORE PUSH1 0x20 ADD SWAP1 PUSH1 0x1 ADD SWAP1 PUSH2 0x324 JUMP JUMPDEST POP POP POP POP SWAP1 POP SWAP2 SWAP1 POP JUMP JUMPDEST DUP2 DUP2 DUP2 PUSH1 0x2 PUSH0 DUP4 PUSH20 0xFFFFFFFFFFFFFFFFFFFFFFFFFFFFFFFFFFFFFFFF AND PUSH20 0xFFFFFFFFFFFFFFFFFFFFFFFFFFFFFFFFFFFFFFFF AND DUP2 MSTORE PUSH1 0x20 ADD SWAP1 DUP2 MSTORE PUSH1 0x20 ADD PUSH0 KECCAK256 DUP1 SLOAD SWAP1 POP GT PUSH2 0x4E5 JUMPI PUSH1 0x40 MLOAD PUSH32 0x8C379A000000000000000000000000000000000000000000000000000000000 DUP2 MSTORE PUSH1 0x4 ADD PUSH2 0x4DC SWAP1 PUSH2 0x137A JUMP JUMPDEST PUSH1 0x40 MLOAD DUP1 SWAP2 SUB SWAP1 REVERT JUMPDEST PUSH0 PUSH1 0x2 PUSH0 DUP6 PUSH20 0xFFFFFFFFFFFFFFFFFFFFFFFFFFFFFFFFFFFFFFFF AND PUSH20 0xFFFFFFFFFFFFFFFFFFFFFFFFFFFFFFFFFFFFFFFF AND DUP2 MSTORE PUSH1 0x20 ADD SWAP1 DUP2 MSTORE PUSH1 0x20 ADD PUSH0 KECCAK256 DUP6 DUP2 SLOAD DUP2 LT PUSH2 0x535 JUMPI PUSH2 0x534 PUSH2 0x1398 JUMP JUMPDEST JUMPDEST SWAP1 PUSH0 MSTORE PUSH1 0x20 PUSH0 KECCAK256 SWAP1 PUSH1 0x5 MUL ADD PUSH1 0x4 ADD SLOAD GT PUSH2 0x585 JUMPI PUSH1 0x40 MLOAD PUSH32 0x8C379A000000000000000000000000000000000000000000000000000000000 DUP2 MSTORE PUSH1 0x4 ADD PUSH2 0x57C SWAP1 PUSH2 0x140F JUMP JUMPDEST PUSH1 0x40 MLOAD DUP1 SWAP2 SUB SWAP1 REVERT JUMPDEST PUSH1 0x2 PUSH0 DUP5 PUSH20 0xFFFFFFFFFFFFFFFFFFFFFFFFFFFFFFFFFFFFFFFF AND PUSH20 0xFFFFFFFFFFFFFFFFFFFFFFFFFFFFFFFFFFFFFFFF AND DUP2 MSTORE PUSH1 0x20 ADD SWAP1 DUP2 MSTORE PUSH1 0x20 ADD PUSH0 KECCAK256 DUP5 DUP2 SLOAD DUP2 LT PUSH2 0x5D4 JUMPI PUSH2 0x5D3 PUSH2 0x1398 JUMP JUMPDEST JUMPDEST SWAP1 PUSH0 MSTORE PUSH1 0x20 PUSH0 KECCAK256 SWAP1 PUSH1 0x5 MUL ADD PUSH1 0x4 ADD PUSH0 DUP2 SLOAD DUP1 SWAP3 SWAP2 SWAP1 PUSH2 0x5F3 SWAP1 PUSH2 0x145A JUMP JUMPDEST SWAP2 SWAP1 POP SSTORE POP PUSH32 0x42EE00178302BD24A171484438E7134C1900CE62A2EA788BC76159780C62D926 CALLER DUP5 DUP7 PUSH1 0x2 PUSH0 DUP9 PUSH20 0xFFFFFFFFFFFFFFFFFFFFFFFFFFFFFFFFFFFFFFFF AND PUSH20 0xFFFFFFFFFFFFFFFFFFFFFFFFFFFFFFFFFFFFFFFF AND DUP2 MSTORE PUSH1 0x20 ADD SWAP1 DUP2 MSTORE PUSH1 0x20 ADD PUSH0 KECCAK256 DUP9 DUP2 SLOAD DUP2 LT PUSH2 0x66B JUMPI PUSH2 0x66A PUSH2 0x1398 JUMP JUMPDEST JUMPDEST SWAP1 PUSH0 MSTORE PUSH1 0x20 PUSH0 KECCAK256 SWAP1 PUSH1 0x5 MUL ADD PUSH1 0x4 ADD SLOAD PUSH1 0x40 MLOAD PUSH2 0x68B SWAP5 SWAP4 SWAP3 SWAP2 SWAP1 PUSH2 0x1481 JUMP JUMPDEST PUSH1 0x40 MLOAD DUP1 SWAP2 SUB SWAP1 LOG1 POP POP POP POP JUMP JUMPDEST PUSH1 0x1 SLOAD DUP2 JUMP JUMPDEST PUSH1 0x1 SLOAD DUP2 MLOAD GT ISZERO PUSH2 0x6E5 JUMPI PUSH1 0x40 MLOAD PUSH32 0x8C379A000000000000000000000000000000000000000000000000000000000 DUP2 MSTORE PUSH1 0x4 ADD PUSH2 0x6DC SWAP1 PUSH2 0x150E JUMP JUMPDEST PUSH1 0x40 MLOAD DUP1 SWAP2 SUB SWAP1 REVERT JUMPDEST PUSH0 PUSH1 0x40 MLOAD DUP1 PUSH1 0xA0 ADD PUSH1 0x40 MSTORE DUP1 PUSH1 0x2 PUSH0 CALLER PUSH20 0xFFFFFFFFFFFFFFFFFFFFFFFFFFFFFFFFFFFFFFFF AND PUSH20 0xFFFFFFFFFFFFFFFFFFFFFFFFFFFFFFFFFFFFFFFF AND DUP2 MSTORE PUSH1 0x20 ADD SWAP1 DUP2 MSTORE PUSH1 0x20 ADD PUSH0 KECCAK256 DUP1 SLOAD SWAP1 POP DUP2 MSTORE PUSH1 0x20 ADD CALLER PUSH20 0xFFFFFFFFFFFFFFFFFFFFFFFFFFFFFFFFFFFFFFFF AND DUP2 MSTORE PUSH1 0x20 ADD DUP4 DUP2 MSTORE PUSH1 0x20 ADD TIMESTAMP DUP2 MSTORE PUSH1 0x20 ADD PUSH0 DUP2 MSTORE POP SWAP1 POP PUSH1 0x2 PUSH0 CALLER PUSH20 0xFFFFFFFFFFFFFFFFFFFFFFFFFFFFFFFFFFFFFFFF AND PUSH20 0xFFFFFFFFFFFFFFFFFFFFFFFFFFFFFFFFFFFFFFFF AND DUP2 MSTORE PUSH1 0x20 ADD SWAP1 DUP2 MSTORE PUSH1 0x20 ADD PUSH0 KECCAK256 DUP2 SWAP1 DUP1 PUSH1 0x1 DUP2 SLOAD ADD DUP1 DUP3 SSTORE DUP1 SWAP2 POP POP PUSH1 0x1 SWAP1 SUB SWAP1 PUSH0 MSTORE PUSH1 0x20 PUSH0 KECCAK256 SWAP1 PUSH1 0x5 MUL ADD PUSH0 SWAP1 SWAP2 SWAP1 SWAP2 SWAP1 SWAP2 POP PUSH0 DUP3 ADD MLOAD DUP2 PUSH0 ADD SSTORE PUSH1 0x20 DUP3 ADD MLOAD DUP2 PUSH1 0x1 ADD PUSH0 PUSH2 0x100 EXP DUP2 SLOAD DUP2 PUSH20 0xFFFFFFFFFFFFFFFFFFFFFFFFFFFFFFFFFFFFFFFF MUL NOT AND SWAP1 DUP4 PUSH20 0xFFFFFFFFFFFFFFFFFFFFFFFFFFFFFFFFFFFFFFFF AND MUL OR SWAP1 SSTORE POP PUSH1 0x40 DUP3 ADD MLOAD DUP2 PUSH1 0x2 ADD SWAP1 DUP2 PUSH2 0x82C SWAP2 SWAP1 PUSH2 0x16C9 JUMP JUMPDEST POP PUSH1 0x60 DUP3 ADD MLOAD DUP2 PUSH1 0x3 ADD SSTORE PUSH1 0x80 DUP3 ADD MLOAD DUP2 PUSH1 0x4 ADD SSTORE POP POP PUSH32 0x8ECBE5A52270EAB83CE1DADA3C2969ECA41C568702B97F104F69709999E19661 DUP2 PUSH0 ADD MLOAD CALLER DUP5 TIMESTAMP PUSH1 0x40 MLOAD PUSH2 0x87B SWAP5 SWAP4 SWAP3 SWAP2 SWAP1 PUSH2 0x1798 JUMP JUMPDEST PUSH1 0x40 MLOAD DUP1 SWAP2 SUB SWAP1 LOG1 POP POP JUMP JUMPDEST PUSH0 DUP1 SLOAD SWAP1 PUSH2 0x100 EXP SWAP1 DIV PUSH20 0xFFFFFFFFFFFFFFFFFFFFFFFFFFFFFFFFFFFFFFFF AND PUSH20 0xFFFFFFFFFFFFFFFFFFFFFFFFFFFFFFFFFFFFFFFF AND CALLER PUSH20 0xFFFFFFFFFFFFFFFFFFFFFFFFFFFFFFFFFFFFFFFF AND EQ PUSH2 0x914 JUMPI PUSH1 0x40 MLOAD PUSH32 0x8C379A000000000000000000000000000000000000000000000000000000000 DUP2 MSTORE PUSH1 0x4 ADD PUSH2 0x90B SWAP1 PUSH2 0x1852 JUMP JUMPDEST PUSH1 0x40 MLOAD DUP1 SWAP2 SUB SWAP1 REVERT JUMPDEST DUP1 PUSH1 0x1 DUP2 SWAP1 SSTORE POP POP JUMP JUMPDEST PUSH0 DUP1 SLOAD SWAP1 PUSH2 0x100 EXP SWAP1 DIV PUSH20 0xFFFFFFFFFFFFFFFFFFFFFFFFFFFFFFFFFFFFFFFF AND DUP2 JUMP JUMPDEST PUSH2 0x949 PUSH2 0xC50 JUMP JUMPDEST PUSH1 0x2 PUSH0 CALLER PUSH20 0xFFFFFFFFFFFFFFFFFFFFFFFFFFFFFFFFFFFFFFFF AND PUSH20 0xFFFFFFFFFFFFFFFFFFFFFFFFFFFFFFFFFFFFFFFF AND DUP2 MSTORE PUSH1 0x20 ADD SWAP1 DUP2 MSTORE PUSH1 0x20 ADD PUSH0 KECCAK256 DUP3 DUP2 SLOAD DUP2 LT PUSH2 0x998 JUMPI PUSH2 0x997 PUSH2 0x1398 JUMP JUMPDEST JUMPDEST SWAP1 PUSH0 MSTORE PUSH1 0x20 PUSH0 KECCAK256 SWAP1 PUSH1 0x5 MUL ADD PUSH1 0x40 MLOAD DUP1 PUSH1 0xA0 ADD PUSH1 0x40 MSTORE SWAP1 DUP2 PUSH0 DUP3 ADD SLOAD DUP2 MSTORE PUSH1 0x20 ADD PUSH1 0x1 DUP3 ADD PUSH0 SWAP1 SLOAD SWAP1 PUSH2 0x100 EXP SWAP1 DIV PUSH20 0xFFFFFFFFFFFFFFFFFFFFFFFFFFFFFFFFFFFFFFFF AND PUSH20 0xFFFFFFFFFFFFFFFFFFFFFFFFFFFFFFFFFFFFFFFF AND PUSH20 0xFFFFFFFFFFFFFFFFFFFFFFFFFFFFFFFFFFFFFFFF AND DUP2 MSTORE PUSH1 0x20 ADD PUSH1 0x2 DUP3 ADD DUP1 SLOAD PUSH2 0xA1D SWAP1 PUSH2 0x1300 JUMP JUMPDEST DUP1 PUSH1 0x1F ADD PUSH1 0x20 DUP1 SWAP2 DIV MUL PUSH1 0x20 ADD PUSH1 0x40 MLOAD SWAP1 DUP2 ADD PUSH1 0x40 MSTORE DUP1 SWAP3 SWAP2 SWAP1 DUP2 DUP2 MSTORE PUSH1 0x20 ADD DUP3 DUP1 SLOAD PUSH2 0xA49 SWAP1 PUSH2 0x1300 JUMP JUMPDEST DUP1 ISZERO PUSH2 0xA94 JUMPI DUP1 PUSH1 0x1F LT PUSH2 0xA6B JUMPI PUSH2 0x100 DUP1 DUP4 SLOAD DIV MUL DUP4 MSTORE SWAP2 PUSH1 0x20 ADD SWAP2 PUSH2 0xA94 JUMP JUMPDEST DUP3 ADD SWAP2 SWAP1 PUSH0 MSTORE PUSH1 0x20 PUSH0 KECCAK256 SWAP1 JUMPDEST DUP2 SLOAD DUP2 MSTORE SWAP1 PUSH1 0x1 ADD SWAP1 PUSH1 0x20 ADD DUP1 DUP4 GT PUSH2 0xA77 JUMPI DUP3 SWAP1 SUB PUSH1 0x1F AND DUP3 ADD SWAP2 JUMPDEST POP POP POP POP POP DUP2 MSTORE PUSH1 0x20 ADD PUSH1 0x3 DUP3 ADD SLOAD DUP2 MSTORE PUSH1 0x20 ADD PUSH1 0x4 DUP3 ADD SLOAD DUP2 MSTORE POP POP SWAP1 POP SWAP2 SWAP1 POP JUMP JUMPDEST DUP2 DUP2 DUP2 PUSH1 0x2 PUSH0 DUP4 PUSH20 0xFFFFFFFFFFFFFFFFFFFFFFFFFFFFFFFFFFFFFFFF AND PUSH20 0xFFFFFFFFFFFFFFFFFFFFFFFFFFFFFFFFFFFFFFFF AND DUP2 MSTORE PUSH1 0x20 ADD SWAP1 DUP2 MSTORE PUSH1 0x20 ADD PUSH0 KECCAK256 DUP1 SLOAD SWAP1 POP GT PUSH2 0xB3C JUMPI PUSH1 0x40 MLOAD PUSH32 0x8C379A000000000000000000000000000000000000000000000000000000000 DUP2 MSTORE PUSH1 0x4 ADD PUSH2 0xB33 SWAP1 PUSH2 0x137A JUMP JUMPDEST PUSH1 0x40 MLOAD DUP1 SWAP2 SUB SWAP1 REVERT JUMPDEST PUSH1 0x2 PUSH0 DUP5 PUSH20 0xFFFFFFFFFFFFFFFFFFFFFFFFFFFFFFFFFFFFFFFF AND PUSH20 0xFFFFFFFFFFFFFFFFFFFFFFFFFFFFFFFFFFFFFFFF AND DUP2 MSTORE PUSH1 0x20 ADD SWAP1 DUP2 MSTORE PUSH1 0x20 ADD PUSH0 KECCAK256 DUP5 DUP2 SLOAD DUP2 LT PUSH2 0xB8B JUMPI PUSH2 0xB8A PUSH2 0x1398 JUMP JUMPDEST JUMPDEST SWAP1 PUSH0 MSTORE PUSH1 0x20 PUSH0 KECCAK256 SWAP1 PUSH1 0x5 MUL ADD PUSH1 0x4 ADD PUSH0 DUP2 SLOAD DUP1 SWAP3 SWAP2 SWAP1 PUSH2 0xBAA SWAP1 PUSH2 0x1870 JUMP JUMPDEST SWAP2 SWAP1 POP SSTORE POP PUSH32 0xEA2CEC6534597C58AB804C4A22C20D33AB9EDC08F1B684C328E983B9C787EE27 CALLER DUP5 DUP7 PUSH1 0x2 PUSH0 DUP9 PUSH20 0xFFFFFFFFFFFFFFFFFFFFFFFFFFFFFFFFFFFFFFFF AND PUSH20 0xFFFFFFFFFFFFFFFFFFFFFFFFFFFFFFFFFFFFFFFF AND DUP2 MSTORE PUSH1 0x20 ADD SWAP1 DUP2 MSTORE PUSH1 0x20 ADD PUSH0 KECCAK256 DUP9 DUP2 SLOAD DUP2 LT PUSH2 0xC22 JUMPI PUSH2 0xC21 PUSH2 0x1398 JUMP JUMPDEST JUMPDEST SWAP1 PUSH0 MSTORE PUSH1 0x20 PUSH0 KECCAK256 SWAP1 PUSH1 0x5 MUL ADD PUSH1 0x4 ADD SLOAD PUSH1 0x40 MLOAD PUSH2 0xC42 SWAP5 SWAP4 SWAP3 SWAP2 SWAP1 PUSH2 0x1481 JUMP JUMPDEST PUSH1 0x40 MLOAD DUP1 SWAP2 SUB SWAP1 LOG1 POP POP POP POP JUMP JUMPDEST PUSH1 0x40 MLOAD DUP1 PUSH1 0xA0 ADD PUSH1 0x40 MSTORE DUP1 PUSH0 DUP2 MSTORE PUSH1 0x20 ADD PUSH0 PUSH20 0xFFFFFFFFFFFFFFFFFFFFFFFFFFFFFFFFFFFFFFFF AND DUP2 MSTORE PUSH1 0x20 ADD PUSH1 0x60 DUP2 MSTORE PUSH1 0x20 ADD PUSH0 DUP2 MSTORE PUSH1 0x20 ADD PUSH0 DUP2 MSTORE POP SWAP1 JUMP JUMPDEST PUSH0 PUSH1 0x40 MLOAD SWAP1 POP SWAP1 JUMP JUMPDEST PUSH0 DUP1 REVERT JUMPDEST PUSH0 DUP1 REVERT JUMPDEST PUSH0 PUSH20 0xFFFFFFFFFFFFFFFFFFFFFFFFFFFFFFFFFFFFFFFF DUP3 AND SWAP1 POP SWAP2 SWAP1 POP JUMP JUMPDEST PUSH0 PUSH2 0xCCB DUP3 PUSH2 0xCA2 JUMP JUMPDEST SWAP1 POP SWAP2 SWAP1 POP JUMP JUMPDEST PUSH2 0xCDB DUP2 PUSH2 0xCC1 JUMP JUMPDEST DUP2 EQ PUSH2 0xCE5 JUMPI PUSH0 DUP1 REVERT JUMPDEST POP JUMP JUMPDEST PUSH0 DUP2 CALLDATALOAD SWAP1 POP PUSH2 0xCF6 DUP2 PUSH2 0xCD2 JUMP JUMPDEST SWAP3 SWAP2 POP POP JUMP JUMPDEST PUSH0 DUP2 SWAP1 POP SWAP2 SWAP1 POP JUMP JUMPDEST PUSH2 0xD0E DUP2 PUSH2 0xCFC JUMP JUMPDEST DUP2 EQ PUSH2 0xD18 JUMPI PUSH0 DUP1 REVERT JUMPDEST POP JUMP JUMPDEST PUSH0 DUP2 CALLDATALOAD SWAP1 POP PUSH2 0xD29 DUP2 PUSH2 0xD05 JUMP JUMPDEST SWAP3 SWAP2 POP POP JUMP JUMPDEST PUSH0 DUP1 PUSH1 0x40 DUP4 DUP6 SUB SLT ISZERO PUSH2 0xD45 JUMPI PUSH2 0xD44 PUSH2 0xC9A JUMP JUMPDEST JUMPDEST PUSH0 PUSH2 0xD52 DUP6 DUP3 DUP7 ADD PUSH2 0xCE8 JUMP JUMPDEST SWAP3 POP POP PUSH1 0x20 PUSH2 0xD63 DUP6 DUP3 DUP7 ADD PUSH2 0xD1B JUMP JUMPDEST SWAP2 POP POP SWAP3 POP SWAP3 SWAP1 POP JUMP JUMPDEST PUSH2 0xD76 DUP2 PUSH2 0xCFC JUMP JUMPDEST DUP3 MSTORE POP POP JUMP JUMPDEST PUSH2 0xD85 DUP2 PUSH2 0xCC1 JUMP JUMPDEST DUP3 MSTORE POP POP JUMP JUMPDEST PUSH0 DUP2 MLOAD SWAP1 POP SWAP2 SWAP1 POP JUMP JUMPDEST PUSH0 DUP3 DUP3 MSTORE PUSH1 0x20 DUP3 ADD SWAP1 POP SWAP3 SWAP2 POP POP JUMP JUMPDEST DUP3 DUP2 DUP4 MCOPY PUSH0 DUP4 DUP4 ADD MSTORE POP POP POP JUMP JUMPDEST PUSH0 PUSH1 0x1F NOT PUSH1 0x1F DUP4 ADD AND SWAP1 POP SWAP2 SWAP1 POP JUMP JUMPDEST PUSH0 PUSH2 0xDCD DUP3 PUSH2 0xD8B JUMP JUMPDEST PUSH2 0xDD7 DUP2 DUP6 PUSH2 0xD95 JUMP JUMPDEST SWAP4 POP PUSH2 0xDE7 DUP2 DUP6 PUSH1 0x20 DUP7 ADD PUSH2 0xDA5 JUMP JUMPDEST PUSH2 0xDF0 DUP2 PUSH2 0xDB3 JUMP JUMPDEST DUP5 ADD SWAP2 POP POP SWAP3 SWAP2 POP POP JUMP JUMPDEST PUSH0 PUSH1 0xA0 DUP3 ADD SWAP1 POP PUSH2 0xE0E PUSH0 DUP4 ADD DUP9 PUSH2 0xD6D JUMP JUMPDEST PUSH2 0xE1B PUSH1 0x20 DUP4 ADD DUP8 PUSH2 0xD7C JUMP JUMPDEST DUP2 DUP2 SUB PUSH1 0x40 DUP4 ADD MSTORE PUSH2 0xE2D DUP2 DUP7 PUSH2 0xDC3 JUMP JUMPDEST SWAP1 POP PUSH2 0xE3C PUSH1 0x60 DUP4 ADD DUP6 PUSH2 0xD6D JUMP JUMPDEST PUSH2 0xE49 PUSH1 0x80 DUP4 ADD DUP5 PUSH2 0xD6D JUMP JUMPDEST SWAP7 SWAP6 POP POP POP POP POP POP JUMP JUMPDEST PUSH0 PUSH1 0x20 DUP3 DUP5 SUB SLT ISZERO PUSH2 0xE68 JUMPI PUSH2 0xE67 PUSH2 0xC9A JUMP JUMPDEST JUMPDEST PUSH0 PUSH2 0xE75 DUP5 DUP3 DUP6 ADD PUSH2 0xCE8 JUMP JUMPDEST SWAP2 POP POP SWAP3 SWAP2 POP POP JUMP JUMPDEST PUSH0 DUP2 MLOAD SWAP1 POP SWAP2 SWAP1 POP JUMP JUMPDEST PUSH0 DUP3 DUP3 MSTORE PUSH1 0x20 DUP3 ADD SWAP1 POP SWAP3 SWAP2 POP POP JUMP JUMPDEST PUSH0 DUP2 SWAP1 POP PUSH1 0x20 DUP3 ADD SWAP1 POP SWAP2 SWAP1 POP JUMP JUMPDEST PUSH2 0xEB0 DUP2 PUSH2 0xCFC JUMP JUMPDEST DUP3 MSTORE POP POP JUMP JUMPDEST PUSH2 0xEBF DUP2 PUSH2 0xCC1 JUMP JUMPDEST DUP3 MSTORE POP POP JUMP JUMPDEST PUSH0 DUP3 DUP3 MSTORE PUSH1 0x20 DUP3 ADD SWAP1 POP SWAP3 SWAP2 POP POP JUMP JUMPDEST PUSH0 PUSH2 0xEDF DUP3 PUSH2 0xD8B JUMP JUMPDEST PUSH2 0xEE9 DUP2 DUP6 PUSH2 0xEC5 JUMP JUMPDEST SWAP4 POP PUSH2 0xEF9 DUP2 DUP6 PUSH1 0x20 DUP7 ADD PUSH2 0xDA5 JUMP JUMPDEST PUSH2 0xF02 DUP2 PUSH2 0xDB3 JUMP JUMPDEST DUP5 ADD SWAP2 POP POP SWAP3 SWAP2 POP POP JUMP JUMPDEST PUSH0 PUSH1 0xA0 DUP4 ADD PUSH0 DUP4 ADD MLOAD PUSH2 0xF22 PUSH0 DUP7 ADD DUP3 PUSH2 0xEA7 JUMP JUMPDEST POP PUSH1 0x20 DUP4 ADD MLOAD PUSH2 0xF35 PUSH1 0x20 DUP7 ADD DUP3 PUSH2 0xEB6 JUMP JUMPDEST POP PUSH1 0x40 DUP4 ADD MLOAD DUP5 DUP3 SUB PUSH1 0x40 DUP7 ADD MSTORE PUSH2 0xF4D DUP3 DUP3 PUSH2 0xED5 JUMP JUMPDEST SWAP2 POP POP PUSH1 0x60 DUP4 ADD MLOAD PUSH2 0xF62 PUSH1 0x60 DUP7 ADD DUP3 PUSH2 0xEA7 JUMP JUMPDEST POP PUSH1 0x80 DUP4 ADD MLOAD PUSH2 0xF75 PUSH1 0x80 DUP7 ADD DUP3 PUSH2 0xEA7 JUMP JUMPDEST POP DUP1 SWAP2 POP POP SWAP3 SWAP2 POP POP JUMP JUMPDEST PUSH0 PUSH2 0xF8B DUP4 DUP4 PUSH2 0xF0D JUMP JUMPDEST SWAP1 POP SWAP3 SWAP2 POP POP JUMP JUMPDEST PUSH0 PUSH1 0x20 DUP3 ADD SWAP1 POP SWAP2 SWAP1 POP JUMP JUMPDEST PUSH0 PUSH2 0xFA9 DUP3 PUSH2 0xE7E JUMP JUMPDEST PUSH2 0xFB3 DUP2 DUP6 PUSH2 0xE88 JUMP JUMPDEST SWAP4 POP DUP4 PUSH1 0x20 DUP3 MUL DUP6 ADD PUSH2 0xFC5 DUP6 PUSH2 0xE98 JUMP JUMPDEST DUP1 PUSH0 JUMPDEST DUP6 DUP2 LT ISZERO PUSH2 0x1000 JUMPI DUP5 DUP5 SUB DUP10 MSTORE DUP2 MLOAD PUSH2 0xFE1 DUP6 DUP3 PUSH2 0xF80 JUMP JUMPDEST SWAP5 POP PUSH2 0xFEC DUP4 PUSH2 0xF93 JUMP JUMPDEST SWAP3 POP PUSH1 0x20 DUP11 ADD SWAP10 POP POP PUSH1 0x1 DUP2 ADD SWAP1 POP PUSH2 0xFC8 JUMP JUMPDEST POP DUP3 SWAP8 POP DUP8 SWAP6 POP POP POP POP POP POP SWAP3 SWAP2 POP POP JUMP JUMPDEST PUSH0 PUSH1 0x20 DUP3 ADD SWAP1 POP DUP2 DUP2 SUB PUSH0 DUP4 ADD MSTORE PUSH2 0x102A DUP2 DUP5 PUSH2 0xF9F JUMP JUMPDEST SWAP1 POP SWAP3 SWAP2 POP POP JUMP JUMPDEST PUSH0 DUP1 PUSH1 0x40 DUP4 DUP6 SUB SLT ISZERO PUSH2 0x1048 JUMPI PUSH2 0x1047 PUSH2 0xC9A JUMP JUMPDEST JUMPDEST PUSH0 PUSH2 0x1055 DUP6 DUP3 DUP7 ADD PUSH2 0xD1B JUMP JUMPDEST SWAP3 POP POP PUSH1 0x20 PUSH2 0x1066 DUP6 DUP3 DUP7 ADD PUSH2 0xCE8 JUMP JUMPDEST SWAP2 POP POP SWAP3 POP SWAP3 SWAP1 POP JUMP JUMPDEST PUSH0 PUSH1 0x20 DUP3 ADD SWAP1 POP PUSH2 0x1083 PUSH0 DUP4 ADD DUP5 PUSH2 0xD6D JUMP JUMPDEST SWAP3 SWAP2 POP POP JUMP JUMPDEST PUSH0 DUP1 REVERT JUMPDEST PUSH0 DUP1 REVERT JUMPDEST PUSH32 0x4E487B7100000000000000000000000000000000000000000000000000000000 PUSH0 MSTORE PUSH1 0x41 PUSH1 0x4 MSTORE PUSH1 0x24 PUSH0 REVERT JUMPDEST PUSH2 0x10C7 DUP3 PUSH2 0xDB3 JUMP JUMPDEST DUP2 ADD DUP2 DUP2 LT PUSH8 0xFFFFFFFFFFFFFFFF DUP3 GT OR ISZERO PUSH2 0x10E6 JUMPI PUSH2 0x10E5 PUSH2 0x1091 JUMP JUMPDEST JUMPDEST DUP1 PUSH1 0x40 MSTORE POP POP POP JUMP JUMPDEST PUSH0 PUSH2 0x10F8 PUSH2 0xC91 JUMP JUMPDEST SWAP1 POP PUSH2 0x1104 DUP3 DUP3 PUSH2 0x10BE JUMP JUMPDEST SWAP2 SWAP1 POP JUMP JUMPDEST PUSH0 PUSH8 0xFFFFFFFFFFFFFFFF DUP3 GT ISZERO PUSH2 0x1123 JUMPI PUSH2 0x1122 PUSH2 0x1091 JUMP JUMPDEST JUMPDEST PUSH2 0x112C DUP3 PUSH2 0xDB3 JUMP JUMPDEST SWAP1 POP PUSH1 0x20 DUP2 ADD SWAP1 POP SWAP2 SWAP1 POP JUMP JUMPDEST DUP3 DUP2 DUP4 CALLDATACOPY PUSH0 DUP4 DUP4 ADD MSTORE POP POP POP JUMP JUMPDEST PUSH0 PUSH2 0x1159 PUSH2 0x1154 DUP5 PUSH2 0x1109 JUMP JUMPDEST PUSH2 0x10EF JUMP JUMPDEST SWAP1 POP DUP3 DUP2 MSTORE PUSH1 0x20 DUP2 ADD DUP5 DUP5 DUP5 ADD GT ISZERO PUSH2 0x1175 JUMPI PUSH2 0x1174 PUSH2 0x108D JUMP JUMPDEST JUMPDEST PUSH2 0x1180 DUP5 DUP3 DUP6 PUSH2 0x1139 JUMP JUMPDEST POP SWAP4 SWAP3 POP POP POP JUMP JUMPDEST PUSH0 DUP3 PUSH1 0x1F DUP4 ADD SLT PUSH2 0x119C JUMPI PUSH2 0x119B PUSH2 0x1089 JUMP JUMPDEST JUMPDEST DUP2 CALLDATALOAD PUSH2 0x11AC DUP5 DUP3 PUSH1 0x20 DUP7 ADD PUSH2 0x1147 JUMP JUMPDEST SWAP2 POP POP SWAP3 SWAP2 POP POP JUMP JUMPDEST PUSH0 PUSH1 0x20 DUP3 DUP5 SUB SLT ISZERO PUSH2 0x11CA JUMPI PUSH2 0x11C9 PUSH2 0xC9A JUMP JUMPDEST JUMPDEST PUSH0 DUP3 ADD CALLDATALOAD PUSH8 0xFFFFFFFFFFFFFFFF DUP2 GT ISZERO PUSH2 0x11E7 JUMPI PUSH2 0x11E6 PUSH2 0xC9E JUMP JUMPDEST JUMPDEST PUSH2 0x11F3 DUP5 DUP3 DUP6 ADD PUSH2 0x1188 JUMP JUMPDEST SWAP2 POP POP SWAP3 SWAP2 POP POP JUMP JUMPDEST PUSH0 PUSH1 0x20 DUP3 DUP5 SUB SLT ISZERO PUSH2 0x1211 JUMPI PUSH2 0x1210 PUSH2 0xC9A JUMP JUMPDEST JUMPDEST PUSH0 PUSH2 0x121E DUP5 DUP3 DUP6 ADD PUSH2 0xD1B JUMP JUMPDEST SWAP2 POP POP SWAP3 SWAP2 POP POP JUMP JUMPDEST PUSH0 PUSH1 0x20 DUP3 ADD SWAP1 POP PUSH2 0x123A PUSH0 DUP4 ADD DUP5 PUSH2 0xD7C JUMP JUMPDEST SWAP3 SWAP2 POP POP JUMP JUMPDEST PUSH0 PUSH1 0xA0 DUP4 ADD PUSH0 DUP4 ADD MLOAD PUSH2 0x1255 PUSH0 DUP7 ADD DUP3 PUSH2 0xEA7 JUMP JUMPDEST POP PUSH1 0x20 DUP4 ADD MLOAD PUSH2 0x1268 PUSH1 0x20 DUP7 ADD DUP3 PUSH2 0xEB6 JUMP JUMPDEST POP PUSH1 0x40 DUP4 ADD MLOAD DUP5 DUP3 SUB PUSH1 0x40 DUP7 ADD MSTORE PUSH2 0x1280 DUP3 DUP3 PUSH2 0xED5 JUMP JUMPDEST SWAP2 POP POP PUSH1 0x60 DUP4 ADD MLOAD PUSH2 0x1295 PUSH1 0x60 DUP7 ADD DUP3 PUSH2 0xEA7 JUMP JUMPDEST POP PUSH1 0x80 DUP4 ADD MLOAD PUSH2 0x12A8 PUSH1 0x80 DUP7 ADD DUP3 PUSH2 0xEA7 JUMP JUMPDEST POP DUP1 SWAP2 POP POP SWAP3 SWAP2 POP POP JUMP JUMPDEST PUSH0 PUSH1 0x20 DUP3 ADD SWAP1 POP DUP2 DUP2 SUB PUSH0 DUP4 ADD MSTORE PUSH2 0x12CB DUP2 DUP5 PUSH2 0x1240 JUMP JUMPDEST SWAP1 POP SWAP3 SWAP2 POP POP JUMP JUMPDEST PUSH32 0x4E487B7100000000000000000000000000000000000000000000000000000000 PUSH0 MSTORE PUSH1 0x22 PUSH1 0x4 MSTORE PUSH1 0x24 PUSH0 REVERT JUMPDEST PUSH0 PUSH1 0x2 DUP3 DIV SWAP1 POP PUSH1 0x1 DUP3 AND DUP1 PUSH2 0x1317 JUMPI PUSH1 0x7F DUP3 AND SWAP2 POP JUMPDEST PUSH1 0x20 DUP3 LT DUP2 SUB PUSH2 0x132A JUMPI PUSH2 0x1329 PUSH2 0x12D3 JUMP JUMPDEST JUMPDEST POP SWAP2 SWAP1 POP JUMP JUMPDEST PUSH32 0x547765657420646F6573276E7420657869737400000000000000000000000000 PUSH0 DUP3 ADD MSTORE POP JUMP JUMPDEST PUSH0 PUSH2 0x1364 PUSH1 0x13 DUP4 PUSH2 0xD95 JUMP JUMPDEST SWAP2 POP PUSH2 0x136F DUP3 PUSH2 0x1330 JUMP JUMPDEST PUSH1 0x20 DUP3 ADD SWAP1 POP SWAP2 SWAP1 POP JUMP JUMPDEST PUSH0 PUSH1 0x20 DUP3 ADD SWAP1 POP DUP2 DUP2 SUB PUSH0 DUP4 ADD MSTORE PUSH2 0x1391 DUP2 PUSH2 0x1358 JUMP JUMPDEST SWAP1 POP SWAP2 SWAP1 POP JUMP JUMPDEST PUSH32 0x4E487B7100000000000000000000000000000000000000000000000000000000 PUSH0 MSTORE PUSH1 0x32 PUSH1 0x4 MSTORE PUSH1 0x24 PUSH0 REVERT JUMPDEST PUSH32 0x547765657420686173206E6F206C696B65730000000000000000000000000000 PUSH0 DUP3 ADD MSTORE POP JUMP JUMPDEST PUSH0 PUSH2 0x13F9 PUSH1 0x12 DUP4 PUSH2 0xD95 JUMP JUMPDEST SWAP2 POP PUSH2 0x1404 DUP3 PUSH2 0x13C5 JUMP JUMPDEST PUSH1 0x20 DUP3 ADD SWAP1 POP SWAP2 SWAP1 POP JUMP JUMPDEST PUSH0 PUSH1 0x20 DUP3 ADD SWAP1 POP DUP2 DUP2 SUB PUSH0 DUP4 ADD MSTORE PUSH2 0x1426 DUP2 PUSH2 0x13ED JUMP JUMPDEST SWAP1 POP SWAP2 SWAP1 POP JUMP JUMPDEST PUSH32 0x4E487B7100000000000000000000000000000000000000000000000000000000 PUSH0 MSTORE PUSH1 0x11 PUSH1 0x4 MSTORE PUSH1 0x24 PUSH0 REVERT JUMPDEST PUSH0 PUSH2 0x1464 DUP3 PUSH2 0xCFC JUMP JUMPDEST SWAP2 POP PUSH0 DUP3 SUB PUSH2 0x1476 JUMPI PUSH2 0x1475 PUSH2 0x142D JUMP JUMPDEST JUMPDEST PUSH1 0x1 DUP3 SUB SWAP1 POP SWAP2 SWAP1 POP JUMP JUMPDEST PUSH0 PUSH1 0x80 DUP3 ADD SWAP1 POP PUSH2 0x1494 PUSH0 DUP4 ADD DUP8 PUSH2 0xD7C JUMP JUMPDEST PUSH2 0x14A1 PUSH1 0x20 DUP4 ADD DUP7 PUSH2 0xD7C JUMP JUMPDEST PUSH2 0x14AE PUSH1 0x40 DUP4 ADD DUP6 PUSH2 0xD6D JUMP JUMPDEST PUSH2 0x14BB PUSH1 0x60 DUP4 ADD DUP5 PUSH2 0xD6D JUMP JUMPDEST SWAP6 SWAP5 POP POP POP POP POP JUMP JUMPDEST PUSH32 0x547765657420697320746F6F206C6F6E67000000000000000000000000000000 PUSH0 DUP3 ADD MSTORE POP JUMP JUMPDEST PUSH0 PUSH2 0x14F8 PUSH1 0x11 DUP4 PUSH2 0xD95 JUMP JUMPDEST SWAP2 POP PUSH2 0x1503 DUP3 PUSH2 0x14C4 JUMP JUMPDEST PUSH1 0x20 DUP3 ADD SWAP1 POP SWAP2 SWAP1 POP JUMP JUMPDEST PUSH0 PUSH1 0x20 DUP3 ADD SWAP1 POP DUP2 DUP2 SUB PUSH0 DUP4 ADD MSTORE PUSH2 0x1525 DUP2 PUSH2 0x14EC JUMP JUMPDEST SWAP1 POP SWAP2 SWAP1 POP JUMP JUMPDEST PUSH0 DUP2 SWAP1 POP DUP2 PUSH0 MSTORE PUSH1 0x20 PUSH0 KECCAK256 SWAP1 POP SWAP2 SWAP1 POP JUMP JUMPDEST PUSH0 PUSH1 0x20 PUSH1 0x1F DUP4 ADD DIV SWAP1 POP SWAP2 SWAP1 POP JUMP JUMPDEST PUSH0 DUP3 DUP3 SHL SWAP1 POP SWAP3 SWAP2 POP POP JUMP JUMPDEST PUSH0 PUSH1 0x8 DUP4 MUL PUSH2 0x1588 PUSH32 0xFFFFFFFFFFFFFFFFFFFFFFFFFFFFFFFFFFFFFFFFFFFFFFFFFFFFFFFFFFFFFFFF DUP3 PUSH2 0x154D JUMP JUMPDEST PUSH2 0x1592 DUP7 DUP4 PUSH2 0x154D JUMP JUMPDEST SWAP6 POP DUP1 NOT DUP5 AND SWAP4 POP DUP1 DUP7 AND DUP5 OR SWAP3 POP POP POP SWAP4 SWAP3 POP POP POP JUMP JUMPDEST PUSH0 DUP2 SWAP1 POP SWAP2 SWAP1 POP JUMP JUMPDEST PUSH0 PUSH2 0x15CD PUSH2 0x15C8 PUSH2 0x15C3 DUP5 PUSH2 0xCFC JUMP JUMPDEST PUSH2 0x15AA JUMP JUMPDEST PUSH2 0xCFC JUMP JUMPDEST SWAP1 POP SWAP2 SWAP1 POP JUMP JUMPDEST PUSH0 DUP2 SWAP1 POP SWAP2 SWAP1 POP JUMP JUMPDEST PUSH2 0x15E6 DUP4 PUSH2 0x15B3 JUMP JUMPDEST PUSH2 0x15FA PUSH2 0x15F2 DUP3 PUSH2 0x15D4 JUMP JUMPDEST DUP5 DUP5 SLOAD PUSH2 0x1559 JUMP JUMPDEST DUP3 SSTORE POP POP POP POP JUMP JUMPDEST PUSH0 SWAP1 JUMP JUMPDEST PUSH2 0x160E PUSH2 0x1602 JUMP JUMPDEST PUSH2 0x1619 DUP2 DUP5 DUP5 PUSH2 0x15DD JUMP JUMPDEST POP POP POP JUMP JUMPDEST JUMPDEST DUP2 DUP2 LT ISZERO PUSH2 0x163C JUMPI PUSH2 0x1631 PUSH0 DUP3 PUSH2 0x1606 JUMP JUMPDEST PUSH1 0x1 DUP2 ADD SWAP1 POP PUSH2 0x161F JUMP JUMPDEST POP POP JUMP JUMPDEST PUSH1 0x1F DUP3 GT ISZERO PUSH2 0x1681 JUMPI PUSH2 0x1652 DUP2 PUSH2 0x152C JUMP JUMPDEST PUSH2 0x165B DUP5 PUSH2 0x153E JUMP JUMPDEST DUP2 ADD PUSH1 0x20 DUP6 LT ISZERO PUSH2 0x166A JUMPI DUP2 SWAP1 POP JUMPDEST PUSH2 0x167E PUSH2 0x1676 DUP6 PUSH2 0x153E JUMP JUMPDEST DUP4 ADD DUP3 PUSH2 0x161E JUMP JUMPDEST POP POP JUMPDEST POP POP POP JUMP JUMPDEST PUSH0 DUP3 DUP3 SHR SWAP1 POP SWAP3 SWAP2 POP POP JUMP JUMPDEST PUSH0 PUSH2 0x16A1 PUSH0 NOT DUP5 PUSH1 0x8 MUL PUSH2 0x1686 JUMP JUMPDEST NOT DUP1 DUP4 AND SWAP2 POP POP SWAP3 SWAP2 POP POP JUMP JUMPDEST PUSH0 PUSH2 0x16B9 DUP4 DUP4 PUSH2 0x1692 JUMP JUMPDEST SWAP2 POP DUP3 PUSH1 0x2 MUL DUP3 OR SWAP1 POP SWAP3 SWAP2 POP POP JUMP JUMPDEST PUSH2 0x16D2 DUP3 PUSH2 0xD8B JUMP JUMPDEST PUSH8 0xFFFFFFFFFFFFFFFF DUP2 GT ISZERO PUSH2 0x16EB JUMPI PUSH2 0x16EA PUSH2 0x1091 JUMP JUMPDEST JUMPDEST PUSH2 0x16F5 DUP3 SLOAD PUSH2 0x1300 JUMP JUMPDEST PUSH2 0x1700 DUP3 DUP3 DUP6 PUSH2 0x1640 JUMP JUMPDEST PUSH0 PUSH1 0x20 SWAP1 POP PUSH1 0x1F DUP4 GT PUSH1 0x1 DUP2 EQ PUSH2 0x1731 JUMPI PUSH0 DUP5 ISZERO PUSH2 0x171F JUMPI DUP3 DUP8 ADD MLOAD SWAP1 POP JUMPDEST PUSH2 0x1729 DUP6 DUP3 PUSH2 0x16AE JUMP JUMPDEST DUP7 SSTORE POP PUSH2 0x1790 JUMP JUMPDEST PUSH1 0x1F NOT DUP5 AND PUSH2 0x173F DUP7 PUSH2 0x152C JUMP JUMPDEST PUSH0 JUMPDEST DUP3 DUP2 LT ISZERO PUSH2 0x1766 JUMPI DUP5 DUP10 ADD MLOAD DUP3 SSTORE PUSH1 0x1 DUP3 ADD SWAP2 POP PUSH1 0x20 DUP6 ADD SWAP5 POP PUSH1 0x20 DUP2 ADD SWAP1 POP PUSH2 0x1741 JUMP JUMPDEST DUP7 DUP4 LT ISZERO PUSH2 0x1783 JUMPI DUP5 DUP10 ADD MLOAD PUSH2 0x177F PUSH1 0x1F DUP10 AND DUP3 PUSH2 0x1692 JUMP JUMPDEST DUP4 SSTORE POP JUMPDEST PUSH1 0x1 PUSH1 0x2 DUP9 MUL ADD DUP9 SSTORE POP POP POP JUMPDEST POP POP POP POP POP POP JUMP JUMPDEST PUSH0 PUSH1 0x80 DUP3 ADD SWAP1 POP PUSH2 0x17AB PUSH0 DUP4 ADD DUP8 PUSH2 0xD6D JUMP JUMPDEST PUSH2 0x17B8 PUSH1 0x20 DUP4 ADD DUP7 PUSH2 0xD7C JUMP JUMPDEST DUP2 DUP2 SUB PUSH1 0x40 DUP4 ADD MSTORE PUSH2 0x17CA DUP2 DUP6 PUSH2 0xDC3 JUMP JUMPDEST SWAP1 POP PUSH2 0x17D9 PUSH1 0x60 DUP4 ADD DUP5 PUSH2 0xD6D JUMP JUMPDEST SWAP6 SWAP5 POP POP POP POP POP JUMP JUMPDEST PUSH32 0x596F7520617265206E6F74206F776E657220746F206368616E6765206D617820 PUSH0 DUP3 ADD MSTORE PUSH32 0x7477656574206C656E6774680000000000000000000000000000000000000000 PUSH1 0x20 DUP3 ADD MSTORE POP JUMP JUMPDEST PUSH0 PUSH2 0x183C PUSH1 0x2C DUP4 PUSH2 0xD95 JUMP JUMPDEST SWAP2 POP PUSH2 0x1847 DUP3 PUSH2 0x17E2 JUMP JUMPDEST PUSH1 0x40 DUP3 ADD SWAP1 POP SWAP2 SWAP1 POP JUMP JUMPDEST PUSH0 PUSH1 0x20 DUP3 ADD SWAP1 POP DUP2 DUP2 SUB PUSH0 DUP4 ADD MSTORE PUSH2 0x1869 DUP2 PUSH2 0x1830 JUMP JUMPDEST SWAP1 POP SWAP2 SWAP1 POP JUMP JUMPDEST PUSH0 PUSH2 0x187A DUP3 PUSH2 0xCFC JUMP JUMPDEST SWAP2 POP PUSH32 0xFFFFFFFFFFFFFFFFFFFFFFFFFFFFFFFFFFFFFFFFFFFFFFFFFFFFFFFFFFFFFFFF DUP3 SUB PUSH2 0x18AC JUMPI PUSH2 0x18AB PUSH2 0x142D JUMP JUMPDEST JUMPDEST PUSH1 0x1 DUP3 ADD SWAP1 POP SWAP2 SWAP1 POP JUMP INVALID LOG2 PUSH5 0x6970667358 0x22 SLT KECCAK256 0x24 DUP9 0xC3 PUSH16 0x8BF3117DD6BEE94BF3968F1C814C3B7A 0x4D MSTORE8 0xDD 0xAA 0xB3 0xBC 0xA5 0xC0 SUB 0xB5 AND 0x2E PUSH5 0x736F6C6343 STOP ADDMOD BYTE STOP CALLER "
				},
				"gasEstimates": {
					"creation": {
						"codeDepositCost": "1276200",
						"executionCost": "47698",
						"totalCost": "1323898"
					},
					"external": {
						"MAX_TWEET_LENGTH()": "2492",
						"changeTweetLength(uint256)": "24703",
						"createTweet(string)": "infinite",
						"getAllTweets(address)": "infinite",
						"getTweet(uint256)": "infinite",
						"likeTweet(uint256,address)": "infinite",
						"owner()": "2549",
						"tweets(address,uint256)": "infinite",
						"unLikeTweet(uint256,address)": "infinite"
					}
				},
				"methodIdentifiers": {
					"MAX_TWEET_LENGTH()": "6eb10797",
					"changeTweetLength(uint256)": "888a7880",
					"createTweet(string)": "7c9cd2bc",
					"getAllTweets(address)": "12e7ee1c",
					"getTweet(uint256)": "c3ad5ecb",
					"likeTweet(uint256,address)": "d04ddaa0",
					"owner()": "8da5cb5b",
					"tweets(address,uint256)": "05a1b4a9",
					"unLikeTweet(uint256,address)": "3fcd2d06"
				}
			},
			"storageLayout": {
				"storage": [
					{
						"astId": 3,
						"contract": "exercises/twitter.sol:Twitter",
						"label": "owner",
						"offset": 0,
						"slot": "0",
						"type": "t_address"
					},
					{
						"astId": 17,
						"contract": "exercises/twitter.sol:Twitter",
						"label": "MAX_TWEET_LENGTH",
						"offset": 0,
						"slot": "1",
						"type": "t_uint256"
					},
					{
						"astId": 23,
						"contract": "exercises/twitter.sol:Twitter",
						"label": "tweets",
						"offset": 0,
						"slot": "2",
						"type": "t_mapping(t_address,t_array(t_struct(Tweet)14_storage)dyn_storage)"
					}
				],
				"types": {
					"t_address": {
						"encoding": "inplace",
						"label": "address",
						"numberOfBytes": "20"
					},
					"t_array(t_struct(Tweet)14_storage)dyn_storage": {
						"base": "t_struct(Tweet)14_storage",
						"encoding": "dynamic_array",
						"label": "struct Twitter.Tweet[]",
						"numberOfBytes": "32"
					},
					"t_mapping(t_address,t_array(t_struct(Tweet)14_storage)dyn_storage)": {
						"encoding": "mapping",
						"key": "t_address",
						"label": "mapping(address => struct Twitter.Tweet[])",
						"numberOfBytes": "32",
						"value": "t_array(t_struct(Tweet)14_storage)dyn_storage"
					},
					"t_string_storage": {
						"encoding": "bytes",
						"label": "string",
						"numberOfBytes": "32"
					},
					"t_struct(Tweet)14_storage": {
						"encoding": "inplace",
						"label": "struct Twitter.Tweet",
						"members": [
							{
								"astId": 5,
								"contract": "exercises/twitter.sol:Twitter",
								"label": "id",
								"offset": 0,
								"slot": "0",
								"type": "t_uint256"
							},
							{
								"astId": 7,
								"contract": "exercises/twitter.sol:Twitter",
								"label": "author",
								"offset": 0,
								"slot": "1",
								"type": "t_address"
							},
							{
								"astId": 9,
								"contract": "exercises/twitter.sol:Twitter",
								"label": "content",
								"offset": 0,
								"slot": "2",
								"type": "t_string_storage"
							},
							{
								"astId": 11,
								"contract": "exercises/twitter.sol:Twitter",
								"label": "timestamp",
								"offset": 0,
								"slot": "3",
								"type": "t_uint256"
							},
							{
								"astId": 13,
								"contract": "exercises/twitter.sol:Twitter",
								"label": "likes",
								"offset": 0,
								"slot": "4",
								"type": "t_uint256"
							}
						],
						"numberOfBytes": "160"
					},
					"t_uint256": {
						"encoding": "inplace",
						"label": "uint256",
						"numberOfBytes": "32"
					}
				}
			},
			"userdoc": {
				"kind": "user",
				"methods": {},
				"version": 1
			}
		}
	}
}