{
	"exercises/calculator.sol": {
		"calculator": {
			"abi": [
				{
					"inputs": [],
					"stateMutability": "nonpayable",
					"type": "constructor"
				},
				{
					"inputs": [
						{
							"internalType": "int256",
							"name": "a",
							"type": "int256"
						}
					],
					"name": "add",
					"outputs": [],
					"stateMutability": "nonpayable",
					"type": "function"
				},
				{
					"inputs": [
						{
							"internalType": "int256",
							"name": "a",
							"type": "int256"
						}
					],
					"name": "divide",
					"outputs": [],
					"stateMutability": "nonpayable",
					"type": "function"
				},
				{
					"inputs": [],
					"name": "getResult",
					"outputs": [
						{
							"internalType": "int256",
							"name": "",
							"type": "int256"
						}
					],
					"stateMutability": "view",
					"type": "function"
				},
				{
					"inputs": [
						{
							"internalType": "int256",
							"name": "a",
							"type": "int256"
						}
					],
					"name": "multiply",
					"outputs": [],
					"stateMutability": "nonpayable",
					"type": "function"
				},
				{
					"inputs": [
						{
							"internalType": "int256",
							"name": "a",
							"type": "int256"
						}
					],
					"name": "subtract",
					"outputs": [],
					"stateMutability": "nonpayable",
					"type": "function"
				}
			],
			"devdoc": {
				"kind": "dev",
				"methods": {},
				"version": 1
			},
			"evm": {
				"assembly": "    /* \"exercises/calculator.sol\":66:499  contract calculator{... */\n  mstore(0x40, 0x80)\n    /* \"exercises/calculator.sol\":105:142  constructor(){... */\n  callvalue\n  dup1\n  iszero\n  tag_1\n  jumpi\n  0x00\n  dup1\n  revert\ntag_1:\n  pop\n    /* \"exercises/calculator.sol\":134:135  0 */\n  0x00\n    /* \"exercises/calculator.sol\":128:131  res */\n  dup1\n    /* \"exercises/calculator.sol\":128:135  res = 0 */\n  dup2\n  swap1\n  sstore\n  pop\n    /* \"exercises/calculator.sol\":66:499  contract calculator{... */\n  dataSize(sub_0)\n  dup1\n  dataOffset(sub_0)\n  0x00\n  codecopy\n  0x00\n  return\nstop\n\nsub_0: assembly {\n        /* \"exercises/calculator.sol\":66:499  contract calculator{... */\n      mstore(0x40, 0x80)\n      callvalue\n      dup1\n      iszero\n      tag_1\n      jumpi\n      0x00\n      dup1\n      revert\n    tag_1:\n      pop\n      jumpi(tag_2, lt(calldatasize, 0x04))\n      shr(0xe0, calldataload(0x00))\n      dup1\n      0x1df4f144\n      eq\n      tag_3\n      jumpi\n      dup1\n      0x87db03b7\n      eq\n      tag_4\n      jumpi\n      dup1\n      0xaaa044dc\n      eq\n      tag_5\n      jumpi\n      dup1\n      0xae0f6166\n      eq\n      tag_6\n      jumpi\n      dup1\n      0xde292789\n      eq\n      tag_7\n      jumpi\n    tag_2:\n      0x00\n      dup1\n      revert\n        /* \"exercises/calculator.sol\":269:325  function multiply(int a) public{... */\n    tag_3:\n      tag_8\n      0x04\n      dup1\n      calldatasize\n      sub\n      dup2\n      add\n      swap1\n      tag_9\n      swap2\n      swap1\n      tag_10\n      jump\t// in\n    tag_9:\n      tag_11\n      jump\t// in\n    tag_8:\n      stop\n        /* \"exercises/calculator.sol\":148:200  function add(int a) public {... */\n    tag_4:\n      tag_12\n      0x04\n      dup1\n      calldatasize\n      sub\n      dup2\n      add\n      swap1\n      tag_13\n      swap2\n      swap1\n      tag_10\n      jump\t// in\n    tag_13:\n      tag_14\n      jump\t// in\n    tag_12:\n      stop\n        /* \"exercises/calculator.sol\":331:417  function divide(int a) public{... */\n    tag_5:\n      tag_15\n      0x04\n      dup1\n      calldatasize\n      sub\n      dup2\n      add\n      swap1\n      tag_16\n      swap2\n      swap1\n      tag_10\n      jump\t// in\n    tag_16:\n      tag_17\n      jump\t// in\n    tag_15:\n      stop\n        /* \"exercises/calculator.sol\":206:263  function subtract(int a) public {... */\n    tag_6:\n      tag_18\n      0x04\n      dup1\n      calldatasize\n      sub\n      dup2\n      add\n      swap1\n      tag_19\n      swap2\n      swap1\n      tag_10\n      jump\t// in\n    tag_19:\n      tag_20\n      jump\t// in\n    tag_18:\n      stop\n        /* \"exercises/calculator.sol\":423:496  function getResult() view public returns (int){... */\n    tag_7:\n      tag_21\n      tag_22\n      jump\t// in\n    tag_21:\n      mload(0x40)\n      tag_23\n      swap2\n      swap1\n      tag_24\n      jump\t// in\n    tag_23:\n      mload(0x40)\n      dup1\n      swap2\n      sub\n      swap1\n      return\n        /* \"exercises/calculator.sol\":269:325  function multiply(int a) public{... */\n    tag_11:\n        /* \"exercises/calculator.sol\":317:318  a */\n      dup1\n        /* \"exercises/calculator.sol\":310:313  res */\n      0x00\n      dup1\n        /* \"exercises/calculator.sol\":310:318  res *= a */\n      dup3\n      dup3\n      sload\n      tag_26\n      swap2\n      swap1\n      tag_27\n      jump\t// in\n    tag_26:\n      swap3\n      pop\n      pop\n      dup2\n      swap1\n      sstore\n      pop\n        /* \"exercises/calculator.sol\":269:325  function multiply(int a) public{... */\n      pop\n      jump\t// out\n        /* \"exercises/calculator.sol\":148:200  function add(int a) public {... */\n    tag_14:\n        /* \"exercises/calculator.sol\":192:193  a */\n      dup1\n        /* \"exercises/calculator.sol\":185:188  res */\n      0x00\n      dup1\n        /* \"exercises/calculator.sol\":185:193  res += a */\n      dup3\n      dup3\n      sload\n      tag_29\n      swap2\n      swap1\n      tag_30\n      jump\t// in\n    tag_29:\n      swap3\n      pop\n      pop\n      dup2\n      swap1\n      sstore\n      pop\n        /* \"exercises/calculator.sol\":148:200  function add(int a) public {... */\n      pop\n      jump\t// out\n        /* \"exercises/calculator.sol\":331:417  function divide(int a) public{... */\n    tag_17:\n        /* \"exercises/calculator.sol\":376:377  0 */\n      0x00\n        /* \"exercises/calculator.sol\":373:374  a */\n      dup2\n        /* \"exercises/calculator.sol\":373:377  a!=0 */\n      eq\n        /* \"exercises/calculator.sol\":370:411  if(a!=0){... */\n      tag_32\n      jumpi\n        /* \"exercises/calculator.sol\":399:400  a */\n      dup1\n        /* \"exercises/calculator.sol\":392:395  res */\n      0x00\n      dup1\n        /* \"exercises/calculator.sol\":392:400  res /= a */\n      dup3\n      dup3\n      sload\n      tag_33\n      swap2\n      swap1\n      tag_34\n      jump\t// in\n    tag_33:\n      swap3\n      pop\n      pop\n      dup2\n      swap1\n      sstore\n      pop\n        /* \"exercises/calculator.sol\":370:411  if(a!=0){... */\n    tag_32:\n        /* \"exercises/calculator.sol\":331:417  function divide(int a) public{... */\n      pop\n      jump\t// out\n        /* \"exercises/calculator.sol\":206:263  function subtract(int a) public {... */\n    tag_20:\n        /* \"exercises/calculator.sol\":255:256  a */\n      dup1\n        /* \"exercises/calculator.sol\":248:251  res */\n      0x00\n      dup1\n        /* \"exercises/calculator.sol\":248:256  res -= a */\n      dup3\n      dup3\n      sload\n      tag_36\n      swap2\n      swap1\n      tag_37\n      jump\t// in\n    tag_36:\n      swap3\n      pop\n      pop\n      dup2\n      swap1\n      sstore\n      pop\n        /* \"exercises/calculator.sol\":206:263  function subtract(int a) public {... */\n      pop\n      jump\t// out\n        /* \"exercises/calculator.sol\":423:496  function getResult() view public returns (int){... */\n    tag_22:\n        /* \"exercises/calculator.sol\":465:468  int */\n      0x00\n        /* \"exercises/calculator.sol\":486:489  res */\n      dup1\n      sload\n        /* \"exercises/calculator.sol\":479:489  return res */\n      swap1\n      pop\n        /* \"exercises/calculator.sol\":423:496  function getResult() view public returns (int){... */\n      swap1\n      jump\t// out\n        /* \"#utility.yul\":7:144   */\n    tag_40:\n      0x00\n        /* \"#utility.yul\":90:96   */\n      dup2\n        /* \"#utility.yul\":77:97   */\n      calldataload\n        /* \"#utility.yul\":68:97   */\n      swap1\n      pop\n        /* \"#utility.yul\":106:138   */\n      tag_42\n        /* \"#utility.yul\":132:137   */\n      dup2\n        /* \"#utility.yul\":106:138   */\n      tag_43\n      jump\t// in\n    tag_42:\n        /* \"#utility.yul\":58:144   */\n      swap3\n      swap2\n      pop\n      pop\n      jump\t// out\n        /* \"#utility.yul\":150:410   */\n    tag_10:\n      0x00\n        /* \"#utility.yul\":257:259   */\n      0x20\n        /* \"#utility.yul\":245:254   */\n      dup3\n        /* \"#utility.yul\":236:243   */\n      dup5\n        /* \"#utility.yul\":232:255   */\n      sub\n        /* \"#utility.yul\":228:260   */\n      slt\n        /* \"#utility.yul\":225:227   */\n      iszero\n      tag_45\n      jumpi\n        /* \"#utility.yul\":273:274   */\n      0x00\n        /* \"#utility.yul\":270:271   */\n      dup1\n        /* \"#utility.yul\":263:275   */\n      revert\n        /* \"#utility.yul\":225:227   */\n    tag_45:\n        /* \"#utility.yul\":316:317   */\n      0x00\n        /* \"#utility.yul\":341:393   */\n      tag_46\n        /* \"#utility.yul\":385:392   */\n      dup5\n        /* \"#utility.yul\":376:382   */\n      dup3\n        /* \"#utility.yul\":365:374   */\n      dup6\n        /* \"#utility.yul\":361:383   */\n      add\n        /* \"#utility.yul\":341:393   */\n      tag_40\n      jump\t// in\n    tag_46:\n        /* \"#utility.yul\":331:393   */\n      swap2\n      pop\n        /* \"#utility.yul\":287:403   */\n      pop\n        /* \"#utility.yul\":215:410   */\n      swap3\n      swap2\n      pop\n      pop\n      jump\t// out\n        /* \"#utility.yul\":416:531   */\n    tag_47:\n        /* \"#utility.yul\":501:524   */\n      tag_49\n        /* \"#utility.yul\":518:523   */\n      dup2\n        /* \"#utility.yul\":501:524   */\n      tag_50\n      jump\t// in\n    tag_49:\n        /* \"#utility.yul\":496:499   */\n      dup3\n        /* \"#utility.yul\":489:525   */\n      mstore\n        /* \"#utility.yul\":479:531   */\n      pop\n      pop\n      jump\t// out\n        /* \"#utility.yul\":537:755   */\n    tag_24:\n      0x00\n        /* \"#utility.yul\":666:668   */\n      0x20\n        /* \"#utility.yul\":655:664   */\n      dup3\n        /* \"#utility.yul\":651:669   */\n      add\n        /* \"#utility.yul\":643:669   */\n      swap1\n      pop\n        /* \"#utility.yul\":679:748   */\n      tag_52\n        /* \"#utility.yul\":745:746   */\n      0x00\n        /* \"#utility.yul\":734:743   */\n      dup4\n        /* \"#utility.yul\":730:747   */\n      add\n        /* \"#utility.yul\":721:727   */\n      dup5\n        /* \"#utility.yul\":679:748   */\n      tag_47\n      jump\t// in\n    tag_52:\n        /* \"#utility.yul\":633:755   */\n      swap3\n      swap2\n      pop\n      pop\n      jump\t// out\n        /* \"#utility.yul\":761:1286   */\n    tag_30:\n      0x00\n        /* \"#utility.yul\":819:838   */\n      tag_54\n        /* \"#utility.yul\":836:837   */\n      dup3\n        /* \"#utility.yul\":819:838   */\n      tag_50\n      jump\t// in\n    tag_54:\n        /* \"#utility.yul\":814:838   */\n      swap2\n      pop\n        /* \"#utility.yul\":852:871   */\n      tag_55\n        /* \"#utility.yul\":869:870   */\n      dup4\n        /* \"#utility.yul\":852:871   */\n      tag_50\n      jump\t// in\n    tag_55:\n        /* \"#utility.yul\":847:871   */\n      swap3\n      pop\n        /* \"#utility.yul\":1040:1041   */\n      dup2\n        /* \"#utility.yul\":972:1038   */\n      0x7fffffffffffffffffffffffffffffffffffffffffffffffffffffffffffffff\n        /* \"#utility.yul\":968:1042   */\n      sub\n        /* \"#utility.yul\":965:966   */\n      dup4\n        /* \"#utility.yul\":961:1043   */\n      sgt\n        /* \"#utility.yul\":956:957   */\n      0x00\n        /* \"#utility.yul\":953:954   */\n      dup4\n        /* \"#utility.yul\":949:958   */\n      slt\n        /* \"#utility.yul\":942:959   */\n      iszero\n        /* \"#utility.yul\":938:1044   */\n      and\n        /* \"#utility.yul\":935:937   */\n      iszero\n      tag_56\n      jumpi\n        /* \"#utility.yul\":1047:1065   */\n      tag_57\n      tag_58\n      jump\t// in\n    tag_57:\n        /* \"#utility.yul\":935:937   */\n    tag_56:\n        /* \"#utility.yul\":1227:1228   */\n      dup2\n        /* \"#utility.yul\":1159:1225   */\n      0x8000000000000000000000000000000000000000000000000000000000000000\n        /* \"#utility.yul\":1155:1229   */\n      sub\n        /* \"#utility.yul\":1152:1153   */\n      dup4\n        /* \"#utility.yul\":1148:1230   */\n      slt\n        /* \"#utility.yul\":1144:1145   */\n      0x00\n        /* \"#utility.yul\":1141:1142   */\n      dup4\n        /* \"#utility.yul\":1137:1146   */\n      slt\n        /* \"#utility.yul\":1133:1231   */\n      and\n        /* \"#utility.yul\":1130:1132   */\n      iszero\n      tag_59\n      jumpi\n        /* \"#utility.yul\":1234:1252   */\n      tag_60\n      tag_58\n      jump\t// in\n    tag_60:\n        /* \"#utility.yul\":1130:1132   */\n    tag_59:\n        /* \"#utility.yul\":1278:1279   */\n      dup3\n        /* \"#utility.yul\":1275:1276   */\n      dup3\n        /* \"#utility.yul\":1271:1280   */\n      add\n        /* \"#utility.yul\":1264:1280   */\n      swap1\n      pop\n        /* \"#utility.yul\":804:1286   */\n      swap3\n      swap2\n      pop\n      pop\n      jump\t// out\n        /* \"#utility.yul\":1292:1677   */\n    tag_34:\n      0x00\n        /* \"#utility.yul\":1348:1367   */\n      tag_62\n        /* \"#utility.yul\":1365:1366   */\n      dup3\n        /* \"#utility.yul\":1348:1367   */\n      tag_50\n      jump\t// in\n    tag_62:\n        /* \"#utility.yul\":1343:1367   */\n      swap2\n      pop\n        /* \"#utility.yul\":1381:1400   */\n      tag_63\n        /* \"#utility.yul\":1398:1399   */\n      dup4\n        /* \"#utility.yul\":1381:1400   */\n      tag_50\n      jump\t// in\n    tag_63:\n        /* \"#utility.yul\":1376:1400   */\n      swap3\n      pop\n        /* \"#utility.yul\":1419:1420   */\n      dup3\n        /* \"#utility.yul\":1409:1411   */\n      tag_64\n      jumpi\n        /* \"#utility.yul\":1424:1442   */\n      tag_65\n      tag_66\n      jump\t// in\n    tag_65:\n        /* \"#utility.yul\":1409:1411   */\n    tag_64:\n        /* \"#utility.yul\":1610:1611   */\n      0x01\n        /* \"#utility.yul\":1607:1608   */\n      0x00\n        /* \"#utility.yul\":1603:1612   */\n      sub\n        /* \"#utility.yul\":1600:1601   */\n      dup4\n        /* \"#utility.yul\":1597:1613   */\n      eq\n        /* \"#utility.yul\":1516:1582   */\n      0x8000000000000000000000000000000000000000000000000000000000000000\n        /* \"#utility.yul\":1513:1514   */\n      dup4\n        /* \"#utility.yul\":1510:1583   */\n      eq\n        /* \"#utility.yul\":1493:1623   */\n      and\n        /* \"#utility.yul\":1490:1492   */\n      iszero\n      tag_67\n      jumpi\n        /* \"#utility.yul\":1626:1644   */\n      tag_68\n      tag_58\n      jump\t// in\n    tag_68:\n        /* \"#utility.yul\":1490:1492   */\n    tag_67:\n        /* \"#utility.yul\":1669:1670   */\n      dup3\n        /* \"#utility.yul\":1666:1667   */\n      dup3\n        /* \"#utility.yul\":1661:1671   */\n      sdiv\n        /* \"#utility.yul\":1656:1671   */\n      swap1\n      pop\n        /* \"#utility.yul\":1333:1677   */\n      swap3\n      swap2\n      pop\n      pop\n      jump\t// out\n        /* \"#utility.yul\":1683:2674   */\n    tag_27:\n      0x00\n        /* \"#utility.yul\":1745:1764   */\n      tag_70\n        /* \"#utility.yul\":1762:1763   */\n      dup3\n        /* \"#utility.yul\":1745:1764   */\n      tag_50\n      jump\t// in\n    tag_70:\n        /* \"#utility.yul\":1740:1764   */\n      swap2\n      pop\n        /* \"#utility.yul\":1778:1797   */\n      tag_71\n        /* \"#utility.yul\":1795:1796   */\n      dup4\n        /* \"#utility.yul\":1778:1797   */\n      tag_50\n      jump\t// in\n    tag_71:\n        /* \"#utility.yul\":1773:1797   */\n      swap3\n      pop\n        /* \"#utility.yul\":1979:1980   */\n      dup3\n        /* \"#utility.yul\":1911:1977   */\n      0x7fffffffffffffffffffffffffffffffffffffffffffffffffffffffffffffff\n        /* \"#utility.yul\":1907:1981   */\n      div\n        /* \"#utility.yul\":1904:1905   */\n      dup3\n        /* \"#utility.yul\":1901:1982   */\n      gt\n        /* \"#utility.yul\":1896:1897   */\n      0x00\n        /* \"#utility.yul\":1893:1894   */\n      dup5\n        /* \"#utility.yul\":1889:1898   */\n      sgt\n        /* \"#utility.yul\":1885:1886   */\n      0x00\n        /* \"#utility.yul\":1882:1883   */\n      dup5\n        /* \"#utility.yul\":1878:1887   */\n      sgt\n        /* \"#utility.yul\":1874:1899   */\n      and\n        /* \"#utility.yul\":1870:1983   */\n      and\n        /* \"#utility.yul\":1867:1869   */\n      iszero\n      tag_72\n      jumpi\n        /* \"#utility.yul\":1986:2004   */\n      tag_73\n      tag_58\n      jump\t// in\n    tag_73:\n        /* \"#utility.yul\":1867:1869   */\n    tag_72:\n        /* \"#utility.yul\":2190:2191   */\n      dup2\n        /* \"#utility.yul\":2122:2188   */\n      0x8000000000000000000000000000000000000000000000000000000000000000\n        /* \"#utility.yul\":2117:2192   */\n      sdiv\n        /* \"#utility.yul\":2114:2115   */\n      dup4\n        /* \"#utility.yul\":2110:2193   */\n      slt\n        /* \"#utility.yul\":2105:2106   */\n      0x00\n        /* \"#utility.yul\":2102:2103   */\n      dup5\n        /* \"#utility.yul\":2098:2107   */\n      slt\n        /* \"#utility.yul\":2094:2095   */\n      0x00\n        /* \"#utility.yul\":2091:2092   */\n      dup5\n        /* \"#utility.yul\":2087:2096   */\n      sgt\n        /* \"#utility.yul\":2083:2108   */\n      and\n        /* \"#utility.yul\":2079:2194   */\n      and\n        /* \"#utility.yul\":2076:2078   */\n      iszero\n      tag_74\n      jumpi\n        /* \"#utility.yul\":2197:2215   */\n      tag_75\n      tag_58\n      jump\t// in\n    tag_75:\n        /* \"#utility.yul\":2076:2078   */\n    tag_74:\n        /* \"#utility.yul\":2401:2402   */\n      dup3\n        /* \"#utility.yul\":2333:2399   */\n      0x8000000000000000000000000000000000000000000000000000000000000000\n        /* \"#utility.yul\":2328:2403   */\n      sdiv\n        /* \"#utility.yul\":2325:2326   */\n      dup3\n        /* \"#utility.yul\":2321:2404   */\n      slt\n        /* \"#utility.yul\":2316:2317   */\n      0x00\n        /* \"#utility.yul\":2313:2314   */\n      dup5\n        /* \"#utility.yul\":2309:2318   */\n      sgt\n        /* \"#utility.yul\":2305:2306   */\n      0x00\n        /* \"#utility.yul\":2302:2303   */\n      dup5\n        /* \"#utility.yul\":2298:2307   */\n      slt\n        /* \"#utility.yul\":2294:2319   */\n      and\n        /* \"#utility.yul\":2290:2405   */\n      and\n        /* \"#utility.yul\":2287:2289   */\n      iszero\n      tag_76\n      jumpi\n        /* \"#utility.yul\":2408:2426   */\n      tag_77\n      tag_58\n      jump\t// in\n    tag_77:\n        /* \"#utility.yul\":2287:2289   */\n    tag_76:\n        /* \"#utility.yul\":2611:2612   */\n      dup3\n        /* \"#utility.yul\":2543:2609   */\n      0x7fffffffffffffffffffffffffffffffffffffffffffffffffffffffffffffff\n        /* \"#utility.yul\":2538:2613   */\n      sdiv\n        /* \"#utility.yul\":2535:2536   */\n      dup3\n        /* \"#utility.yul\":2531:2614   */\n      slt\n        /* \"#utility.yul\":2526:2527   */\n      0x00\n        /* \"#utility.yul\":2523:2524   */\n      dup5\n        /* \"#utility.yul\":2519:2528   */\n      slt\n        /* \"#utility.yul\":2515:2516   */\n      0x00\n        /* \"#utility.yul\":2512:2513   */\n      dup5\n        /* \"#utility.yul\":2508:2517   */\n      slt\n        /* \"#utility.yul\":2504:2529   */\n      and\n        /* \"#utility.yul\":2500:2615   */\n      and\n        /* \"#utility.yul\":2497:2499   */\n      iszero\n      tag_78\n      jumpi\n        /* \"#utility.yul\":2618:2636   */\n      tag_79\n      tag_58\n      jump\t// in\n    tag_79:\n        /* \"#utility.yul\":2497:2499   */\n    tag_78:\n        /* \"#utility.yul\":2666:2667   */\n      dup3\n        /* \"#utility.yul\":2663:2664   */\n      dup3\n        /* \"#utility.yul\":2659:2668   */\n      mul\n        /* \"#utility.yul\":2648:2668   */\n      swap1\n      pop\n        /* \"#utility.yul\":1730:2674   */\n      swap3\n      swap2\n      pop\n      pop\n      jump\t// out\n        /* \"#utility.yul\":2680:3207   */\n    tag_37:\n      0x00\n        /* \"#utility.yul\":2739:2758   */\n      tag_81\n        /* \"#utility.yul\":2756:2757   */\n      dup3\n        /* \"#utility.yul\":2739:2758   */\n      tag_50\n      jump\t// in\n    tag_81:\n        /* \"#utility.yul\":2734:2758   */\n      swap2\n      pop\n        /* \"#utility.yul\":2772:2791   */\n      tag_82\n        /* \"#utility.yul\":2789:2790   */\n      dup4\n        /* \"#utility.yul\":2772:2791   */\n      tag_50\n      jump\t// in\n    tag_82:\n        /* \"#utility.yul\":2767:2791   */\n      swap3\n      pop\n        /* \"#utility.yul\":2961:2962   */\n      dup3\n        /* \"#utility.yul\":2893:2959   */\n      0x8000000000000000000000000000000000000000000000000000000000000000\n        /* \"#utility.yul\":2889:2963   */\n      add\n        /* \"#utility.yul\":2886:2887   */\n      dup3\n        /* \"#utility.yul\":2882:2964   */\n      slt\n        /* \"#utility.yul\":2877:2878   */\n      0x00\n        /* \"#utility.yul\":2874:2875   */\n      dup5\n        /* \"#utility.yul\":2870:2879   */\n      slt\n        /* \"#utility.yul\":2863:2880   */\n      iszero\n        /* \"#utility.yul\":2859:2965   */\n      and\n        /* \"#utility.yul\":2856:2858   */\n      iszero\n      tag_83\n      jumpi\n        /* \"#utility.yul\":2968:2986   */\n      tag_84\n      tag_58\n      jump\t// in\n    tag_84:\n        /* \"#utility.yul\":2856:2858   */\n    tag_83:\n        /* \"#utility.yul\":3147:3148   */\n      dup3\n        /* \"#utility.yul\":3079:3145   */\n      0x7fffffffffffffffffffffffffffffffffffffffffffffffffffffffffffffff\n        /* \"#utility.yul\":3075:3149   */\n      add\n        /* \"#utility.yul\":3072:3073   */\n      dup3\n        /* \"#utility.yul\":3068:3150   */\n      sgt\n        /* \"#utility.yul\":3064:3065   */\n      0x00\n        /* \"#utility.yul\":3061:3062   */\n      dup5\n        /* \"#utility.yul\":3057:3066   */\n      slt\n        /* \"#utility.yul\":3053:3151   */\n      and\n        /* \"#utility.yul\":3050:3052   */\n      iszero\n      tag_85\n      jumpi\n        /* \"#utility.yul\":3154:3172   */\n      tag_86\n      tag_58\n      jump\t// in\n    tag_86:\n        /* \"#utility.yul\":3050:3052   */\n    tag_85:\n        /* \"#utility.yul\":3199:3200   */\n      dup3\n        /* \"#utility.yul\":3196:3197   */\n      dup3\n        /* \"#utility.yul\":3192:3201   */\n      sub\n        /* \"#utility.yul\":3184:3201   */\n      swap1\n      pop\n        /* \"#utility.yul\":2724:3207   */\n      swap3\n      swap2\n      pop\n      pop\n      jump\t// out\n        /* \"#utility.yul\":3213:3289   */\n    tag_50:\n      0x00\n        /* \"#utility.yul\":3278:3283   */\n      dup2\n        /* \"#utility.yul\":3267:3283   */\n      swap1\n      pop\n        /* \"#utility.yul\":3257:3289   */\n      swap2\n      swap1\n      pop\n      jump\t// out\n        /* \"#utility.yul\":3295:3475   */\n    tag_58:\n        /* \"#utility.yul\":3343:3420   */\n      0x4e487b7100000000000000000000000000000000000000000000000000000000\n        /* \"#utility.yul\":3340:3341   */\n      0x00\n        /* \"#utility.yul\":3333:3421   */\n      mstore\n        /* \"#utility.yul\":3440:3444   */\n      0x11\n        /* \"#utility.yul\":3437:3438   */\n      0x04\n        /* \"#utility.yul\":3430:3445   */\n      mstore\n        /* \"#utility.yul\":3464:3468   */\n      0x24\n        /* \"#utility.yul\":3461:3462   */\n      0x00\n        /* \"#utility.yul\":3454:3469   */\n      revert\n        /* \"#utility.yul\":3481:3661   */\n    tag_66:\n        /* \"#utility.yul\":3529:3606   */\n      0x4e487b7100000000000000000000000000000000000000000000000000000000\n        /* \"#utility.yul\":3526:3527   */\n      0x00\n        /* \"#utility.yul\":3519:3607   */\n      mstore\n        /* \"#utility.yul\":3626:3630   */\n      0x12\n        /* \"#utility.yul\":3623:3624   */\n      0x04\n        /* \"#utility.yul\":3616:3631   */\n      mstore\n        /* \"#utility.yul\":3650:3654   */\n      0x24\n        /* \"#utility.yul\":3647:3648   */\n      0x00\n        /* \"#utility.yul\":3640:3655   */\n      revert\n        /* \"#utility.yul\":3667:3787   */\n    tag_43:\n        /* \"#utility.yul\":3739:3762   */\n      tag_91\n        /* \"#utility.yul\":3756:3761   */\n      dup2\n        /* \"#utility.yul\":3739:3762   */\n      tag_50\n      jump\t// in\n    tag_91:\n        /* \"#utility.yul\":3732:3737   */\n      dup2\n        /* \"#utility.yul\":3729:3763   */\n      eq\n        /* \"#utility.yul\":3719:3721   */\n      tag_92\n      jumpi\n        /* \"#utility.yul\":3777:3778   */\n      0x00\n        /* \"#utility.yul\":3774:3775   */\n      dup1\n        /* \"#utility.yul\":3767:3779   */\n      revert\n        /* \"#utility.yul\":3719:3721   */\n    tag_92:\n        /* \"#utility.yul\":3709:3787   */\n      pop\n      jump\t// out\n\n    auxdata: 0xa2646970667358221220ba2ec92fe85ea7d7e3299e3c6c6ca0de216d317879a659488df2b20acfd9a61164736f6c63430008000033\n}\n",
				"bytecode": {
					"linkReferences": {},
					"object": "608060405234801561001057600080fd5b506000808190555061052e806100276000396000f3fe608060405234801561001057600080fd5b50600436106100575760003560e01c80631df4f1441461005c57806387db03b714610078578063aaa044dc14610094578063ae0f6166146100b0578063de292789146100cc575b600080fd5b6100766004803603810190610071919061017d565b6100ea565b005b610092600480360381019061008d919061017d565b610105565b005b6100ae60048036038101906100a9919061017d565b610120565b005b6100ca60048036038101906100c5919061017d565b610144565b005b6100d461015f565b6040516100e191906101b5565b60405180910390f35b806000808282546100fb91906102ce565b9250508190555050565b8060008082825461011691906101d0565b9250508190555050565b6000811461014157806000808282546101399190610264565b925050819055505b50565b8060008082825461015591906103e5565b9250508190555050565b60008054905090565b600081359050610177816104e1565b92915050565b60006020828403121561018f57600080fd5b600061019d84828501610168565b91505092915050565b6101af81610479565b82525050565b60006020820190506101ca60008301846101a6565b92915050565b60006101db82610479565b91506101e683610479565b9250817f7fffffffffffffffffffffffffffffffffffffffffffffffffffffffffffffff0383136000831215161561022157610220610483565b5b817f800000000000000000000000000000000000000000000000000000000000000003831260008312161561025957610258610483565b5b828201905092915050565b600061026f82610479565b915061027a83610479565b92508261028a576102896104b2565b5b600160000383147f8000000000000000000000000000000000000000000000000000000000000000831416156102c3576102c2610483565b5b828205905092915050565b60006102d982610479565b91506102e483610479565b9250827f7fffffffffffffffffffffffffffffffffffffffffffffffffffffffffffffff048211600084136000841316161561032357610322610483565b5b817f800000000000000000000000000000000000000000000000000000000000000005831260008412600084131616156103605761035f610483565b5b827f8000000000000000000000000000000000000000000000000000000000000000058212600084136000841216161561039d5761039c610483565b5b827f7fffffffffffffffffffffffffffffffffffffffffffffffffffffffffffffff05821260008412600084121616156103da576103d9610483565b5b828202905092915050565b60006103f082610479565b91506103fb83610479565b9250827f80000000000000000000000000000000000000000000000000000000000000000182126000841215161561043657610435610483565b5b827f7fffffffffffffffffffffffffffffffffffffffffffffffffffffffffffffff01821360008412161561046e5761046d610483565b5b828203905092915050565b6000819050919050565b7f4e487b7100000000000000000000000000000000000000000000000000000000600052601160045260246000fd5b7f4e487b7100000000000000000000000000000000000000000000000000000000600052601260045260246000fd5b6104ea81610479565b81146104f557600080fd5b5056fea2646970667358221220ba2ec92fe85ea7d7e3299e3c6c6ca0de216d317879a659488df2b20acfd9a61164736f6c63430008000033",
					"opcodes": "PUSH1 0x80 PUSH1 0x40 MSTORE CALLVALUE DUP1 ISZERO PUSH2 0x10 JUMPI PUSH1 0x0 DUP1 REVERT JUMPDEST POP PUSH1 0x0 DUP1 DUP2 SWAP1 SSTORE POP PUSH2 0x52E DUP1 PUSH2 0x27 PUSH1 0x0 CODECOPY PUSH1 0x0 RETURN INVALID PUSH1 0x80 PUSH1 0x40 MSTORE CALLVALUE DUP1 ISZERO PUSH2 0x10 JUMPI PUSH1 0x0 DUP1 REVERT JUMPDEST POP PUSH1 0x4 CALLDATASIZE LT PUSH2 0x57 JUMPI PUSH1 0x0 CALLDATALOAD PUSH1 0xE0 SHR DUP1 PUSH4 0x1DF4F144 EQ PUSH2 0x5C JUMPI DUP1 PUSH4 0x87DB03B7 EQ PUSH2 0x78 JUMPI DUP1 PUSH4 0xAAA044DC EQ PUSH2 0x94 JUMPI DUP1 PUSH4 0xAE0F6166 EQ PUSH2 0xB0 JUMPI DUP1 PUSH4 0xDE292789 EQ PUSH2 0xCC JUMPI JUMPDEST PUSH1 0x0 DUP1 REVERT JUMPDEST PUSH2 0x76 PUSH1 0x4 DUP1 CALLDATASIZE SUB DUP2 ADD SWAP1 PUSH2 0x71 SWAP2 SWAP1 PUSH2 0x17D JUMP JUMPDEST PUSH2 0xEA JUMP JUMPDEST STOP JUMPDEST PUSH2 0x92 PUSH1 0x4 DUP1 CALLDATASIZE SUB DUP2 ADD SWAP1 PUSH2 0x8D SWAP2 SWAP1 PUSH2 0x17D JUMP JUMPDEST PUSH2 0x105 JUMP JUMPDEST STOP JUMPDEST PUSH2 0xAE PUSH1 0x4 DUP1 CALLDATASIZE SUB DUP2 ADD SWAP1 PUSH2 0xA9 SWAP2 SWAP1 PUSH2 0x17D JUMP JUMPDEST PUSH2 0x120 JUMP JUMPDEST STOP JUMPDEST PUSH2 0xCA PUSH1 0x4 DUP1 CALLDATASIZE SUB DUP2 ADD SWAP1 PUSH2 0xC5 SWAP2 SWAP1 PUSH2 0x17D JUMP JUMPDEST PUSH2 0x144 JUMP JUMPDEST STOP JUMPDEST PUSH2 0xD4 PUSH2 0x15F JUMP JUMPDEST PUSH1 0x40 MLOAD PUSH2 0xE1 SWAP2 SWAP1 PUSH2 0x1B5 JUMP JUMPDEST PUSH1 0x40 MLOAD DUP1 SWAP2 SUB SWAP1 RETURN JUMPDEST DUP1 PUSH1 0x0 DUP1 DUP3 DUP3 SLOAD PUSH2 0xFB SWAP2 SWAP1 PUSH2 0x2CE JUMP JUMPDEST SWAP3 POP POP DUP2 SWAP1 SSTORE POP POP JUMP JUMPDEST DUP1 PUSH1 0x0 DUP1 DUP3 DUP3 SLOAD PUSH2 0x116 SWAP2 SWAP1 PUSH2 0x1D0 JUMP JUMPDEST SWAP3 POP POP DUP2 SWAP1 SSTORE POP POP JUMP JUMPDEST PUSH1 0x0 DUP2 EQ PUSH2 0x141 JUMPI DUP1 PUSH1 0x0 DUP1 DUP3 DUP3 SLOAD PUSH2 0x139 SWAP2 SWAP1 PUSH2 0x264 JUMP JUMPDEST SWAP3 POP POP DUP2 SWAP1 SSTORE POP JUMPDEST POP JUMP JUMPDEST DUP1 PUSH1 0x0 DUP1 DUP3 DUP3 SLOAD PUSH2 0x155 SWAP2 SWAP1 PUSH2 0x3E5 JUMP JUMPDEST SWAP3 POP POP DUP2 SWAP1 SSTORE POP POP JUMP JUMPDEST PUSH1 0x0 DUP1 SLOAD SWAP1 POP SWAP1 JUMP JUMPDEST PUSH1 0x0 DUP2 CALLDATALOAD SWAP1 POP PUSH2 0x177 DUP2 PUSH2 0x4E1 JUMP JUMPDEST SWAP3 SWAP2 POP POP JUMP JUMPDEST PUSH1 0x0 PUSH1 0x20 DUP3 DUP5 SUB SLT ISZERO PUSH2 0x18F JUMPI PUSH1 0x0 DUP1 REVERT JUMPDEST PUSH1 0x0 PUSH2 0x19D DUP5 DUP3 DUP6 ADD PUSH2 0x168 JUMP JUMPDEST SWAP2 POP POP SWAP3 SWAP2 POP POP JUMP JUMPDEST PUSH2 0x1AF DUP2 PUSH2 0x479 JUMP JUMPDEST DUP3 MSTORE POP POP JUMP JUMPDEST PUSH1 0x0 PUSH1 0x20 DUP3 ADD SWAP1 POP PUSH2 0x1CA PUSH1 0x0 DUP4 ADD DUP5 PUSH2 0x1A6 JUMP JUMPDEST SWAP3 SWAP2 POP POP JUMP JUMPDEST PUSH1 0x0 PUSH2 0x1DB DUP3 PUSH2 0x479 JUMP JUMPDEST SWAP2 POP PUSH2 0x1E6 DUP4 PUSH2 0x479 JUMP JUMPDEST SWAP3 POP DUP2 PUSH32 0x7FFFFFFFFFFFFFFFFFFFFFFFFFFFFFFFFFFFFFFFFFFFFFFFFFFFFFFFFFFFFFFF SUB DUP4 SGT PUSH1 0x0 DUP4 SLT ISZERO AND ISZERO PUSH2 0x221 JUMPI PUSH2 0x220 PUSH2 0x483 JUMP JUMPDEST JUMPDEST DUP2 PUSH32 0x8000000000000000000000000000000000000000000000000000000000000000 SUB DUP4 SLT PUSH1 0x0 DUP4 SLT AND ISZERO PUSH2 0x259 JUMPI PUSH2 0x258 PUSH2 0x483 JUMP JUMPDEST JUMPDEST DUP3 DUP3 ADD SWAP1 POP SWAP3 SWAP2 POP POP JUMP JUMPDEST PUSH1 0x0 PUSH2 0x26F DUP3 PUSH2 0x479 JUMP JUMPDEST SWAP2 POP PUSH2 0x27A DUP4 PUSH2 0x479 JUMP JUMPDEST SWAP3 POP DUP3 PUSH2 0x28A JUMPI PUSH2 0x289 PUSH2 0x4B2 JUMP JUMPDEST JUMPDEST PUSH1 0x1 PUSH1 0x0 SUB DUP4 EQ PUSH32 0x8000000000000000000000000000000000000000000000000000000000000000 DUP4 EQ AND ISZERO PUSH2 0x2C3 JUMPI PUSH2 0x2C2 PUSH2 0x483 JUMP JUMPDEST JUMPDEST DUP3 DUP3 SDIV SWAP1 POP SWAP3 SWAP2 POP POP JUMP JUMPDEST PUSH1 0x0 PUSH2 0x2D9 DUP3 PUSH2 0x479 JUMP JUMPDEST SWAP2 POP PUSH2 0x2E4 DUP4 PUSH2 0x479 JUMP JUMPDEST SWAP3 POP DUP3 PUSH32 0x7FFFFFFFFFFFFFFFFFFFFFFFFFFFFFFFFFFFFFFFFFFFFFFFFFFFFFFFFFFFFFFF DIV DUP3 GT PUSH1 0x0 DUP5 SGT PUSH1 0x0 DUP5 SGT AND AND ISZERO PUSH2 0x323 JUMPI PUSH2 0x322 PUSH2 0x483 JUMP JUMPDEST JUMPDEST DUP2 PUSH32 0x8000000000000000000000000000000000000000000000000000000000000000 SDIV DUP4 SLT PUSH1 0x0 DUP5 SLT PUSH1 0x0 DUP5 SGT AND AND ISZERO PUSH2 0x360 JUMPI PUSH2 0x35F PUSH2 0x483 JUMP JUMPDEST JUMPDEST DUP3 PUSH32 0x8000000000000000000000000000000000000000000000000000000000000000 SDIV DUP3 SLT PUSH1 0x0 DUP5 SGT PUSH1 0x0 DUP5 SLT AND AND ISZERO PUSH2 0x39D JUMPI PUSH2 0x39C PUSH2 0x483 JUMP JUMPDEST JUMPDEST DUP3 PUSH32 0x7FFFFFFFFFFFFFFFFFFFFFFFFFFFFFFFFFFFFFFFFFFFFFFFFFFFFFFFFFFFFFFF SDIV DUP3 SLT PUSH1 0x0 DUP5 SLT PUSH1 0x0 DUP5 SLT AND AND ISZERO PUSH2 0x3DA JUMPI PUSH2 0x3D9 PUSH2 0x483 JUMP JUMPDEST JUMPDEST DUP3 DUP3 MUL SWAP1 POP SWAP3 SWAP2 POP POP JUMP JUMPDEST PUSH1 0x0 PUSH2 0x3F0 DUP3 PUSH2 0x479 JUMP JUMPDEST SWAP2 POP PUSH2 0x3FB DUP4 PUSH2 0x479 JUMP JUMPDEST SWAP3 POP DUP3 PUSH32 0x8000000000000000000000000000000000000000000000000000000000000000 ADD DUP3 SLT PUSH1 0x0 DUP5 SLT ISZERO AND ISZERO PUSH2 0x436 JUMPI PUSH2 0x435 PUSH2 0x483 JUMP JUMPDEST JUMPDEST DUP3 PUSH32 0x7FFFFFFFFFFFFFFFFFFFFFFFFFFFFFFFFFFFFFFFFFFFFFFFFFFFFFFFFFFFFFFF ADD DUP3 SGT PUSH1 0x0 DUP5 SLT AND ISZERO PUSH2 0x46E JUMPI PUSH2 0x46D PUSH2 0x483 JUMP JUMPDEST JUMPDEST DUP3 DUP3 SUB SWAP1 POP SWAP3 SWAP2 POP POP JUMP JUMPDEST PUSH1 0x0 DUP2 SWAP1 POP SWAP2 SWAP1 POP JUMP JUMPDEST PUSH32 0x4E487B7100000000000000000000000000000000000000000000000000000000 PUSH1 0x0 MSTORE PUSH1 0x11 PUSH1 0x4 MSTORE PUSH1 0x24 PUSH1 0x0 REVERT JUMPDEST PUSH32 0x4E487B7100000000000000000000000000000000000000000000000000000000 PUSH1 0x0 MSTORE PUSH1 0x12 PUSH1 0x4 MSTORE PUSH1 0x24 PUSH1 0x0 REVERT JUMPDEST PUSH2 0x4EA DUP2 PUSH2 0x479 JUMP JUMPDEST DUP2 EQ PUSH2 0x4F5 JUMPI PUSH1 0x0 DUP1 REVERT JUMPDEST POP JUMP INVALID LOG2 PUSH5 0x6970667358 0x22 SLT KECCAK256 0xBA 0x2E 0xC9 0x2F 0xE8 0x5E 0xA7 0xD7 0xE3 0x29 SWAP15 EXTCODECOPY PUSH13 0x6CA0DE216D317879A659488DF2 0xB2 EXP 0xCF 0xD9 0xA6 GT PUSH5 0x736F6C6343 STOP ADDMOD STOP STOP CALLER "
				},
				"gasEstimates": {
					"creation": {
						"codeDepositCost": "265200",
						"executionCost": "5320",
						"totalCost": "270520"
					},
					"external": {
						"add(int256)": "infinite",
						"divide(int256)": "infinite",
						"getResult()": "1203",
						"multiply(int256)": "infinite",
						"subtract(int256)": "infinite"
					}
				},
				"methodIdentifiers": {
					"add(int256)": "87db03b7",
					"divide(int256)": "aaa044dc",
					"getResult()": "de292789",
					"multiply(int256)": "1df4f144",
					"subtract(int256)": "ae0f6166"
				}
			},
			"storageLayout": {
				"storage": [
					{
						"astId": 3,
						"contract": "exercises/calculator.sol:calculator",
						"label": "res",
						"offset": 0,
						"slot": "0",
						"type": "t_int256"
					}
				],
				"types": {
					"t_int256": {
						"encoding": "inplace",
						"label": "int256",
						"numberOfBytes": "32"
					}
				}
			},
			"userdoc": {
				"kind": "user",
				"methods": {},
				"version": 1
			}
		}
	}
}